:020000040000FA
:100000000C9472000C949A000C949A000C949A0030
:100010000C949A000C949A000C949A000C949A00F8
:100020000C949A000C949A000C949A000C949A00E8
:100030000C949A000C949A000C949A000C949A00D8
:100040000C94C50A0C949A000C94350B0C940F0B6D
:100050000C949A000C949A000C949A000C949A00B8
:100060000C94670B0C949A00005EBCE2613FDD8348
:10007000C29C7E20A3FD1F41009D23BE46DB65F888
:100080008C11AF32CA57E974000000002400270029
:100090002A0000000000250028002B0000000008B6
:1000A000000201000003040700000000000000003F
:1000B00000000000230026002900040404040404B6
:1000C0000404020202020202030303030303010207
:1000D00004081020408001020408102001020408D6
:1000E0001020860C11241FBECFEFD8E0DEBFCDBF9D
:1000F00011E0A0E0B1E0E0E9F7E202C005900D9266
:10010000A438B107D9F724E0A4E8B1E001C01D92FA
:10011000AB34B207E1F710E0C2E7D0E004C02197AA
:10012000FE010E94BB13C137D107C9F70E94590DC8
:100130000C94C6130C94000090E0FC01E456FF4FB1
:100140002491FC01E253FF4F3491FC01E654FF4F30
:10015000E491EE23C9F0222339F0233001F1A8F411
:10016000213019F1223029F1F0E0EE0FFF1FEE5699
:10017000FF4FA591B4918FB7F894EC91611126C00F
:1001800030953E233C938FBF08952730A9F0283047
:10019000C9F0243049F7809180008F7D03C08091A1
:1001A00080008F7780938000DFCF84B58F7784BD08
:1001B000DBCF84B58F7DFBCF8091B0008F778093AC
:1001C000B000D2CF8091B0008F7DF9CF3E2BDACF37
:1001D000CF93DF93D82FC62F61E081E00E949C006F
:1001E0006D2F82E00E949C006C2F86E00E949C0094
:1001F00061E087E0DF91CF910C949C00CF93DF9377
:1002000090E0FC01E253FF4F249186549F4FFC0184
:1002100084918823D1F090E0880F991FFC01E85762
:10022000FF4FA591B491FC01EE56FF4FC591D491BB
:1002300061110EC09FB7F8948C91E22FE0958E2348
:100240008C932881E223E8839FBFDF91CF910895AB
:100250008FB7F894EC91E22BEC938FBFF6CF8E50D2
:10026000806480937C0080917A00806480937A001F
:1002700080917A0086FDFCCF809178009091790082
:1002800008953FB7F89480910B0290910C02A091D1
:100290000D02B0910E0226B5A89B05C02F3F19F0A4
:1002A0000196A11DB11D3FBFBA2FA92F982F8827F6
:1002B000BC01CD01620F711D811D911D42E0660FD1
:1002C000771F881F991F4A95D1F708958F929F92A3
:1002D000AF92BF92CF92DF92EF92FF926B017C01BF
:1002E0000E9441014B015C01C114D104E104F104FD
:1002F000B9F00E944101681979098A099B09683E91
:1003000073408105910580F321E0C21AD108E1080C
:10031000F10888EE880E83E0981EA11CB11CE4CF82
:10032000FF90EF90DF90CF90BF90AF909F908F9015
:1003300008950895E091F001F091F101309729F0CE
:1003400010923C0210925E0209940895CF93DF93BD
:10035000AC01E091EE01F091EF013097F1F0909156
:10036000ED018091EC019817C0F090E0292F30E06A
:100370002617370754F4D901AC57BE4F240F351F49
:10038000E90128812C939F5FF1CF1092ED016093DA
:10039000EC01CB01DF91CF910994DF91CF910895CA
:1003A000AF92BF92CF92DF92EF92FF920F931F9383
:1003B000CF93DF936C017B018B01040F151FEB01C1
:1003C0005E01AE18BF08C017D10759F06991D60178
:1003D000ED91FC910190F081E02DC6010995892BEA
:1003E00079F7C501DF91CF911F910F91FF90EF90A9
:1003F000DF90CF90BF90AF900895FC01538D448D56
:10040000252F30E0842F90E0821B930B541710F0BF
:10041000CF96089501970895FC01918D828D9817CC
:1004200061F0A28DAE0FBF2FB11D5D968C91928DA4
:100430009F5F9F73928F90E008958FEF9FEF0895D5
:10044000FC01918D828D981731F0828DE80FF11D9E
:10045000858D90E008958FEF9FEF0895FC01918DB9
:10046000228D892F90E0805C9F4F821B91098F73B2
:10047000992708958FE592E00E942E0221E0892BB2
:1004800009F420E0822F089580E090E0892B29F084
:100490000E943A0281110C9400000895FC01A48D81
:1004A000A80FB92FB11DA35ABF4F2C91848D90E096
:1004B00001968F739927848FA689B7892C93A08979
:1004C000B1898C91837080648C93938D848D981303
:1004D00006C00288F389E02D80818F7D8083089596
:1004E000EF92FF920F931F93CF93DF93EC0181E084
:1004F000888F9B8D8C8D98131AC0E889F98980812B
:1005000085FF15C09FB7F894EE89FF896083E8895D
:10051000F98980818370806480839FBF81E090E04F
:10052000DF91CF911F910F91FF90EF900895F62EDC
:100530000B8D10E00F5F1F4F0F731127E02E8C8D76
:100540008E110CC00FB607FCFACFE889F9898081BB
:1005500085FFF5CFCE010E944E02F1CFEB8DEC0F5F
:10056000FD2FF11DE35AFF4FF0829FB7F8940B8FD8
:10057000EA89FB8980818062CFCFCF93DF93EC0142
:10058000888D8823B9F0AA89BB89E889F9898C917B
:1005900085FD03C0808186FD0DC00FB607FCF7CF37
:1005A0008C9185FFF2CF808185FFEDCFCE010E9437
:1005B0004E02E9CFDF91CF91089521E001C0220FD3
:1005C0006A95EAF7DC011C962C931C971A965C93AB
:1005D0004E931997ED91FC910484F585E02D60E030
:1005E0000994DC01ED91FC910684F785E02D41E052
:1005F000099581E090E00895DC01ED91FC9106847D
:10060000F785E02D40E00994CF93DF93CDB7DEB7B7
:1006100028970FB6F894DEBF0FBECDBF4091020100
:100620005091030160910401709105014D835E8337
:100630006F8378874091060150910701609108010E
:100640007091090149835A836B837C832091340321
:10065000821710F08FEF820F90E0309135038C0FEE
:100660009D1FFC01303181F4243071F46181606898
:100670008DE293E028960FB6F894DEBF0FBECDBF93
:10068000DF91CF910C94FC026581F1CF61E00E9473
:10069000FC028BE39FE10197F1F708950F931F93FD
:1006A000CF93DF93EC01423018F08C8188608C830B
:1006B0004F836887222329F0413019F48C818460AC
:1006C0008C8364E670E080E090E00E9466016C81BB
:1006D00064FD57C0E881F9810684F785E02D42E08A
:1006E00063E0CE0109958BE496E40197F1F7E88188
:1006F000F9810684F785E02D42E063E0CE0109959B
:1007000003E512E0C8010197F1F7E881F981068459
:10071000F785E02D42E063E0CE010995C80101971D
:10072000F1F7E881F9810684F785E02D42E062E087
:10073000CE010995C8010197F1F76C816062CE0185
:100740000E94FC028BEE90E00197F1F784E08D832C
:100750006CE0CE010E94FC02CE010E94460382E0C2
:100760008E8366E0CE010E94FC02E881F981048458
:10077000F585E02D6FEFCE01DF91CF911F910F91A5
:1007800009946062CE010E94FC028BE496E401971A
:10079000F1F76C816062CE010E94FC0203E512E079
:1007A000C8010197F1F76C816062CE010E94FC02E2
:1007B000C1CF089508950895DC0180E0615090F064
:1007C0009D919827E92FEF70F0E0E859FF4F2491B1
:1007D000E92FE295EF70F0E0E858FF4FE491822FA7
:1007E0008E27ECCF0895DC012C911196ED91FC91B0
:1007F000F8948181822B81839281322F30959323CB
:10080000928387E090E00197F1F7818183238183D0
:1008100083E290E00197F1F790817894EFECF0E0BB
:100820003197F1F7922381E009F480E00895FC010B
:1008300090810180F281E02D292F209560FF14C066
:10084000F8948281822382838181892B8183A3E230
:10085000B0E01197F1F78281982B9283789487ED1D
:1008600090E00197F1F70895F894828182238283C2
:100870008181892B8183AFEFB0E01197F1F78281FD
:10088000982B928378948FE090E0EBCFDF92EF92F9
:10089000FF920F931F93CF93DF93EC01D62EE42E9C
:1008A00008E010E0FF24F39461E08D2D8F2109F41E
:1008B00060E0CE010E941704FF0C01501109A1F75E
:1008C000E11010C0F894E981FA81918188818095C6
:1008D00089238183E981FA819281888180958923A6
:1008E00082837894DF91CF911F910F91FF90EF90C9
:1008F000DF900895EF92FF920F931F93CF93DF93B2
:100900008C017B0140E065E50E944604E70188E038
:10091000E80EF11C699140E0C8010E944604CE1522
:10092000DF05C1F7DF91CF911F910F91FF90EF90FD
:100930000895FC0190810180F281E02DF89481817D
:10094000292F20958223818378943DE743E050E06E
:10095000315029F1DA011197F1F780818923C1F330
:10096000F8948281822382838181892B8183789488
:10097000ABE7B7E01197F1F7F89481818223818387
:10098000A3E1B1E01197F1F78081982381E009F0AC
:1009900080E07894E3E6F6E03197F1F7089580E09F
:1009A00008956F927F928F929F92AF92BF92CF9253
:1009B000DF92EF92FF920F931F93CF93DF938C01FF
:1009C000EB0180911103909112030E9499048823F6
:1009D00009F43FC0B80180911103909112030E9465
:1009E0007A0440E06EEB80911103909112030E9413
:1009F00046047E016E0189E0C80ED11C8E01A090D4
:100A00001103B090120388E0882E912C712C66247B
:100A10006394C5010E94F30381117628660CE1E01E
:100A20008E1A9108B1F7F80171928F01CE16DF0688
:100A300031F780911103909112030E949904813043
:100A400041F4F70181917F01811105C0E017F107A1
:100A5000C1F790E008C068E0CE010E94DC0391E09D
:100A600028852813F6CF892FDF91CF911F910F9101
:100A7000FF90EF90DF90CF90BF90AF909F908F90BE
:100A80007F906F9008952091C501260F3327331F63
:100A900021323105ECF420913502FC0190E080E038
:100AA000243069F082E00895A091C5012191AC0144
:100AB0004B555E4FA40FB52FB11D2C930196861791
:100AC00098F38091C501680F6093C50180E0089597
:100AD00081E008951092350281E0809334021092F3
:100AE0000F0261E082E10E949C0061E083E10E94CC
:100AF0009C00E9EBF0E080818E7F808380818D7F98
:100B0000808388E48093B80085E48093BC000895D6
:100B1000CF93DF9391E09093A4018823B9F0C09123
:100B2000B800D091BA008091BC008A7B8093BC0051
:100B300060E082E10E949C0060E083E10E949C00F2
:100B40000E946A05D093BA00C093B800DF91CF919C
:100B50000895CF92DF92EF92FF920F931F93CF935E
:100B6000DF93D0915E0281E0D13208F09CC0C09149
:100B70005D020E9441016B017C018091350281116F
:100B80006CC082E08093350281E0809334028FEF65
:100B90008093330210923202D0933102ADE3B2E07F
:100BA000E1E1F2E080E0D8138DC010921002809154
:100BB0001002CC0FC82BC093100280910F0281301D
:100BC00009F084C010920F020E9441016B017C0168
:100BD000809110028093BB0080913702909138027F
:100BE000A0913902B0913A02892B8A2B8B2BA1F06C
:100BF0000E94410100913702109138022091390280
:100C000030913A026C197D098E099F090617170762
:100C10002807390708F442C08091BC0083FDD8CF73
:100C200085EC8093BC000E9441016B017C018091A6
:100C30003502823009F44CC0809133028F3F09F4B1
:100C400069C080913302803209F466C0809133021A
:100C5000803309F463C084E026C08091370290910C
:100C60003802A0913902B0913A02892B8A2B8B2B42
:100C700009F483CF0E94410100913702109138029C
:100C80002091390230913A026C197D098E099F0931
:100C9000061717072807390708F06FCF809136022B
:100CA0000E94880585E010923C0210925E0210922C
:100CB0003B02DF91CF911F910F91FF90EF90DF905A
:100CC000CF9008959D9191938F5F6DCF85EEA9CFC1
:100CD0008091370290913802A0913902B0913A0286
:100CE000892B8A2B8B2B09F4A2CF0E944101009102
:100CF0003702109138022091390230913A026C1972
:100D00007D098E099F09061717072807390708F07C
:100D10008ECFC4CF80E0C7CF82E0C5CF83E0C3CF02
:100D20000895E091ED018091EC01E81730F4F0E0D6
:100D3000EC57FE4F808190E008958FEF9FEF08956C
:100D40009091ED018091EC012FEF3FEF981748F45F
:100D5000E92FF0E0EC57FE4F208130E09F5F909349
:100D6000ED01C90108958091EC019091ED01891B7D
:100D7000990B0895CF92DF92EF92FF920F931F93FA
:100D8000CF93DF937C01CB018A0120913B02222388
:100D900089F0EB016B01C40ED51ECC15DD0569F0A1
:100DA0006991D701ED91FC910190F081E02DC7018F
:100DB0000995F3CF642F0E944305C801DF91CF91BD
:100DC0001F910F91FF90EF90DF90CF900895CF93F8
:100DD000DF931F92CDB7DEB7698320913B022223B8
:100DE000F9F020915E02203258F021E030E0FC0161
:100DF0003383228390E080E00F90DF91CF910895BC
:100E000080913C02E82FF0E0E35CFD4F99819083F4
:100E10008F5F80933C0280935E0281E090E0ECCF94
:100E200061E0CE0101960E944305F7CFFC012381CA
:100E30002223E1F08181682B6083828191E090938D
:100E40003B0280935D0210923C0210925E028CEF96
:100E500092E00E94E7060E94A905282F30E081E079
:100E600090E0232B11F090E080E0089530E020E046
:100E7000F6CFEF92FF920F931F93CF938C01FC015B
:100E800084E0C0E0262F30E060FF02C09589C92BC6
:100E9000B90175956795815031968111F3CF413035
:100EA00011F4F8014489F8016585C62BC42B78013B
:100EB000FEE0EF0EF11CF80162896C2BC7010E9465
:100EC0001607F801628960956C23C701CF911F91C5
:100ED0000F91FF90EF900C9416070F931F93CF93F1
:100EE000DF93062F0F70423041F440E0602FDF9116
:100EF000CF911F910F910C943907142FEC0170E0E2
:100F000084E0759567958A95E1F7CE010E943907CF
:100F1000412F602FCE01EBCFFC0184858823A1F007
:100F2000218532852115310521F4611107C015860F
:100F300006C021303105D9F76111F9CF8587658564
:100F4000CF010E960C9416070895EF92FF920F931F
:100F50001F93CF93DF93EC01062FF42EE22E8B85A7
:100F6000888B1092ED011092EC0110923C021092CD
:100F70005E020E946A058AE991E09093EB018093FA
:100F8000EA0186EA91E09093E9018093E80188897B
:100F900011E010933B0280935D020E94A90581112C
:100FA0001CC0198B8CEF92E00E94A0068E87898965
:100FB000882339F01F861C8260E0CE010E960E94C5
:100FC00016072E2D4F2D602FCE01DF91CF911F914F
:100FD0000F91FF90EF900C944E03198AE8CF90E0A8
:100FE00080E008954F925F926F927F928F929F92CE
:100FF000AF92BF92CF92DF92EF92FF920F931F9327
:10100000CF93DF93CDB7DEB72C970FB6F894DEBF42
:101010000FBECDBF6091FC017091FD018091FE017A
:101020009091FF010E9412124B017B01609100021E
:101030007091010280910202909103020E941212AB
:101040002B016B016091F2017091F3018091F40129
:101050009091F5010E9412128B01072E000C880B53
:10106000990B0E944A1220E030E040E05FE317FD58
:101070005DC00E942F110E941212162F072FB2017D
:10108000550C880B990B0E944A1220E030E040E09A
:101090005FE3D7FC4EC00E942F110E941212D62E81
:1010A000C72EB401990C880B990B0E944A1220E0BC
:1010B00030E040E05FE3F7FC3FC00E942F110E9448
:1010C000121209831A8328E431E02B83CC82DD825B
:1010D00024E531E02E837F8368878AE491E0898765
:1010E0001A868CE491E08B8781E08C874CE050E09D
:1010F000BE016F5F7F4F8CEF92E00E94BA062C9684
:101100000FB6F894DEBF0FBECDBFDF91CF911F9118
:101110000F91FF90EF90DF90CF90BF90AF909F9096
:101120008F907F906F905F904F9008950E942E1146
:10113000A2CF0E942E11B1CF0E942E11C0CFBF921C
:10114000CF92DF92EF92FF920F931F93CF93DF9393
:10115000EC01B62EC72E8D85811105C0CE010E94EF
:10116000990481110EC01B861D861C8680E0DF91CC
:10117000CF911F910F91FF90EF90DF90CF90BF9094
:10118000089540E060EFCE010E94460401E0E12CAA
:10119000D12C11E0CE010E94F303F82ECE010E9463
:1011A000F30391E0F91218C0813099F51134D8F2A7
:1011B000DB86D11002C081E08D878B81882399F274
:1011C0002396EB2DFC2DCF01089629912193E8174A
:1011D000F907D9F781E0CBCFEE2DF0E0F8120FC080
:1011E0008B851817A0F4DE01AE0FBF1F13968C91EC
:1011F000802379F4F12C193008F41C87D12EEC0FE0
:10120000FD1F8381902F9095892383830AC08113CA
:10121000F1CFFE01EE0DF11D8381802B8383FF242E
:10122000F3946F2DCE010E9417041F5F000F11F47D
:10123000E39401E087E08E1508F0ACCFB7CF0E94B1
:10124000C113FB0101900020E9F73197AF01461B64
:10125000570BDC01ED91FC910280F381E02D0994A4
:101260008F929F92AF92BF92EF92FF920F931F9334
:10127000CF93DF93CDB7DEB7A1970FB6F894DEBF5B
:101280000FBECDBF7C01FA01CB0119A2223008F4B8
:101290002AE08E010F5D1F4F822E912CB12CA12CC4
:1012A000BF01A50194010E948513F901CA016A30AA
:1012B0000CF5605DD8016E938D01232B242B252B1B
:1012C00079F790E080E0109721F0BD01C7010E94FE
:1012D0002109A1960FB6F894DEBF0FBECDBFDF91F6
:1012E000CF911F910F91FF90EF90BF90AF909F9083
:1012F0008F900895695CDECFCF92DF92EF92FF92DC
:10130000CF93DF936B017C016DE28DE293E00E944D
:10131000F102EC0144275527BA014C195D096E0909
:101320007F092AE08DE293E00E9430098C0F9D1F17
:10133000DF91CF91FF90EF90DF90CF9008952F92A3
:101340003F924F925F926F927F928F929F92AF9255
:10135000BF92CF92DF92EF92FF921F93CF93DF93D2
:10136000EC016A017B01722EAB019601CB01B60143
:101370000E946C136EE471E0811126C04601570192
:10138000E894B7F82FEF3FEF4FE75FE7C501B401EF
:101390000E946C1381110CC02FEF3FEF4FE75FE706
:1013A000C501B4010E949B1162E571E0181664F05A
:1013B0002FEF3FEF4FE75FE4C701B6010E94FA123B
:1013C0001816B4F466E571E0CE01DF91CF911F915C
:1013D000FF90EF90DF90CF90BF90AF909F908F9055
:1013E0007F906F905F904F903F902F900C942109C9
:1013F0002FEF3FEF4FE75FECC701B6010E949B1153
:1014000087FDE0CF20E030E0A901C701B6010E94CE
:101410009B11312C212C87FF0DC0E881F9810190AF
:10142000F081E02D6DE2CE0109951C01F7FAF094F0
:10143000F7F8F09410E060E070E080E09FE3711650
:1014400041F020E030E040E251E40E94A0111F5F33
:10145000F6CFA70196010E942F112B013C010E949B
:1014600019124B015C012AE0BC01A401CE010E94CB
:1014700030097C01E20CF31C1123E1F1C501B40138
:101480000E9448129B01AC01C301B2010E942E11BF
:101490004B015C01E881F9810190F081E02D6EE261
:1014A000CE010995E80EF91E115020F120E030E040
:1014B00040E251E4C501B4010E94FF122B013C013E
:1014C0000E9419124B01B12CA12C2AE0B501A401F4
:1014D000CE010E943009E80EF91EC501B4010E9438
:1014E00048129B01AC01C301B2010E942E114B01B5
:1014F0005C01DACFC701DF91CF911F91FF90EF9090
:10150000DF90CF90BF90AF909F908F907F906F9023
:101510005F904F903F902F90089585ED8093BC0091
:101520008091370290913802A0913902B0913A022D
:101530000796A11DB11D23E0B695A79597958795B0
:101540002A95D1F72091BC0024FD03C010923502EA
:10155000089540913702509138026091390270919C
:101560003A02452B462B472B69F30097A105B1059D
:1015700041F02AE22A95F1F700C00197A109B109CB
:10158000E1CF809136020C9488051F920F920FB61E
:101590000F9211242F933F938F939F93AF93BF93F9
:1015A0008091070290910802A0910902B0910A026D
:1015B0003091060223E0230F2D3758F50196A11D27
:1015C000B11D209306028093070290930802A09316
:1015D0000902B0930A0280910B0290910C02A09133
:1015E0000D02B0910E020196A11DB11D80930B0258
:1015F00090930C02A0930D02B0930E02BF91AF9195
:101600009F918F913F912F910F900FBE0F901F9040
:10161000189526E8230F0296A11DB11DD2CF1F9267
:101620000F920FB60F9211242F933F934F935F9316
:101630006F937F938F939F93AF93BF93EF93FF939A
:101640008FE592E00E944E02FF91EF91BF91AF9122
:101650009F918F917F916F915F914F913F912F91CA
:101660000F900FBE0F901F9018951F920F920FB6FC
:101670000F9211242F938F939F93EF93FF93E091F9
:101680006F02F09170028081E0917502F091760214
:1016900082FD1BC09081809178028F5F8F732091B3
:1016A0007902821741F0E0917802F0E0E15AFD4FB3
:1016B000958F80937802FF91EF919F918F912F9159
:1016C0000F900FBE0F901F9018958081F4CF1F923E
:1016D0000F920FB60F9211242F933F934F935F9366
:1016E0006F937F938F939F93AF93BF93EF93FF93EA
:1016F0008091B900887F803609F44AC0F0F58832BD
:1017000009F4A7C018F5803109F49BC0B8F4882308
:1017100009F4F9C0883009F494C0FF91EF91BF91AA
:10172000AF919F918F917F916F915F914F913F9179
:101730002F910F900FBE0F901F901895883109F4CC
:1017400088C0803251F78093330214C0803409F48A
:101750009DC040F48033B9F38833F9F680933302A7
:1017600085ECB0C0803509F485C0883509F496C091
:10177000883499F60E948D0AD0CF883909F48CC03C
:1017800038F5883729F050F4883611F0803729F67B
:1017900083E0809335021092E70157C0883809F43E
:1017A0007BC0803919F0803809F0B7CF8091E7010C
:1017B000803208F071C0E091E70181E08E0F8093E4
:1017C000E7018091BB00F0E0E953FE4F80833DC00C
:1017D000803B39F0E0F4803A09F479C0883A09F0A6
:1017E0009CCF84E0809335021092C6011092C5010F
:1017F000E091EA01F091EB0109958091C501811119
:101800000FC081E08093C5011092A50109C0803C02
:1018100009F4A6CF883C09F4A3CF883B09F07DCF1B
:10182000E091C60181E08E0F8093C601F0E0EB5598
:10183000FE4F80818093BB009091C6018091C501CD
:1018400029C0809110028093BB0085EC8093BC007E
:1018500064CF9091320280913102981758F5E0914F
:10186000320281E08E0F80933202F0E0EF5EFD4F96
:101870008081E9CFE091320281E08E0F80933202C5
:101880008091BB00F0E0EF5EFD4F808390913202CB
:10189000809131029817C8F285E8D8CFE0913202E2
:1018A00081E08E0F809332028091BB00F0E0EF5E0A
:1018B000FD4F80838091340281115CCF81E0809361
:1018C0000F0284EA8093BC001092350226CF85EC8B
:1018D0008093BC00109235028091E701803230F491
:1018E000E091E701F0E0E953FE4F10826091E701DB
:1018F00070E0E091E801F091E90187EC91E0099551
:101900001092E7010ACF1092330234CF1F93CF9386
:10191000DF93EFE5F2E01382128288EE93E0A0E01D
:10192000B0E084839583A683B78324E131E03183DB
:10193000208325EC30E03587248724EC30E037879E
:10194000268720EC30E0318B208B21EC30E0338B8C
:10195000228B22EC30E0358B248B26EC30E0378B69
:10196000268B118E128E138E148EECEFF2E0138202
:10197000128284839583A683B78386E291E0918364
:10198000808310924A0310924903EBE4F3E080E075
:1019900091E0DF019C011D9221503040E1F7C6E447
:1019A000D3E08AE0888319E01A8388E0898361E0C4
:1019B00089E00E94FE0061E088810E94FE0060E0F4
:1019C00089810E94FE0061E08A810E949C00EDE214
:1019D000F3E01382128288E391E091838083108A7E
:1019E0008FEF87871686118A87E28387148615868C
:1019F0001286118684E0828B82E0838BC1E0C48BE7
:101A000080E1858B80E2868B80E4878B80E8808F05
:101A100050E040E063E0CF010E94DD0260E085E03D
:101A20000E94FE00E3EDF0E0E491AFE1B3E0EC935F
:101A3000EFEBF0E0E491F0E0EE0FFF1FE055FF4F19
:101A40008591949112969C938E9311971B961C925C
:101A50001B971D961C921D971C961C921C971A96FC
:101A60001C921A9719961C92199718961C921897FF
:101A700017961C92179716961C92169715961C92FD
:101A8000159714961C92149713961C921397E8E0DE
:101A9000F3E0168A158A1182B287A1871782108611
:101AA00010821383C483C583C683DF91CF911F91B6
:101AB0000895CF93DF93CDB7DEB761970FB6F89453
:101AC000DEBF0FBECDBF789484B5826084BD84B57F
:101AD000816084BD85B5826085BD85B5816085BD29
:101AE00080916E00816080936E00109281008091E1
:101AF0008100826080938100809181008160809369
:101B00008100809180008160809380008091B1008D
:101B100084608093B1008091B00081608093B000B8
:101B200080917A00846080937A0080917A0082604C
:101B300080937A0080917A00816080937A0080910E
:101B40007A00806880937A001092C10061E081E0A1
:101B50000E94E80061E081E00E94FE0061E082E016
:101B60000E94FE0061E086E00E94FE0061E087E0E6
:101B70000E94FE0061E08DE00E94FE0020E042E055
:101B800060E18DE293E00E94A507E0911103F091DE
:101B90001203138615861486128611861086178204
:101BA000168215821482138210920F031092100372
:101BB00011E0BE01665F7F4F809111039091120387
:101BC0000E949F08882309F475C067E0CE010A9639
:101BD0000E94DC0399898913ECCF80910F038F5FFA
:101BE00080930F038A85883231F008F049C0803134
:101BF00011F08232F1F6809110038F5F8093100311
:101C000080910803811128C08091110390911203E3
:101C10000E949904BE01665F7F4F809111039091ED
:101C200012030E947A0440E064EB809111039091CA
:101C300012030E94460480911103909112030E94A6
:101C4000F303082F80911103909112030E949904CD
:101C5000011102C0109308038A858031E1F0BE01B2
:101C60006F5F7F4FCE010A960E94D104882331F026
:101C70008D818F33D9F058F48F31D1F080E00EC0D0
:101C80008B3309F4B8CF823409F093CFB4CF8F35BA
:101C900021F08F3799F78CE001C08BE090910B0316
:101CA000981708F086CF80930B0383CF8AE0F6CF96
:101CB00089E0F4CF1092ED011092EC0110923C02F9
:101CC00010925E020E946A058AE991E09093EB010E
:101CD0008093EA0186EA91E09093E9018093E8011C
:101CE00080E18093BA0089E991E09093EF018093BD
:101CF000EE0182EF97E09093F1018093F001E09183
:101D00006F02F091700282E08083E0916B02F091AB
:101D10006C021082E0916D02F0916E028FEC808374
:101D200010927702E0917302F091740286E0808352
:101D3000E0917102F0917202808180618083E09174
:101D40007102F0917202808188608083E09171025B
:101D5000F0917202808180688083E0917102F0913D
:101D6000720280818F7D808388E19FE00FB6F894B6
:101D7000A895809360000FBE9093600061E090E0B2
:101D800080E00E94201100E010E08091110390910A
:101D900012030E94990440E06CEC80911103909131
:101DA00012030E9446044091080364E480911103E9
:101DB000909112030E94460480910C03882391F1B4
:101DC000E0910B0380910D03882309F409C18091F0
:101DD0000803811105C18FB7F894C0900702D09015
:101DE0000802E0900902F0900A028FBF809111036F
:101DF000909112030E94F3038130A1F02FB7F89461
:101E00008091070290910802A0910902B0910A0204
:101E10002FBF8C199D09AE09BF098E3E9240A105C6
:101E2000B10520F3E0911103F0911203138615869A
:101E300014861286118610861782168215821482E5
:101E40001382BE01665F7F4F809111039091120350
:101E50000E949F088111ECC060E070E08EEF92EC70
:101E60006093F2017093F3018093F4019093F50174
:101E70008FE00E942F01BC01990F880B990B0E94E3
:101E80004A126093FC017093FD018093FE019093D0
:101E9000FF018EE00E942F01BC01990F880B990B66
:101EA0000E944A126B017C01C0920002D092010292
:101EB000E0920202F092030280E10E942F01BC0135
:101EC000990F880B990B0E944A1220E030E040EAFB
:101ED00050E40E94FF1220E030E040E85AE30E9404
:101EE000FF122DEC3CEC4CE45EE30E94A01120E0DC
:101EF00030E040E451E40E94FA1218160CF0E9C0F8
:101F000081E08093050222E0B701A6018FE592E00F
:101F10000E949F096AE571E08FE592E00E94210925
:101F20004091FC015091FD016091FE017091FF0113
:101F300022E08FE592E00E949F096AE571E08FE55B
:101F400092E00E94210980910502882309F4CFC004
:101F5000809104028111D7C080910001909101010C
:101F600097FDC0C060E081E00E94E8008DE293E050
:101F70000E94460380E00E9404036DE571E08DE25B
:101F800093E00E94210981E00E9404034091000136
:101F900050910101052E000C660B770B77FF9CC05A
:101FA000CB01BA010E947C096DE671E08DE293E0FD
:101FB0000E94210980910001909101010197909365
:101FC00001018093000160E090E080E00E94201118
:101FD00068EE73E080E090E00E946601A895BCCFB7
:101FE000E9508EEE92E0E33038F4F0E0EE0FFF1FA0
:101FF000E65FFE4F808191816C01990FEE08FF082A
:1020000080910903882329F060E080910A030E94EF
:102010009C00C701B6010E946601809109038823D4
:1020200009F400CF61E080910A030E949C00FACE7F
:1020300067E0CE010A960E94DC03998989130CCFD0
:10204000BE016F5F7F4FCE010A960E94D1048823A4
:1020500009F402CF6A8170E0762F6627770F770F39
:10206000770F298148E0249F90011124262B372BDC
:102070008A858031E1F468856623C9F070E08F813C
:10208000AB01481B5109CA019695982F882797954F
:1020900087950E947113CB018097B90153E0660FB9
:1020A000771F5A95E1F760789C01260F371F21387A
:1020B00054EE35070CF4D0CEB901330F880B990BD1
:1020C0000E944A1220E030E040E05CE30E94FF12F0
:1020D000C7CE1092050217CF2AE08DE293E00E944E
:1020E000300962CF61E090E080E00E94201101158C
:1020F000110509F44ACE0E943A02882309F445CE1C
:102100000E94000042CE20E030E04AEF53E46091AC
:1021100000027091010280910202909103020E94DC
:10212000FA1287FDE4CF20E030E048EC51E4609102
:10213000FC017091FD018091FE019091FF010E94D0
:102140009B111816A4F28FB7F894C0900702D09094
:102150000802E0900902F0900A028FBF2FB7F894AE
:102160008091070290910802A0910902B0910A02A1
:102170002FBF4091F8015091F9016091FA017091DF
:10218000FB01841B950BA60BB70B883E9340A10562
:10219000B10508F4ACCF109204028091F601909141
:1021A000F70101969093F7018093F60161E080E0DA
:1021B0000E94E8008DE293E00E94460380E00E94C6
:1021C000040362E771E08DE293E00E9421094091EF
:1021D000F6015091F701052E000C660B770B77FF87
:1021E00029C0CB01BA010E947C096DE671E08DE245
:1021F00093E00E94210981E00E9404036DE771E0F1
:102200008DE293E00E942109409100025091010269
:10221000609102027091030222E08DE293E00E943D
:102220009F09C092F801D092F901E092FA01F09270
:10223000FB015DCF2AE08DE293E00E943009D5CF0B
:10224000262FF999FECF1FBA92BD81BD20BD0FB6D2
:10225000F894FA9AF99A0FBE019608955058BB2740
:10226000AA270E9446110C94C0120E94B21238F0A4
:102270000E94B91220F039F49F3F19F426F40C940F
:10228000AF120EF4E095E7FB0C94A912E92F0E941F
:10229000D11258F3BA17620773078407950720F025
:1022A00079F4A6F50C94F3120EF4E0950B2EBA2FE8
:1022B000A02D0B01B90190010C01CA01A00111244C
:1022C000FF27591B99F0593F50F4503E68F11A16F8
:1022D000F040A22F232F342F4427585FF3CF469589
:1022E00037952795A795F0405395C9F77EF41F16AB
:1022F000BA0B620B730B840BBAF09150A1F0FF0F75
:10230000BB1F661F771F881FC2F70EC0BA0F621F60
:10231000731F841F48F4879577956795B795F79550
:102320009E3F08F0B0CF9395880F08F09927EE0FE5
:102330009795879508950E94851208F481E0089585
:102340000E94B4110C94C0120E94B91258F00E945D
:10235000B21240F029F45F3F29F00C94A9125111F8
:102360000C94F4120C94AF120E94D11268F39923CA
:10237000B1F3552391F3951B550BBB27AA27621781
:102380007307840738F09F5F5F4F220F331F441F8E
:10239000AA1FA9F335D00E2E3AF0E0E832D09150C2
:1023A0005040E695001CCAF72BD0FE2F29D0660FAF
:1023B000771F881FBB1F261737074807AB07B0E8F2
:1023C00009F0BB0B802DBF01FF2793585F4F3AF0F8
:1023D0009E3F510578F00C94A9120C94F4125F3FC3
:1023E000E4F3983ED4F3869577956795B795F7957E
:1023F0009F5FC9F7880F911D9695879597F9089566
:10240000E1E0660F771F881FBB1F62177307840701
:10241000BA0720F0621B730B840BBA0BEE1F88F710
:10242000E09508950E9419126894B1110C94F41269
:1024300008950E94D91288F09F5798F0B92F9927D4
:10244000B751B0F0E1F0660F771F881F991F1AF09F
:10245000BA95C9F714C0B13091F00E94F312B1E0FF
:1024600008950C94F312672F782F8827B85F39F0FE
:10247000B93FCCF3869577956795B395D9F73EF438
:1024800090958095709561957F4F8F4F9F4F0895E0
:10249000E89409C097FB3EF49095809570956195FE
:1024A0007F4F8F4F9F4F9923A9F0F92F96E9BB27B4
:1024B0009395F695879577956795B795F111F8CF30
:1024C000FAF4BB0F11F460FF1BC06F5F7F4F8F4F9B
:1024D0009F4F16C0882311F096E911C0772321F091
:1024E0009EE8872F762F05C0662371F096E8862F29
:1024F00070E060E02AF09A95660F771F881FDAF780
:10250000880F9695879597F90895990F0008550FAC
:10251000AA0BE0E8FEEF16161706E807F907C0F069
:1025200012161306E407F50798F0621B730B840B71
:10253000950B39F40A2661F0232B242B252B21F44B
:1025400008950A2609F4A140A6958FEF811D811DEB
:10255000089597F99F6780E870E060E008959FEF25
:1025600080EC089500240A9416161706180609062A
:10257000089500240A9412161306140605060895F9
:10258000092E0394000C11F4882352F0BB0F40F481
:10259000BF2B11F460FF04C06F5F7F4F8F4F9F4FC1
:1025A000089557FD9058440F551F59F05F3F71F043
:1025B0004795880F97FB991F61F09F3F79F08795AA
:1025C0000895121613061406551FF2CF4695F1DF33
:1025D00008C0161617061806991FF1CF86957105C3
:1025E000610508940895E894BB2766277727CB01F7
:1025F00097F908950E94851208F48FEF08950E94BC
:1026000012130C94C0120E94B21238F00E94B91238
:1026100020F0952311F00C94A9120C94AF12112400
:102620000C94F4120E94D11270F3959FC1F3950F90
:1026300050E0551F629FF001729FBB27F00DB11D46
:10264000639FAA27F00DB11DAA1F649F6627B00DD6
:10265000A11D661F829F2227B00DA11D621F739FBF
:10266000B00DA11D621F839FA00D611D221F749FCD
:102670003327A00D611D231F849F600D211D822F14
:10268000762F6A2F11249F5750409AF0F1F088233B
:102690004AF0EE0FFF1FBB1F661F771F881F915068
:1026A0005040A9F79E3F510580F00C94A9120C945C
:1026B000F4125F3FE4F3983ED4F3869577956795DF
:1026C000B795F795E7959F5FC1F7FE2B880F911D92
:1026D0009695879597F908950E948512880B990B16
:1026E000089597FB072E16F4009407D077FD09D0C4
:1026F0000E94A71307FC05D03EF4909581959F4F4B
:102700000895709561957F4F0895A1E21A2EAA1B36
:10271000BB1BFD010DC0AA1FBB1FEE1FFF1FA21791
:10272000B307E407F50720F0A21BB30BE40BF50B8E
:10273000661F771F881F991F1A9469F76095709517
:10274000809590959B01AC01BD01CF010895AA1B16
:10275000BB1B51E107C0AA1FBB1FA617B70710F08C
:10276000A61BB70B881F991F5A95A9F780959095BE
:10277000BC01CD010895EE0FFF1F0590F491E02DEF
:10278000099481E090E0F8940C94C613F894FFCF7C
:102790000A0000401454004010505E00BC00770155
:1027A000000000007002D001FD01BD022E020C02EB
:1027B000200200000000E706BA06EF079006B30605
:1027C000A006910600000000F102D001EF07DB0334
:1027D000A507DD028C076D077700650073006E6149
:1027E0006E00696E66006F7666000D0A00454953FB
:1027F00041475747492050454C4C4554002073658C
:102800006300414E41464C454B53492000464F54CE
:04281000494120001A
:107800000C94343C0C94513C0C94513C0C94513CE1
:107810000C94513C0C94513C0C94513C0C94513CB4
:107820000C94513C0C94513C0C94513C0C94513CA4
:107830000C94513C0C94513C0C94513C0C94513C94
:107840000C94513C0C94513C0C94513C0C94513C84
:107850000C94513C0C94513C0C94513C0C94513C74
:107860000C94513C0C94513C11241FBECFEFD8E036
:10787000DEBFCDBF11E0A0E0B1E0ECE9FFE702C060
:1078800005900D92A230B107D9F712E0A2E0B1E065
:1078900001C01D92AD30B107E1F70E942D3D0C945F
:1078A000CC3F0C94003C982F959595959595959582
:1078B000905D8F708A307CF0282F295A8091C0000B
:1078C00085FFFCCF9093C6008091C00085FFFCCF60
:1078D0002093C6000895282F205DF0CF982F809127
:1078E000C00085FFFCCF9093C6000895EF92FF92F1
:1078F0000F931F93EE24FF2487018091C00087FD22
:1079000017C00894E11CF11C011D111D81E4E8164B
:1079100082E4F8068FE0080780E0180770F3E09132
:107920000401F091050109958091C00087FFE9CF1E
:107930008091C6001F910F91FF90EF9008950E94D3
:10794000763C982F8091C00085FFFCCF9093C600B5
:1079500091362CF490330CF09053892F089597555D
:10796000892F08951F930E949F3C182F0E949F3CCF
:107970001295107F810F1F9108951F93182F882350
:1079800021F00E94763C1150E1F71F9108951F935A
:10799000182F0E94763C803249F0809103018F5F5E
:1079A000809303018530C1F01F9108958091C0003C
:1079B00085FFFCCF84E18093C6008091C00085FFE5
:1079C000FCCF1093C6008091C00085FFFCCF80E102
:1079D0008093C6001F910895E0910401F091050184
:1079E00009951F9108950E94763C803241F0809164
:1079F00003018F5F80930301853081F008958091AA
:107A0000C00085FFFCCF84E18093C6008091C00058
:107A100085FFFCCF80E18093C6000895E0910401CA
:107A2000F09105010995089540E951E08823A1F0FE
:107A30002D9A28EE33E0FA013197F1F721503040CA
:107A4000D1F72D9828EE33E0FA013197F1F7215064
:107A50003040D1F7815061F708953F924F925F9285
:107A60006F927F928F929F92AF92BF92CF92DF924E
:107A7000EF92FF920F931F93CF93DF93000080E16B
:107A80008093C4001092C50088E18093C10086E015
:107A90008093C2005098589A259A81E00E94143D24
:107AA00024E1F22E9EE1E92E85E9D82E0FE0C02ECA
:107AB00010E1B12EAA24A394B1E49B2EA6E58A2E50
:107AC000F2E57F2EE0E26E2E79E4572E63E5462E36
:107AD00050E5352E0E94763C8033B1F18133B9F107
:107AE000803409F46FC0813409F476C0823409F41B
:107AF00085C0853409F488C0803531F1823521F1A3
:107B0000813511F1853509F485C0863509F48DC0BC
:107B1000843609F496C0843709F403C1853709F423
:107B200072C1863709F466C0809103018F5F80932C
:107B30000301853079F6E0910401F0910501099582
:107B40000E94763C803351F60E94F33CC3CF0E94E2
:107B5000763C803249F78091C00085FFFCCFF092DF
:107B6000C6008091C00085FFFCCF9092C600809136
:107B7000C00085FFFCCF8092C6008091C00085FFC9
:107B8000FCCF7092C6008091C00085FFFCCF609250
:107B9000C6008091C00085FFFCCF5092C600809146
:107BA000C00085FFFCCF4092C6008091C00085FFD9
:107BB000FCCF3092C6008091C00085FFFCCFB09210
:107BC000C60088CF0E94763C863808F4BDCF0E945C
:107BD000763C0E94F33C7ECF0E94763C803809F4CC
:107BE0009CC0813809F40BC1823809F43CC1883942
:107BF00009F48FC080E00E94C73C6CCF84E10E94F2
:107C0000BD3C0E94F33C66CF85E00E94BD3C0E94D3
:107C1000F33C60CF0E94763C809306010E94763C44
:107C2000809307010E94F33C55CF0E94763C80333D
:107C300009F41DC183E00E94BD3C80E00E94C73C66
:107C400049CF0E94763C809309020E94763C809343
:107C5000080280910C028E7F80930C020E94763C79
:107C6000853409F415C18091080290910902892B8D
:107C700089F000E010E00E94763CF801E85FFE4FDA
:107C800080830F5F1F4F80910802909109020817AF
:107C9000190788F30E94763C803209F045CF809125
:107CA0000C0280FF01C16091060170910701660F0F
:107CB000771F7093070160930601A0910802B091AD
:107CC00009021097C9F0E8E0F1E09B01AD014E0F09
:107CD0005F1FF999FECF32BD21BD819180BDFA9A17
:107CE000F99A2F5F3F4FE417F50799F76A0F7B1F4B
:107CF00070930701609306018091C00085FFFCCF5F
:107D0000F092C6008091C00085FFFCCFB092C60003
:107D1000E1CE83E00E94C73CDDCE82E00E94C73CFA
:107D2000D9CE0E94763C809309020E94763C8093D3
:107D300008028091060190910701880F991F909386
:107D40000701809306010E94763C853409F4A6C0A1
:107D500080910C028E7F80930C020E94763C8032D0
:107D600009F0B8CE8091C00085FFFCCFF092C6002C
:107D7000609108027091090261157105B9F140E046
:107D800050E080910C02A82FA170B82FB27011C0E2
:107D9000BB2309F45CC0E0910601F0910701319624
:107DA000F0930701E09306014F5F5F4F46175707B7
:107DB000E8F4AA2369F3F999FECF209106013091E6
:107DC000070132BD21BDF89A90B58091C00085FFB2
:107DD000FCCF9093C6002F5F3F4F30930701209355
:107DE00006014F5F5F4F4617570718F38091C00099
:107DF00085FDE5CE8091C00085FFF8CFE0CE81E023
:107E00000E94C73C67CE0E94763C803209F08CCE3F
:107E10008091C00085FFFCCFF092C6008091C00029
:107E200085FFFCCFE092C6008091C00085FFFCCFAB
:107E3000D092C6008091C00085FFFCCFC092C600E2
:107E40008091C00085FFFCCFB092C60043CEE09188
:107E50000601F091070194918091C00085FFFCCF4D
:107E60009093C6009CCF80E10E94C73C33CE0E9415
:107E7000763C0E94763C182F0E94763C112309F430
:107E800083C0113009F484C08FE00E94C73C22CE29
:107E900080910C02816080930C02E5CE80910C02EF
:107EA000816080930C0259CF809107018823880F4D
:107EB000880B8A2180930B02809106019091070123
:107EC000880F991F90930701809306018091080203
:107ED00080FF09C080910802909109020196909359
:107EE000090280930802F894F999FECF1127E091D6
:107EF0000601F0910701C8E0D1E08091080290915D
:107F00000902103091F40091570001700130D9F34B
:107F100003E000935700E89500915700017001308D
:107F2000D9F301E100935700E89509901990009169
:107F3000570001700130D9F301E000935700E89534
:107F40001395103498F011270091570001700130FB
:107F5000D9F305E000935700E895009157000170B0
:107F60000130D9F301E100935700E895329602976A
:107F700009F0C7CF103011F00296E5CF112480919F
:107F8000C00085FFB9CEBCCE8EE10E94C73CA2CD19
:0E7F900085E90E94C73C9ECDF894FFCF80008B
:00000001FF
