:020000040000FA
:100000000C9472000C949A000C949A000C949A0030
:100010000C949A000C949A000C949A000C949A00F8
:100020000C949A000C949A000C949A000C949A00E8
:100030000C949A000C949A000C949A000C949A00D8
:100040000C94F60D0C949A000C949A000C949A005F
:100050000C949A000C949A000C949A000C949A00B8
:100060000C94400E0C949A00005EBCE2613FDD836C
:10007000C29C7E20A3FD1F41009D23BE46DB65F888
:100080008C11AF32CA57E974000000002400270029
:100090002A0000000000250028002B0000000008B6
:1000A000000201000003040700000000000000003F
:1000B00000000000230026002900040404040404B6
:1000C0000404020202020202030303030303010207
:1000D00004081020408001020408102001020408D6
:1000E00010205F0F11241FBECFEFD8E0DEBFCDBFC1
:1000F00024E0A2E0B3E001C01D92AE39B207E1F7FF
:1001000013E0A0E0B1E0ECE9FDE302C005900D9240
:10011000A230B107D9F710E0C2E7D0E004C02197C0
:10012000FE010E94CF1CC137D107C9F70E940610FB
:100130000C94CC1E0C940000833081F028F48130A4
:1001400099F08230A9F008958730A9F08830C9F07D
:100150008430B1F4809180008F7D03C08091800055
:100160008F7780938000089584B58F7784BD08953C
:1001700084B58F7DFBCF8091B0008F778093B000E6
:1001800008958091B0008F7DF9CFCF93DF93282F12
:1001900030E0F901E456FF4F8491F901E253FF4F3B
:1001A000D491F901E654FF4FC491CC23A1F0811101
:1001B0000E949C00EC2FF0E0EE0FFF1FE055FF4F78
:1001C000A591B491EC91ED2381E090E009F480E0F9
:1001D000DF91CF91089580E090E0FACF1F93CF9305
:1001E000DF93282F30E0F901E456FF4F8491F901A5
:1001F000E253FF4FD491F901E654FF4FC491CC2351
:10020000A9F0162F81110E949C00EC2FF0E0EE0F58
:10021000FF1FEE56FF4FA591B4918FB7F894EC9164
:10022000111108C0D095DE23DC938FBFDF91CF91F1
:100230001F910895DE2BF8CF0F931F93CF93DF9379
:10024000062F142FCBE3D4E0682F88810E94EE00A4
:10025000602F8A810E94EE00612F8C810E94EE0047
:1002600061E08E81DF91CF911F910F910C94EE0090
:10027000CF93DF93D62FC42F682F81E00E94EE002A
:100280006D2F82E00E94EE0061E08CE00E94EE00A3
:100290006C2F87E0DF91CF910C94EE00CF93DF932A
:1002A00090E0FC01E253FF4F249186549F4FFC01E4
:1002B00084918823D1F090E0880F991FFC01E857C2
:1002C000FF4FA591B491FC01EE56FF4FC591D4911B
:1002D00061110EC09FB7F8948C91E22FE0958E23A8
:1002E0008C932881E223E8839FBFDF91CF9108950B
:1002F0008FB7F894EC91E22BEC938FBFF6CF8E5032
:10030000806480937C0080917A00806480937A007E
:1003100080917A0086FDFCCF8091780090917900E1
:1003200008953FB7F8948091AF039091B003A091E6
:10033000B103B091B20326B5A89B05C02F3F19F0B9
:100340000196A11DB11D3FBFBA2FA92F982F882755
:10035000BC01CD01620F711D811D911D42E0660F30
:10036000771F881F991F4A95D1F708958F929F9202
:10037000AF92BF92CF92DF92EF92FF926B017C011E
:100380000E9491014B015C01C114D104E104F1040C
:10039000B9F00E949101681979098A099B09683EA0
:1003A00073408105910580F321E0C21AD108E1086C
:1003B000F10888EE880E83E0981EA11CB11CE4CFE2
:1003C000FF90EF90DF90CF90BF90AF909F908F9075
:1003D00008952FB7F8946091AB037091AC038091AE
:1003E000AD039091AE032FBF08950895E091780377
:1003F000F0917903309729F01092E00310920204F3
:1004000009940895CF93DF93AC01E0917603F091C6
:1004100077033097F1F090917503809174039817EA
:10042000C0F090E0292F30E02617370754F4D901A7
:10043000A45FBC4F240F351FE90128812C939F5FD7
:10044000F1CF1092750360937403CB01DF91CF91CC
:100450000994DF91CF910895AF92BF92CF92DF922E
:10046000EF92FF920F931F93CF93DF936C017B0169
:100470008B01040F151FEB015E01AE18BF08C017FA
:10048000D10759F06991D601ED91FC910190F0816D
:10049000E02DC6010995892B79F7C501DF91CF9130
:1004A0001F910F91FF90EF90DF90CF90BF90AF9092
:1004B0000895FC0144815581608171818EE794E04B
:1004C0000C942C0221E001C0220F6A95EAF7DC01AE
:1004D0001C962C931C971A965C934E931997ED914A
:1004E000FC910484F585E02D60E00994DC01ED9138
:1004F000FC910684F785E02D41E0099581E090E0CC
:100500000895DC01ED91FC910684F785E02D40E033
:1005100009940F931F93CF93DF93CDB7DEB728973E
:100520000FB6F894DEBF0FBECDBF00910B01109146
:100530000C0120910D0130910E010D831E832F833C
:10054000388700910F011091100120911101309115
:10055000120109831A832B833C83909185046917C8
:1005600010F06FEF690F262F30E0409186042C0FBA
:100570003D1FF901403199F4943089F46181680F8D
:1005800060688EE794E028960FB6F894DEBF0FBE41
:10059000CDBFDF91CF911F910F910C9481026581A6
:1005A000EECF61E00E9481028BE39FE10197F1F7BA
:1005B00008950F931F93CF93DF93EC01423018F00F
:1005C0008C8188608C834F836887222329F0413097
:1005D00019F48C8184608C8364E670E080E090E0A4
:1005E0000E94B6016C8164FD57C0E881F9810684E0
:1005F000F785E02D42E063E0CE0109958BE496E4B7
:100600000197F1F7E881F9810684F785E02D42E052
:1006100063E0CE01099503E512E0C8010197F1F707
:10062000E881F9810684F785E02D42E063E0CE01A0
:100630000995C8010197F1F7E881F9810684F785EA
:10064000E02D42E062E0CE010995C8010197F1F783
:100650006C816062CE010E9481028BEE90E0019776
:10066000F1F784E08D836CE0CE010E948102CE011F
:100670000E94D10282E08E8366E0CE010E94810258
:10068000E881F9810484F585E02D6FEFCE01DF91DB
:10069000CF911F910F9109946062CE010E94810257
:1006A0008BE496E40197F1F76C816062CE010E94C1
:1006B000810203E512E0C8010197F1F76C816062E5
:1006C000CE010E948102C1CF089508950895DC01F2
:1006D00080E0615090F09D919827E92FEF70F0E055
:1006E000E859FF4F2491E92FE295EF70F0E0E858C8
:1006F000FF4FE491822F8E27ECCF0895DC012C91DF
:100700001196ED91FC91F8948181822B81839281E5
:10071000322F30959323928387E090E00197F1F791
:1007200081818323818383E290E00197F1F79081B7
:100730007894EFECF0E03197F1F7922381E009F43F
:1007400080E00895FC0190810180F281E02D292F45
:10075000209560FF14C0F894828182238283818176
:10076000892B8183A3E2B0E01197F1F78281982B66
:100770009283789487ED90E00197F1F70895F894CB
:100780008281822382838181892B8183AFEFB0E0D4
:100790001197F1F78281982B928378948FE090E003
:1007A000EBCFDF92EF92FF920F931F93CF93DF93E4
:1007B000EC01D62EE42E08E010E0FF24F39461E073
:1007C0008D2D8F2109F460E0CE010E94A203FF0C61
:1007D00001501109A1F7E11010C0F894E981FA81E4
:1007E00091818881809589238183E981FA81928131
:1007F00088818095892382837894DF91CF911F919E
:100800000F91FF90EF90DF900895EF92FF920F937A
:100810001F93CF93DF938C017B0140E065E50E943D
:10082000D103E70188E0E80EF11C699140E0C801BE
:100830000E94D103CE15DF05C1F7DF91CF911F9143
:100840000F91FF90EF900895FC0190810180F2815B
:10085000E02DF8948181292F20958223818378943B
:100860003DE743E050E0315029F1DA011197F1F70B
:1008700080818923C1F3F8948281822382838181DC
:10088000892B81837894ABE7B7E01197F1F7F8945F
:10089000818182238183A3E1B1E01197F1F7808107
:1008A000982381E009F080E07894E3E6F6E0319760
:1008B000F1F7089580E0089520914D03260F332726
:1008C000331F21323105ECF42091D903FC0190E073
:1008D00080E0243069F082E00895A0914D032191D9
:1008E000AC01435D5C4FA40FB52FB11D2C93019655
:1008F000861798F380914D03680F60934D0380E055
:10090000089581E008951092D90381E08093D8037F
:100910001092B30361E082E10E94EE0061E083E1A6
:100920000E94EE00E9EBF0E080818E7F8083808181
:100930008D7F808388E48093B80085E48093BC0039
:100940000895CF93DF9391E090932C038823B9F01F
:10095000C091B800D091BA008091BC008A7B80938E
:10096000BC0060E082E10E94EE0060E083E10E9452
:10097000EE000E948304D093BA00C093B800DF91C8
:10098000CF910895CF92DF92EF92FF920F931F9332
:10099000CF93DF93D091020481E0D13208F09CC064
:1009A000C09101040E9491016B017C018091D903E7
:1009B00081116CC082E08093D90381E08093D803D9
:1009C0008FEF8093D7031092D603D093D503A1EE77
:1009D000B3E0E5EBF3E080E0D8138DC01092B403F0
:1009E0008091B403CC0FC82BC093B4038091B303A0
:1009F000813009F084C01092B3030E9491016B0111
:100A00007C018091B4038093BB008091DB039091C3
:100A1000DC03A091DD03B091DE03892B8A2B8B2BA5
:100A2000A1F00E9491010091DB031091DC03209161
:100A3000DD033091DE036C197D098E099F090617CD
:100A400017072807390708F442C08091BC0083FDCE
:100A5000D8CF85EC8093BC000E9491016B017C0192
:100A60008091D903823009F44CC08091D7038F3F25
:100A700009F469C08091D703803209F466C080917F
:100A8000D703803309F463C084E026C08091DB0380
:100A90009091DC03A091DD03B091DE03892B8A2BBA
:100AA0008B2B09F483CF0E9491010091DB031091FD
:100AB000DC032091DD033091DE036C197D098E0982
:100AC0009F09061717072807390708F06FCF80918D
:100AD000DA030E94A10485E01092E0031092020460
:100AE0001092DF03DF91CF911F910F91FF90EF9054
:100AF000DF90CF9008959D9191938F5F6DCF85EE9C
:100B0000A9CF8091DB039091DC03A091DD03B0912C
:100B1000DE03892B8A2B8B2B09F4A2CF0E94910133
:100B20000091DB031091DC032091DD033091DE03A3
:100B30006C197D098E099F090617170728073907C1
:100B400008F08ECFC4CF80E0C7CF82E0C5CF83E06E
:100B5000C3CF0895E091750380917403E81730F4D2
:100B6000F0E0E45FFC4F808190E008958FEF9FEF0D
:100B7000089590917503809174032FEF3FEF9817BC
:100B800048F4E92FF0E0E45FFC4F208130E09F5F04
:100B900090937503C9010895809174039091750332
:100BA000891B990B0895CF92DF92EF92FF920F93DA
:100BB0001F93CF93DF937C01CB018A012091DF0348
:100BC000222389F0EB016B01C40ED51ECC15DD0587
:100BD00069F06991D701ED91FC910190F081E02DD0
:100BE000C7010995F3CF642F0E945C04C801DF910F
:100BF000CF911F910F91FF90EF90DF90CF900895CC
:100C0000CF93DF931F92CDB7DEB769832091DF03C7
:100C10002223F9F020910204203258F021E030E044
:100C2000FC013383228390E080E00F90DF91CF912D
:100C300008958091E003E82FF0E0EF51FC4F998197
:100C400090838F5F8093E0038093020481E090E0C3
:100C5000ECCF61E0CE0101960E945C04F7CFFC016D
:100C600023812223E1F08181682B6083828191E0DE
:100C70009093DF03809301041092E003109202042A
:100C800083E494E00E9400060E94C204282F30E012
:100C900081E090E0232B11F090E080E0089530E0B7
:100CA00020E0F6CFEF92FF920F931F93CF938C012A
:100CB000FC0184E0C0E0262F30E060FF02C095898F
:100CC000C92BB90175956795815031968111F3CF84
:100CD000413011F4F8014489F8016585C62BC42B15
:100CE0007801FEE0EF0EF11CF80162896C2BC70160
:100CF0000E942F06F801628960956C23C701CF918D
:100D00001F910F91FF90EF900C942F060F931F935C
:100D1000CF93DF93062F0F70423041F440E0602FF5
:100D2000DF91CF911F910F910C945206142FEC017B
:100D300070E084E0759567958A95E1F7CE010E9491
:100D40005206412F602FCE01EBCFFC018485882312
:100D5000A1F0218532852115310521F4611107C0EB
:100D6000158606C021303105D9F76111F9CF858785
:100D70006585CF010E960C942F060895EF92FF9291
:100D80000F931F93CF93DF93EC01062FF42EE22EE7
:100D90008B85888B10927503109274031092E00378
:100DA000109202040E94830486EF91E090937303F3
:100DB0008093720382E092E09093710380937003BA
:100DC000888911E01093DF03809301040E94C2041C
:100DD00081111CC0198B83E494E00E94B9058E87B1
:100DE0008989882339F01F861C8260E0CE010E9627
:100DF0000E942F062E2D4F2D602FCE01DF91CF9117
:100E00001F910F91FF90EF900C94D902198AE8CFAF
:100E100090E080E008954F925F926F927F928F9260
:100E20009F92AF92BF92CF92DF92EF92FF920F9379
:100E30001F93CF93DF93CDB7DEB72C970FB6F894FF
:100E4000DEBF0FBECDBF6091A4037091A50380915A
:100E5000A6039091A7030E946D1C4B017B0160913A
:100E6000A0037091A1038091A2039091A3030E941B
:100E70006D1C2B016B016091980370919903809117
:100E80009A0390919B030E946D1C8B01072E000C0E
:100E9000880B990B0E94241A20E030E040E05FE3C9
:100EA00017FD5DC00E948F1B0E946D1C162F072F1F
:100EB000B201550C880B990B0E94241A20E030E0F7
:100EC00040E05FE3D7FC4EC00E948F1B0E946D1C68
:100ED000D62EC72EB401990C880B990B0E94241AA8
:100EE00020E030E040E05FE3F7FC3FC00E948F1B52
:100EF0000E946D1C09831A832FE331E02B83CC827F
:100F0000DD822EE431E02E837F83688781E491E0E7
:100F100089871A8683E491E08B8781E08C874CE097
:100F200050E0BE016F5F7F4F83E494E00E94D305E1
:100F30002C960FB6F894DEBF0FBECDBFDF91CF91D8
:100F40001F910F91FF90EF90DF90CF90BF90AF90E7
:100F50009F908F907F906F905F904F9008950E9428
:100F60008E1BA2CF0E948E1BB1CF0E948E1BC0CFC2
:100F70008F929F92AF92BF92CF92DF92EF92FF92A9
:100F80000E94E9016B017C010E94E9018090080345
:100F900090900903A0900A03B0900B036819790997
:100FA0008A099B09683E73408105910508F4A9C030
:100FB00080916204909163040E94240440E06CECF0
:100FC00080916204909163040E94D103409159047E
:100FD00064E480916204909163040E94D103809143
:100FE0005D04882311F1E0915C0480915E04882304
:100FF00009F490C08091590481118CC00E94E901CC
:101000004B015C0180916204909163040E947E0315
:10101000813059F00E94E901681979098A099B0910
:101020006E3E72408105910568F381E10E947F0167
:10103000BC01990F880B990B0E94241A60939803A6
:101040007093990380939A0390939B038FE00E947F
:101050007F01BC01990F880B990B0E94241A6093A1
:10106000A4037093A5038093A6039093A7038EE037
:101070000E947F01BC01990F880B990B0E94241AD2
:101080006093A0037093A1038093A2039093A303A2
:1010900080E10E947F01BC01990F880B990B0E948F
:1010A000241A20E030E040EA50E40E94831A20E055
:1010B00030E040E85AE30E94831A2DEC3CEC4CE40B
:1010C0005EE30E94FB1B20E030E040E451E40E941C
:1010D000A31C18160CF046C081E08093A903C092AF
:1010E0000803D0920903E0920A03F0920B038DE00B
:1010F0000E94C50021E0892B09F420E0209304041C
:10110000A895FF90EF90DF90CF90BF90AF909F9009
:101110008F900895E9508EEE92E0E33038F4F0E0DD
:10112000EE0FFF1FED5EFE4F808191814C01990F04
:10113000AA08BB0880915A04882329F060E08091B6
:101140005B040E94EE00C501B4010E94B6018091CB
:101150005A04882309F469CF61E080915B040E94FE
:10116000EE0063CF1092A903BACFFC0101900020DA
:10117000E9F73197AF01481B590BBC018EE794E0AA
:101180000C942C028F929F92AF92BF920F931F9359
:10119000CF93DF93CDB7DEB7A1970FB6F894DEBF3C
:1011A0000FBECDBF19A2423008F44AE08E010F5D98
:1011B0001F4F842E912CB12CA12CA50194010E94CB
:1011C000AD1CE62FB901CA01EA30F4F4E05DD801A4
:1011D000EE938D01232B242B252B79F790E080E0D3
:1011E000109719F0CD010E94B508A1960FB6F8949A
:1011F000DEBF0FBECDBFDF91CF911F910F91BF908A
:10120000AF909F908F900895E95CE1CF0C94B50862
:10121000EF92FF921F93CF93DF937C01EB01142F8A
:1012200060E080E00E948902C7010E945902612F9C
:101230008DE00E94890285E491E00E94060961E048
:1012400080E00E948902CE01DF91CF911F91FF9033
:10125000EF900C945902CF92DF92EF92FF92CF93CE
:10126000DF936C01990FEE08FF08F7FE19C06DE2DD
:101270008EE794E00E947602EC0166277727CB0187
:101280006C197D098E099F094AE00E94C2088C0FE3
:101290009D1FDF91CF91FF90EF90DF90CF90089549
:1012A0004AE0C701B601DF91CF91FF90EF90DF9048
:1012B000CF900C94C208CF92DF92EF92FF920E94DF
:1012C000E9016B017C0180912F0490913004A09181
:1012D0003104B0913204A7019601281B390B4A0B47
:1012E0005B0BDA01C901883E9340A105B105E8F125
:1012F00083E00E94C5000197C1F58091050490919B
:10130000060402975CF081E0809304048093030458
:1013100064E670E080E090E00E94B6018EE794E021
:101320000E94D10260E081E00E9489028091050460
:10133000909106040E942B09809105049091060467
:1013400001969093060480930504809103048823FA
:1013500021F01092060410920504C0922F04D0923E
:101360003004E0923104F0923204A895FF90EF909F
:10137000DF90CF9008950F931F93CF938C01C62FCA
:1013800083E00E94C5002091060330910703019776
:10139000B9F42F5F3F4F30930703209306038EE786
:1013A00094E00E94D10280910603909107030E946D
:1013B0002B0962EC71E080E090E00E94B601E0CF82
:1013C000C90101970297C8F484E60330110581F43E
:1013D00080930101C093000110920604109205044D
:1013E0001092070310920603CF911F910F91089559
:1013F00080930001C0930101EFCF23303105A4F3A6
:101400001092030410920404FFCF4F925F926F92E8
:101410007F928F929F92AF92BF92CF92DF92EF9284
:10142000FF920F931F93CF936B017C01742EAC013D
:101430009B010E94A81C882399F088E491E0CF9139
:101440001F910F91FF90EF90DF90CF90BF90AF90E2
:101450009F908F907F906F905F904F900C94B50805
:1014600046015701E894B7F82FEF3FEF4FE75FE7EA
:10147000C501B4010E94A81C81110DC02FEF3FEFE0
:101480004FE75FE7C501B4010E941D1A18161CF44E
:101490008CE491E0D4CF2FEF3FEF4FE75FE4C7013B
:1014A000B6010E94A31C18161CF480E591E0C7CF7A
:1014B0002FEF3FEF4FE75FECC701B6010E941D1A07
:1014C00087FDF3CF20E030E0A901C701B6010E94FB
:1014D0001D1A10E000E087FF0AC06DE28EE794E07D
:1014E0000E9476028C01F7FAF094F7F8F094C0E0CD
:1014F00060E070E080E09FE37C1641F020E030E0A7
:1015000040E251E40E94FB1BCF5FF6CFA70196019A
:101510000E948F1B2B013C010E94741C4B015C013B
:101520004AE00E94C2087C01E00EF11ECC23C1F10A
:10153000C501B4010E94221A9B01AC01C301B20192
:101540000E948E1B4B015C016EE28EE794E00E94CC
:101550007602E80EF91EC15018F120E030E040E2BA
:1015600051E4C501B4010E94831A2B013C010E9481
:10157000741C4B01B12CA12C4AE0C501B4010E949E
:10158000C208E80EF91EC501B4010E94221A9B018F
:10159000AC01C301B2010E948E1B4B015C01DBCF89
:1015A000C701CF911F910F91FF90EF90DF90CF90E7
:1015B000BF90AF909F908F907F906F905F904F9073
:1015C00008950E94B71EFC0180819181009711F05F
:1015D0000C94711D08950F931F93CF93DF93EC012B
:1015E00088819981009759F02A813B812617370716
:1015F00030F081E0DF91CF911F910F9108958B0121
:101600006F5F7F4F0E94FA1D009759F0998388837E
:101610001B830A832C813D81232B59F7FC01108207
:10162000E8CF80E0E7CFEF92FF920F931F93CF9325
:10163000DF93EC017B01198218821B821A821D82C2
:101640001C82FB0101900020E9F731978F01061BF6
:10165000170BB8010E94EB0A28813981811113C050
:101660002115310519F0C9010E94711D19821882D6
:101670001D821C821B821A82DF91CF911F910F91D4
:10168000FF90EF9008951D830C83B701C901DF918E
:10169000CF911F910F91FF90EF900C94C51EEF9288
:1016A000FF920F931F93CF93DF93EC017B01FB011C
:1016B00001900020E9F731978F01061B170BB80145
:1016C0000E94EB0A28813981811113C0211531054F
:1016D00019F0C9010E94711D198218821D821C8295
:1016E0001B821A82DF91CF911F910F91FF90EF9093
:1016F00008951D830C83B701C901DF91CF911F911C
:101700000F91FF90EF900C94C51ECF92DF92EF9255
:10171000FF921F93CF93DF9300D000D000D0CDB7BE
:10172000DEB7182F0E94E9016B017C0120E030EC4C
:101730004FE754E46091A0037091A1038091A2034C
:101740009091A3030E94FB1B9B01AC0160E070E041
:1017500080E89FE30E948E1B20E030E048EC52E4DA
:101760000E94831A6093020370930303809304031F
:101770009093050360ED71E0CE0101960E94130B7A
:1017800064E571E011111AC0809104046BE871E006
:10179000811114C020E030E046E953E46091A403D5
:1017A0007091A5038091A6039091A7030E94A31CAA
:1017B00066E671E0181614F06BE771E0CE01019651
:1017C0000E944F0B80911F0490912004A09121044E
:1017D000B0912204A7019601281B390B4A0B5B0B21
:1017E000DA01C901883E9340A105B10578F18EE781
:1017F00094E00E94D10260E080E00E948902CE0164
:1018000001960E94590261E080E00E9489028CE901
:1018100091E00E94060961E086E00E9489026091E1
:10182000020370910303809104039091050342E049
:101830000E94050A82EA91E00E940609C0921F04F4
:10184000D0922004E0922104F0922204809123049B
:1018500090912404A0912504B0912604A70196013B
:10186000281B390B4A0B5B0BDA01C901803D9740FD
:10187000A105B10558F18EE794E00E94D10260E025
:1018800080E00E948902CE0101960E94590261E027
:1018900080E00E94890284EA91E00E94060961E0EA
:1018A0008BE00E9489026091A4037091A50380914E
:1018B000A6039091A70342E00E94050AC092230468
:1018C000D0922404E0922504F0922604809127040B
:1018D00090912804A0912904B0912A04A7019601AF
:1018E000281B390B4A0B5B0BDA01C901883B9B4073
:1018F000A105B10558F18EE794E00E94D10260E0A5
:1019000080E00E948902CE0101960E94590261E0A6
:1019100080E00E9489028EEA91E00E94060961E05F
:1019200086E00E94890260919803709199038091EA
:101930009A0390919B0342E00E94050AC0922704FB
:10194000D0922804E0922904F0922A04CE01019654
:101950000E94E30A26960FB6F894DEBF0FBECDBFF5
:10196000DF91CF911F91FF90EF90DF90CF9008957E
:1019700085ED8093BC008091DB039091DC03A09106
:10198000DD03B091DE030796A11DB11D23E0B695DE
:10199000A795979587952A95D1F72091BC0024FDAE
:1019A00003C01092D90308954091DB035091DC03EA
:1019B0006091DD037091DE03452B462B472B69F3C5
:1019C0000097A105B10541F02AE22A95F1F700C080
:1019D0000197A109B109E1CF8091DA030C94A10428
:1019E0000C94491BCF92DF92EF92FF920F931F93BB
:1019F000CF93DF93EC018B017A018EE794E00E9494
:101A0000D10283EB91E00E94060960E08CE00E9425
:101A10008902CE0101960E942B0961E080E00E94BC
:101A20008902CC0FDD1FCE0181579C4F6C01FC0158
:101A3000808191810E942B098BE00E94C500019753
:101A400019F5F6018081918101968A31910514F092
:101A500089E190E097FF02C090E080E0F601918379
:101A60008083C157DC4F6881C7010E94F00CB80128
:101A700082E090E0DF91CF911F910F91FF90EF9066
:101A8000DF90CF900C94BB0984E00E94C5000197C1
:101A900041F7F60120813181215031092A31310588
:101AA00014F029E130E037FF02C030E020E0F60119
:101AB00031832083D6CFCF92DF92EF92FF920F93A4
:101AC0001F93CF93DF93EC018B017A018EE794E0B3
:101AD0000E94D10282EC91E00E94060960E08CE055
:101AE0000E948902CE0101960E942B0961E080E0EC
:101AF0000E948902CC0FDD1FCE0189579C4F6C01DB
:101B0000FC01808191810E942B098BE00E94C5001D
:101B1000019719F5F6018081918101968A3191052D
:101B200014F089E190E097FF02C090E080E0F601B8
:101B300091838083C957DC4F6881C7010E94F00CF4
:101B4000B80182E090E0DF91CF911F910F91FF905B
:101B5000EF90DF90CF900C94BB0984E00E94C50009
:101B6000019741F7F60120813181215031092A3155
:101B7000310514F029E130E037FF02C030E020E009
:101B8000F60131832083D6CFCF93DF93D82FC62F92
:101B90008EE794E00E94D10261E084E00E94890215
:101BA00081ED91E00E94060961E08C2F0E94EE0019
:101BB00064EF71E080E090E00E94B60160E08C2F5D
:101BC0000E94EE0064EF71E080E090E00E94B601B8
:101BD000DD2339F061E090E080E0DF91CF910C945B
:101BE000F00CDF91CF9108950C94411B1F920F923E
:101BF0000FB60F9211242F933F938F939F93AF9320
:101C0000BF938091AB039091AC03A091AD03B091D1
:101C1000AE033091AA0323E0230F2D3758F5019628
:101C2000A11DB11D2093AA038093AB039093AC0335
:101C3000A093AD03B093AE038091AF039091B00336
:101C4000A091B103B091B2030196A11DB11D809383
:101C5000AF039093B003A093B103B093B203BF91CD
:101C6000AF919F918F913F912F910F900FBE0F9049
:101C70001F90189526E8230F0296A11DB11DD2CF03
:101C80001F920F920FB60F9211242F933F934F93F1
:101C90005F936F937F938F939F93AF93BF93EF93D4
:101CA000FF938091B900887F803609F44AC0F0F52F
:101CB000883209F4A7C018F5803109F49BC0B8F444
:101CC000882309F4F9C0883009F494C0FF91EF919A
:101CD000BF91AF919F918F917F916F915F914F9144
:101CE0003F912F910F900FBE0F901F901895883144
:101CF00009F488C0803251F78093D70314C0803430
:101D000009F49DC040F48033B9F38833F9F6809329
:101D1000D70385ECB0C0803509F485C0883509F457
:101D200096C0883499F60E94B80CD0CF883909F44F
:101D30008CC038F5883729F050F4883611F0803798
:101D400029F683E08093D90310926F0357C0883837
:101D500009F47BC0803919F0803809F0B7CF809141
:101D60006F03803208F071C0E0916F0381E08E0F45
:101D700080936F038091BB00F0E0E15BFC4F8083B8
:101D80003DC0803B39F0E0F4803A09F479C0883AEC
:101D900009F09CCF84E08093D90310924E031092F7
:101DA0004D03E0917203F0917303099580914D0307
:101DB00081110FC081E080934D0310922D0309C063
:101DC000803C09F4A6CF883C09F4A3CF883B09F0F6
:101DD0007DCFE0914E0381E08E0F80934E03F0E0C3
:101DE000E35DFC4F80818093BB0090914E03809116
:101DF0004D0329C08091B4038093BB0085EC809390
:101E0000BC0064CF9091D6038091D503981758F504
:101E1000E091D60381E08E0F8093D603F0E0EB547F
:101E2000FC4F8081E9CFE091D60381E08E0F809353
:101E3000D6038091BB00F0E0EB54FC4F808390917F
:101E4000D6038091D5039817C8F285E8D8CFE091E2
:101E5000D60381E08E0F8093D6038091BB00F0E023
:101E6000EB54FC4F80838091D80381115CCF81E0DB
:101E70008093B30384EA8093BC001092D90326CFE9
:101E800085EC8093BC001092D90380916F0380325F
:101E900030F4E0916F03F0E0E15BFC4F1082609161
:101EA0006F0370E0E0917003F09171038FE493E0B1
:101EB000099510926F030ACF1092D70334CF1F9366
:101EC000CF93DF93E3E4F4E01382128288EE93E091
:101ED000A0E0B0E084839583A683B7838DE191E091
:101EE00091838083C7E9D4E08AE0888319E01A836C
:101EF00088E0898361E089E00E944E0161E0888189
:101F00000E944E0160E089810E944E0161E08A8159
:101F10000E94EE00EEE7F4E0138212828FE291E07D
:101F200091838083108A8FEF87871686118A87E2D4
:101F30008387148615861286118684E0828B82E060
:101F4000838BC1E0C48B80E1858B80E2868B80E44B
:101F5000878B80E8808F50E040E063E0CF010E94F3
:101F6000620260E085E00E944E01E3EDF0E0E49162
:101F7000A0E7B4E0EC93EFEBF0E0E491F0E0EE0FDB
:101F8000FF1FE055FF4F8591949112969C938E937D
:101F900011971B961C921B971D961C921D971C96C1
:101FA0001C921C971A961C921A9719961C921997B4
:101FB00018961C92189717961C92179716961C92B3
:101FC000169715961C92159714961C9214971396B3
:101FD0001C921397E9E5F4E0168A158A1182B287FC
:101FE000A1871782108610821383C483C583C6839A
:101FF0000E94E901EFE4F4E06683778380879187AC
:1020000015821482DF91CF911F910895CF93DF93B2
:10201000CDB7DEB769970FB6F894DEBF0FBECDBF60
:10202000789484B5826084BD84B5816084BD85B5B3
:10203000826085BD85B5816085BD80916E008160BF
:1020400080936E0010928100809181008260809365
:102050008100809181008160809381008091800067
:102060008160809380008091B10084608093B10092
:102070008091B00081608093B00080917A0084608C
:1020800080937A0080917A00826080937A008091B8
:102090007A00816080937A0080917A0080688093D2
:1020A0007A001092C10061E081E00E944E0161E07F
:1020B00082E00E944E0161E08CE00E944E0161E0EE
:1020C00087E00E944E0161E088E00E944E018BE0B3
:1020D0000E94C50021E0019709F020E060E0822F16
:1020E0000E944E0183E00E94C50021E0019709F0A3
:1020F00020E060E0822F0E944E0184E00E94C50033
:1021000021E0019709F020E060E0822F0E944E015B
:1021100041E061E080E00E94380181E090E090932E
:102120003C0480933B0482E090E090933E048093D3
:102130003D048CE090E09093400480933F0487E05E
:1021400090E0909342048093410488E090E0909363
:1021500052048093510420E042E060E18EE794E075
:102160000E94BE06E0916204F09163041386158616
:1021700014861286118610861782168215821482A2
:102180001382109260041092610477247394662481
:1021900063946E012AE0C20ED11C0091620410917A
:1021A0006304D8011D968C91882309F42BC1F80192
:1021B000138615861486109275031092740310927C
:1021C000E003109202040E94830486EF91E0909352
:1021D00073038093720382E092E090937103809383
:1021E000700380E18093BA0085EF91E090937703CC
:1021F000809376038BE097E0909379038093780344
:1022000088E19FE00FB6F894A895809360000FBE18
:10221000909360006CE081E090E00E94F00C63E03D
:1022200082E090E00E94F00C6FE083E090E00E947A
:10223000F00C63E084E090E00E94F00C6FE085E039
:1022400090E00E94F00C62E086E090E00E94F00CCA
:1022500062E087E090E00E94F00C64E188E090E0AA
:102260000E94F00C63E089E090E00E94F00C81E0B5
:1022700090E00E94F40D90E0909388038093870390
:1022800083E090E00E94F40D90E090938A038093A5
:10229000890385E090E00E94F40D90E090938C0318
:1022A00080938B0388E090E00E94F40D90E090937F
:1022B0008E0380938D0382E090E00E94F40D90E005
:1022C0009093900380938F0384E090E00E94F40D3C
:1022D00090E0909392038093910386E090E00E94B7
:1022E000F40D90E0909394038093930389E090E041
:1022F0000E94F40D90E0909396038093950387E0FD
:1023000090E00E94F40D90E090939F0380939E03D1
:1023100090E080E00E94F40D882309F49CC188EECF
:10232000E82E83E0F82E11E00AE080910304882370
:1023300009F4A8C30E94E9014B015C0180913704B4
:1023400090913804A0913904B0913A0424013501E8
:10235000481A590A6A0A7B0AD301C201883C9105CE
:10236000A105B10508F4EAC28BE00E94C5000197FF
:1023700049F48EE794E00E94D102809101018150DE
:102380008093010184E00E94C500019749F48EE723
:1023900094E00E94D102809101018F5F809301013E
:1023A0000E94E9012B013C0180913B0490913C0487
:1023B000A0913D04B0913E04A3019201281B390B6A
:1023C0004A0B5B0BDA01C90184369105A105B10501
:1023D00008F4ACC2E0910101EC3008F04BC10E2EC4
:1023E000000CFF0BEA50FE4E0C94CF1C3813501318
:1023F00074139413B413D413F41314143414541422
:1024000074148314C8010E94240481110AC0D801E5
:102410001B961C921B971D961C921D971C961C9236
:10242000CACE40E060EFC8010E94D103EE24E394DD
:10243000A12C912CFF24F394C8010E947E03B82E96
:10244000C8010E947E03B1E0BB1273C0813009F065
:1024500092C0E0E4EF1508F0AACED8011B969C923A
:102460001B97911002C01D967C92F80183818823EE
:1024700009F49DCED8011396FE013A96055F1F4FD1
:102480007F018D9181930A171B07D9F767E0C70178
:102490000E9467039989891380CE809160048F5FC1
:1024A000809360048A85883239F008F07BC08031DF
:1024B00019F0823209F071CE809161048F5F8093B0
:1024C0006104809162049091630420915904211168
:1024D00022C00E942404B701809162049091630499
:1024E0000E94050440E064EB8091620490916304D3
:1024F0000E94D10380916204909163040E947E0344
:10250000182F80916204909163040E942404111199
:1025100002C06092590480916204909163042A85FC
:10252000203109F48BC00E942404811142C080E054
:1025300088C0EA2DF0E0B81214C0D8011B968C9127
:102540001B97F816B0F4AE0FBF1F13968C918E2117
:1025500091F4B12CB8E0BF1518F0D8011C96FC928C
:102560009F2CE00FF11F83819E2D909589238383FB
:102570000AC08F11EECFF801EA0DF11D83818E297B
:102580008383BB24B3946B2DC8010E94A203F394F0
:10259000EE0C19F4A394EE24E394B7E0BA1508F016
:1025A0004BCF57CF8B3309F487CF823409F0F5CD69
:1025B00083CFB70180916204909163040E94050467
:1025C00040E06EEB80916204909163040E94D1031D
:1025D0008E010F5F1F4F7801180180906204909068
:1025E000630498E0A92EB12C512C44244394C401D7
:1025F0000E947E0381115428440CF1E0AF1AB10807
:10260000B1F7D7015D927D01AC15BD0531F7809121
:102610006204909163040E942404813009F087CF02
:10262000F80181918F018111F6C6EE16FF06C1F700
:102630007ECF8F3571F08F3709F079CF8CE001C0F4
:102640008AE090915C04981708F0A7CD80935C0411
:10265000A4CD8BE0F6CF83E00E94C50021E0019776
:1026600009F020E068E070E0822F0E94C40D50CE97
:1026700000930101E0910001EA3008F04FC10E2EF5
:10268000000CFF0BEA5BFC4E0C94CF1C8614A714C5
:10269000B014B714BE14C514CC140D1514151B15A5
:1026A0006AED71E0CE0101960E94130B65EE71E0B8
:1026B000CE010A960E94130B50E040E0BE016F5F0E
:1026C0007F4FCE010A960E940809CE010A960E9409
:1026D000E30ACE0101960E94E30A61E070E083E024
:1026E00090E00E94BB09C6CF6AED71E0CE01019671
:1026F0000E94130B65EE71E0CE010A960E94130B47
:1027000041E050E0BE016F5F7F4FCE010A960E940C
:102710000809CE010A960E94E30ACE0101960E94A2
:10272000E30A62E070E0DBCF6FEE71E0CE0101966C
:102730000E94130B6AEF71E0CE010A960E94130B00
:1027400050E040E0BE016F5F7F4FCE010A960E94CD
:102750000809CE010A960E94E30ACE0101960E9462
:10276000E30A63E070E0BBCF6FEE71E0CE0101964B
:102770000E94130B6AEF71E0CE010A960E94130BC0
:1027800041E050E0BE016F5F7F4FCE010A960E948C
:102790000809CE010A960E94E30ACE0101960E9422
:1027A000E30A64E070E09BCF64E072E0CE01019642
:1027B0000E94130B6FE072E0CE010A960E94130B89
:1027C00050E040E0BE016F5F7F4FCE010A960E944D
:1027D0000809CE010A960E94E30ACE0101960E94E2
:1027E000E30A65E070E07BCF64E072E0CE01019621
:1027F0000E94130B6FE072E0CE010A960E94130B49
:1028000041E050E0BE016F5F7F4FCE010A960E940B
:102810000809CE010A960E94E30ACE0101960E94A1
:10282000E30A66E070E05BCF69E172E0CE010196F9
:102830000E94130B65E272E0CE010A960E94130B10
:1028400050E040E0BE016F5F7F4FCE010A960E94CC
:102850000809CE010A960E94E30ACE0101960E9461
:10286000E30A67E070E03BCF69E172E0CE010196D8
:102870000E94130B65E272E0CE010A960E94130BD0
:1028800041E050E0BE016F5F7F4FCE010A960E948B
:102890000809CE010A960E94E30ACE0101960E9421
:1028A000E30A68E070E01BCF60E372E0CE010196BE
:1028B0000E94130B6EE372E0CE010A960E94130B86
:1028C00050E040E0BE016F5F7F4FCE010A960E944C
:1028D0000809CE010A960E94E30ACE0101960E94E1
:1028E000E30A69E070E0FBCE60E372E0CE0101969E
:1028F0000E94130B6EE372E0CE010A960E94130B46
:1029000041E050E0DFCF10930101B4CE41E050E050
:1029100070E060E090E080E00E945B0D40923B043C
:1029200050923C0460923D0470923E0480923704C1
:1029300090923804A0923904B0923A04A89540E0ED
:1029400050E0452B09F4F1CC0E940000EDCC42E0B0
:1029500050E061E070E090E080E00E94F20CDECF99
:1029600043E050E062E070E081E090E0D5CF44E0E9
:1029700050E063E070E081E090E0EFCF45E050E0B0
:1029800064E070E082E090E0C7CF46E050E065E0B0
:1029900070E082E090E0E1CF8EE794E00E94D10207
:1029A0008BE492E00E94060961E080E00E948902C7
:1029B00080919E0390919F030E942B098BE00E94BF
:1029C000C5000197F9F480919E0390919F030196B1
:1029D0008A31910514F089E190E097FF02C090E000
:1029E00080E090939F0380939E0360919E0387E015
:1029F00090E00E94F00C66E070E082E090E00E94BF
:102A0000BB098CCF84E00E94C500019771F78091CB
:102A10009E0390919F030197DBCF48E050E067E071
:102A200070E083E090E078CF49E050E068E070E04B
:102A300083E090E092CF8BE00E94C500019769F49B
:102A40008EE794E00E94D1028CE592E00E94060994
:102A500060E08FE090E00E94F00C84E00E94C500EE
:102A6000019769F48EE794E00E94D10281E692E03A
:102A70000E94060961E08FE090E00E94F00C69E09E
:102A800070E0BBCF0E945B090E94B8078091A90348
:102A9000882309F4F1C38FE090E00E94F40D8111C6
:102AA00017C083E00E94C500019729F461E08FE020
:102AB00090E00E94F00C0E945B0981E00E94850B6F
:102AC0000E94B80740E060E080E00E94380136CF05
:102AD000D090A803D1105AC020E030E04CE052E47E
:102AE0006091A4037091A5038091A6039091A70320
:102AF0000E941D1A87FD10C020E030E041E654E43A
:102B00006091A0037091A1038091A2039091A3030F
:102B10000E94A31C1816D4F5C0909E03D0909F036A
:102B2000D7FC2CC040E061E081E00E941C018EE7F0
:102B300094E00E94D10260E080E00E94890287E672
:102B400092E00E94060961E080E00E948902C601CD
:102B50000E942B0987E792E00E94060931E0C31A20
:102B6000D10860E090E080E00E94F00C68EE73E035
:102B700080E090E00E94B601A895D2CF61E090E09D
:102B800080E00E94F00C1093A803D8CE4090A003E0
:102B90005090A1036090A2037090A30320E030E066
:102BA0004AEF53E4C301B2010E94A31C87FDC7C0D2
:102BB00020E030E048EC51E46091A4037091A5035B
:102BC0008091A6039091A7030E941D1A18160CF479
:102BD000B6C0D092500483E00E94C5006C011093EF
:102BE000500410924F040E94E9014B015C010E94C5
:102BF000E9012091550430915604409157045091B9
:102C00005804621B730B840B950B683E734081055F
:102C1000910550F180915304909154049C012F5FD1
:102C20003F4F3093540420935304AC014D5051094D
:102C300042305105F0F441E060E080E00E941C0168
:102C40008EE794E00E94D10261E080E00E94890258
:102C50008CE792E00E9406098092550490925604F7
:102C6000A0925704B0925804809150048093A80316
:102C700065CEAC01415151094330510580F441E02A
:102C800060E080E00E941C018EE794E00E94D10287
:102C900061E080E00E9489028DE892E0DBCF4897F6
:102CA00041E0069778F460E080E00E941C018EE726
:102CB00094E00E94D10261E080E00E9489028EE9E6
:102CC00092E0C8CF2932310584F061E081E00E94B2
:102CD0001C01609151047091520481E0CA94CD2886
:102CE00009F080E00E94C40DB7CF60E081E00E944F
:102CF0001C018EE794E00E94D10260E080E00E9417
:102D000089028DEA92E00E94060980915304909115
:102D100054040E942B0987E792E00E94060961E0B3
:102D200080E00E94890288EB92E00E940609C301BC
:102D3000B2010E946D1CCB010E942B098DCF0E9415
:102D4000E9016A8B7B8B8C8B9D8B0E94E9018090C3
:102D50001B0490901C04A0901D04B0901E046819E0
:102D600079098A099B09683E73408105910508F439
:102D7000E5CD80919C0390919D03019690939D03D6
:102D800080939C0320E030E041E654E46091A0038E
:102D90007091A1038091A2039091A3030E94A31CB0
:102DA000181674F483E00E94C50021E0019709F031
:102DB00020E068E070E0822F0E94C40DA895E2CF69
:102DC0008090A4039090A503A090A603B090A703C1
:102DD00020E030E0A901C501B4010E94A31C87FDD9
:102DE0003CC020E030E040EF51E4C501B4010E9456
:102DF0001D1A181694F18EE794E00E94D10260E04B
:102E000081E00E9489028FEB92E00E94060961E056
:102E100080E00E9489028DEC92E00E94060942E067
:102E2000C501B4010E94050A88ED92E00E940609DE
:102E300041E060E080E00E941C011092A8034A88F3
:102E40005B886C887D8840921B0450921C046092C1
:102E50001D0470921E04A89571CD20E030E040EF73
:102E600051E4C501B4010E94A31C18160CF095C0D2
:102E700020E030E042E852E4C501B4010E941D1A8E
:102E800087FF8BC010929D0310929C031092A803A1
:102E900061E087E00E94EE0060E081E00E94EE00C9
:102EA00061E082E00E94EE000E94E9014B015C01BA
:102EB00040910B0450910C0460910D0470910E042C
:102EC00080917E0324013501441A550A660A770A67
:102ED000B301A201882309F448C020918D033091E9
:102EE0008E032E9DC0012F9D900D3E9D900D1124AF
:102EF000092E000CAA0BBB0B481759076A077B0762
:102F000070F010927E0360E08CE00E94EE008092F0
:102F10000B0490920C04A0920D04B0920E048EE764
:102F200094E00E94D10260E080E00E9489028BED73
:102F300092E00E94060961E080E00E9489028DEC27
:102F400092E00E9406096091A4037091A50380910C
:102F5000A6039091A70342E00E94050A88ED92E043
:102F60000E940609109397036ACF20919503309130
:102F700096032E9DC0012F9D900D3E9D900D112416
:102F8000092E000CAA0BBB0B481759076A077B07D1
:102F900030F210937E0361E0B7CF20E030E042E8EA
:102FA00052E4C501B4010E94A31C87FD48CF809163
:102FB000040481115BC161E087E00E94EE0060E0E3
:102FC00081E00E94EE0061E082E00E94EE008090CD
:102FD000980390909903A0909A03B0909B0320E0EF
:102FE00030E04CE452E4C501B4010E941D1A1816E9
:102FF0000CF466C080910401882309F461C00E942A
:10300000E901AB01BC0180900F0490901004A090E6
:103010001104B090120480917F032A013B014818EB
:1030200059086A087B0853014201882349F120911D
:103030008F03309190032E9DC0012F9D900D3E9DDA
:10304000900D1124092E000CAA0BBB0B88169906B3
:10305000AA06BB0670F010927F0340930F045093B2
:103060001004609311047093120461E08CE00E94DC
:10307000EE001093970380E00E94850BA895DFCEA9
:1030800020918703309188032E9DC0012F9D900DC4
:103090003E9D900D1124092E000CAA0BBB0B881627
:1030A0009906AA06BB0628F310937F0340930F04EA
:1030B00050931004609311047093120460E0D6CF13
:1030C00020E030E044E352E4C501B4010E94A31CB7
:1030D00087FD71C020E030E04CE452E4C501B4014A
:1030E0000E941D1A87FF67C00E94E901AB01BC0165
:1030F00040901304509014046090150470901604CE
:1031000020918003DC01CA0184199509A609B70939
:103110002C013D01222379F12091910330919203FA
:103120002E9DC0012F9D900D3E9D900D1124092EC6
:10313000000CAA0BBB0B481659066A067B0670F0FA
:103140001092800340931304509314046093150469
:103150007093160461E08CE00E94EE0020E030E005
:1031600044E352E4C501B4010E941D1A87FF81CFD8
:10317000109304017ECF2091890330918A032E9D04
:10318000C0012F9D900D3E9D900D1124092E000C25
:10319000AA0BBB0B481659066A067B06F8F2109379
:1031A00080034093130450931404609315047093A8
:1031B000160460E0D0CFC0909303D0909403209089
:1031C0008B0330908C030E94E90120911704309109
:1031D00018044091190450911A04E09181032B01C5
:1031E0003C01421A530A640A750AA3019201EE23B4
:1031F00009F1CE9CF001CF9CF00DDE9CF00D112466
:103200002F01FF0F66087708241535054605570579
:1032100070F01092810360931704709318048093E8
:10322000190490931A0461E08CE00E94EE00109261
:10323000040194CF2E9CF0012F9CF00D3E9CF00DCC
:1032400011242F01FF0F6608770824153505460560
:10325000570568F310938103609317047093180463
:103260008093190490931A0460E0DECF40E061E09F
:1032700080E00E943801FDCE0E94E9014B015C0113
:1032800080912B0490912C04A0912D04B0912E04D8
:10329000A5019401281B390B4A0B5B0BDA01C9010C
:1032A000883E9340A105B10508F449CB809197036E
:1032B000882309F471C080917C0381114CC08091F6
:1032C00002019091030197FD35C041E061E080E08B
:1032D0000E9438018EE794E00E94D10260E080E015
:1032E0000E94890284EE92E00E94060961E080E07B
:1032F0000E94890280910201909103010E942B0992
:1033000087E792E00E9406098091020190910301F3
:103310000197909303018093020160E090E080E0C8
:103320000E94F00C68EE73E080E090E00E94B6012D
:10333000A895C5CF61E090E080E00E94F00C10936A
:103340007C03A89580922B0490922C04A0922D04CB
:10335000B0922E04F4CA8EE794E00E94D10260E09D
:1033600080E00E94890280EF92E00E94060961E0FD
:1033700080E00E9489026091A4037091A50380916E
:10338000A6039091A70342E00E94050A41E061E094
:1033900081E00E943801D5CF80917A0390917B0320
:1033A0000597A4F58EE794E00E94D10260E080E0EA
:1033B0000E94890288EF92E00E94060960E089E09D
:1033C0000E94890280917A0390917B030E942B09CD
:1033D00061E080E00E9489026091A4037091A503DE
:1033E0008091A6039091A70342E00E94050A41E064
:1033F00061E080E00E94380180917A0390917B0324
:10340000019690937B0380937A039BCF109397034D
:1034100010937C03F1CF68E0C1010E946703998596
:10342000891385C88D818F3309F40AC908F001C951
:103430008F3109F07CC889E004C90E945F1A08F442
:1034400081E00895E89409C097FB3EF4909580953B
:10345000709561957F4F8F4F9F4F9923A9F0F92F5A
:1034600096E9BB279395F695879577956795B795D8
:10347000F111F8CFFAF4BB0F11F460FF1BC06F5FBE
:103480007F4F8F4F9F4F16C0882311F096E911C0D0
:10349000772321F09EE8872F762F05C0662371F0F1
:1034A00096E8862F70E060E02AF09A95660F771F05
:1034B000881FDAF7880F9695879597F90895990FE1
:1034C0000008550FAA0BE0E8FEEF16161706E807EE
:1034D000F907C0F012161306E407F50798F0621B0F
:1034E000730B840B950B39F40A2661F0232B242BE4
:1034F000252B21F408950A2609F4A140A6958FEF03
:10350000811D811D08950E94961A0C94071B0E942C
:10351000F91A38F00E94001B20F0952311F00C944A
:10352000F01A0C94F61A11240C943B1B0E94181BE1
:1035300070F3959FC1F3950F50E0551F629FF00106
:10354000729FBB27F00DB11D639FAA27F00DB11D1F
:10355000AA1F649F6627B00DA11D661F829F2227A8
:10356000B00DA11D621F739FB00DA11D621F839F2F
:10357000A00D611D221F749F3327A00D611D231F05
:10358000849F600D211D822F762F6A2F11249F5753
:1035900050409AF0F1F088234AF0EE0FFF1FBB1F56
:1035A000661F771F881F91505040A9F79E3F510515
:1035B00080F00C94F01A0C943B1B5F3FE4F3983EB0
:1035C000D4F3869577956795B795F795E7959F5FBF
:1035D000C1F7FE2B880F911D9695879597F9089551
:1035E00097F99F6780E870E060E008959FEF80ECB6
:1035F000089500240A941616170618060906089559
:1036000000240A9412161306140605060895092EBE
:103610000394000C11F4882352F0BB0F40F4BF2B2D
:1036200011F460FF04C06F5F7F4F8F4F9F4F08956D
:1036300057FD9058440F551F59F05F3F71F0479563
:10364000880F97FB991F61F09F3F79F08795089548
:10365000121613061406551FF2CF4695F1DF08C067
:10366000161617061806991FF1CF86957105610584
:1036700008940895E894BB2766277727CB0197F92C
:103680000895F999FECF92BD81BDF89A992780B52A
:103690000895262FF999FECF1FBA92BD81BD20BD96
:1036A0000FB6F894FA9AF99A0FBE019608952F92E0
:1036B0003F924F925F926F927F928F929F92AF92C2
:1036C000BF92CF92DF92EF92FF920F931F93CF930F
:1036D000DF93CDB7DEB7CA1BDB0B0FB6F894DEBFA6
:1036E0000FBECDBF09942A88398848885F846E84CC
:1036F0007D848C849B84AA84B984C884DF80EE8016
:10370000FD800C811B81AA81B981CE0FD11D0FB61E
:10371000F894DEBF0FBECDBFED0108955058BB2712
:10372000AA270E94A61B0C94071B0E94F91A38F0C6
:103730000E94001B20F039F49F3F19F426F40C94EA
:10374000F61A0EF4E095E7FB0C94F01AE92F0E94AC
:10375000181B58F3BA17620773078407950720F000
:1037600079F4A6F50C943A1B0EF4E0950B2EBA2FC3
:10377000A02D0B01B90190010C01CA01A001112477
:10378000FF27591B99F0593F50F4503E68F11A1623
:10379000F040A22F232F342F4427585FF3CF4695B4
:1037A00037952795A795F0405395C9F77EF41F16D6
:1037B000BA0B620B730B840BBAF09150A1F0FF0FA0
:1037C000BB1F661F771F881FC2F70EC0BA0F621F8C
:1037D000731F841F48F4879577956795B795F7957C
:1037E0009E3F08F0B0CF9395880F08F09927EE0F11
:1037F0009795879508950E940F1C0C94071B0E94B3
:10380000001B58F00E94F91A40F029F45F3F29F09C
:103810000C94F01A51110C943B1B0C94F61A0E9454
:10382000181B68F39923B1F3552391F3951B550B9E
:10383000BB27AA2762177307840738F09F5F5F4F83
:10384000220F331F441FAA1FA9F335D00E2E3AF0C2
:10385000E0E832D091505040E695001CCAF72BD0DA
:10386000FE2F29D0660F771F881FBB1F261737072B
:103870004807AB07B0E809F0BB0B802DBF01FF275D
:1038800093585F4F3AF09E3F510578F00C94F01A30
:103890000C943B1B5F3FE4F3983ED4F386957795F9
:1038A0006795B795F7959F5FC9F7880F911D969516
:1038B000879597F90895E1E0660F771F881FBB1F72
:1038C000621773078407BA0720F0621B730B840B1F
:1038D000BA0BEE1F88F7E09508950E94741C689457
:1038E000B1110C943B1B08950E94201B88F09F5738
:1038F00098F0B92F9927B751B0F0E1F0660F771F14
:10390000881F991F1AF0BA95C9F714C0B13091F009
:103910000E943A1BB1E008950C943A1B672F782F50
:103920008827B85F39F0B93FCCF3869577956795CE
:10393000B395D9F73EF490958095709561957F4F3A
:103940008F4F9F4F08950E945F1A08F48FEF0895DC
:103950000E945F1A880B990B0895A1E21A2EAA1BE8
:10396000BB1BFD010DC0AA1FBB1FEE1FFF1FA2172F
:10397000B307E407F50720F0A21BB30BE40BF50B2C
:10398000661F771F881F991F1A9469F760957095B5
:10399000809590959B01AC01BD01CF010895EE0F7C
:1039A000FF1F0590F491E02D09940F931F93CF937F
:1039B000DF938230910510F482E090E0E0919C0466
:1039C000F0919D0430E020E0B0E0A0E0309799F461
:1039D0002115310509F44AC0281B390B2430310563
:1039E000D8F58A819B816115710589F1FB0193836B
:1039F0008283FE0111C040815181028113814817E9
:103A00005907E0F04817590799F4109761F012969A
:103A10000C93129713961C933296CF01DF91CF919E
:103A20001F910F91089500939C0410939D04F4CF6F
:103A30002115310551F04217530738F0A901DB0178
:103A40009A01BD01DF01F801C1CFEF01F9CF9093D9
:103A50009D0480939C04CDCFFE01E20FF31F819360
:103A600091932250310939832883D7CF20919A042A
:103A700030919B04232B41F42091070130910801E0
:103A800030939B0420939A04209105013091060104
:103A90002115310541F42DB73EB7409109015091F0
:103AA0000A01241B350BE0919A04F0919B04E21764
:103AB000F307A0F42E1B3F0B2817390778F0AC0151
:103AC0004E5F5F4F2417350748F04E0F5F1F50932E
:103AD0009B0440939A04819391939FCFF0E0E0E0A0
:103AE0009CCFCF93DF930097E9F0FC0132971382CC
:103AF0001282A0919C04B0919D04ED0130E020E081
:103B00001097A1F420813181820F931F20919A0494
:103B100030919B042817390709F061C0F0939B048A
:103B2000E0939A04DF91CF910895EA01CE17DF0761
:103B3000E8F54A815B819E0141155105B1F7E90124
:103B4000FB83EA8349915991C40FD51FEC17FD07F8
:103B500061F4808191810296840F951FE901998318
:103B60008883828193819B838A83F0E0E0E01296D0
:103B70008D919C9113970097B9F52D913C911197D8
:103B8000CD010296820F931F20919A0430919B04DD
:103B90002817390739F6309751F510929D04109285
:103BA0009C04B0939B04A0939A04BCCFD383C2839C
:103BB00040815181840F951FC817D90761F44E5F6A
:103BC0005F4F88819981480F591F518340838A81B3
:103BD0009B81938382832115310509F0B0CFF09347
:103BE0009D04E0939C049ECFFD01DC01C0CF1382B5
:103BF0001282D7CFB0E0A0E0E0E0FEE10C94591BC8
:103C00008C01009751F4CB010E94D51C8C01C80196
:103C1000CDB7DEB7E0E10C94751BFC01E60FF71F92
:103C20009C0122503109E217F30708F49DC0D90125
:103C3000CD91DC911197C617D70798F0C530D10503
:103C400030F3CE0104978617970708F3C61BD70BEE
:103C50002297C193D1936D937C93CF010E94711DE4
:103C6000D6CF5B01AC1ABD0A4C018C0E9D1EA091F3
:103C70009C04B0919D04512C412CF12CE12C109707
:103C800031F580919A0490919B048815990509F06B
:103C90005CC04616570608F058C080910501909107
:103CA0000601009741F48DB79EB7409109015091EC
:103CB0000A01841B950BE817F90708F055C0F0932B
:103CC0009B04E0939A04F90171836083A0CF8D91E6
:103CD0009C91119712966C90129713967C90139763
:103CE000A815B90559F56C0142E0C40ED11CCA14DF
:103CF000DB0420F1AC014A195B09DA011296159731
:103D000080F06282738251834083D9016D937C93EA
:103D1000E114F10471F0D7011396FC93EE9312971E
:103D200076CF22968C0F9D1FF90191838083F3013A
:103D3000EFCFF0939D04E0939C0469CF4816590699
:103D400008F42C017D01D3019ACFCB010E94D51C30
:103D50007C01009749F0AE01B8010E94BC1EC80169
:103D60000E94711D870153CF10E000E050CF81E029
:103D700090E0F8940C94CC1EFB01DC0102C0019091
:103D80000D9241505040D8F70895FB01DC0101909D
:103D90000D920020E1F70895F894FFCFC8010200CA
:103DA0000100009E04800000401454004010505E4A
:103DB00000BC007701000000000006D3050807A939
:103DC00005CC05B905AA050000000076022C020802
:103DD000076603BE066202A50686067700650073C5
:103DE000003C2D006E616E00696E66006F766600A5
:103DF00052454C415920414E4F49585441202121B0
:103E000021004B412E4C4549542E2048494748201B
:103E100054454D502041004B414E4F4E494B482098
:103E20004C4549542E41004B414E4F4E494B482082
:103E30004C4549542E204D00464F54494100250021
:103E40004B4159534145524941004E45524F00584C
:103E5000524F4E4F532052495350203D200058524C
:103E60004F4E4F5320414E414D203D200050524F68
:103E7000564C494D410058524F4E2E5249502E48F3
:103E80000058524F4E2E414E2E480058524F4E2E43
:103E90005249502E4D0058524F4E2E414E2E4D003D
:103EA00058524F4E2E5249502E4C0058524F4E2EC3
:103EB000414E2E4C0058524F4E2E414E2E5A4553D5
:103EC0000058524F4E2E412E50454C004F50454EFB
:103ED00020332052454C4159530058524F4E2E50DA
:103EE000454C2E5A455300415258494B4F2050459E
:103EF0004C4C4554203D20004F50454E00434C4F04
:103F000053450045495341475747492050454C4C7C
:103F10004554002073656300414552415320414E92
:103F20004F4958544F53203100414552415320418D
:103F30004E4F4958544F532032004145524153206F
:103F4000414E4F4958544F5300414E41464C454B0A
:103F500053492000464F544941200058414D494C97
:103F60004920454E41555349004B41595341455213
:103F7000494120002043005A455354414D412000FF
:103F80004B415448415249534D4F53004B4C4549C6
:0E3F900053544F004B4C454953494D4F0000D0
:107800000C94343C0C94513C0C94513C0C94513CE1
:107810000C94513C0C94513C0C94513C0C94513CB4
:107820000C94513C0C94513C0C94513C0C94513CA4
:107830000C94513C0C94513C0C94513C0C94513C94
:107840000C94513C0C94513C0C94513C0C94513C84
:107850000C94513C0C94513C0C94513C0C94513C74
:107860000C94513C0C94513C11241FBECFEFD8E036
:10787000DEBFCDBF11E0A0E0B1E0ECE9FFE702C060
:1078800005900D92A230B107D9F712E0A2E0B1E065
:1078900001C01D92AD30B107E1F70E942D3D0C945F
:1078A000CC3F0C94003C982F959595959595959582
:1078B000905D8F708A307CF0282F295A8091C0000B
:1078C00085FFFCCF9093C6008091C00085FFFCCF60
:1078D0002093C6000895282F205DF0CF982F809127
:1078E000C00085FFFCCF9093C6000895EF92FF92F1
:1078F0000F931F93EE24FF2487018091C00087FD22
:1079000017C00894E11CF11C011D111D81E4E8164B
:1079100082E4F8068FE0080780E0180770F3E09132
:107920000401F091050109958091C00087FFE9CF1E
:107930008091C6001F910F91FF90EF9008950E94D3
:10794000763C982F8091C00085FFFCCF9093C600B5
:1079500091362CF490330CF09053892F089597555D
:10796000892F08951F930E949F3C182F0E949F3CCF
:107970001295107F810F1F9108951F93182F882350
:1079800021F00E94763C1150E1F71F9108951F935A
:10799000182F0E94763C803249F0809103018F5F5E
:1079A000809303018530C1F01F9108958091C0003C
:1079B00085FFFCCF84E18093C6008091C00085FFE5
:1079C000FCCF1093C6008091C00085FFFCCF80E102
:1079D0008093C6001F910895E0910401F091050184
:1079E00009951F9108950E94763C803241F0809164
:1079F00003018F5F80930301853081F008958091AA
:107A0000C00085FFFCCF84E18093C6008091C00058
:107A100085FFFCCF80E18093C6000895E0910401CA
:107A2000F09105010995089540E951E08823A1F0FE
:107A30002D9A28EE33E0FA013197F1F721503040CA
:107A4000D1F72D9828EE33E0FA013197F1F7215064
:107A50003040D1F7815061F708953F924F925F9285
:107A60006F927F928F929F92AF92BF92CF92DF924E
:107A7000EF92FF920F931F93CF93DF93000080E16B
:107A80008093C4001092C50088E18093C10086E015
:107A90008093C2005098589A259A81E00E94143D24
:107AA00024E1F22E9EE1E92E85E9D82E0FE0C02ECA
:107AB00010E1B12EAA24A394B1E49B2EA6E58A2E50
:107AC000F2E57F2EE0E26E2E79E4572E63E5462E36
:107AD00050E5352E0E94763C8033B1F18133B9F107
:107AE000803409F46FC0813409F476C0823409F41B
:107AF00085C0853409F488C0803531F1823521F1A3
:107B0000813511F1853509F485C0863509F48DC0BC
:107B1000843609F496C0843709F403C1853709F423
:107B200072C1863709F466C0809103018F5F80932C
:107B30000301853079F6E0910401F0910501099582
:107B40000E94763C803351F60E94F33CC3CF0E94E2
:107B5000763C803249F78091C00085FFFCCFF092DF
:107B6000C6008091C00085FFFCCF9092C600809136
:107B7000C00085FFFCCF8092C6008091C00085FFC9
:107B8000FCCF7092C6008091C00085FFFCCF609250
:107B9000C6008091C00085FFFCCF5092C600809146
:107BA000C00085FFFCCF4092C6008091C00085FFD9
:107BB000FCCF3092C6008091C00085FFFCCFB09210
:107BC000C60088CF0E94763C863808F4BDCF0E945C
:107BD000763C0E94F33C7ECF0E94763C803809F4CC
:107BE0009CC0813809F40BC1823809F43CC1883942
:107BF00009F48FC080E00E94C73C6CCF84E10E94F2
:107C0000BD3C0E94F33C66CF85E00E94BD3C0E94D3
:107C1000F33C60CF0E94763C809306010E94763C44
:107C2000809307010E94F33C55CF0E94763C80333D
:107C300009F41DC183E00E94BD3C80E00E94C73C66
:107C400049CF0E94763C809309020E94763C809343
:107C5000080280910C028E7F80930C020E94763C79
:107C6000853409F415C18091080290910902892B8D
:107C700089F000E010E00E94763CF801E85FFE4FDA
:107C800080830F5F1F4F80910802909109020817AF
:107C9000190788F30E94763C803209F045CF809125
:107CA0000C0280FF01C16091060170910701660F0F
:107CB000771F7093070160930601A0910802B091AD
:107CC00009021097C9F0E8E0F1E09B01AD014E0F09
:107CD0005F1FF999FECF32BD21BD819180BDFA9A17
:107CE000F99A2F5F3F4FE417F50799F76A0F7B1F4B
:107CF00070930701609306018091C00085FFFCCF5F
:107D0000F092C6008091C00085FFFCCFB092C60003
:107D1000E1CE83E00E94C73CDDCE82E00E94C73CFA
:107D2000D9CE0E94763C809309020E94763C8093D3
:107D300008028091060190910701880F991F909386
:107D40000701809306010E94763C853409F4A6C0A1
:107D500080910C028E7F80930C020E94763C8032D0
:107D600009F0B8CE8091C00085FFFCCFF092C6002C
:107D7000609108027091090261157105B9F140E046
:107D800050E080910C02A82FA170B82FB27011C0E2
:107D9000BB2309F45CC0E0910601F0910701319624
:107DA000F0930701E09306014F5F5F4F46175707B7
:107DB000E8F4AA2369F3F999FECF209106013091E6
:107DC000070132BD21BDF89A90B58091C00085FFB2
:107DD000FCCF9093C6002F5F3F4F30930701209355
:107DE00006014F5F5F4F4617570718F38091C00099
:107DF00085FDE5CE8091C00085FFF8CFE0CE81E023
:107E00000E94C73C67CE0E94763C803209F08CCE3F
:107E10008091C00085FFFCCFF092C6008091C00029
:107E200085FFFCCFE092C6008091C00085FFFCCFAB
:107E3000D092C6008091C00085FFFCCFC092C600E2
:107E40008091C00085FFFCCFB092C60043CEE09188
:107E50000601F091070194918091C00085FFFCCF4D
:107E60009093C6009CCF80E10E94C73C33CE0E9415
:107E7000763C0E94763C182F0E94763C112309F430
:107E800083C0113009F484C08FE00E94C73C22CE29
:107E900080910C02816080930C02E5CE80910C02EF
:107EA000816080930C0259CF809107018823880F4D
:107EB000880B8A2180930B02809106019091070123
:107EC000880F991F90930701809306018091080203
:107ED00080FF09C080910802909109020196909359
:107EE000090280930802F894F999FECF1127E091D6
:107EF0000601F0910701C8E0D1E08091080290915D
:107F00000902103091F40091570001700130D9F34B
:107F100003E000935700E89500915700017001308D
:107F2000D9F301E100935700E89509901990009169
:107F3000570001700130D9F301E000935700E89534
:107F40001395103498F011270091570001700130FB
:107F5000D9F305E000935700E895009157000170B0
:107F60000130D9F301E100935700E895329602976A
:107F700009F0C7CF103011F00296E5CF112480919F
:107F8000C00085FFB9CEBCCE8EE10E94C73CA2CD19
:0E7F900085E90E94C73C9ECDF894FFCF80008B
:00000001FF
