:020000040000FA
:100000000C9472000C949A000C949A000C949A0030
:100010000C949A000C949A000C949A000C949A00F8
:100020000C949A000C949A000C949A000C949A00E8
:100030000C949A000C949A000C949A000C949A00D8
:100040000C940E0A0C949A000C949A000C949A004A
:100050000C949A000C949A000C949A000C949A00B8
:100060000C94580A0C949A00005EBCE2613FDD8358
:10007000C29C7E20A3FD1F41009D23BE46DB65F888
:100080008C11AF32CA57E974000000002400270029
:100090002A0000000000250028002B0000000008B6
:1000A000000201000003040700000000000000003F
:1000B00000000000230026002900040404040404B6
:1000C0000404020202020202030303030303010207
:1000D00004081020408001020408102001020408D6
:1000E0001020770B11241FBECFEFD8E0DEBFCDBFAD
:1000F00023E0A2E3B2E001C01D92A83AB207E1F703
:1001000012E0A0E0B1E0EAE8F2E302C005900D924F
:10011000A233B107D9F710E0C2E7D0E004C02197BD
:10012000FE010E944617C137D107C9F70E94140C7F
:100130000C9443190C940000833081F028F4813032
:1001400099F08230A9F008958730A9F08830C9F07D
:100150008430B1F4809180008F7D03C08091800055
:100160008F7780938000089584B58F7784BD08953C
:1001700084B58F7DFBCF8091B0008F778093B000E6
:1001800008958091B0008F7DF9CFCF93DF93282F12
:1001900030E0F901E456FF4F8491F901E253FF4F3B
:1001A000D491F901E654FF4FC491CC23A1F0811101
:1001B0000E949C00EC2FF0E0EE0FFF1FE055FF4F78
:1001C000A591B491EC91ED2381E090E009F480E0F9
:1001D000DF91CF91089580E090E0FACF1F93CF9305
:1001E000DF93282F30E0F901E456FF4F8491F901A5
:1001F000E253FF4FD491F901E654FF4FC491CC2351
:10020000A9F0162F81110E949C00EC2FF0E0EE0F58
:10021000FF1FEE56FF4FA591B4918FB7F894EC9164
:10022000111108C0D095DE23DC938FBFDF91CF91F1
:100230001F910895DE2BF8CFCF93DF9390E0FC0160
:10024000E253FF4F249186549F4FFC0184918823F1
:10025000D1F090E0880F991FFC01E857FF4FA5915E
:10026000B491FC01EE56FF4FC591D49161110EC0BF
:100270009FB7F8948C91E22FE0958E238C93288180
:10028000E223E8839FBFDF91CF9108958FB7F89461
:10029000EC91E22BEC938FBFF6CF8E50806480936D
:1002A0007C0080917A00806480937A0080917A004B
:1002B00086FDFCCF809178009091790008953FB73A
:1002C000F8948091030390910403A0910503B091E9
:1002D000060326B5A89B05C02F3F19F00196A11D66
:1002E000B11D3FBFBA2FA92F982F8827BC01CD0180
:1002F000620F711D811D911D42E0660F771F881FDF
:10030000991F4A95D1F708958F929F92AF92BF920D
:10031000CF92DF92EF92FF926B017C010E945F010E
:100320004B015C01C114D104E104F104B9F00E9455
:100330005F01681979098A099B09683E7340810544
:10034000910580F321E0C21AD108E108F10888EE96
:10035000880E83E0981EA11CB11CE4CFFF90EF90A3
:10036000DF90CF90BF90AF909F908F9008952FB760
:10037000F8946091FF0270910003809101039091C5
:1003800002032FBF08950895E091A002F091A10209
:10039000309729F01092340310925603099408956F
:1003A000CF93DF93AC01E0919E02F0919F023097D2
:1003B000F1F090919D0280919C029817C0F090E01E
:1003C000292F30E02617370754F4D901AC5CBD4F14
:1003D000240F351FE90128812C939F5FF1CF1092E4
:1003E0009D0260939C02CB01DF91CF910994DF9134
:1003F000CF910895AF92BF92CF92DF92EF92FF928A
:100400000F931F93CF93DF936C017B018B01040F3C
:10041000151FEB015E01AE18BF08C017D10759F0D8
:100420006991D601ED91FC910190F081E02DC6011A
:100430000995892B79F7C501DF91CF911F910F9114
:10044000FF90EF90DF90CF90BF90AF900895FC01A8
:10045000448155816081718188E893E00C94FA01B0
:1004600021E001C0220F6A95EAF7DC011C962C936B
:100470001C971A965C934E931997ED91FC91048406
:10048000F585E02D60E00994DC01ED91FC91068496
:10049000F785E02D41E0099581E090E00895DC01C9
:1004A000ED91FC910684F785E02D40E009940F93CF
:1004B0001F93CF93DF93CDB7DEB728970FB6F8948D
:1004C000DEBF0FBECDBF00910B0110910C0120913A
:1004D0000D0130910E010D831E832F83388700910B
:1004E0000F01109110012091110130911201098327
:1004F0001A832B833C8390918F03691710F06FEF61
:10050000690F262F30E0409190032C0F3D1FF90119
:10051000403199F4943089F46181680F606888E80B
:1005200093E028960FB6F894DEBF0FBECDBFDF91E3
:10053000CF911F910F910C944F026581EECF61E036
:100540000E944F028BE39FE10197F1F708950F930B
:100550001F93CF93DF93EC01423018F08C818860B9
:100560008C834F836887222329F0413019F48C81D2
:1005700084608C8364E670E080E090E00E948401F7
:100580006C8164FD57C0E881F9810684F785E02D10
:1005900042E063E0CE0109958BE496E40197F1F720
:1005A000E881F9810684F785E02D42E063E0CE0121
:1005B000099503E512E0C8010197F1F7E881F98197
:1005C0000684F785E02D42E063E0CE010995C8017D
:1005D0000197F1F7E881F9810684F785E02D42E083
:1005E00062E0CE010995C8010197F1F76C81606264
:1005F000CE010E944F028BEE90E00197F1F784E06C
:100600008D836CE0CE010E944F02CE010E949F02BA
:1006100082E08E8366E0CE010E944F02E881F9817C
:100620000484F585E02D6FEFCE01DF91CF911F910E
:100630000F9109946062CE010E944F028BE496E410
:100640000197F1F76C816062CE010E944F0203E5D1
:1006500012E0C8010197F1F76C816062CE010E943F
:100660004F02C1CF089508950895DC0180E06150E4
:1006700090F09D919827E92FEF70F0E0E859FF4F37
:100680002491E92FE295EF70F0E0E858FF4FE491F4
:10069000822F8E27ECCF0895DC012C911196ED91DD
:1006A000FC91F8948181822B81839281322F309545
:1006B0009323928387E090E00197F1F78181832370
:1006C000818383E290E00197F1F790817894EFECD9
:1006D000F0E03197F1F7922381E009F480E008958A
:1006E000FC0190810180F281E02D292F209560FF8F
:1006F00014C0F8948281822382838181892B818333
:10070000A3E2B0E01197F1F78281982B928378945D
:1007100087ED90E00197F1F70895F89482818223A4
:1007200082838181892B8183AFEFB0E01197F1F74C
:100730008281982B928378948FE090E0EBCFDF92C8
:10074000EF92FF920F931F93CF93DF93EC01D62E7E
:10075000E42E08E010E0FF24F39461E08D2D8F215A
:1007600009F460E0CE010E947003FF0C01501109F2
:10077000A1F7E11010C0F894E981FA819181888194
:10078000809589238183E981FA819281888180958E
:10079000892382837894DF91CF911F910F91FF90ED
:1007A000EF90DF900895EF92FF920F931F93CF93F6
:1007B000DF938C017B0140E065E50E949F03E70128
:1007C00088E0E80EF11C699140E0C8010E949F0397
:1007D000CE15DF05C1F7DF91CF911F910F91FF90EB
:1007E000EF900895FC0190810180F281E02DF89452
:1007F0008181292F20958223818378943DE743E0EE
:1008000050E0315029F1DA011197F1F78081892305
:10081000C1F3F8948281822382838181892B818331
:100820007894ABE7B7E01197F1F7F89481818223D0
:100830008183A3E1B1E01197F1F78081982381E0F2
:1008400009F080E07894E3E6F6E03197F1F7089557
:1008500080E0089520917502260F3327331F21323F
:100860003105ECF420912D03FC0190E080E0243070
:1008700069F082E00895A09175022191AC014B5A74
:100880005D4FA40FB52FB11D2C930196861798F3D9
:1008900080917502680F6093750280E0089581E091
:1008A000089510922D0381E080932C03109207038A
:1008B00061E082E10E94EE0061E083E10E94EE00CF
:1008C000E9EBF0E080818E7F808380818D7F808363
:1008D00088E48093B80085E48093BC000895CF93AA
:1008E000DF9391E0909354028823B9F0C091B8004F
:1008F000D091BA008091BC008A7B8093BC0060E0FC
:1009000082E10E94EE0060E083E10E94EE000E941E
:100910005104D093BA00C093B800DF91CF910895ED
:10092000CF92DF92EF92FF920F931F93CF93DF93BB
:10093000D091560381E0D13208F09CC0C09155039C
:100940000E945F016B017C0180912D0381116CC0BD
:1009500082E080932D0381E080932C038FEF8093BE
:100960002B0310922A03D0932903A5E3B3E0E9E017
:10097000F3E080E0D8138DC0109208038091080343
:10098000CC0FC82BC093080380910703813009F076
:1009900084C0109207030E945F016B017C0180916B
:1009A00008038093BB0080912F0390913003A091A6
:1009B0003103B0913203892B8A2B8B2BA1F00E943B
:1009C0005F0100912F03109130032091310330918A
:1009D00032036C197D098E099F090617170728072E
:1009E000390708F442C08091BC0083FDD8CF85EC64
:1009F0008093BC000E945F016B017C0180912D03FC
:100A0000823009F44CC080912B038F3F09F469C0F8
:100A100080912B03803209F466C080912B038033D0
:100A200009F463C084E026C080912F0390913003C5
:100A3000A0913103B0913203892B8A2B8B2B09F4BF
:100A400083CF0E945F0100912F031091300320910A
:100A50003103309132036C197D098E099F09061705
:100A600017072807390708F06FCF80912E030E94DF
:100A70006F0485E0109234031092560310923303F2
:100A8000DF91CF911F910F91FF90EF90DF90CF906A
:100A900008959D9191938F5F6DCF85EEA9CF809141
:100AA0002F0390913003A0913103B0913203892B31
:100AB0008A2B8B2B09F4A2CF0E945F0100912F0398
:100AC0001091300320913103309132036C197D096C
:100AD0008E099F09061717072807390708F08ECFD8
:100AE000C4CF80E0C7CF82E0C5CF83E0C3CF0895F5
:100AF000E0919D0280919C02E81730F4F0E0EC5CFC
:100B0000FD4F808190E008958FEF9FEF08959091C1
:100B10009D0280919C022FEF3FEF981748F4E92F38
:100B2000F0E0EC5CFD4F208130E09F5F90939D02F0
:100B3000C901089580919C0290919D02891B990B97
:100B40000895CF92DF92EF92FF920F931F93CF936E
:100B5000DF937C01CB018A0120913303222389F0AA
:100B6000EB016B01C40ED51ECC15DD0569F0699152
:100B7000D701ED91FC910190F081E02DC70109951D
:100B8000F3CF642F0E942A04C801DF91CF911F91F7
:100B90000F91FF90EF90DF90CF900895CF93DF9368
:100BA0001F92CDB7DEB76983209133032223F9F07A
:100BB00020915603203258F021E030E0FC013383CD
:100BC000228390E080E00F90DF91CF910895809193
:100BD0003403E82FF0E0EB5CFC4F998190838F5F4A
:100BE000809334038093560381E090E0ECCF61E082
:100BF000CE0101960E942A04F7CFFC012381222313
:100C0000E1F08181682B6083828191E090933303CE
:100C100080935503109234031092560387E593E0B6
:100C20000E94CE050E949004282F30E081E090E0E1
:100C3000232B11F090E080E0089530E020E0F6CF23
:100C4000EF92FF920F931F93CF938C01FC0184E0EE
:100C5000C0E0262F30E060FF02C09589C92BB901A2
:100C600075956795815031968111F3CF413011F41C
:100C7000F8014489F8016585C62BC42B7801FEE094
:100C8000EF0EF11CF80162896C2BC7010E94FD0573
:100C9000F801628960956C23C701CF911F910F9174
:100CA000FF90EF900C94FD050F931F93CF93DF936C
:100CB000062F0F70423041F440E0602FDF91CF915A
:100CC0001F910F910C942006142FEC0170E084E02A
:100CD000759567958A95E1F7CE010E942006412F10
:100CE000602FCE01EBCFFC0184858823A1F0218504
:100CF00032852115310521F4611107C0158606C022
:100D000021303105D9F76111F9CF85876585CF018C
:100D10000E960C94FD050895EF92FF920F931F938A
:100D2000CF93DF93EC01062FF42EE22E8B85888B78
:100D300010929D0210929C0210923403109256035E
:100D40000E94510484EC91E090939B0280939A025C
:100D500080ED91E09093990280939802888911E048
:100D600010933303809355030E94900481111CC09B
:100D7000198B87E593E00E9487058E8789898823F0
:100D800039F01F861C8260E0CE010E960E94FD05A0
:100D90002E2D4F2D602FCE01DF91CF911F910F91FE
:100DA000FF90EF900C94A702198AE8CF90E080E0C2
:100DB00008954F925F926F927F928F929F92AF921F
:100DC000BF92CF92DF92EF92FF920F931F93CF9338
:100DD000DF93CDB7DEB72C970FB6F894DEBF0FBE0A
:100DE000CDBF6091F0027091F1028091F20290917A
:100DF000F3020E94E4164B017B016091EC027091BA
:100E0000ED028091EE029091EF020E94E4162B0118
:100E10006B016091F4027091F5028091F60290915D
:100E2000F7020E94E4168B01072E000C880B990B29
:100E30000E94A31420E030E040E05FE317FD5DC0B6
:100E40000E9406160E94E416162F072FB201550CB9
:100E5000880B990B0E94A31420E030E040E05FE390
:100E6000D7FC4EC00E9406160E94E416D62EC72E4E
:100E7000B401990C880B990B0E94A31420E030E078
:100E800040E05FE3F7FC3FC00E9406160E94E416B4
:100E900009831A832FE331E02B83CC82DD8224E5A2
:100EA00031E02E837F83688781E491E089871A8609
:100EB00083E491E08B8781E08C874CE050E0BE01B9
:100EC0006F5F7F4F87E593E00E94A1052C960FB6D8
:100ED000F894DEBF0FBECDBFDF91CF911F910F9170
:100EE000FF90EF90DF90CF90BF90AF909F908F904A
:100EF0007F906F905F904F9008950E940516A2CF4B
:100F00000E940516B1CF0E940516C0CF1F93CF9344
:100F1000DF93162FD42FC22F682F8AE00E94EE0095
:100F2000612F82E00E94EE006D2F86E00E94EE00AD
:100F30006C2F87E0DF91CF911F910C94EE00FC01A4
:100F400001900020E9F73197AF01481B590BBC0114
:100F500088E893E00C94FA018F929F92AF92BF922F
:100F60000F931F93CF93DF93CDB7DEB7A1970FB643
:100F7000F894DEBF0FBECDBF19A2423008F44AE09C
:100F80008E010F5D1F4F842E912CB12CA12CA50139
:100F900094010E942417E62FB901CA01EA30F4F443
:100FA000E05DD801EE938D01232B242B252B79F7BF
:100FB00090E080E0109719F0CD010E949F07A19664
:100FC0000FB6F894DEBF0FBECDBFDF91CF911F915A
:100FD0000F91BF90AF909F908F900895E95CE1CF03
:100FE0000C949F0788E893E00E949F0261E084E0F0
:100FF0000E94570285E491E00E94F00761E08DE0D5
:101000000E94EE0064EF71E080E090E00E948401B5
:1010100060E08DE00E94EE0064EF71E080E090E01F
:101020000C948401CF92DF92EF92FF92CF93DF93E3
:101030006C01990FEE08FF08F7FE19C06DE288E811
:1010400093E00E944402EC0166277727CB016C19DC
:101050007D098E099F094AE00E94AC078C0F9D1FF5
:10106000DF91CF91FF90EF90DF90CF9008954AE00D
:10107000C701B601DF91CF91FF90EF90DF90CF9045
:101080000C94AC07CF92DF92EF92FF920F931F93D5
:10109000CF93C82F8B010E94B7016B017C01809117
:1010A000E2029091E302A091E402B091E502A7016F
:1010B0009601281B390B4A0B5B0BDA01C901883EEC
:1010C0009340A105B10568F183E00E94C500019736
:1010D00041F580913202909133020817190714F4F8
:1010E000C093FD0288E893E00E949F0260E081E0E7
:1010F0000E94570280913202909133020E9412089E
:101100008091320290913302019690933302809342
:101110003202C092E202D092E302E092E402F09244
:10112000E502A895CF911F910F91FF90EF90DF906E
:10113000CF9008954F925F926F927F928F929F927D
:10114000AF92BF92CF92DF92EF92FF920F931F93D5
:10115000CF936B017C01742EAC019B010E941F1781
:10116000882399F08EE491E0CF911F910F91FF9029
:10117000EF90DF90CF90BF90AF909F908F907F9037
:101180006F905F904F900C949F0746015701E89431
:10119000B7F82FEF3FEF4FE75FE7C501B4010E94BB
:1011A0001F1781110DC02FEF3FEF4FE75FE7C5011C
:1011B000B4010E949C1418161CF482E591E0D4CF6F
:1011C0002FEF3FEF4FE75FE4C701B6010E941A1708
:1011D00018161CF486E591E0C7CF2FEF3FEF4FE7DD
:1011E0005FECC701B6010E949C1487FDF3CF20E09D
:1011F00030E0A901C701B6010E949C1410E000E094
:1012000087FF0AC06DE288E893E00E9444028C01E7
:10121000F7FAF094F7F8F094C0E060E070E080E056
:101220009FE37C1641F020E030E040E251E40E9470
:101230007216CF5FF6CFA70196010E9406162B010A
:101240003C010E94EB164B015C014AE00E94AC0796
:101250007C01E00EF11ECC23C1F1C501B4010E9456
:10126000A1149B01AC01C301B2010E9405164B0100
:101270005C016EE288E893E00E944402E80EF91EE9
:10128000C15018F120E030E040E251E4C501B40162
:101290000E9402152B013C010E94EB164B01B12C60
:1012A000A12C4AE0C501B4010E94AC07E80EF91E6A
:1012B000C501B4010E94A1149B01AC01C301B2019C
:1012C0000E9405164B015C01DBCFC701CF911F9136
:1012D0000F91FF90EF90DF90CF90BF90AF909F90D5
:1012E0008F907F906F905F904F9008950E942E197D
:1012F0000F931F93CF93DF93EC018881998100971F
:1013000059F02A813B812617370730F081E0DF91C1
:10131000CF911F910F9108958B016F5F7F4F0E94B6
:101320007118009759F0998388831B830A832C8155
:101330003D81232B59F7FC011082E8CF80E0E7CFF5
:10134000EF92FF920F931F93CF93DF93EC017B01FA
:10135000FB0101900020E9F731978F01061B170B65
:10136000B8010E94780928813981811113C02115A3
:10137000310519F0C9010E94E817198218821D82EF
:101380001C821B821A82DF91CF911F910F91FF90D7
:10139000EF9008951D830C83B701C901DF91CF91B0
:1013A0001F910F91FF90EF900C943C1985ED809365
:1013B000BC0080912F0390913003A0913103B09134
:1013C00032030796A11DB11D23E0B695A795979509
:1013D00087952A95D1F72091BC0024FD03C0109277
:1013E0002D03089540912F035091300360913103F4
:1013F00070913203452B462B472B69F30097A105CB
:10140000B10541F02AE22A95F1F700C00197A10940
:10141000B109E1CF80912E030C946F041F920F92BB
:101420000FB60F9211242F933F938F939F93AF93F7
:10143000BF938091FF0290910003A0910103B091AE
:1014400002033091FE0223E0230F2D3758F5019659
:10145000A11DB11D2093FE028093FF029093000313
:10146000A0930103B09302038091030390910403BE
:10147000A0910503B09106030196A11DB11D8093B3
:10148000030390930403A0930503B0930603BF9155
:10149000AF919F918F913F912F910F900FBE0F9021
:1014A0001F90189526E8230F0296A11DB11DD2CFDB
:1014B0001F920F920FB60F9211242F933F934F93C9
:1014C0005F936F937F938F939F93AF93BF93EF93AC
:1014D000FF938091B900887F803609F44AC0F0F507
:1014E000883209F4A7C018F5803109F49BC0B8F41C
:1014F000882309F4F9C0883009F494C0FF91EF9172
:10150000BF91AF919F918F917F916F915F914F911B
:101510003F912F910F900FBE0F901F90189588311B
:1015200009F488C0803251F780932B0314C08034B3
:1015300009F49DC040F48033B9F38833F9F6809301
:101540002B0385ECB0C0803509F485C0883509F4DB
:1015500096C0883499F60E94D609D0CF883909F40C
:101560008CC038F5883729F050F4883611F0803770
:1015700029F683E080932D031092970257C0883894
:1015800009F47BC0803919F0803809F0B7CF809119
:101590009702803208F071C0E091970281E08E0FCF
:1015A000809397028091BB00F0E0E958FD4F808363
:1015B0003DC0803B39F0E0F4803A09F479C0883AC4
:1015C00009F09CCF84E080932D0310927602109254
:1015D0007502E0919A02F0919B0209958091750243
:1015E00081110FC081E0809375021092550209C0ED
:1015F000803C09F4A6CF883C09F4A3CF883B09F0CE
:101600007DCFE091760281E08E0F80937602F0E04C
:10161000EB5AFD4F80818093BB00909176028091C0
:10162000750229C0809108038093BB0085EC8093EC
:10163000BC0064CF90912A0380912903981758F534
:10164000E0912A0381E08E0F80932A03F0E0E75FA8
:10165000FC4F8081E9CFE0912A0381E08E0F8093D7
:101660002A038091BB00F0E0E75FFC4F80839091FC
:101670002A03809129039817C8F285E8D8CFE09112
:101680002A0381E08E0F80932A038091BB00F0E053
:10169000E75FFC4F808380912C0381115CCF81E058
:1016A0008093070384EA8093BC0010922D0326CF19
:1016B00085EC8093BC0010922D03809197028032BC
:1016C00030F4E0919702F0E0E958FD4F108260910C
:1016D000970270E0E0919802F091990287E792E01A
:1016E0000995109297020ACF10922B0334CF1F93C3
:1016F000CF93DF93E7E5F3E01382128288EE93E065
:10170000A0E0B0E084839583A683B7838DE191E068
:1017100091838083C1EAD3E08AE0888319E01A8349
:1017200088E0898361E089E00E941C0161E0888192
:101730000E941C0160E089810E941C0161E08A8195
:101740000E94EE00E8E8F3E0138212828FE291E05B
:1017500091838083108A8FEF87871686118A87E2AC
:101760008387148615861286118684E0828B82E038
:10177000838BC1E0C48B80E1858B80E2868B80E423
:10178000878B80E8808F50E040E063E0CF010E94CB
:10179000300260E085E00E941C01E3EDF0E0E4919E
:1017A000AAE7B3E0EC93EFEBF0E0E491F0E0EE0FAA
:1017B000FF1FE055FF4F8591949112969C938E9355
:1017C00011971B961C921B971D961C921D971C9699
:1017D0001C921C971A961C921A9719961C9219978C
:1017E00018961C92189717961C92179716961C928B
:1017F000169715961C92159714961C92149713968B
:101800001C921397E3E6F3E0168A158A1182B287D9
:10181000A1871782108610821383C483C583C68371
:10182000DF91CF911F910895CF93DF93CDB7DEB7AE
:1018300069970FB6F894DEBF0FBECDBF789484B51C
:10184000826084BD84B5816084BD85B5826085BDBC
:1018500085B5816085BD80916E00816080936E004A
:10186000109281008091810082608093810080913C
:1018700081008160809381008091800081608093ED
:1018800080008091B10084608093B1008091B000AD
:1018900081608093B00080917A00846080937A00A8
:1018A00080917A00826080937A0080917A008160D2
:1018B00080937A0080917A00806880937A001092F9
:1018C000C10021E041E061E080E00E94860761E024
:1018D0008AE00E941C0161E082E00E941C0161E03C
:1018E00086E00E941C0161E087E00E941C0161E02B
:1018F0008DE00E941C0184E00E94C50021E0019758
:1019000009F020E060E0822F0E941C0183E00E9429
:10191000C50021E0019709F020E060E0822F0E94DD
:101920001C018BE00E94C50021E0019709F020E036
:1019300060E0822F0E941C0120E042E060E188E824
:1019400093E00E948C06E0916C03F0916D03138686
:1019500015861486128611861086178216821582C5
:101960001482138210926A0310926B03772473948B
:10197000662463946E012AE0C20ED11C00916C03B0
:1019800010916D03D8011D968C91882309F46EC0C7
:10199000F80113861586148610929D0210929C02FF
:1019A00010923403109256030E94510484EC91E08B
:1019B00090939B0280939A0280ED91E0909399021C
:1019C0008093980280E18093BA0083EC91E0909339
:1019D0009F0280939E0289ED96E09093A1028093EE
:1019E000A00288E19FE00FB6F894A895809360006C
:1019F0000FBE9093600000E010E08091FD0288230C
:101A000009F45DC10E94B7016B017C018091EA027B
:101A10009091EB02A091EC02B091ED02260137010A
:101A2000481A590A6A0A7B0AD301C2018436910511
:101A3000A105B105C8F088E893E00E949F0260E02C
:101A400080E00E9457028AE591E00E94F00765E07D
:101A500070E080E00E944208C092EA02D092EB025D
:101A6000E092EC02F092ED02A8958BC2C8010E94B0
:101A7000F20381110AC0D8011B961C921B971D9678
:101A80001C921D971C961C9287CF40E060EFC80106
:101A90000E949F03EE24E394A12C912CFF24F39445
:101AA000C8010E944C03B82EC8010E944C03B1E04B
:101AB000BB1273C0813009F092C0E0E4EF1508F06A
:101AC00067CFD8011B969C921B97911002C01D9660
:101AD0007C92F8018381882309F45ACFD8011396A8
:101AE000FE013A96055F1F4F7F018D9181930A1782
:101AF0001B07D9F767E0C7010E943503998989134D
:101B00003DCF80916A038F5F80936A038A85883214
:101B100039F008F07BC0803119F0823209F02ECF05
:101B200080916B038F5F80936B0380916C03909126
:101B30006D0320916303211122C00E94F203B701BB
:101B400080916C0390916D030E94D30340E064EB9D
:101B500080916C0390916D030E949F0380916C03B0
:101B600090916D030E944C03182F80916C0390910B
:101B70006D030E94F203111102C060926303809111
:101B80006C0390916D032A85203109F48BC00E946B
:101B9000F203811142C080E088C0EA2DF0E0B81263
:101BA00014C0D8011B968C911B97F816B0F4AE0F99
:101BB000BF1F13968C918E2191F4B12CB8E0BF1504
:101BC00018F0D8011C96FC929F2CE00FF11F838126
:101BD0009E2D9095892383830AC08F11EECFF80143
:101BE000EA0DF11D83818E298383BB24B3946B2D71
:101BF000C8010E947003F394EE0C19F4A394EE2430
:101C0000E394B7E0BA1508F04BCF57CF8B3309F404
:101C100087CF823409F0B2CE83CFB70180916C03B5
:101C200090916D030E94D30340E06EEB80916C03B2
:101C300090916D030E949F038E010F5F1F4F7801EB
:101C4000180180906C0390906D0398E0A92EB12C40
:101C5000512C44244394C4010E944C038111542804
:101C6000440CF1E0AF1AB108B1F7D7015D927D01E4
:101C7000CA16DB0631F780916C0390916D030E94C8
:101C8000F203813009F087CFF80181918F01811132
:101C900041C6EE16FF06C1F77ECF8F3571F08F3744
:101CA00009F079CF8CE001C08AE090916603981723
:101CB00008F064CE8093660361CE8BE0F6CF62E0DD
:101CC00070E081E00E9442080E94B7016B017C0134
:101CD0000E94B7018090F8029090F902A090FA0259
:101CE000B090FB02681979098A099B09683E734024
:101CF0008105910508F4A9C080916C0390916D0352
:101D00000E94F20340E06CEC80916C0390916D03B3
:101D10000E949F034091630364E480916C0390915F
:101D20006D030E949F0380916703882311F1E09166
:101D3000660380916803882309F4EDC080916303F2
:101D40008111E9C00E94B7014B015C0180916C03D5
:101D500090916D030E944C03813059F00E94B701AD
:101D6000681979098A099B096E3E724081059105BF
:101D700068F381E10E944D01BC01990F880B990B1A
:101D80000E94A3146093F4027093F5028093F6020C
:101D90009093F7028FE00E944D01BC01990F880BD0
:101DA000990B0E94A3146093F0027093F102809348
:101DB000F2029093F3028EE00E944D01BC01990F54
:101DC000880B990B0E94A3146093EC027093ED02B0
:101DD0008093EE029093EF0280E10E944D01BC01DE
:101DE000990F880B990B0E94A31420E030E040EA81
:101DF00050E40E94021520E030E040E85AE30E94DF
:101E000002152DEC3CEC4CE45EE30E94721620E0DF
:101E100030E040E451E40E941A1718160CF0A3C0F9
:101E200081E08093FC02C092F802D092F902E09225
:101E3000FA02F092FB028CE00E94C500892B09F4A3
:101E400095C081E08093EB02A8958091FC028823E5
:101E500009F48CC48091EA0281119AC020E030E03C
:101E60004CE052E46091F0027091F1028091F20234
:101E70009091F3020E949C1487FD11C020E030E095
:101E800041E654E46091EC027091ED028091EE0223
:101E90009091EF020E941A1718160CF079C08091E9
:101EA00002019091030197FD64C021E040E061E0F0
:101EB00081E00E94860788E893E00E949F0260E02C
:101EC00080E00E9457028FE591E00E94F00761E0F8
:101ED00080E00E94570280910201909103010E94CC
:101EE00012088FE691E00E94F00780910201909124
:101EF00003010197909303018093020160E090E059
:101F000080E00E94C01568EE73E080E090E00E94DF
:101F10008401A895C4CFE9508EEE92E0E33038F406
:101F2000F0E0EE0FFF1FED5EFE4F808191814C01CE
:101F3000990FAA08BB0880916403882329F060E008
:101F4000809165030E94EE00C501B4010E948401E6
:101F500080916403882309F40CCF61E080916503CC
:101F60000E94EE0006CF1092FC025DCF1092EB02B1
:101F70006BCF81E08093EA0261E090E080E00E9414
:101F8000C0150115110509F438CD0E94000035CDAA
:101F900020E030E04AEF53E46091EC027091ED02F2
:101FA0008091EE029091EF020E941A1787FDC1C046
:101FB00020E030E048EC51E46091F0027091F102D1
:101FC0008091F2029091F3020E949C1418160CF476
:101FD000B0C081E08093EA021092B7020E94B7017C
:101FE0006B017C010E94B7018090A5029090A6022F
:101FF000A090A702B090A802681979098A099B09E4
:10200000683E73408105910508F4BBCF8091B8020A
:102010009091B9029C012F5F3F4F3093B9022093FA
:10202000B802AC014D50510942305105D8F421E0BD
:1020300041E060E080E00E94860788E893E00E942B
:102040009F0261E080E00E94570284E791E00E94D5
:10205000F007C092A502D092A602E092A702F092E9
:10206000A80202CDAC01415151094330510588F419
:1020700021E041E060E080E00E94860788E893E08C
:102080000E949F0261E080E00E94570285E891E093
:10209000DECF4897069788F421E041E060E080E0D9
:1020A0000E94860788E893E00E949F0261E080E03A
:1020B0000E94570286E991E0CACF293231054CF0DF
:1020C00021E041E061E081E00E9486070E94F20782
:1020D000C0CF21E041E060E081E00E94860788E80F
:1020E00093E00E949F0260E080E00E94570285EA30
:1020F00091E00E94F0078091B8029091B9020E948D
:1021000012088FE691E00E94F00761E080E00E94F3
:10211000570280EB91E00E94F0076091EC02709111
:10212000ED028091EE029091EF0242E00E949A0847
:1021300090CF0E94B7016E8B7F8B888F998F0E9402
:10214000B701C090CE02D090CF02E090D002F090C4
:10215000D1026C197D098E099F09683E7340810583
:10216000910508F40ECF8091B8029091B9020196C2
:102170009093B9028093B8028090EC029090ED02A7
:10218000A090EE02B090EF0220E030E041E654E48F
:10219000C501B4010E941A1718161CF40E94F20718
:1021A000EBCFC090F002D090F102E090F202F090FC
:1021B000F30220E030E0A901C701B6010E941A171E
:1021C00087FD40C020E030E040EF51E4C701B60198
:1021D0000E949C141816B4F188E893E00E949F02B4
:1021E00060E081E00E94570287EB91E00E94F007D7
:1021F00061E080E00E94570285EC91E00E94F007C8
:102200006091F0027091F1028091F2029091F302DC
:1022100042E00E949A0880ED91E00E94F00721E0E0
:1022200041E060E080E00E9486074E885F88688C0D
:10223000798C4092CE025092CF026092D00270927E
:10224000D10212CC20E030E040EF51E4C701B601EA
:102250000E941A1718160CF043C020E030E042E844
:1022600052E4C701B6010E949C1487FF39C0109246
:10227000B9021092B8021092EA0261E087E00E946F
:10228000EE0060E08AE00E94EE0061E082E00E94E1
:10229000EE0088E893E00E949F0260E080E00E94E8
:1022A000570283ED91E00E94F00761E080E00E9418
:1022B000570285EC91E00E94F0076091F002709166
:1022C000F1028091F2029091F30242E00E949A089A
:1022D00080ED91E00E94F00781E08093B702A5CFE6
:1022E00020E030E042E852E4C701B6010E941A172C
:1022F00087FD9BCF8091EB02811129C261E087E0CD
:102300000E94EE0060E08AE00E94EE0061E082E060
:102310000E94EE00C090F402D090F502E090F60228
:10232000F090F70220E030E04CE452E4C701B6013F
:102330000E949C1418160CF45FC18091040188233C
:1023400009F45AC10E94B701C090C202D090C302E2
:10235000E090C402F090C502E091AB022B013C0179
:102360004C185D086E087F0873016201EE2309F4C2
:102370002EC128EBC2162BE0D206E104F10470F066
:102380001092AB026093C2027093C3028093C402A6
:102390009093C50261E086E00E94EE0081E08093A8
:1023A000B7020E94B7016B017C0120E030EC4FE7DF
:1023B00054E4C501B4010E9472169B01AC0160E0B7
:1023C00070E080E89FE30E94051620E030E048ECD2
:1023D00052E40E9402156093B3027093B40280939A
:1023E000B5029093B6021A8219821C821B821E8249
:1023F0001D8270E060E0CE0101960E94780929817B
:102400003A818111ABC12115310519F0C9010E9432
:10241000E8171A8219821E821D821C821B828091FB
:10242000EB026CED71E0882311F06DEE71E0CE01EE
:1024300001960E94A0098091D2029091D302A091AE
:10244000D402B091D50226013701481A590A6A0A06
:102450007B0AD301C201883E9340A105B10578F102
:1024600088E893E00E949F0260E080E00E945702AB
:10247000CE0101960E94270261E080E00E9457028F
:102480008EEF91E00E94F00761E086E00E94570223
:102490006091B3027091B4028091B5029091B6023E
:1024A00042E00E949A0884E092E00E94F007C09205
:1024B000D202D092D302E092D402F092D50280915F
:1024C000D6029091D702A091D802B091D9022601EC
:1024D0003701481A590A6A0A7B0AD301C201803DB2
:1024E0009740A105B10558F188E893E00E949F024A
:1024F00060E080E00E945702CE0101960E94270210
:1025000061E080E00E94570286E092E00E94F007BE
:1025100061E08BE00E9457026091F0027091F1023D
:102520008091F2029091F30242E00E949A08C092D8
:10253000D602D092D702E092D802F092D9028091CE
:10254000DA029091DB02A091DC02B091DD0226015B
:102550003701481A590A6A0A7B0AD301C201883B2B
:102560009B40A105B10558F188E893E00E949F02C5
:1025700060E080E00E945702CE0101960E9427028F
:1025800061E080E00E94570280E192E00E94F00743
:1025900061E08BE00E9457026091F4027091F502B5
:1025A0008091F6029091F70242E00E949A08C09250
:1025B000DA02D092DB02E092DC02F092DD02898145
:1025C0009A81009711F00E94E817A8952ECE30E16D
:1025D000C31637E2D306E104F10408F4DFCE21E0AC
:1025E0002093AB026093C2027093C3028093C40233
:1025F0009093C50260E0CFCE20E030E044E352E4A7
:10260000C701B6010E941A1787FD5BC020E030E0C9
:102610004CE452E4C701B6010E949C1487FF51C0EC
:102620000E94B7014090C6025090C7026090C80255
:102630007090C902E091AC029B01AC0124193509EC
:10264000460957092A8B3B8B4C8B5D8BEE2309F196
:10265000283B3B404105510570F01092AC0260935D
:10266000C6027093C7028093C8029093C90261E0CA
:1026700086E00E94EE0020E030E044E352E4C7012F
:10268000B6010E949C1487FF89CE81E080930401EB
:1026900085CE4A885B886C887D8820E1421627E2D7
:1026A00052066104710438F321E02093AC02609378
:1026B000C6027093C7028093C8029093C90260E07B
:1026C000D7CF0E94B7014090CA025090CB026090D1
:1026D000CC027090CD02E091AD029B01AC012419B7
:1026E0003509460957092A8B3B8B4C8B5D8BEE23B2
:1026F000B1F0283B3B404105510570F01092AD020E
:102700006093CA027093CB028093CC029093CD0267
:1027100061E086E00E94EE0010920401ACCF4A888E
:102720005B886C887D8820E1421627E252066104AE
:10273000710490F321E02093AD026093CA0270937C
:10274000CB028093CC029093CD0260E0E2CF20E0F8
:1027500041E061E080E00E94860720CE1E821D825B
:102760006FEC71E0C9010E943C1959CE0E94B7017B
:102770006B017C018091DE029091DF02A091E0026A
:10278000B091E102A7019601281B390B4A0B5B0BA4
:10279000DA01C901883E9340A105B10508F4F1CBE7
:1027A0008091B702882309F474C08091A40281113A
:1027B0004EC0809100019091010197FD36C021E04B
:1027C00041E061E080E00E94860788E893E00E9493
:1027D0009F0260E080E00E94570285E192E00E9443
:1027E000F00761E080E00E94570280910001909123
:1027F00001010E9412088FE691E00E94F00780918B
:1028000000019091010101979093010180930001D3
:1028100060E090E080E00E94C01568EE73E080E028
:1028200090E00E948401A895C4CF61E090E080E030
:102830000E94C01581E08093A402A895C092DE0298
:10284000D092DF02E092E002F092E1029ACB88E8B7
:1028500093E00E949F0260E080E00E94570281E2C4
:1028600092E00E94F00761E080E00E9457026091D0
:10287000F0027091F1028091F2029091F30242E035
:102880000E949A0821E041E061E081E00E94860711
:10289000D4CF8091A2029091A3020597ACF588E86D
:1028A00093E00E949F0260E080E00E94570289E26C
:1028B00092E00E94F00760E089E00E945702809158
:1028C000A2029091A3020E94120861E080E00E949F
:1028D00057026091F0027091F1028091F2029091A2
:1028E000F30242E00E949A0821E041E061E080E0CA
:1028F0000E9486078091A2029091A3020196909374
:10290000A3028093A20299CF81E08093B7028093C3
:10291000A402F0CF68E0C1010E94350399858913B4
:102920003AC98D818F3309F4BFC908F0B6C98F3118
:1029300009F031C989E0B9C90E94DE1408F481E0C8
:102940000895E89409C097FB3EF4909580957095A2
:1029500061957F4F8F4F9F4F9923A9F0F92F96E9EB
:10296000BB279395F695879577956795B795F11160
:10297000F8CFFAF4BB0F11F460FF1BC06F5F7F4FFD
:102980008F4F9F4F16C0882311F096E911C077230F
:1029900021F09EE8872F762F05C0662371F096E818
:1029A000862F70E060E02AF09A95660F771F881FE7
:1029B000DAF7880F9695879597F90895990F00088B
:1029C000550FAA0BE0E8FEEF16161706E807F90701
:1029D000C0F012161306E407F50798F0621B730B9C
:1029E000840B950B39F40A2661F0232B242B252B1D
:1029F00021F408950A2609F4A140A6958FEF811DC0
:102A0000811D08950E9415150C9486150E94781555
:102A100038F00E947F1520F0952311F00C946F156B
:102A20000C94751511240C94BA150E94971570F327
:102A3000959FC1F3950F50E0551F629FF001729F63
:102A4000BB27F00DB11D639FAA27F00DB11DAA1F72
:102A5000649F6627B00DA11D661F829F2227B00DBF
:102A6000A11D621F739FB00DA11D621F839FA00D4A
:102A7000611D221F749F3327A00D611D231F849F9A
:102A8000600D211D822F762F6A2F11249F575040F1
:102A90009AF0F1F088234AF0EE0FFF1FBB1F661F6C
:102AA000771F881F91505040A9F79E3F510580F035
:102AB0000C946F150C94BA155F3FE4F3983ED4F371
:102AC000869577956795B795F795E7959F5FC1F7D9
:102AD000FE2B880F911D9695879597F9089597F984
:102AE0009F6780E870E060E008959FEF80EC0895B4
:102AF00000240A94161617061806090608950024DD
:102B00000A9412161306140605060895092E039456
:102B1000000C11F4882352F0BB0F40F4BF2B11F4CA
:102B200060FF04C06F5F7F4F8F4F9F4F089557FD29
:102B30009058440F551F59F05F3F71F04795880F2B
:102B400097FB991F61F09F3F79F0879508951216C2
:102B500013061406551FF2CF4695F1DF08C016166E
:102B600017061806991FF1CF86957105610508941F
:102B70000895E894BB2766277727CB0197F9089536
:102B8000262FF999FECF1FBA92BD81BD20BD0FB689
:102B9000F894FA9AF99A0FBE019608952F923F92EF
:102BA0004F925F926F927F928F929F92AF92BF925D
:102BB000CF92DF92EF92FF920F931F93CF93DF9309
:102BC000CDB7DEB7CA1BDB0B0FB6F894DEBF0FBE66
:102BD000CDBF09942A88398848885F846E847D84B3
:102BE0008C849B84AA84B984C884DF80EE80FD80B5
:102BF0000C811B81AA81B981CE0FD11D0FB6F8942B
:102C0000DEBF0FBECDBFED0108955058BB27AA27E8
:102C10000E941D160C9486150E94781538F00E94AB
:102C20007F1520F039F49F3F19F426F40C947515A4
:102C30000EF4E095E7FB0C946F15E92F0E949715B1
:102C400058F3BA17620773078407950720F079F4E1
:102C5000A6F50C94B9150EF4E0950B2EBA2FA02D05
:102C60000B01B90190010C01CA01A0011124FF2739
:102C7000591B99F0593F50F4503E68F11A16F04034
:102C8000A22F232F342F4427585FF3CF4695379533
:102C90002795A795F0405395C9F77EF41F16BA0BF8
:102CA000620B730B840BBAF09150A1F0FF0FBB1FA6
:102CB000661F771F881FC2F70EC0BA0F621F731FEF
:102CC000841F48F4879577956795B795F7959E3F4C
:102CD00008F0B0CF9395880F08F09927EE0F9795DD
:102CE000879508950E9486160C9486150E947F157C
:102CF00058F00E94781540F029F45F3F29F00C94B9
:102D00006F1551110C94BA150C9475150E949715F6
:102D100068F39923B1F3552391F3951B550BBB270A
:102D2000AA2762177307840738F09F5F5F4F220F4F
:102D3000331F441FAA1FA9F335D00E2E3AF0E0E846
:102D400032D091505040E695001CCAF72BD0FE2F90
:102D500029D0660F771F881FBB1F26173707480724
:102D6000AB07B0E809F0BB0B802DBF01FF279358DC
:102D70005F4F3AF09E3F510578F00C946F150C941C
:102D8000BA155F3FE4F3983ED4F38695779567953F
:102D9000B795F7959F5FC9F7880F911D9695879511
:102DA00097F90895E1E0660F771F881FBB1F621730
:102DB00073078407BA0720F0621B730B840BBA0BEE
:102DC000EE1F88F7E09508950E94EB166894B11104
:102DD0000C94BA1508950E949F1588F09F5798F09B
:102DE000B92F9927B751B0F0E1F0660F771F881F10
:102DF000991F1AF0BA95C9F714C0B13091F00E942A
:102E0000B915B1E008950C94B915672F782F88276C
:102E1000B85F39F0B93FCCF3869577956795B39550
:102E2000D9F73EF490958095709561957F4F8F4FBF
:102E30009F4F08950E94DE1408F48FEF08950E94BA
:102E4000DE14880B990B0895A1E21A2EAA1BBB1B56
:102E5000FD010DC0AA1FBB1FEE1FFF1FA217B30766
:102E6000E407F50720F0A21BB30BE40BF50B661F7C
:102E7000771F881F991F1A9469F760957095809540
:102E800090959B01AC01BD01CF010895EE0FFF1F8E
:102E90000590F491E02D09940F931F93CF93DF9346
:102EA0008230910510F482E090E0E091A603F09169
:102EB000A70330E020E0B0E0A0E0309799F42115BE
:102EC000310509F44AC0281B390B24303105D8F5E7
:102ED0008A819B816115710589F1FB01938382834E
:102EE000FE0111C0408151810281138148175907A9
:102EF000E0F04817590799F4109761F012960C9377
:102F0000129713961C933296CF01DF91CF911F91A8
:102F10000F9108950093A6031093A703F4CF2115F2
:102F2000310551F04217530738F0A901DB019A012E
:102F3000BD01DF01F801C1CFEF01F9CF9093A703E5
:102F40008093A603CDCFFE01E20FF31F81939193EF
:102F50002250310939832883D7CF2091A40330919F
:102F6000A503232B41F420910701309108013093F0
:102F7000A5032093A403209105013091060121159A
:102F8000310541F42DB73EB74091090150910A0136
:102F9000241B350BE091A403F091A503E217F3077E
:102FA000A0F42E1B3F0B2817390778F0AC014E5FB9
:102FB0005F4F2417350748F04E0F5F1F5093A5034E
:102FC0004093A403819391939FCFF0E0E0E09CCFE6
:102FD000CF93DF930097E9F0FC01329713821282BE
:102FE000A091A603B091A703ED0130E020E0109777
:102FF000A1F420813181820F931F2091A40330918D
:10300000A5032817390709F061C0F093A503E093E1
:10301000A403DF91CF910895EA01CE17DF07E8F509
:103020004A815B819E0141155105B1F7E901FB839E
:10303000EA8349915991C40FD51FEC17FD0761F43C
:10304000808191810296840F951FE901998388837D
:10305000828193819B838A83F0E0E0E012968D91D8
:103060009C9113970097B9F52D913C911197CD0143
:103070000296820F931F2091A4033091A503281775
:10308000390739F6309751F51092A7031092A6032D
:10309000B093A503A093A403BCCFD383C283408184
:1030A0005181840F951FC817D90761F44E5F5F4F98
:1030B00088819981480F591F518340838A819B8160
:1030C000938382832115310509F0B0CFF093A703D4
:1030D000E093A6039ECFFD01DC01C0CF13821282D4
:1030E000D7CFB0E0A0E0E7E7F8E10C94D0158C0171
:1030F000009751F4CB010E944C178C01C801CDB749
:10310000DEB7E0E10C94EC15FC01E60FF71F9C0123
:1031100022503109E217F30708F49DC0D901CD917F
:10312000DC911197C617D70798F0C530D10530F359
:10313000CE0104978617970708F3C61BD70B229773
:10314000C193D1936D937C93CF010E94E817D6CFA2
:103150005B01AC1ABD0A4C018C0E9D1EA091A6030A
:10316000B091A703512C412CF12CE12C109731F593
:103170008091A4039091A5038815990509F05CC07E
:103180004616570608F058C0809105019091060137
:10319000009741F48DB79EB74091090150910A0103
:1031A000841B950BE817F90708F055C0F093A503A9
:1031B000E093A403F90171836083A0CF8D919C916A
:1031C000119712966C90129713967C901397A815EE
:1031D000B90559F56C0142E0C40ED11CCA14DB04D8
:1031E00020F1AC014A195B09DA011296159780F0BB
:1031F0006282738251834083D9016D937C93E11481
:10320000F10471F0D7011396FC93EE93129776CFE9
:1032100022968C0F9D1FF90191838083F301EFCFDC
:10322000F093A703E093A60369CF4816590608F464
:103230002C017D01D3019ACFCB010E944C177C0158
:10324000009749F0AE01B8010E943319C8010E94ED
:10325000E817870153CF10E000E050CF81E090E005
:10326000F8940C944319FB01DC0102C001900D920B
:1032700041505040D8F70895FB01DC0101900D92B8
:103280000020E1F70895F894FFCF0200020001004A
:1032900000A803800000401454004010505E00BCA1
:1032A00000770100000000CE05A105D60677059A3B
:1032B0000587057805000000004402FA01D60634AF
:1032C000038C0630027306540677006500730050C5
:1032D000524F564C494D41006E616E00696E66005A
:1032E0006F7666004D454E55004549534147574757
:1032F000492050454C4C45540020736563004145BE
:1033000052415320414E4F4958544F5320310041B0
:103310004552415320414E4F4958544F532032009B
:10332000414552415320414E4F4958544F5300415B
:103330004E41464C454B53492000464F544941208D
:103340000058414D494C4920454E41555349004B89
:10335000415953414552494120002043005A4553A9
:1033600054414D4120004B414E4F4E494B48204C5B
:103370004549542E2041004B414E4F4E494B482069
:103380004C4549542E204D00464F544941002500DC
:103390004B4159534145524941004E45524F004B14
:1033A000415448415249534D4F53004B4C454953AA
:0C33B000544F004B4C454953494D4F0011
:107800000C94343C0C94513C0C94513C0C94513CE1
:107810000C94513C0C94513C0C94513C0C94513CB4
:107820000C94513C0C94513C0C94513C0C94513CA4
:107830000C94513C0C94513C0C94513C0C94513C94
:107840000C94513C0C94513C0C94513C0C94513C84
:107850000C94513C0C94513C0C94513C0C94513C74
:107860000C94513C0C94513C11241FBECFEFD8E036
:10787000DEBFCDBF11E0A0E0B1E0ECE9FFE702C060
:1078800005900D92A230B107D9F712E0A2E0B1E065
:1078900001C01D92AD30B107E1F70E942D3D0C945F
:1078A000CC3F0C94003C982F959595959595959582
:1078B000905D8F708A307CF0282F295A8091C0000B
:1078C00085FFFCCF9093C6008091C00085FFFCCF60
:1078D0002093C6000895282F205DF0CF982F809127
:1078E000C00085FFFCCF9093C6000895EF92FF92F1
:1078F0000F931F93EE24FF2487018091C00087FD22
:1079000017C00894E11CF11C011D111D81E4E8164B
:1079100082E4F8068FE0080780E0180770F3E09132
:107920000401F091050109958091C00087FFE9CF1E
:107930008091C6001F910F91FF90EF9008950E94D3
:10794000763C982F8091C00085FFFCCF9093C600B5
:1079500091362CF490330CF09053892F089597555D
:10796000892F08951F930E949F3C182F0E949F3CCF
:107970001295107F810F1F9108951F93182F882350
:1079800021F00E94763C1150E1F71F9108951F935A
:10799000182F0E94763C803249F0809103018F5F5E
:1079A000809303018530C1F01F9108958091C0003C
:1079B00085FFFCCF84E18093C6008091C00085FFE5
:1079C000FCCF1093C6008091C00085FFFCCF80E102
:1079D0008093C6001F910895E0910401F091050184
:1079E00009951F9108950E94763C803241F0809164
:1079F00003018F5F80930301853081F008958091AA
:107A0000C00085FFFCCF84E18093C6008091C00058
:107A100085FFFCCF80E18093C6000895E0910401CA
:107A2000F09105010995089540E951E08823A1F0FE
:107A30002D9A28EE33E0FA013197F1F721503040CA
:107A4000D1F72D9828EE33E0FA013197F1F7215064
:107A50003040D1F7815061F708953F924F925F9285
:107A60006F927F928F929F92AF92BF92CF92DF924E
:107A7000EF92FF920F931F93CF93DF93000080E16B
:107A80008093C4001092C50088E18093C10086E015
:107A90008093C2005098589A259A81E00E94143D24
:107AA00024E1F22E9EE1E92E85E9D82E0FE0C02ECA
:107AB00010E1B12EAA24A394B1E49B2EA6E58A2E50
:107AC000F2E57F2EE0E26E2E79E4572E63E5462E36
:107AD00050E5352E0E94763C8033B1F18133B9F107
:107AE000803409F46FC0813409F476C0823409F41B
:107AF00085C0853409F488C0803531F1823521F1A3
:107B0000813511F1853509F485C0863509F48DC0BC
:107B1000843609F496C0843709F403C1853709F423
:107B200072C1863709F466C0809103018F5F80932C
:107B30000301853079F6E0910401F0910501099582
:107B40000E94763C803351F60E94F33CC3CF0E94E2
:107B5000763C803249F78091C00085FFFCCFF092DF
:107B6000C6008091C00085FFFCCF9092C600809136
:107B7000C00085FFFCCF8092C6008091C00085FFC9
:107B8000FCCF7092C6008091C00085FFFCCF609250
:107B9000C6008091C00085FFFCCF5092C600809146
:107BA000C00085FFFCCF4092C6008091C00085FFD9
:107BB000FCCF3092C6008091C00085FFFCCFB09210
:107BC000C60088CF0E94763C863808F4BDCF0E945C
:107BD000763C0E94F33C7ECF0E94763C803809F4CC
:107BE0009CC0813809F40BC1823809F43CC1883942
:107BF00009F48FC080E00E94C73C6CCF84E10E94F2
:107C0000BD3C0E94F33C66CF85E00E94BD3C0E94D3
:107C1000F33C60CF0E94763C809306010E94763C44
:107C2000809307010E94F33C55CF0E94763C80333D
:107C300009F41DC183E00E94BD3C80E00E94C73C66
:107C400049CF0E94763C809309020E94763C809343
:107C5000080280910C028E7F80930C020E94763C79
:107C6000853409F415C18091080290910902892B8D
:107C700089F000E010E00E94763CF801E85FFE4FDA
:107C800080830F5F1F4F80910802909109020817AF
:107C9000190788F30E94763C803209F045CF809125
:107CA0000C0280FF01C16091060170910701660F0F
:107CB000771F7093070160930601A0910802B091AD
:107CC00009021097C9F0E8E0F1E09B01AD014E0F09
:107CD0005F1FF999FECF32BD21BD819180BDFA9A17
:107CE000F99A2F5F3F4FE417F50799F76A0F7B1F4B
:107CF00070930701609306018091C00085FFFCCF5F
:107D0000F092C6008091C00085FFFCCFB092C60003
:107D1000E1CE83E00E94C73CDDCE82E00E94C73CFA
:107D2000D9CE0E94763C809309020E94763C8093D3
:107D300008028091060190910701880F991F909386
:107D40000701809306010E94763C853409F4A6C0A1
:107D500080910C028E7F80930C020E94763C8032D0
:107D600009F0B8CE8091C00085FFFCCFF092C6002C
:107D7000609108027091090261157105B9F140E046
:107D800050E080910C02A82FA170B82FB27011C0E2
:107D9000BB2309F45CC0E0910601F0910701319624
:107DA000F0930701E09306014F5F5F4F46175707B7
:107DB000E8F4AA2369F3F999FECF209106013091E6
:107DC000070132BD21BDF89A90B58091C00085FFB2
:107DD000FCCF9093C6002F5F3F4F30930701209355
:107DE00006014F5F5F4F4617570718F38091C00099
:107DF00085FDE5CE8091C00085FFF8CFE0CE81E023
:107E00000E94C73C67CE0E94763C803209F08CCE3F
:107E10008091C00085FFFCCFF092C6008091C00029
:107E200085FFFCCFE092C6008091C00085FFFCCFAB
:107E3000D092C6008091C00085FFFCCFC092C600E2
:107E40008091C00085FFFCCFB092C60043CEE09188
:107E50000601F091070194918091C00085FFFCCF4D
:107E60009093C6009CCF80E10E94C73C33CE0E9415
:107E7000763C0E94763C182F0E94763C112309F430
:107E800083C0113009F484C08FE00E94C73C22CE29
:107E900080910C02816080930C02E5CE80910C02EF
:107EA000816080930C0259CF809107018823880F4D
:107EB000880B8A2180930B02809106019091070123
:107EC000880F991F90930701809306018091080203
:107ED00080FF09C080910802909109020196909359
:107EE000090280930802F894F999FECF1127E091D6
:107EF0000601F0910701C8E0D1E08091080290915D
:107F00000902103091F40091570001700130D9F34B
:107F100003E000935700E89500915700017001308D
:107F2000D9F301E100935700E89509901990009169
:107F3000570001700130D9F301E000935700E89534
:107F40001395103498F011270091570001700130FB
:107F5000D9F305E000935700E895009157000170B0
:107F60000130D9F301E100935700E895329602976A
:107F700009F0C7CF103011F00296E5CF112480919F
:107F8000C00085FFB9CEBCCE8EE10E94C73CA2CD19
:0E7F900085E90E94C73C9ECDF894FFCF80008B
:00000001FF
