:020000040000FA
:100000000C9472000C949A000C949A000C949A0030
:100010000C949A000C949A000C949A000C949A00F8
:100020000C949A000C949A000C949A000C949A00E8
:100030000C949A000C949A000C949A000C949A00D8
:100040000C949C0A0C949A000C940C0B0C94E60AE9
:100050000C949A000C949A000C949A000C949A00B8
:100060000C943E0B0C949A00005EBCE2613FDD8371
:10007000C29C7E20A3FD1F41009D23BE46DB65F888
:100080008C11AF32CA57E974000000002400270029
:100090002A0000000000250028002B0000000008B6
:1000A000000201000003040700000000000000003F
:1000B00000000000230026002900040404040404B6
:1000C0000404020202020202030303030303010207
:1000D00004081020408001020408102001020408D6
:1000E00010205D0C11241FBECFEFD8E0DEBFCDBFC6
:1000F00025E0A4E2B2E001C01D92A932B207E1F707
:1001000012E0A0E0B1E0E6E9F3E302C005900D9251
:10011000A432B107D9F710E0C2E7D0E004C02197BC
:10012000FE010E94CC17C137D107C9F70E94300DDC
:100130000C94C9190C940000833081F028F48130AC
:1001400099F08230A9F008958730A9F08830C9F07D
:100150008430B1F4809180008F7D03C08091800055
:100160008F7780938000089584B58F7784BD08953C
:1001700084B58F7DFBCF8091B0008F778093B000E6
:1001800008958091B0008F7DF9CF1F93CF93DF93B7
:10019000282F30E0F901E456FF4F8491F901E25332
:1001A000FF4FD491F901E654FF4FC491CC23A9F03D
:1001B000162F81110E949C00EC2FF0E0EE0FFF1F24
:1001C000EE56FF4FA591B4918FB7F894EC911111B1
:1001D00008C0D095DE23DC938FBFDF91CF911F91B4
:1001E0000895DE2BF8CFCF93DF93D62FC42F682F3F
:1001F00084E00E94C5006D2F82E00E94C5006C2F34
:1002000086E00E94C50061E087E0DF91CF910C9409
:10021000C500CF93DF9390E0FC01E253FF4F2491A0
:1002200086549F4FFC0184918823D1F090E0880F81
:10023000991FFC01E857FF4FA591B491FC01EE56C0
:10024000FF4FC591D49161110EC09FB7F8948C9166
:10025000E22FE0958E238C932881E223E8839FBFD1
:10026000DF91CF9108958FB7F894EC91E22BEC9346
:100270008FBFF6CF8E50806480937C0080917A008F
:10028000806480937A0080917A0086FDFCCF809113
:1002900078009091790008953FB7F8948091E50235
:1002A0009091E602A091E702B091E80226B5A89BE2
:1002B00005C02F3F19F00196A11DB11D3FBFBA2FF8
:1002C000A92F982F8827BC01CD01620F711D811DB8
:1002D000911D42E0660F771F881F991F4A95D1F73D
:1002E00008958F929F92AF92BF92CF92DF92EF923A
:1002F000FF926B017C010E944C014B015C01C11417
:10030000D104E104F104B9F00E944C0168197909A3
:100310008A099B09683E73408105910580F321E0BD
:10032000C21AD108E108F10888EE880E83E0981E11
:10033000A11CB11CE4CFFF90EF90DF90CF90BF9055
:10034000AF909F908F9008952FB7F8946091E1023D
:100350007091E2028091E3029091E4022FBF089530
:100360000895E0919002F0919102309729F0109257
:1003700016031092380309940895CF93DF93AC01CC
:10038000E0918E02F0918F023097F1F090918D0202
:1003900080918C029817C0F090E0292F30E026174A
:1003A000370754F4D901AC5DBD4F240F351FE90167
:1003B00028812C939F5FF1CF10928D0260938C0265
:1003C000CB01DF91CF910994DF91CF910895AF9246
:1003D000BF92CF92DF92EF92FF920F931F93CF9332
:1003E000DF936C017B018B01040F151FEB015E0194
:1003F000AE18BF08C017D10759F06991D601ED9129
:10040000FC910190F081E02DC6010995892B79F7C7
:10041000C501DF91CF911F910F91FF90EF90DF9079
:10042000CF90BF90AF900895FC01448155816081C9
:10043000718187E094E00C94E701FC01538D448DB9
:10044000252F30E0842F90E0821B930B541710F07F
:10045000CF96089501970895FC01918D828D98178C
:1004600061F0A28DAE0FBF2FB11D5D968C91928D64
:100470009F5F9F73928F90E008958FEF9FEF089595
:10048000FC01918D828D981731F0828DE80FF11D5E
:10049000858D90E008958FEF9FEF0895FC01918D79
:1004A000228D892F90E0805C9F4F821B91098F7372
:1004B0009927089589E393E00E944E0221E0892B59
:1004C00009F420E0822F089580E090E0892B29F044
:1004D0000E945A0281110C9400000895FC01A48D21
:1004E000A80FB92FB11DA35ABF4F2C91848D90E056
:1004F00001968F739927848FA689B7892C93A08939
:10050000B1898C91837080648C93938D848D9813C2
:1005100006C00288F389E02D80818F7D8083089555
:10052000EF92FF920F931F93CF93DF93EC0181E043
:10053000888F9B8D8C8D98131AC0E889F9898081EA
:1005400085FF15C09FB7F894EE89FF896083E8891D
:10055000F98980818370806480839FBF81E090E00F
:10056000DF91CF911F910F91FF90EF900895F62E9C
:100570000B8D10E00F5F1F4F0F731127E02E8C8D36
:100580008E110CC00FB607FCFACFE889F98980817B
:1005900085FFF5CFCE010E946E02F1CFEB8DEC0FFF
:1005A000FD2FF11DE35AFF4FF0829FB7F8940B8F98
:1005B000EA89FB8980818062CFCFCF93DF93EC0102
:1005C000888D8823B9F0AA89BB89E889F9898C913B
:1005D00085FD03C0808186FD0DC00FB607FCF7CFF7
:1005E0008C9185FFF2CF808185FFEDCFCE010E94F7
:1005F0006E02E9CFDF91CF91089521E001C0220F73
:100600006A95EAF7DC011C962C931C971A965C936A
:100610004E931997ED91FC910484F585E02D60E0EF
:100620000994DC01ED91FC910684F785E02D41E011
:10063000099581E090E00895DC01ED91FC9106843C
:10064000F785E02D40E009940F931F93CF93DF933C
:10065000CDB7DEB728970FB6F894DEBF0FBECDBF7B
:100660000091090110910A0120910B0130910C01B8
:100670000D831E832F83388700910D0110910E0189
:1006800020910F013091100109831A832B833C8341
:1006900090910E04691710F06FEF690F262F30E06C
:1006A00040910F042C0F3D1FF901403199F4943013
:1006B00089F46181680F606887E094E028960FB63E
:1006C000F894DEBF0FBECDBFDF91CF911F910F9188
:1006D0000C941C036581EECF61E00E941C038BE348
:1006E0009FE10197F1F708950F931F93CF93DF9345
:1006F000EC01423018F08C8188608C834F836887CE
:10070000222329F0413019F48C8184608C8364E6C3
:1007100070E080E090E00E9471016C8164FD57C040
:10072000E881F9810684F785E02D42E063E0CE019F
:1007300009958BE496E40197F1F7E881F981068445
:10074000F785E02D42E063E0CE01099503E512E074
:10075000C8010197F1F7E881F9810684F785E02D5A
:1007600042E063E0CE010995C8010197F1F7E88105
:10077000F9810684F785E02D42E062E0CE0109951B
:10078000C8010197F1F76C816062CE010E941C03E1
:100790008BEE90E00197F1F784E08D836CE0CE0161
:1007A0000E941C03CE010E946C0382E08E8366E0EF
:1007B000CE010E941C03E881F9810484F585E02DB7
:1007C0006FEFCE01DF91CF911F910F91099460627D
:1007D000CE010E941C038BE496E40197F1F76C8133
:1007E0006062CE010E941C0303E512E0C80101977C
:1007F000F1F76C816062CE010E941C03C1CF0895A5
:1008000008950895DC0180E0615090F09D91982753
:10081000E92FEF70F0E0E859FF4F2491E92FE295BE
:10082000EF70F0E0E858FF4FE491822F8E27ECCF75
:100830000895DC012C911196ED91FC91F894818141
:10084000822B81839281322F30959323928387E08C
:1008500090E00197F1F781818323818383E290E027
:100860000197F1F790817894EFECF0E03197F1F790
:10087000922381E009F480E00895FC0190810180D9
:10088000F281E02D292F209560FF14C0F894828119
:10089000822382838181892B8183A3E2B0E0119737
:1008A000F1F78281982B9283789487ED90E00197FD
:1008B000F1F70895F8948281822382838181892BC4
:1008C0008183AFEFB0E01197F1F78281982B92838B
:1008D00078948FE090E0EBCFDF92EF92FF920F934E
:1008E0001F93CF93DF93EC01D62EE42E08E010E0A7
:1008F000FF24F39461E08D2D8F2109F460E0CE0197
:100900000E943D04FF0C01501109A1F7E11010C035
:10091000F894E981FA819181888180958923818386
:10092000E981FA81928188818095892382837894F4
:10093000DF91CF911F910F91FF90EF90DF9008957D
:10094000EF92FF920F931F93CF93DF938C017B0164
:1009500040E065E50E946C04E70188E0E80EF11CC8
:10096000699140E0C8010E946C04CE15DF05C1F713
:10097000DF91CF911F910F91FF90EF900895FC01AF
:1009800090810180F281E02DF8948181292F2095BA
:100990008223818378943DE743E050E0315029F190
:1009A000DA011197F1F780818923C1F3F8948281EC
:1009B000822382838181892B81837894ABE7B7E09E
:1009C0001197F1F7F894818182238183A3E1B1E04B
:1009D0001197F1F78081982381E009F080E0789405
:1009E000E3E6F6E03197F1F7089580E0089520916D
:1009F0006502260F3327331F21323105ECF4209195
:100A00000F03FC0190E080E0243069F082E008955B
:100A1000A09165022191AC014B5B5D4FA40FB52FF6
:100A2000B11D2C930196861798F380916502680F8B
:100A30006093650280E0089581E0089510920F03AD
:100A400081E080930E031092E90261E082E10E944E
:100A5000C50061E083E10E94C500E9EBF0E0808120
:100A60008E7F808380818D7F808388E48093B8002F
:100A700085E48093BC000895CF93DF9391E0909339
:100A800044028823B9F0C091B800D091BA00809197
:100A9000BC008A7B8093BC0060E082E10E94C500BC
:100AA00060E083E10E94C5000E941E05D093BA0059
:100AB000C093B800DF91CF910895CF92DF92EF926B
:100AC000FF920F931F93CF93DF93D091380381E070
:100AD000D13208F09CC0C09137030E944C016B01D9
:100AE0007C0180910F0381116CC082E080930F0321
:100AF00081E080930E038FEF80930D0310920C031F
:100B0000D0930B03A7E1B3E0EBEEF2E080E0D81363
:100B10008DC01092EA028091EA02CC0FC82BC093DC
:100B2000EA028091E902813009F084C01092E90262
:100B30000E944C016B017C018091EA028093BB0012
:100B40008091110390911203A0911303B0911403AB
:100B5000892B8A2B8B2BA1F00E944C010091110351
:100B60001091120320911303309114036C197D0925
:100B70008E099F09061717072807390708F442C08E
:100B80008091BC0083FDD8CF85EC8093BC000E948F
:100B90004C016B017C0180910F03823009F44CC041
:100BA00080910D038F3F09F469C080910D0380325D
:100BB00009F466C080910D03803309F463C084E0BA
:100BC00026C08091110390911203A0911303B0915C
:100BD0001403892B8A2B8B2B09F483CF0E944C01A1
:100BE000009111031091120320911303309114030B
:100BF0006C197D098E099F09061717072807390701
:100C000008F06FCF809110030E943C0585E01092A0
:100C100016031092380310921503DF91CF911F91A4
:100C20000F91FF90EF90DF90CF9008959D91919359
:100C30008F5F6DCF85EEA9CF809111039091120344
:100C4000A0911303B0911403892B8A2B8B2B09F4E9
:100C5000A2CF0E944C010091110310911203209128
:100C60001303309114036C197D098E099F0906172F
:100C700017072807390708F08ECFC4CF80E0C7CF09
:100C800082E0C5CF83E0C3CF0895E0918D028091CB
:100C90008C02E81730F4F0E0EC5DFD4F808190E0CD
:100CA00008958FEF9FEF089590918D0280918C02AF
:100CB0002FEF3FEF981748F4E92FF0E0EC5DFD4F80
:100CC000208130E09F5F90938D02C901089580914B
:100CD0008C0290918D02891B990B0895CF92DF921F
:100CE000EF92FF920F931F93CF93DF937C01CB0181
:100CF0008A0120911503222389F0EB016B01C40EB8
:100D0000D51ECC15DD0569F06991D701ED91FC91F7
:100D10000190F081E02DC7010995F3CF642F0E9467
:100D2000F704C801DF91CF911F910F91FF90EF90D1
:100D3000DF90CF900895CF93DF931F92CDB7DEB7AA
:100D40006983209115032223F9F020913803203282
:100D500058F021E030E0FC013383228390E080E012
:100D60000F90DF91CF91089580911603E82FF0E066
:100D7000E95EFC4F998190838F5F80931603809387
:100D8000380381E090E0ECCF61E0CE0101960E9453
:100D9000F704F7CFFC0123812223E1F08181682B46
:100DA0006083828191E090931503809337031092C2
:100DB00016031092380386ED93E00E949B060E9472
:100DC0005D05282F30E081E090E0232B11F090E0CA
:100DD00080E0089530E020E0F6CFEF92FF920F938D
:100DE0001F93CF938C01FC0184E0C0E0262F30E0FC
:100DF00060FF02C09589C92BB9017595679581502F
:100E000031968111F3CF413011F4F8014489F80192
:100E10006585C62BC42B7801FEE0EF0EF11CF801AE
:100E200062896C2BC7010E94CA06F801628960952D
:100E30006C23C701CF911F910F91FF90EF900C94FD
:100E4000CA060F931F93CF93DF93062F0F70423084
:100E500041F440E0602FDF91CF911F910F910C94EE
:100E6000ED06142FEC0170E084E0759567958A9586
:100E7000E1F7CE010E94ED06412F602FCE01EBCFAE
:100E8000FC0184858823A1F0218532852115310557
:100E900021F4611107C0158606C021303105D9F74C
:100EA0006111F9CF85876585CF010E960C94CA062E
:100EB0000895EF92FF920F931F93CF93DF93EC016E
:100EC000062FF42EE22E8B85888B10928D021092C5
:100ED0008C0210921603109238030E941E0581EBBB
:100EE00091E090938B0280938A028DEB91E0909336
:100EF000890280938802888911E0109315038093FA
:100F000037030E945D0581111CC0198B86ED93E0AB
:100F10000E9454068E878989882339F01F861C8297
:100F200060E0CE010E960E94CA062E2D4F2D602F36
:100F3000CE01DF91CF911F910F91FF90EF900C9414
:100F40007403198AE8CF90E080E008954F925F9291
:100F50006F927F928F929F92AF92BF92CF92DF92C9
:100F6000EF92FF920F931F93CF93DF93CDB7DEB72E
:100F70002C970FB6F894DEBF0FBECDBF6091DA029A
:100F80007091DB028091DC029091DD020E946A1771
:100F90004B017B016091D6027091D7028091D802FB
:100FA0009091D9020E946A172B016B016091A802EF
:100FB0007091A9028091AA029091AB020E946A17D7
:100FC0008B01072E000C880B990B0E94291520E03D
:100FD00030E040E05FE317FD5DC00E948C160E9488
:100FE0006A17162F072FB201550C880B990B0E9418
:100FF000291520E030E040E05FE3D7FC4EC00E94BE
:101000008C160E946A17D62EC72EB401990C880B35
:10101000990B0E94291520E030E040E05FE3F7FCE7
:101020003FC00E948C160E946A1709831A832FE41E
:1010300031E02B83CC82DD8224E631E02E837F8376
:10104000688781E591E089871A8683E591E08B873F
:1010500081E08C874CE050E0BE016F5F7F4F86EDF2
:1010600093E00E946E062C960FB6F894DEBF0FBE7A
:10107000CDBFDF91CF911F910F91FF90EF90DF9047
:10108000CF90BF90AF909F908F907F906F905F9028
:101090004F9008950E948B16A2CF0E948B16B1CF5D
:1010A0000E948B16C0CFCF93DF93EDE9F0E08491DF
:1010B000EFECF0E0D491EBEBF0E0C491CC2379F0CD
:1010C00081110E949C00EC2FF0E0EE0FFF1FE05515
:1010D000FF4FA591B491EC91ED2381E009F480E0FC
:1010E000DF91CF910895FB0101900020E9F731973E
:1010F000AF01461B570BDC01ED91FC910280F3819F
:10110000E02D09948F929F92AF92BF92EF92FF923F
:101110000F931F93CF93DF93CDB7DEB7A1970FB691
:10112000F894DEBF0FBECDBF7C01FA01CB0119A23E
:10113000223008F42AE08E010F5D1F4F822E912C81
:10114000B12CA12CBF01A50194010E94AA17F9019D
:10115000CA016A300CF5605DD8016E938D01232BB6
:10116000242B252B79F790E080E0109721F0BD012A
:10117000C7010E947308A1960FB6F894DEBF0FBE98
:10118000CDBFDF91CF911F910F91FF90EF90BF9056
:10119000AF909F908F900895695CDECFCF92DF92E1
:1011A000EF92FF92CF93DF936B017C016DE287E0BA
:1011B00094E00E941103EC0144275527BA014C1911
:1011C0005D096E097F092AE087E094E00E948208A9
:1011D0008C0F9D1FDF91CF91FF90EF90DF90CF900C
:1011E0000895BC0187E094E00C94730887E094E0D4
:1011F0000E946C0361E084E00E94240385E591E095
:101200000E94F10861E08DE00E94C50064EF71E08A
:1012100080E090E00E94710160E08DE00E94C500D6
:1012200064EF71E080E090E00C9471012F923F92A6
:101230004F925F926F927F928F929F92AF92BF92E6
:10124000CF92DF92EF92FF921F93CF93DF93EC0147
:101250006A017B01722EAB019601CB01B6010E949F
:10126000A5176EE571E0811126C046015701E8948B
:10127000B7F82FEF3FEF4FE75FE7C501B4010E94DA
:10128000A51781110CC02FEF3FEF4FE75FE7C501B6
:10129000B4010E94221562E671E0181664F02FEF87
:1012A0003FEF4FE75FE4C701B6010E94A017181691
:1012B000B4F466E671E0CE01DF91CF911F91FF900B
:1012C000EF90DF90CF90BF90AF909F908F907F90E6
:1012D0006F905F904F903F902F900C9473082FEF7A
:1012E0003FEF4FE75FECC701B6010E94221587FD73
:1012F000E0CF20E030E0A901C701B6010E9422152D
:10130000312C212C87FF0DC0E881F9810190F081FB
:10131000E02D6DE2CE0109951C01F7FAF094F7F883
:10132000F09410E060E070E080E09FE3711641F01F
:1013300020E030E040E251E40E94F8161F5FF6CF53
:10134000A70196010E948C162B013C010E94711787
:101350004B015C012AE0BC01A401CE010E9482087D
:101360007C01E20CF31C1123E1F1C501B4010E94E0
:1013700027159B01AC01C301B2010E948B164B01E2
:101380005C01E881F9810190F081E02D6EE2CE01EF
:101390000995E80EF91E115020F120E030E040E2FE
:1013A00051E4C501B4010E9488152B013C010E9443
:1013B00071174B01B12CA12C2AE0B501A401CE017B
:1013C0000E948208E80EF91EC501B4010E9427158B
:1013D0009B01AC01C301B2010E948B164B015C0161
:1013E000DACFC701DF91CF911F91FF90EF90DF908F
:1013F000CF90BF90AF909F908F907F906F905F90B5
:101400004F903F902F9008950E94B4190F931F930F
:10141000CF93DF93EC0188819981009759F02A815D
:101420003B812617370730F081E0DF91CF911F9184
:101430000F9108958B016F5F7F4F0E94F7180097FF
:1014400059F0998388831B830A832C813D81232B48
:1014500059F7FC011082E8CF80E0E7CFEF92FF92CE
:101460000F931F93CF93DF93EC017B01FB0101905E
:101470000020E9F731978F01061B170BB8010E9476
:10148000060A28813981811113C02115310519F00F
:10149000C9010E946E18198218821D821C821B824B
:1014A0001A82DF91CF911F910F91FF90EF900895D5
:1014B0001D830C83B701C901DF91CF911F910F915B
:1014C000FF90EF900C94C21985ED8093BC00809141
:1014D000110390911203A0911303B0911403079686
:1014E000A11DB11D23E0B695A795979587952A95DF
:1014F000D1F72091BC0024FD03C010920F03089582
:1015000040911103509112036091130370911403E1
:10151000452B462B472B69F30097A105B10541F0F8
:101520002AE22A95F1F700C00197A109B109E1CF9C
:10153000809110030C943C051F920F920FB60F92EE
:1015400011242F933F938F939F93AF93BF938091D9
:10155000E1029091E202A091E302B091E4023091A5
:10156000E00223E0230F2D3758F50196A11DB11D90
:101570002093E0028093E1029093E202A093E302C1
:10158000B093E4028091E5029091E602A091E70217
:10159000B091E8020196A11DB11D8093E5029093E0
:1015A000E602A093E702B093E802BF91AF919F914A
:1015B0008F913F912F910F900FBE0F901F90189514
:1015C00026E8230F0296A11DB11DD2CF1F920F92C4
:1015D0000FB60F9211242F933F934F935F936F9306
:1015E0007F938F939F93AF93BF93EF93FF9389E381
:1015F00093E00E946E02FF91EF91BF91AF919F9196
:101600008F917F916F915F914F913F912F910F90AB
:101610000FBE0F901F9018951F920F920FB60F924A
:1016200011242F938F939F93EF93FF93E09149039E
:10163000F0914A038081E0914F03F091500382FDC5
:101640001BC09081809152038F5F8F732091530351
:10165000821741F0E0915203F0E0E75CFC4F958F78
:1016600080935203FF91EF919F918F912F910F9053
:101670000FBE0F901F9018958081F4CF1F920F928C
:101680000FB60F9211242F933F934F935F936F9355
:101690007F938F939F93AF93BF93EF93FF9380912B
:1016A000B900887F803609F44AC0F0F5883209F421
:1016B000A7C018F5803109F49BC0B8F4882309F459
:1016C000F9C0883009F494C0FF91EF91BF91AF91B8
:1016D0009F918F917F916F915F914F913F912F914A
:1016E0000F900FBE0F901F901895883109F488C095
:1016F000803251F780930D0314C0803409F49DC0EB
:1017000040F48033B9F38833F9F680930D0385EC08
:10171000B0C0803509F485C0883509F496C0883496
:1017200099F60E94640AD0CF883909F48CC038F544
:10173000883729F050F4883611F0803729F683E095
:1017400080930F031092870257C0883809F47BC03A
:10175000803919F0803809F0B7CF80918702803244
:1017600008F071C0E091870281E08E0F80938702BC
:101770008091BB00F0E0E959FD4F80833DC0803B84
:1017800039F0E0F4803A09F479C0883A09F09CCF46
:1017900084E080930F031092660210926502E0913C
:1017A0008A02F0918B0209958091650281110FC028
:1017B00081E0809365021092450209C0803C09F4E3
:1017C000A6CF883C09F4A3CF883B09F07DCFE091F8
:1017D000660281E08E0F80936602F0E0EB5BFD4FC6
:1017E00080818093BB00909166028091650229C040
:1017F0008091EA028093BB0085EC8093BC0064CFAB
:1018000090910C0380910B03981758F5E0910C030D
:1018100081E08E0F80930C03F0E0E551FD4F808155
:10182000E9CFE0910C0381E08E0F80930C0380914F
:10183000BB00F0E0E551FD4F808390910C03809157
:101840000B039817C8F285E8D8CFE0910C0381E02C
:101850008E0F80930C038091BB00F0E0E551FD4FAB
:10186000808380910E0381115CCF81E08093E90237
:1018700084EA8093BC0010920F0326CF85EC8093FE
:10188000BC0010920F0380918702803230F4E09107
:101890008702F0E0E959FD4F10826091870270E005
:1018A000E0918802F091890287E692E00995109212
:1018B00087020ACF10920D0334CF1F93CF93DF938B
:1018C000E9E3F3E01382128288EE93E0A0E0B0E057
:1018D00084839583A683B7832BE131E03183208312
:1018E00025EC30E03587248724EC30E037872687E5
:1018F00020EC30E0318B208B21EC30E0338B228BDD
:1019000022EC30E0358B248B26EC30E0378B268BB5
:10191000118E128E138E148EE6EDF3E01382128276
:1019200084839583A683B7838DE291E0918380833E
:101930001092240410922304E5E2F4E080E091E0A8
:10194000DF019C011D9221503040E1F7C0E2D4E05C
:101950008AE0888319E01A8388E0898361E089E05E
:101960000E94090161E088810E94090160E089818B
:101970000E94090161E08A810E94C500E7E0F4E06D
:10198000138212828FE391E091838083108A8FEF1C
:1019900087871686118A87E28387148615861286C2
:1019A000118684E0828B82E0838BC1E0C48B80E16E
:1019B000858B80E2868B80E4878B80E8808F50E087
:1019C00040E063E0CF010E94FD0260E085E00E94FC
:1019D0000901E3EDF0E0E491A9EFB3E0EC93EFEB64
:1019E000F0E0E491F0E0EE0FFF1FE055FF4F85912E
:1019F000949112969C938E9311971B961C921B9711
:101A00001D961C921D971C961C921C971A961C9250
:101A10001A9719961C92199718961C921897179650
:101A20001C92179716961C92169715961C9215974E
:101A300014961C92149713961C921397E2EEF3E0FF
:101A4000168A158A1182B287A187178210861082A2
:101A50001383C483C583C683DF91CF911F910895FB
:101A6000CF93DF93CDB7DEB769970FB6F894DEBF9B
:101A70000FBECDBF789484B5826084BD84B581608B
:101A800084BD85B5826085BD85B5816085BD809149
:101A90006E00816080936E001092810080918100C1
:101AA00082608093810080918100816080938100B9
:101AB000809180008160809380008091B10084607B
:101AC0008093B1008091B00081608093B0008091DC
:101AD0007A00846080937A0080917A00826080939B
:101AE0007A0080917A00816080937A0080917A00F8
:101AF000806880937A001092C10041E061E081E04B
:101B00000E94F30061E084E00E94090161E082E04C
:101B10000E94090161E086E00E94090161E087E01E
:101B20000E94090161E08DE00E94090120E042E08D
:101B300060E187E094E00E945907E091EB03F091A7
:101B4000EC0313861586148612861186108617827A
:101B500016821582148213821092E9031092EA030E
:101B600077247394662463946E012AE0C20ED11C1C
:101B70000091EB031091EC03D8011D968C91882302
:101B800009F4B2C1F80113861586148610928D02ED
:101B900010928C0210921603109238030E941E05B8
:101BA00081EB91E090938B0280938A028DEB91E020
:101BB000909389028093880280E18093BA0080EB41
:101BC00091E090938F0280938E0286EA97E0909343
:101BD000910280939002E0914903F0914A0382E0E0
:101BE0008083E0914503F09146031082E091470322
:101BF000F09148038FEC808310925103E0914D03E4
:101C0000F0914E0386E08083E0914B03F0914C030A
:101C1000808180618083E0914B03F0914C0380814F
:101C200088608083E0914B03F0914C038081806851
:101C30008083E0914B03F0914C0380818F7D808302
:101C400088E19FE00FB6F894A895809360000FBEDE
:101C50009093600000E010E0332433940E94A401CC
:101C60004B015C010E94A4014090920250909302AB
:101C7000609094027090950264197509860997091D
:101C8000683E73408105910508F4C1C08091EB0363
:101C90009091EC030E94BF0440E06CEC8091EB0358
:101CA0009091EC030E946C044091E20364E4809103
:101CB000EB039091EC030E946C048091E60388236F
:101CC00011F1E091E5038091E703882309F435C21F
:101CD0008091E203811131C20E94A4012B013C01D9
:101CE0008091EB039091EC030E941904813059F02C
:101CF0000E94A40164197509860997096E3E724015
:101D00008105910568F381E10E943A01BC01990FB8
:101D1000880B990B0E9429156093A8027093A90261
:101D20008093AA029093AB028FE00E943A01BC011B
:101D3000990F880B990B0E9429156093DA02709312
:101D4000DB028093DC029093DD028EE00E943A0178
:101D5000BC01990F880B990B0E9429152B013C019E
:101D60004092D6025092D7026092D8027092D90265
:101D700080E10E943A01BC01990F880B990B0E94E7
:101D8000291520E030E040EA50E40E94881520E068
:101D900030E040E85AE30E9488152DEC3CEC4CE41E
:101DA0005EE30E94F81620E030E040E451E40E9437
:101DB000A01718160CF0E9C13092DF0222E0B3013F
:101DC000A20189E393E00E9416096AE671E089E3C3
:101DD00093E00E9473084091DA025091DB02609117
:101DE000DC027091DD0222E089E393E00E94160993
:101DF0006AE671E089E393E00E94730880929202A0
:101E000090929302A0929402B0929502A89580912C
:101E1000DF02882309F4C9C18091DE028111D1C19A
:101E200020E030E04CE052E46091DA027091DB0295
:101E30008091DC029091DD020E94221587FD11C085
:101E400020E030E041E654E46091D6027091D70280
:101E50008091D8029091D9020E94A01718160CF018
:101E6000B0C1809100019091010197FD97C140E0C0
:101E700061E081E00E94F30087E094E00E946C033F
:101E800060E080E00E9424038DE691E00E94F1086A
:101E900061E080E00E942403409100015091010123
:101EA000052E000C660B770B77FF72C1CB01BA01D0
:101EB0000E94CE088DE791E00E94F1088091000118
:101EC000909101010197909301018093000160E0DE
:101ED00090E080E00E94461668EE73E080E090E0BB
:101EE0000E947101A895BDCFC8010E94BF04811155
:101EF0000AC0D8011B961C921B971D961C921D9719
:101F00001C961C9243CE40E060EFC8010E946C0416
:101F1000EE24E394A12C912CFF24F394C8010E9499
:101F20001904B82EC8010E941904B1E0BB1273C095
:101F3000813009F092C0E0E4EF1508F023CED8011B
:101F40001B969C921B97911002C01D967C92F801E3
:101F50008381882309F416CED8011396FE013A96A0
:101F6000055F1F4F7F018D9181930A171B07D9F7DA
:101F700067E0C7010E94020499898913F9CD809115
:101F8000E9038F5F8093E9038A85883239F008F08E
:101F90007BC0803119F0823209F0EACD8091EA03EA
:101FA0008F5F8093EA038091EB039091EC03209183
:101FB000E203211122C00E94BF04B7018091EB030C
:101FC0009091EC030E94A00440E064EB8091EB034D
:101FD0009091EC030E946C048091EB039091EC03D0
:101FE0000E941904182F8091EB039091EC030E943A
:101FF000BF04111102C06092E2038091EB03909143
:10200000EC032A85203109F48BC00E94BF048111A2
:1020100042C080E088C0EA2DF0E0B81214C0D801B8
:102020001B968C911B97F816B0F4AE0FBF1F13963A
:102030008C918E2191F4B12CB8E0BF1518F0D80125
:102040001C96FC929F2CE00FF11F83819E2D909592
:10205000892383830AC08F11EECFF801EA0DF11DA9
:1020600083818E298383BB24B3946B2DC8010E9486
:102070003D04F394EE0C19F4A394EE24E394B7E03A
:10208000BA1508F04BCF57CF8B3309F487CF823482
:1020900009F06ECD83CFB7018091EB039091EC03F3
:1020A0000E94A00440E06EEB8091EB039091EC0362
:1020B0000E946C048E010F5F1F4F78011801809001
:1020C000EB039090EC0398E0A92EB12C512C442402
:1020D0004394C4010E94190481115428440CF1E076
:1020E000AF1AB108B1F7D7015D927D01AC15BD05FE
:1020F00031F78091EB039091EC030E94BF04813093
:1021000009F087CFF80181918F01811189C4EE1602
:10211000FF06C1F77ECF8F3571F08F3709F079CF89
:102120008CE001C08AE09091E503981708F020CD7B
:102130008093E5031DCD8BE0F6CFE9508EEE92E063
:10214000E33038F4F0E0EE0FFF1FEF5EFE4F8081CA
:1021500091812C01990F660877088091E303882309
:1021600029F060E08091E4030E94C500C301B20140
:102170000E9471018091E303882309F4C4CD61E0DA
:102180008091E4030E94C500BECD1092DF0216CEFE
:102190002AE087E094E00E9482088CCE3092DE0232
:1021A00061E090E080E00E9446160115110509F4F7
:1021B00055CD0E945A02882309F450CD0E94000098
:1021C0004DCD20E030E04AEF53E46091D6027091AB
:1021D000D7028091D8029091D9020E94A01787FD62
:1021E000C8C020E030E048EC51E46091DA02709120
:1021F000DB028091DC029091DD020E94221518160C
:102200000CF4B7C03092DE020E94A4014B015C01C5
:102210000E94A4014090960250909702609098020C
:10222000709099026419750986099709683E734090
:102230008105910508F4B9CF8091AC029091AD026F
:102240009C012F5F3F4F3093AD022093AC02AC0155
:102250004D50510942305105D8F441E060E080E032
:102260000E94F30087E094E00E946C0361E080E04C
:102270000E94240382E891E00E94F1088092960275
:1022800090929702A0929802B0929902A8958DCF51
:10229000AC01415151094330510580F441E060E007
:1022A00080E00E94F30087E094E00E946C0361E00C
:1022B00080E00E94240383E991E0DECF489741E06B
:1022C000069778F460E080E00E94F30087E094E0F5
:1022D0000E946C0361E080E00E94240384EA91E0A4
:1022E000CBCF293231053CF061E081E00E94F30060
:1022F0000E94F608C3CF60E081E00E94F30087E00F
:1023000094E00E946C0360E080E00E94240383EB71
:1023100091E00E94F1084091AC025091AD02052E6F
:10232000000C660B770B77FF1EC0CB01BA010E9431
:10233000CE088DE791E00E94F10861E080E00E9404
:1023400024038EEB91E00E94F1084091D602509157
:10235000D7026091D8027091D90222E087E094E020
:102360000E9416098BCF2AE087E094E00E94820841
:10237000E0CF0E94A4016A8B7B8B8C8B9D8B0E948B
:10238000A4018090C2029090C302A090C402B090B9
:10239000C502681979098A099B09683E734081055D
:1023A000910508F402CF8091AC029091AD020196A4
:1023B0009093AD028093AC024090D6025090D70229
:1023C0006090D8027090D90220E030E041E654E4F9
:1023D000C301B2010E94A01718161CF40E94F6084F
:1023E000EBCF8090DA029090DB02A090DC02B090FC
:1023F000DD0220E030E0A901C501B4010E94A01770
:1024000087FD41C020E030E040EF51E4C501B40158
:102410000E9422151816BCF187E094E00E946C031C
:1024200060E081E00E94240385EC91E00E94F108C5
:1024300041E060E080E00E94F30061E080E00E9403
:10244000240383ED91E00E94F1084091DA0250915B
:10245000DB026091DC027091DD0222E087E094E013
:102460000E9416098EED91E00E94F108CA88DB886F
:10247000EC88FD88C092C202D092C302E092C402EE
:10248000F092C50203CF20E030E040EF51E4C501F7
:10249000B4010E94A01718160CF081C020E030E0B3
:1024A00042E852E4C501B4010E94221587FF77C0BB
:1024B0001092AD021092AC021092DE0261E087E051
:1024C0000E94C50060E084E00E94C50061E082E0F7
:1024D0000E94C50087E094E00E946C0360E080E009
:1024E0000E94240381EE91E00E94F10861E080E007
:1024F0000E94240383ED91E00E94F1084091DA02EA
:102500005091DB026091DC027091DD0222E087E0F5
:1025100094E00E9416098EED91E00E94F1080E945D
:10252000A40120919B028090B2029090B302A090EF
:10253000B402B090B5026B017C01C818D908EA0852
:10254000FB08460157012223B9F020E1821627E259
:102550009206A104B10470F010929B026093B20243
:102560007093B3028093B4029093B50260E086E06A
:102570000E94C500A8957ACF20ED821627E092062A
:10258000A104B104B8F330929B026093B20270933D
:10259000B3028093B4029093B50261E0E8CF20E0EB
:1025A00030E042E852E4C501B4010E94A01787FD63
:1025B0005DCF0E945308811128C261E087E00E942C
:1025C000C50060E084E00E94C50061E082E00E94F6
:1025D000C5008090A8029090A902A090AA02B09095
:1025E000AB0220E030E04CE452E4C501B4010E94AB
:1025F000221518160CF461C180910201882309F498
:102600005CC10E94A4018090B6029090B702A09095
:10261000B802B090B902E0919C026B017C01C8182D
:10262000D908EA08FB0846015701EE2309F431C135
:1026300028EB82162BE09206A104B10470F01092F0
:102640009C026093B6027093B7028093B802909395
:10265000B90261E086E00E94C5000E94A4014B011E
:102660005C0120E030EC4FE754E4C301B2010E946A
:10267000F8169B01AC0160E070E080E89FE30E94E7
:102680008B1620E030E048EC52E40E9488156093FD
:10269000A4027093A5028093A6029093A7021A82C7
:1026A00019821C821B821E821D8270E060E0CE01B6
:1026B00001960E94060A29813A818111A9C121153A
:1026C000310519F0C9010E946E181A8219821E8202
:1026D0001D821C821B820E9453086AEE71E08823CF
:1026E00011F06BEF71E0CE0101960E942E0A8091ED
:1026F000C6029091C702A091C802B091C9027501AB
:102700006401C81AD90AEA0AFB0AD701C601883E41
:102710009340A105B10588F187E094E00E946C0325
:1027200060E080E00E942403CE0101960E94140222
:1027300061E080E00E9424038CE092E00E94F108B6
:1027400061E086E00E9424034091A4025091A5021A
:102750006091A6027091A70222E087E094E00E94B7
:10276000160982E192E00E94F1088092C6029092DE
:10277000C702A092C802B092C9028091CA02909189
:10278000CB02A091CC02B091CD0275016401C81AB0
:10279000D90AEA0AFB0AD701C601803D9740A10584
:1027A000B10568F187E094E00E946C0360E080E08E
:1027B0000E942403CE0101960E94140261E080E091
:1027C0000E94240384E192E00E94F10861E08BE022
:1027D0000E9424034091DA025091DB026091DC02F6
:1027E0007091DD0222E087E094E00E941609809259
:1027F000CA029092CB02A092CC02B092CD028091FC
:10280000CE029091CF02A091D002B091D102750179
:102810006401C81AD90AEA0AFB0AD701C601883B33
:102820009B40A105B10568F187E094E00E946C032C
:1028300060E080E00E942403CE0101960E94140211
:1028400061E080E00E9424038EE192E00E94F108A2
:1028500061E08BE00E9424034091A8025091A902FC
:102860006091AA027091AB0222E087E094E00E949E
:1028700016098092CE029092CF02A092D002B0921E
:10288000D10289819A81009709F474CE0E946E1852
:1028900071CE30E1831637E29306A104B10408F447
:1028A000DCCE30929C026093B6027093B7028093A4
:1028B000B8029093B90260E0CDCE20E030E044E36E
:1028C00052E4C501B4010E94A01787FD59C020E061
:1028D00030E04CE452E4C501B4010E94221587FFA8
:1028E0004FC00E94A401C090BA02D090BB02E090F9
:1028F000BC02F090BD02E0919D029B01AC012C193D
:102900003D094E095F092E8B3F8B488F598FEE236F
:1029100001F1283B3B404105510570F010929D02AA
:102920006093BA027093BB028093BC029093BD0285
:1029300061E086E00E94C50020E030E044E352E41C
:10294000C501B4010E94221587FF87CE3092020193
:1029500084CECE88DF88E88CF98C20E1C21627E28D
:10296000D206E104F10440F330929D026093BA0272
:102970007093BB028093BC029093BD0260E0D9CFFC
:102980000E94A401C090BE02D090BF02E090C0029D
:10299000F090C102E0919E029B01AC012C193D090F
:1029A0004E095F092E8B3F8B488F598FEE23B1F074
:1029B000283B3B404105510570F010929E02609308
:1029C000BE027093BF028093C0029093C10261E087
:1029D00086E00E94C50010920201AECFCE88DF884B
:1029E000E88CF98C20E1C21627E2D206E104F1045A
:1029F00090F330929E026093BE027093BF02809368
:102A0000C0029093C10260E0E3CF0E94530825CE3C
:102A10001E821D826CE671E0C9010E94C2195BCE64
:102A200068E0C1010E94020499858913F2CA8D8170
:102A30008F3309F477CB08F06ECB8F3109F0E9CAF8
:102A400089E071CB0E94641508F481E00895E89450
:102A500009C097FB3EF490958095709561957F4FE6
:102A60008F4F9F4F9923A9F0F92F96E9BB27939594
:102A7000F695879577956795B795F111F8CFFAF4A4
:102A8000BB0F11F460FF1BC06F5F7F4F8F4F9F4FD5
:102A900016C0882311F096E911C0772321F09EE833
:102AA000872F762F05C0662371F096E8862F70E099
:102AB00060E02AF09A95660F771F881FDAF7880F73
:102AC0009695879597F90895990F0008550FAA0BC9
:102AD000E0E8FEEF16161706E807F907C0F0121631
:102AE0001306E407F50798F0621B730B840B950B34
:102AF00039F40A2661F0232B242B252B21F4089589
:102B00000A2609F4A140A6958FEF811D811D089525
:102B10000E949B150C940C160E94FE1538F00E9422
:102B2000051620F0952311F00C94F5150C94FB1567
:102B300011240C9440160E941D1670F3959FC1F34A
:102B4000950F50E0551F629FF001729FBB27F00D5B
:102B5000B11D639FAA27F00DB11DAA1F649F6627B0
:102B6000B00DA11D661F829F2227B00DA11D621FFF
:102B7000739FB00DA11D621F839FA00D611D221FB9
:102B8000749F3327A00D611D231F849F600D211D9D
:102B9000822F762F6A2F11249F5750409AF0F1F020
:102BA00088234AF0EE0FFF1FBB1F661F771F881F89
:102BB00091505040A9F79E3F510580F00C94F515B7
:102BC0000C9440165F3FE4F3983ED4F386957795D6
:102BD0006795B795F795E7959F5FC1F7FE2B880F2F
:102BE000911D9695879597F9089597F99F6780E8C5
:102BF00070E060E008959FEF80EC089500240A944F
:102C00001616170618060906089500240A941216C7
:102C10001306140605060895092E0394000C11F4FA
:102C2000882352F0BB0F40F4BF2B11F460FF04C0A7
:102C30006F5F7F4F8F4F9F4F089557FD9058440F00
:102C4000551F59F05F3F71F04795880F97FB991F0B
:102C500061F09F3F79F087950895121613061406C8
:102C6000551FF2CF4695F1DF08C016161706180655
:102C7000991FF1CF86957105610508940895E89430
:102C8000BB2766277727CB0197F90895262FF99957
:102C9000FECF1FBA92BD81BD20BD0FB6F894FA9A3F
:102CA000F99A0FBE019608952F923F924F925F922C
:102CB0006F927F928F929F92AF92BF92CF92DF924C
:102CC000EF92FF920F931F93CF93DF93CDB7DEB7B1
:102CD000CA1BDB0B0FB6F894DEBF0FBECDBF099445
:102CE0002A88398848885F846E847D848C849B849C
:102CF000AA84B984C884DF80EE80FD800C811B81AA
:102D0000AA81B981CE0FD11D0FB6F894DEBF0FBED8
:102D1000CDBFED0108955058BB27AA270E94A316E6
:102D20000C940C160E94FE1538F00E94051620F037
:102D300039F49F3F19F426F40C94FB150EF4E0953A
:102D4000E7FB0C94F515E92F0E941D1658F3BA17EE
:102D5000620773078407950720F079F4A6F50C94B1
:102D60003F160EF4E0950B2EBA2FA02D0B01B901E2
:102D700090010C01CA01A0011124FF27591B99F0F1
:102D8000593F50F4503E68F11A16F040A22F232FFD
:102D9000342F4427585FF3CF469537952795A7954D
:102DA000F0405395C9F77EF41F16BA0B620B730BF4
:102DB000840BBAF09150A1F0FF0FBB1F661F771F65
:102DC000881FC2F70EC0BA0F621F731F841F48F41A
:102DD000879577956795B795F7959E3F08F0B0CFA3
:102DE0009395880F08F09927EE0F9795879508958A
:102DF0000E940C170C940C160E94051658F00E94A5
:102E0000FE1540F029F45F3F29F00C94F51551119F
:102E10000C9440160C94FB150E941D1668F3992320
:102E2000B1F3552391F3951B550BBB27AA276217C6
:102E30007307840738F09F5F5F4F220F331F441FD3
:102E4000AA1FA9F335D00E2E3AF0E0E832D0915007
:102E50005040E695001CCAF72BD0FE2F29D0660FF4
:102E6000771F881FBB1F261737074807AB07B0E837
:102E700009F0BB0B802DBF01FF2793585F4F3AF03D
:102E80009E3F510578F00C94F5150C9440165F3F69
:102E9000E4F3983ED4F3869577956795B795F795C3
:102EA0009F5FC9F7880F911D9695879597F90895AB
:102EB000E1E0660F771F881FBB1F62177307840747
:102EC000BA0720F0621B730B840BBA0BEE1F88F756
:102ED000E09508950E9471176894B1110C94401602
:102EE00008950E94251688F09F5798F0B92F9927CA
:102EF000B751B0F0E1F0660F771F881F991F1AF0E5
:102F0000BA95C9F714C0B13091F00E943F16B1E0F4
:102F100008950C943F16672F782F8827B85F39F0F3
:102F2000B93FCCF3869577956795B395D9F73EF47D
:102F300090958095709561957F4F8F4F9F4F089525
:102F40000E94641508F48FEF08950E946415880BA1
:102F5000990B0895A1E21A2EAA1BBB1BFD010DC0FF
:102F6000AA1FBB1FEE1FFF1FA217B307E407F50739
:102F700020F0A21BB30BE40BF50B661F771F881F15
:102F8000991F1A9469F760957095809590959B01AB
:102F9000AC01BD01CF010895EE0FFF1F0590F49124
:102FA000E02D09940F931F93CF93DF938230910507
:102FB00010F482E090E0E0912705F091280530E0E0
:102FC00020E0B0E0A0E0309799F42115310509F434
:102FD0004AC0281B390B24303105D8F58A819B81E2
:102FE0006115710589F1FB0193838283FE0111C094
:102FF000408151810281138148175907E0F0481739
:10300000590799F4109761F012960C931297139642
:103010001C933296CF01DF91CF911F910F910895AC
:103020000093270510932805F4CF2115310551F0A1
:103030004217530738F0A901DB019A01BD01DF01F6
:10304000F801C1CFEF01F9CF9093280580932705B0
:10305000CDCFFE01E20FF31F8193919322503109EE
:1030600039832883D7CF2091250530912605232B3E
:1030700041F42091050130910601309326052093FB
:10308000250520910301309104012115310541F4FA
:103090002DB73EB74091070150910801241B350B15
:1030A000E0912505F0912605E217F307A0F42E1B09
:1030B0003F0B2817390778F0AC014E5F5F4F24179C
:1030C000350748F04E0F5F1F5093260540932505A6
:1030D000819391939FCFF0E0E0E09CCFCF93DF937B
:1030E0000097E9F0FC01329713821282A091270524
:1030F000B0912805ED0130E020E01097A1F4208187
:103100003181820F931F20912505309126052817C4
:10311000390709F061C0F0932605E0932505DF919A
:10312000CF910895EA01CE17DF07E8F54A815B8168
:103130009E0141155105B1F7E901FB83EA834991ED
:103140005991C40FD51FEC17FD0761F4808191815F
:103150000296840F951FE901998388838281938168
:103160009B838A83F0E0E0E012968D919C91139707
:103170000097B9F52D913C911197CD010296820FE0
:10318000931F20912505309126052817390739F618
:10319000309751F51092280510922705B093260517
:1031A000A0932505BCCFD383C28340815181840F76
:1031B000951FC817D90761F44E5F5F4F88819981C9
:1031C000480F591F518340838A819B819383828357
:1031D0002115310509F0B0CFF0932805E0932705BC
:1031E0009ECFFD01DC01C0CF13821282D7CFB0E0A9
:1031F000A0E0EDEFF8E10C9456168C01009751F425
:10320000CB010E94D2178C01C801CDB7DEB7E0E137
:103210000C947216FC01E60FF71F9C012250310935
:10322000E217F30708F49DC0D901CD91DC91119705
:10323000C617D70798F0C530D10530F3CE010497F3
:103240008617970708F3C61BD70B2297C193D19314
:103250006D937C93CF010E946E18D6CF5B01AC1AA0
:10326000BD0A4C018C0E9D1EA0912705B09128052A
:10327000512C412CF12CE12C109731F58091250532
:10328000909126058815990509F05CC046165706E9
:1032900008F058C08091030190910401009741F417
:1032A0008DB79EB74091070150910801841B950B83
:1032B000E817F90708F055C0F0932605E0932505B7
:1032C000F90171836083A0CF8D919C911197129623
:1032D0006C90129713967C901397A815B90559F521
:1032E0006C0142E0C40ED11CCA14DB0420F1AC0115
:1032F0004A195B09DA011296159780F0628273828F
:1033000051834083D9016D937C93E114F10471F0F2
:10331000D7011396FC93EE93129776CF22968C0FDB
:103320009D1FF90191838083F301EFCFF09328056E
:10333000E093270569CF4816590608F42C017D0152
:10334000D3019ACFCB010E94D2177C01009749F09C
:10335000AE01B8010E94B919C8010E946E18870118
:1033600053CF10E000E050CF81E090E0F8940C944F
:10337000C919FB01DC0102C001900D92415050407F
:10338000D8F70895FB01DC0101900D920020E1F7D0
:103390000895F894FFCF0200010000290580000085
:1033A000401454004010505E00BC00770100000043
:1033B000009002E7011D02DD024E022C02400200D5
:1033C0000000009B066E06A30744066706540645E8
:1033D00006000000001103E701A30701045907FDDF
:1033E000024007210777006500730050524F564C8A
:1033F000494D41006E616E00696E66006F76660031
:103400000D0A0045495341475747492050454C4C08
:103410004554002073656300414552415320414E9D
:103420004F4958544F532031004145524153204198
:103430004E4F4958544F532032004145524153207A
:10344000414E4F4958544F5300414E41464C454B15
:1034500053492000464F544941200058414D494CA2
:103460004920454E41555349004B4159534145521E
:10347000494120002043005A455354414D4120000A
:103480004B414E4F4E494B48204C4549542E20410C
:10349000004B414E4F4E494B48204C4549542E203D
:1034A0004D00464F5449410025004B415953414579
:0A34B000524941004E45524F000002
:107800000C94343C0C94513C0C94513C0C94513CE1
:107810000C94513C0C94513C0C94513C0C94513CB4
:107820000C94513C0C94513C0C94513C0C94513CA4
:107830000C94513C0C94513C0C94513C0C94513C94
:107840000C94513C0C94513C0C94513C0C94513C84
:107850000C94513C0C94513C0C94513C0C94513C74
:107860000C94513C0C94513C11241FBECFEFD8E036
:10787000DEBFCDBF11E0A0E0B1E0ECE9FFE702C060
:1078800005900D92A230B107D9F712E0A2E0B1E065
:1078900001C01D92AD30B107E1F70E942D3D0C945F
:1078A000CC3F0C94003C982F959595959595959582
:1078B000905D8F708A307CF0282F295A8091C0000B
:1078C00085FFFCCF9093C6008091C00085FFFCCF60
:1078D0002093C6000895282F205DF0CF982F809127
:1078E000C00085FFFCCF9093C6000895EF92FF92F1
:1078F0000F931F93EE24FF2487018091C00087FD22
:1079000017C00894E11CF11C011D111D81E4E8164B
:1079100082E4F8068FE0080780E0180770F3E09132
:107920000401F091050109958091C00087FFE9CF1E
:107930008091C6001F910F91FF90EF9008950E94D3
:10794000763C982F8091C00085FFFCCF9093C600B5
:1079500091362CF490330CF09053892F089597555D
:10796000892F08951F930E949F3C182F0E949F3CCF
:107970001295107F810F1F9108951F93182F882350
:1079800021F00E94763C1150E1F71F9108951F935A
:10799000182F0E94763C803249F0809103018F5F5E
:1079A000809303018530C1F01F9108958091C0003C
:1079B00085FFFCCF84E18093C6008091C00085FFE5
:1079C000FCCF1093C6008091C00085FFFCCF80E102
:1079D0008093C6001F910895E0910401F091050184
:1079E00009951F9108950E94763C803241F0809164
:1079F00003018F5F80930301853081F008958091AA
:107A0000C00085FFFCCF84E18093C6008091C00058
:107A100085FFFCCF80E18093C6000895E0910401CA
:107A2000F09105010995089540E951E08823A1F0FE
:107A30002D9A28EE33E0FA013197F1F721503040CA
:107A4000D1F72D9828EE33E0FA013197F1F7215064
:107A50003040D1F7815061F708953F924F925F9285
:107A60006F927F928F929F92AF92BF92CF92DF924E
:107A7000EF92FF920F931F93CF93DF93000080E16B
:107A80008093C4001092C50088E18093C10086E015
:107A90008093C2005098589A259A81E00E94143D24
:107AA00024E1F22E9EE1E92E85E9D82E0FE0C02ECA
:107AB00010E1B12EAA24A394B1E49B2EA6E58A2E50
:107AC000F2E57F2EE0E26E2E79E4572E63E5462E36
:107AD00050E5352E0E94763C8033B1F18133B9F107
:107AE000803409F46FC0813409F476C0823409F41B
:107AF00085C0853409F488C0803531F1823521F1A3
:107B0000813511F1853509F485C0863509F48DC0BC
:107B1000843609F496C0843709F403C1853709F423
:107B200072C1863709F466C0809103018F5F80932C
:107B30000301853079F6E0910401F0910501099582
:107B40000E94763C803351F60E94F33CC3CF0E94E2
:107B5000763C803249F78091C00085FFFCCFF092DF
:107B6000C6008091C00085FFFCCF9092C600809136
:107B7000C00085FFFCCF8092C6008091C00085FFC9
:107B8000FCCF7092C6008091C00085FFFCCF609250
:107B9000C6008091C00085FFFCCF5092C600809146
:107BA000C00085FFFCCF4092C6008091C00085FFD9
:107BB000FCCF3092C6008091C00085FFFCCFB09210
:107BC000C60088CF0E94763C863808F4BDCF0E945C
:107BD000763C0E94F33C7ECF0E94763C803809F4CC
:107BE0009CC0813809F40BC1823809F43CC1883942
:107BF00009F48FC080E00E94C73C6CCF84E10E94F2
:107C0000BD3C0E94F33C66CF85E00E94BD3C0E94D3
:107C1000F33C60CF0E94763C809306010E94763C44
:107C2000809307010E94F33C55CF0E94763C80333D
:107C300009F41DC183E00E94BD3C80E00E94C73C66
:107C400049CF0E94763C809309020E94763C809343
:107C5000080280910C028E7F80930C020E94763C79
:107C6000853409F415C18091080290910902892B8D
:107C700089F000E010E00E94763CF801E85FFE4FDA
:107C800080830F5F1F4F80910802909109020817AF
:107C9000190788F30E94763C803209F045CF809125
:107CA0000C0280FF01C16091060170910701660F0F
:107CB000771F7093070160930601A0910802B091AD
:107CC00009021097C9F0E8E0F1E09B01AD014E0F09
:107CD0005F1FF999FECF32BD21BD819180BDFA9A17
:107CE000F99A2F5F3F4FE417F50799F76A0F7B1F4B
:107CF00070930701609306018091C00085FFFCCF5F
:107D0000F092C6008091C00085FFFCCFB092C60003
:107D1000E1CE83E00E94C73CDDCE82E00E94C73CFA
:107D2000D9CE0E94763C809309020E94763C8093D3
:107D300008028091060190910701880F991F909386
:107D40000701809306010E94763C853409F4A6C0A1
:107D500080910C028E7F80930C020E94763C8032D0
:107D600009F0B8CE8091C00085FFFCCFF092C6002C
:107D7000609108027091090261157105B9F140E046
:107D800050E080910C02A82FA170B82FB27011C0E2
:107D9000BB2309F45CC0E0910601F0910701319624
:107DA000F0930701E09306014F5F5F4F46175707B7
:107DB000E8F4AA2369F3F999FECF209106013091E6
:107DC000070132BD21BDF89A90B58091C00085FFB2
:107DD000FCCF9093C6002F5F3F4F30930701209355
:107DE00006014F5F5F4F4617570718F38091C00099
:107DF00085FDE5CE8091C00085FFF8CFE0CE81E023
:107E00000E94C73C67CE0E94763C803209F08CCE3F
:107E10008091C00085FFFCCFF092C6008091C00029
:107E200085FFFCCFE092C6008091C00085FFFCCFAB
:107E3000D092C6008091C00085FFFCCFC092C600E2
:107E40008091C00085FFFCCFB092C60043CEE09188
:107E50000601F091070194918091C00085FFFCCF4D
:107E60009093C6009CCF80E10E94C73C33CE0E9415
:107E7000763C0E94763C182F0E94763C112309F430
:107E800083C0113009F484C08FE00E94C73C22CE29
:107E900080910C02816080930C02E5CE80910C02EF
:107EA000816080930C0259CF809107018823880F4D
:107EB000880B8A2180930B02809106019091070123
:107EC000880F991F90930701809306018091080203
:107ED00080FF09C080910802909109020196909359
:107EE000090280930802F894F999FECF1127E091D6
:107EF0000601F0910701C8E0D1E08091080290915D
:107F00000902103091F40091570001700130D9F34B
:107F100003E000935700E89500915700017001308D
:107F2000D9F301E100935700E89509901990009169
:107F3000570001700130D9F301E000935700E89534
:107F40001395103498F011270091570001700130FB
:107F5000D9F305E000935700E895009157000170B0
:107F60000130D9F301E100935700E895329602976A
:107F700009F0C7CF103011F00296E5CF112480919F
:107F8000C00085FFB9CEBCCE8EE10E94C73CA2CD19
:0E7F900085E90E94C73C9ECDF894FFCF80008B
:00000001FF
