:020000040000FA
:100000000C9472000C949A000C949A000C949A0030
:100010000C949A000C949A000C949A000C949A00F8
:100020000C949A000C949A000C949A000C949A00E8
:100030000C949A000C949A000C949A000C949A00D8
:100040000C94D80D0C949A000C949A000C949A007D
:100050000C949A000C949A000C949A000C949A00B8
:100060000C94220E0C949A00005EBCE2613FDD838A
:10007000C29C7E20A3FD1F41009D23BE46DB65F888
:100080008C11AF32CA57E974000000002400270029
:100090002A0000000000250028002B0000000008B6
:1000A000000201000003040700000000000000003F
:1000B00000000000230026002900040404040404B6
:1000C0000404020202020202030303030303010207
:1000D00004081020408001020408102001020408D6
:1000E0001020410F11241FBECFEFD8E0DEBFCDBFDF
:1000F00024E0A4EFB2E001C01D92A238B207E1F7FC
:1001000012E0A0E0B1E0E8EAFCE302C005900D9245
:10011000A43FB107D9F710E0C2E7D0E004C02197AF
:10012000FE010E94551CC137D107C9F70E94DE0F9E
:100130000C94521E0C940000833081F028F481301E
:1001400099F08230A9F008958730A9F08830C9F07D
:100150008430B1F4809180008F7D03C08091800055
:100160008F7780938000089584B58F7784BD08953C
:1001700084B58F7DFBCF8091B0008F778093B000E6
:1001800008958091B0008F7DF9CFCF93DF93282F12
:1001900030E0F901E456FF4F8491F901E253FF4F3B
:1001A000D491F901E654FF4FC491CC23A1F0811101
:1001B0000E949C00EC2FF0E0EE0FFF1FE055FF4F78
:1001C000A591B491EC91ED2381E090E009F480E0F9
:1001D000DF91CF91089580E090E0FACF1F93CF9305
:1001E000DF93282F30E0F901E456FF4F8491F901A5
:1001F000E253FF4FD491F901E654FF4FC491CC2351
:10020000A9F0162F81110E949C00EC2FF0E0EE0F58
:10021000FF1FEE56FF4FA591B4918FB7F894EC9164
:10022000111108C0D095DE23DC938FBFDF91CF91F1
:100230001F910895DE2BF8CFCF93DF9390E0FC0160
:10024000E253FF4F249186549F4FFC0184918823F1
:10025000D1F090E0880F991FFC01E857FF4FA5915E
:10026000B491FC01EE56FF4FC591D49161110EC0BF
:100270009FB7F8948C91E22FE0958E238C93288180
:10028000E223E8839FBFDF91CF9108958FB7F89461
:10029000EC91E22BEC938FBFF6CF8E50806480936D
:1002A0007C0080917A00806480937A0080917A004B
:1002B00086FDFCCF809178009091790008953FB73A
:1002C000F8948091A5039091A603A091A703B09103
:1002D000A80326B5A89B05C02F3F19F00196A11DC4
:1002E000B11D3FBFBA2FA92F982F8827BC01CD0180
:1002F000620F711D811D911D42E0660F771F881FDF
:10030000991F4A95D1F708958F929F92AF92BF920D
:10031000CF92DF92EF92FF926B017C010E945F010E
:100320004B015C01C114D104E104F104B9F00E9455
:100330005F01681979098A099B09683E7340810544
:10034000910580F321E0C21AD108E108F10888EE96
:10035000880E83E0981EA11CB11CE4CFFF90EF90A3
:10036000DF90CF90BF90AF909F908F9008952FB760
:10037000F8946091A1037091A2038091A3039091DE
:10038000A4032FBF08950895E0916A03F0916B03D1
:10039000309729F01092D6031092F803099408952B
:1003A000CF93DF93AC01E0916803F091690330973C
:1003B000F1F090916703809166039817C0F090E088
:1003C000292F30E02617370754F4D901A250BD4F2A
:1003D000240F351FE90128812C939F5FF1CF1092E4
:1003E000670360936603CB01DF91CF910994DF919E
:1003F000CF910895AF92BF92CF92DF92EF92FF928A
:100400000F931F93CF93DF936C017B018B01040F3C
:10041000151FEB015E01AE18BF08C017D10759F0D8
:100420006991D601ED91FC910190F081E02DC6011A
:100430000995892B79F7C501DF91CF911F910F9114
:10044000FF90EF90DF90CF90BF90AF900895FC01A8
:10045000448155816081718182E694E00C94FA01B7
:1004600021E001C0220F6A95EAF7DC011C962C936B
:100470001C971A965C934E931997ED91FC91048406
:10048000F585E02D60E00994DC01ED91FC91068496
:10049000F785E02D41E0099581E090E00895DC01C9
:1004A000ED91FC910684F785E02D40E009940F93CF
:1004B0001F93CF93DF93CDB7DEB728970FB6F8948D
:1004C000DEBF0FBECDBF00910D0110910E01209136
:1004D0000F01309110010D831E832F833887009107
:1004E000110110911201209113013091140109831F
:1004F0001A832B833C8390916904691710F06FEF86
:10050000690F262F30E040916A042C0F3D1FF9013E
:10051000403199F4943089F46181680F606882E613
:1005200094E028960FB6F894DEBF0FBECDBFDF91E2
:10053000CF911F910F910C944F026581EECF61E036
:100540000E944F028BE39FE10197F1F708950F930B
:100550001F93CF93DF93EC01423018F08C818860B9
:100560008C834F836887222329F0413019F48C81D2
:1005700084608C8364E670E080E090E00E948401F7
:100580006C8164FD57C0E881F9810684F785E02D10
:1005900042E063E0CE0109958BE496E40197F1F720
:1005A000E881F9810684F785E02D42E063E0CE0121
:1005B000099503E512E0C8010197F1F7E881F98197
:1005C0000684F785E02D42E063E0CE010995C8017D
:1005D0000197F1F7E881F9810684F785E02D42E083
:1005E00062E0CE010995C8010197F1F76C81606264
:1005F000CE010E944F028BEE90E00197F1F784E06C
:100600008D836CE0CE010E944F02CE010E949F02BA
:1006100082E08E8366E0CE010E944F02E881F9817C
:100620000484F585E02D6FEFCE01DF91CF911F910E
:100630000F9109946062CE010E944F028BE496E410
:100640000197F1F76C816062CE010E944F0203E5D1
:1006500012E0C8010197F1F76C816062CE010E943F
:100660004F02C1CF089508950895DC0180E06150E4
:1006700090F09D919827E92FEF70F0E0E859FF4F37
:100680002491E92FE295EF70F0E0E858FF4FE491F4
:10069000822F8E27ECCF0895DC012C911196ED91DD
:1006A000FC91F8948181822B81839281322F309545
:1006B0009323928387E090E00197F1F78181832370
:1006C000818383E290E00197F1F790817894EFECD9
:1006D000F0E03197F1F7922381E009F480E008958A
:1006E000FC0190810180F281E02D292F209560FF8F
:1006F00014C0F8948281822382838181892B818333
:10070000A3E2B0E01197F1F78281982B928378945D
:1007100087ED90E00197F1F70895F89482818223A4
:1007200082838181892B8183AFEFB0E01197F1F74C
:100730008281982B928378948FE090E0EBCFDF92C8
:10074000EF92FF920F931F93CF93DF93EC01D62E7E
:10075000E42E08E010E0FF24F39461E08D2D8F215A
:1007600009F460E0CE010E947003FF0C01501109F2
:10077000A1F7E11010C0F894E981FA819181888194
:10078000809589238183E981FA819281888180958E
:10079000892382837894DF91CF911F910F91FF90ED
:1007A000EF90DF900895EF92FF920F931F93CF93F6
:1007B000DF938C017B0140E065E50E949F03E70128
:1007C00088E0E80EF11C699140E0C8010E949F0397
:1007D000CE15DF05C1F7DF91CF911F910F91FF90EB
:1007E000EF900895FC0190810180F281E02DF89452
:1007F0008181292F20958223818378943DE743E0EE
:1008000050E0315029F1DA011197F1F78081892305
:10081000C1F3F8948281822382838181892B818331
:100820007894ABE7B7E01197F1F7F89481818223D0
:100830008183A3E1B1E01197F1F78081982381E0F2
:1008400009F080E07894E3E6F6E03197F1F7089557
:1008500080E0089520913F03260F3327331F213274
:100860003105ECF42091CF03FC0190E080E02430CE
:1008700069F082E00895A0913F032191AC01415EAF
:100880005C4FA40FB52FB11D2C930196861798F3DA
:1008900080913F03680F60933F0380E0089581E0FB
:1008A00008951092CF0381E08093CE031092A903A4
:1008B00061E082E10E94EE0061E083E10E94EE00CF
:1008C000E9EBF0E080818E7F808380818D7F808363
:1008D00088E48093B80085E48093BC000895CF93AA
:1008E000DF9391E090931E038823B9F0C091B80084
:1008F000D091BA008091BC008A7B8093BC0060E0FC
:1009000082E10E94EE0060E083E10E94EE000E941E
:100910005104D093BA00C093B800DF91CF910895ED
:10092000CF92DF92EF92FF920F931F93CF93DF93BB
:10093000D091F80381E0D13208F09CC0C091F70358
:100940000E945F016B017C018091CF0381116CC01B
:1009500082E08093CF0381E08093CE038FEF80937A
:10096000CD031092CC03D093CB03A7EDB3E0EBEA19
:10097000F3E080E0D8138DC01092AA038091AA03FF
:10098000CC0FC82BC093AA038091A903813009F032
:1009900084C01092A9030E945F016B017C018091C9
:1009A000AA038093BB008091D1039091D203A091C0
:1009B000D303B091D403892B8A2B8B2BA1F00E94F7
:1009C0005F010091D1031091D2032091D3033091A4
:1009D000D4036C197D098E099F090617170728078C
:1009E000390708F442C08091BC0083FDD8CF85EC64
:1009F0008093BC000E945F016B017C018091CF035A
:100A0000823009F44CC08091CD038F3F09F469C056
:100A10008091CD03803209F466C08091CD0380338C
:100A200009F463C084E026C08091D1039091D20381
:100A3000A091D303B091D403892B8A2B8B2B09F47B
:100A400083CF0E945F010091D1031091D2032091C6
:100A5000D3033091D4036C197D098E099F090617C1
:100A600017072807390708F06FCF8091D0030E943D
:100A70006F0485E01092D6031092F8031092D5030C
:100A8000DF91CF911F910F91FF90EF90DF90CF906A
:100A900008959D9191938F5F6DCF85EEA9CF809141
:100AA000D1039091D203A091D303B091D403892BA9
:100AB0008A2B8B2B09F4A2CF0E945F010091D103F6
:100AC0001091D2032091D3033091D4036C197D0986
:100AD0008E099F09061717072807390708F08ECFD8
:100AE000C4CF80E0C7CF82E0C5CF83E0C3CF0895F5
:100AF000E091670380916603E81730F4F0E0E2507C
:100B0000FD4F808190E008958FEF9FEF08959091C1
:100B10006703809166032FEF3FEF981748F4E92FA2
:100B2000F0E0E250FD4F208130E09F5F909367033B
:100B3000C90108958091660390916703891B990B01
:100B40000895CF92DF92EF92FF920F931F93CF936E
:100B5000DF937C01CB018A012091D503222389F008
:100B6000EB016B01C40ED51ECC15DD0569F0699152
:100B7000D701ED91FC910190F081E02DC70109951D
:100B8000F3CF642F0E942A04C801DF91CF911F91F7
:100B90000F91FF90EF90DF90CF900895CF93DF9368
:100BA0001F92CDB7DEB769832091D5032223F9F0D8
:100BB0002091F803203258F021E030E0FC0133832B
:100BC000228390E080E00F90DF91CF910895809193
:100BD000D603E82FF0E0E952FC4F998190838F5FB4
:100BE0008093D6038093F80381E090E0ECCF61E03E
:100BF000CE0101960E942A04F7CFFC012381222313
:100C0000E1F08181682B6083828191E09093D5032C
:100C10008093F7031092D6031092F80381E394E0D7
:100C20000E94CE050E949004282F30E081E090E0E1
:100C3000232B11F090E080E0089530E020E0F6CF23
:100C4000EF92FF920F931F93CF938C01FC0184E0EE
:100C5000C0E0262F30E060FF02C09589C92BB901A2
:100C600075956795815031968111F3CF413011F41C
:100C7000F8014489F8016585C62BC42B7801FEE094
:100C8000EF0EF11CF80162896C2BC7010E94FD0573
:100C9000F801628960956C23C701CF911F910F9174
:100CA000FF90EF900C94FD050F931F93CF93DF936C
:100CB000062F0F70423041F440E0602FDF91CF915A
:100CC0001F910F910C942006142FEC0170E084E02A
:100CD000759567958A95E1F7CE010E942006412F10
:100CE000602FCE01EBCFFC0184858823A1F0218504
:100CF00032852115310521F4611107C0158606C022
:100D000021303105D9F76111F9CF85876585CF018C
:100D10000E960C94FD050895EF92FF920F931F938A
:100D2000CF93DF93EC01062FF42EE22E8B85888B78
:100D300010926703109266031092D6031092F80384
:100D40000E94510484EC91E09093650380936403C6
:100D500080ED91E09093630380936203888911E0B2
:100D60001093D5038093F7030E94900481111CC057
:100D7000198B81E394E00E9487058E8789898823F7
:100D800039F01F861C8260E0CE010E960E94FD05A0
:100D90002E2D4F2D602FCE01DF91CF911F910F91FE
:100DA000FF90EF900C94A702198AE8CF90E080E0C2
:100DB00008954F925F926F927F928F929F92AF921F
:100DC000BF92CF92DF92EF92FF920F931F93CF9338
:100DD000DF93CDB7DEB72C970FB6F894DEBF0FBE0A
:100DE000CDBF60919A0370919B0380919C03909179
:100DF0009D030E94F31B4B017B0160919603709150
:100E0000970380919803909199030E94F31B2B0103
:100E10006B01609190037091910380919203909186
:100E200093030E94F31B8B01072E000C880B990B78
:100E30000E94AA1920E030E040E05FE317FD5DC0AA
:100E40000E94151B0E94F31B162F072FB201550C91
:100E5000880B990B0E94AA1920E030E040E05FE384
:100E6000D7FC4EC00E94151B0E94F31BD62EC72E26
:100E7000B401990C880B990B0E94AA1920E030E06C
:100E800040E05FE3F7FC3FC00E94151B0E94F31B8C
:100E900009831A8321E431E02B83CC82DD8220E5B3
:100EA00031E02E837F83688783E491E089871A8607
:100EB00085E491E08B8781E08C874CE050E0BE01B7
:100EC0006F5F7F4F81E394E00E94A1052C960FB6DF
:100ED000F894DEBF0FBECDBFDF91CF911F910F9170
:100EE000FF90EF90DF90CF90BF90AF909F908F904A
:100EF0007F906F905F904F9008950E94141BA2CF37
:100F00000E94141BB1CF0E94141BC0CF1F93CF931C
:100F1000DF93162FD42FC22F682F81E00E94EE009E
:100F2000612F82E00E94EE006D2F8CE00E94EE00A7
:100F30006C2F87E0DF91CF911F910C94EE008F9280
:100F40009F92AF92BF92CF92DF92EF92FF920E9458
:100F5000B7016B017C010E94B7018090FA0290906A
:100F6000FB02A090FC02B090FD02681979098A0981
:100F70009B09683E73408105910508F4A8C08091E3
:100F80004604909147040E94F20340E06CEC80918B
:100F90004604909147040E949F0340913D0464E4FD
:100FA00080914604909147040E949F0380914104E0
:100FB000882311F1E091400480914204882309F4D0
:100FC0008FC080913D0481118BC00E94B7014B01FD
:100FD0005C0180914604909147040E944C0381304B
:100FE00059F00E94B701681979098A099B096E3E78
:100FF00072408105910568F381E10E944D01BC01B9
:10100000990F880B990B0E94AA1960939003709313
:10101000910380939203909393038FE00E944D017C
:10102000BC01990F880B990B0E94AA1960939A032F
:1010300070939B0380939C0390939D038EE00E948A
:101040004D01BC01990F880B990B0E94AA1960935E
:10105000960370939703809398039093990380E18C
:101060000E944D01BC01990F880B990B0E94AA198F
:1010700020E030E040EA50E40E94091A20E030E02D
:1010800040E85AE30E94091A2DEC3CEC4CE45EE384
:101090000E94811B20E030E040E451E40E94291CC2
:1010A00018160CF045C081E080939F03C092FA02AD
:1010B000D092FB02E092FC02F092FD028DE00E94D1
:1010C000C500892BC1F181E08093FA03A895FF90B8
:1010D000EF90DF90CF90BF90AF909F908F9008954A
:1010E000E9508EEE92E0E33038F4F0E0EE0FFF1FAF
:1010F000EB5EFE4F808191814C01990FAA08BB08DD
:1011000080913E04882329F060E080913F040E9492
:10111000EE00C501B4010E94840180913E04882341
:1011200009F46ACF61E080913F040E94EE0064CF31
:1011300010929F03BBCF1092FA03C8CFFC0101901D
:101140000020E9F73197AF01481B590BBC0182E63B
:1011500094E00C94FA018F929F92AF92BF920F93FA
:101160001F93CF93DF93CDB7DEB7A1970FB6F89457
:10117000DEBF0FBECDBF19A2423008F44AE08E0197
:101180000F5D1F4F842E912CB12CA12CA501940131
:101190000E94331CE62FB901CA01EA30F4F4E05D85
:1011A000D801EE938D01232B242B252B79F790E08A
:1011B00080E0109719F0CD010E949E08A1960FB60D
:1011C000F894DEBF0FBECDBFDF91CF911F910F917D
:1011D000BF90AF909F908F900895E95CE1CF0C9401
:1011E0009E08EF92FF921F93CF93DF937C01EB0158
:1011F000142F60E080E00E945702C7010E9427027E
:10120000612F8DE00E94570287E491E00E94EF0871
:1012100061E080E00E945702CE01DF91CF911F91E3
:10122000FF90EF900C942702CF92DF92EF92FF9203
:10123000CF93DF936C01990FEE08FF08F7FE19C0FA
:101240006DE282E694E00E944402EC016627772773
:10125000CB016C197D098E099F094AE00E94AB08F9
:101260008C0F9D1FDF91CF91FF90EF90DF90CF907B
:1012700008954AE0C701B601DF91CF91FF90EF904A
:10128000DF90CF900C94AB08CF92DF92EF92FF9259
:101290000E94B7016B017C01809125049091260486
:1012A000A0912704B0912804A7019601281B390BAF
:1012B0004A0B5B0BDA01C901883E9340A105B105D9
:1012C000E8F183E00E94C5000197C1F58091FB031E
:1012D0009091FC0302975CF081E08093FA03809385
:1012E000F90364E670E080E090E00E94840182E609
:1012F00094E00E949F0260E081E00E94570280918A
:10130000FB039091FC030E9414098091FB039091D0
:10131000FC0301969093FC038093FB038091F903F7
:10132000882321F01092FC031092FB03C092250445
:10133000D0922604E0922704F0922804A895FF900A
:10134000EF90DF90CF9008950F931F93CF938C0170
:10135000C62F83E00E94C5002091F8023091F90267
:101360000197B9F42F5F3F4F3093F9022093F802B1
:1013700082E694E00E949F028091F8029091F90227
:101380000E94140962EC71E080E090E00E94840108
:10139000E0CFC90101970297C8F484E60330110534
:1013A00081F480930101C09300011092FC0310921C
:1013B000FB031092F9021092F802CF911F910F9146
:1013C000089580930001C0930101EFCF23303105D0
:1013D000A4F31092F9031092FA03FFCF4F925F9299
:1013E0006F927F928F929F92AF92BF92CF92DF9235
:1013F000EF92FF920F931F93CF936B017C01742E9A
:10140000AC019B010E942E1C882399F08AE491E094
:10141000CF911F910F91FF90EF90DF90CF90BF90F1
:10142000AF909F908F907F906F905F904F900C94B3
:101430009E0846015701E894B7F82FEF3FEF4FE7BA
:101440005FE7C501B4010E942E1C81110DC02FEF72
:101450003FEF4FE75FE7C501B4010E94A3191816DB
:101460001CF48EE491E0D4CF2FEF3FEF4FE75FE421
:10147000C701B6010E94291C18161CF482E591E0F0
:10148000C7CF2FEF3FEF4FE75FECC701B6010E94D8
:10149000A31987FDF3CF20E030E0A901C701B60111
:1014A0000E94A31910E000E087FF0AC06DE282E607
:1014B00094E00E9444028C01F7FAF094F7F8F0945B
:1014C000C0E060E070E080E09FE37C1641F020E047
:1014D00030E040E251E40E94811BCF5FF6CFA701CC
:1014E00096010E94151B2B013C010E94FA1B4B0127
:1014F0005C014AE00E94AB087C01E00EF11ECC23A7
:10150000C1F1C501B4010E94A8199B01AC01C3013E
:10151000B2010E94141B4B015C016EE282E694E072
:101520000E944402E80EF91EC15018F120E030E09C
:1015300040E251E4C501B4010E94091A2B013C01AB
:101540000E94FA1B4B01B12CA12C4AE0C501B40149
:101550000E94AB08E80EF91EC501B4010E94A8194B
:101560009B01AC01C301B2010E94141B4B015C0141
:10157000DBCFC701CF911F910F91FF90EF90DF90CC
:10158000CF90BF90AF909F908F907F906F905F9023
:101590004F9008950E943D1EFC018081918100972B
:1015A00011F00C94F71C08950F931F93CF93DF93C2
:1015B000EC0188819981009759F02A813B81261797
:1015C000370730F081E0DF91CF911F910F9108959F
:1015D0008B016F5F7F4F0E94801D009759F09983A8
:1015E00088831B830A832C813D81232B59F7FC01BF
:1015F0001082E8CF80E0E7CFEF92FF920F931F9326
:10160000CF93DF93EC017B01198218821B821A822F
:101610001D821C82FB0101900020E9F731978F01A8
:10162000061B170BB8010E94D40A28813981811149
:1016300013C02115310519F0C9010E94F71C198248
:1016400018821D821C821B821A82DF91CF911F910A
:101650000F91FF90EF9008951D830C83B701C9018E
:10166000DF91CF911F910F91FF90EF900C944B1E43
:10167000EF92FF920F931F93CF93DF93EC017B01C7
:10168000FB0101900020E9F731978F01061B170B32
:10169000B8010E94D40A28813981811113C0211513
:1016A000310519F0C9010E94F71C198218821D82A8
:1016B0001C821B821A82DF91CF911F910F91FF90A4
:1016C000EF9008951D830C83B701C901DF91CF917D
:1016D0001F910F91FF90EF900C944B1ECF92DF92D1
:1016E000EF92FF921F93CF93DF9300D000D000D0F2
:1016F000CDB7DEB7182F0E94B7016B017C0120E047
:1017000030EC4FE754E46091960370919703809119
:101710009803909199030E94811B9B01AC0160E0AA
:1017200070E080E89FE30E94141B20E030E048EC6A
:1017300052E40E94091A6093F4027093F5028093B8
:10174000F6029093F70262EC71E0CE0101960E94DE
:10175000FC0A66E571E0111118C08091FA0381114D
:1017600012C020E030E046E953E460919A037091A2
:101770009B0380919C0390919D030E94291C68E625
:1017800071E0181614F06DE771E0CE0101960E9429
:10179000380B8091150490911604A0911704B09114
:1017A0001804A7019601281B390B4A0B5B0BDA01C1
:1017B000C901883E9340A105B10578F182E694E025
:1017C0000E949F0260E080E00E945702CE010196D5
:1017D0000E94270261E080E00E9457028EE891E0BB
:1017E0000E94EF0861E086E00E9457026091F402D7
:1017F0007091F5028091F6029091F70242E00E940A
:10180000EE0984E991E00E94EF08C0921504D0929D
:101810001604E0921704F092180480911904909134
:101820001A04A0911B04B0911C04A7019601281B67
:10183000390B4A0B5B0BDA01C901803D9740A105CA
:10184000B10558F182E694E00E949F0260E080E0DA
:101850000E945702CE0101960E94270261E080E0BB
:101860000E94570286E991E00E94EF0861E08BE058
:101870000E94570260919A0370919B0380919C0390
:1018800090919D0342E00E94EE09C0921904D0920B
:101890001A04E0921B04F0921C0480911D049091A4
:1018A0001E04A0911F04B0912004A7019601281BDB
:1018B000390B4A0B5B0BDA01C901883B9B40A10540
:1018C000B10558F182E694E00E949F0260E080E05A
:1018D0000E945702CE0101960E94270261E080E03B
:1018E0000E94570280EA91E00E94EF0861E086E0E2
:1018F0000E9457026091900370919103809192032E
:101900009091930342E00E94EE09C0921D04D09290
:101910001E04E0921F04F0922004CE0101960E9462
:10192000CC0A26960FB6F894DEBF0FBECDBFDF916E
:10193000CF911F91FF90EF90DF90CF90089585EDAC
:101940008093BC008091D1039091D203A091D303E6
:10195000B091D4030796A11DB11D23E0B695A795BC
:10196000979587952A95D1F72091BC0024FD03C057
:101970001092CF0308954091D1035091D20360910A
:10198000D3037091D403452B462B472B69F3009763
:10199000A105B10541F02AE22A95F1F700C00197AF
:1019A000A109B109E1CF8091D0030C946F040C948C
:1019B000CF1ACF92DF92EF92FF920F931F93CF93A4
:1019C000DF93EC018B017A0182E694E00E949F0292
:1019D00085EA91E00E94EF0860E08CE00E945702E7
:1019E000CE0101960E94140961E080E00E94570236
:1019F000CC0FDD1FCE0189579C4F6C01FC0180810B
:101A000091810E9414098BE00E94C500019719F58D
:101A1000F6018081918101968A31910514F089E166
:101A200090E097FF02C090E080E0F6019183808310
:101A3000C957DC4F6881C7010E94D70CB80182E00A
:101A400090E0DF91CF911F910F91FF90EF90DF9089
:101A5000CF900C94A40984E00E94C500019741F73F
:101A6000F60120813181215031092A31310514F0EC
:101A700029E130E037FF02C030E020E0F601318399
:101A80002083D6CFCF92DF92EF92FF920F931F93D6
:101A9000CF93DF93EC018B017A0182E694E00E9400
:101AA0009F0284EB91E00E94EF0860E08CE00E94CE
:101AB0005702CE0101960E94140961E080E00E9465
:101AC0005702CC0FDD1FCE0181589C4F6C01FC01E9
:101AD000808191810E9414098BE00E94C5000197CA
:101AE00019F5F6018081918101968A31910514F0F2
:101AF00089E190E097FF02C090E080E0F6019183D9
:101B00008083C158DC4F6881C7010E94D70CB8019F
:101B100082E090E0DF91CF911F910F91FF90EF90C5
:101B2000DF90CF900C94A40984E00E94C500019737
:101B300041F7F60120813181215031092A313105E7
:101B400014F029E130E037FF02C030E020E0F60178
:101B500031832083D6CF82E694E00E949F0261E029
:101B600084E00E94570283EC91E00E94EF0861E05C
:101B700088E00E94EE0064EF71E080E090E00E9457
:101B8000840160E088E00E94EE0064EF71E080E094
:101B900090E00E94840183E00E94C500019729F42F
:101BA00061E090E080E00C94D70C08950C94C71A83
:101BB0001F920F920FB60F9211242F933F938F9382
:101BC0009F93AF93BF938091A1039091A203A091A3
:101BD000A303B091A4033091A00323E0230F2D377A
:101BE00058F50196A11DB11D2093A0038093A10378
:101BF0009093A203A093A303B093A4038091A503A1
:101C00009091A603A091A703B091A8030196A11DEE
:101C1000B11D8093A5039093A603A093A703B0934F
:101C2000A803BF91AF919F918F913F912F910F90FA
:101C30000FBE0F901F90189526E8230F0296A11D46
:101C4000B11DD2CF1F920F920FB60F9211242F9376
:101C50003F934F935F936F937F938F939F93AF9334
:101C6000BF93EF93FF938091B900887F803609F48A
:101C70004AC0F0F5883209F4A7C018F5803109F49C
:101C80009BC0B8F4882309F4F9C0883009F494C0E3
:101C9000FF91EF91BF91AF919F918F917F916F9144
:101CA0005F914F913F912F910F900FBE0F901F901A
:101CB0001895883109F488C0803251F78093CD039C
:101CC00014C0803409F49DC040F48033B9F38833E4
:101CD000F9F68093CD0385ECB0C0803509F485C05A
:101CE000883509F496C0883499F60E949F0CD0CFAD
:101CF000883909F48CC038F5883729F050F48836D3
:101D000011F0803729F683E08093CF0310926103AE
:101D100057C0883809F47BC0803919F0803809F041
:101D2000B7CF80916103803208F071C0E091610308
:101D300081E08E0F809361038091BB00F0E0EF5B48
:101D4000FC4F80833DC0803B39F0E0F4803A09F4D9
:101D500079C0883A09F09CCF84E08093CF03109239
:101D6000400310923F03E0916403F09165030995ED
:101D700080913F0381110FC081E080933F03109257
:101D80001F0309C0803C09F4A6CF883C09F4A3CF07
:101D9000883B09F07DCFE091400381E08E0F809376
:101DA0004003F0E0E15EFC4F80818093BB009091A6
:101DB000400380913F0329C08091AA038093BB0018
:101DC00085EC8093BC0064CF9091CC038091CB03D1
:101DD000981758F5E091CC0381E08E0F8093CC03E7
:101DE000F0E0E555FC4F8081E9CFE091CC0381E044
:101DF0008E0F8093CC038091BB00F0E0E555FC4F43
:101E000080839091CC038091CB039817C8F285E82A
:101E1000D8CFE091CC0381E08E0F8093CC038091EA
:101E2000BB00F0E0E555FC4F80838091CE0381112B
:101E30005CCF81E08093A90384EA8093BC00109278
:101E4000CF0326CF85EC8093BC001092CF03809106
:101E50006103803230F4E0916103F0E0EF5BFC4F0E
:101E600010826091610370E0E0916203F09163037E
:101E700081E493E00995109261030ACF1092CD039B
:101E800034CF1F93CF93DF93E1E3F4E01382128208
:101E900088EE93E0A0E0B0E084839583A683B783C7
:101EA0008FE191E091838083CBE7D4E08AE088835F
:101EB00019E01A8388E0898361E089E00E941C01AF
:101EC00061E088810E941C0160E089810E941C0100
:101ED00061E08A810E94EE00E2E6F4E01382128261
:101EE00081E391E091838083108A8FEF8787168644
:101EF000118A87E28387148615861286118684E00C
:101F0000828B82E0838BC1E0C48B80E1858B80E291
:101F1000868B80E4878B80E8808F50E040E063E030
:101F2000CF010E94300260E085E00E941C01E3EDD9
:101F3000F0E0E491A4E5B4E0EC93EFEBF0E0E491A1
:101F4000F0E0EE0FFF1FE055FF4F85919491129640
:101F50009C938E9311971B961C921B971D961C9217
:101F60001D971C961C921C971A961C921A971996EC
:101F70001C92199718961C92189717961C921797EF
:101F800016961C92169715961C92159714961C92ED
:101F9000149713961C921397EDE3F4E0168A158AB2
:101FA0001182B287A1871782108610821383C4839F
:101FB000C583C683DF91CF911F910895CF93DF939F
:101FC000CDB7DEB769970FB6F894DEBF0FBECDBFB1
:101FD000789484B5826084BD84B5816084BD85B504
:101FE000826085BD85B5816085BD80916E00816010
:101FF00080936E00109281008091810082608093B6
:1020000081008091810081608093810080918000B7
:102010008160809380008091B10084608093B100E2
:102020008091B00081608093B00080917A008460DC
:1020300080937A0080917A00826080937A00809108
:102040007A00816080937A0080917A008068809322
:102050007A001092C10021E041E061E080E00E943E
:10206000860761E081E00E941C0161E082E00E943D
:102070001C0161E08CE00E941C0161E087E00E948D
:102080001C0161E088E00E941C018BE00E94C500F9
:1020900021E0019709F020E060E0822F0E941C01FE
:1020A00083E00E94C50021E0019709F020E060E094
:1020B000822F0E941C0184E00E94C50021E001974C
:1020C00009F020E060E0822F0E941C0120E042E045
:1020D00060E182E694E00E948C06E0914604F09173
:1020E0004704138615861486128611861086178279
:1020F00016821582148213821092440410924504B1
:1021000077247394662463946E012AE0C20ED11C76
:102110000091460410914704D8011D968C918823A4
:1021200009F4FEC0F8011386158614861092670321
:10213000109266031092D6031092F8030E94510485
:1021400084EC91E0909365038093640380ED91E0CB
:10215000909363038093620380E18093BA0083ECE1
:1021600091E0909369038093680389ED96E09093E2
:102170006B0380936A0388E19FE00FB6F894A895FB
:10218000809360000FBE9093600081E090E00E9419
:10219000D60D90E09093800380937F0383E090E0DE
:1021A0000E94D60D90E0909382038093810385E096
:1021B00090E00E94D60D90E0909384038093830377
:1021C00088E090E00E94D60D90E090938603809383
:1021D000850382E090E00E94D60D90E09093880302
:1021E0008093870384E090E00E94D60D90E0909366
:1021F0008A038093890386E090E00E94D60D90E0E8
:1022000090938C0380938B0389E090E00E94D60D1D
:1022100090E090938E0380938D0387E090E00E947E
:10222000D60D90E090936D0380936C0390E080E076
:102230000E94D60D882309F49CC188EEE82E83E025
:10224000F82E11E00AE08091F903882309F497C37E
:102250000E94B7014B015C0180912D0490912E04E6
:10226000A0912F04B091300424013501481A590A75
:102270006A0A7B0AD301C201883C9105A105B10518
:1022800008F4E0C28BE00E94C500019749F482E6A1
:1022900094E00E949F02809101018150809301018E
:1022A00084E00E94C500019749F482E694E00E9410
:1022B0009F02809101018F5F809301010E94B7010D
:1022C0002B013C018091310490913204A0913304A0
:1022D000B0913404A3019201281B390B4A0B5B0B0C
:1022E000DA01C90184369105A105B10508F4A2C23D
:1022F000E0910101EC3008F041C10E2E000CFF0B03
:10230000EC57FE4E0C94551CBC12D412F812181344
:102310003813581378139813B813D813F8130714F5
:10232000C8010E94F20381110AC0D8011B961C92B9
:102330001B971D961C921D971C961C92F7CE40E091
:1023400060EFC8010E949F03EE24E394A12C912C1E
:10235000FF24F394C8010E944C03B82EC8010E94C8
:102360004C03B1E0BB1273C0813009F092C0E0E4CD
:10237000EF1508F0D7CED8011B969C921B979110B1
:1023800002C01D967C92F8018381882309F4CACE8D
:10239000D8011396FE013A96055F1F4F7F018D917C
:1023A00081930A171B07D9F767E0C7010E9435031D
:1023B00099898913ADCE809144048F5F8093440442
:1023C0008A85883239F008F07BC0803119F082327A
:1023D00009F09ECE809145048F5F809345048091E3
:1023E00046049091470420913D04211122C00E948F
:1023F000F203B70180914604909147040E94D303F1
:1024000040E064EB80914604909147040E949F0352
:1024100080914604909147040E944C03182F8091AC
:102420004604909147040E94F203111102C0609289
:102430003D0480914604909147042A85203109F497
:102440008BC00E94F203811142C080E088C0EA2D57
:10245000F0E0B81214C0D8011B968C911B97F816A7
:10246000B0F4AE0FBF1F13968C918E2191F4B12C56
:10247000B8E0BF1518F0D8011C96FC929F2CE00F15
:10248000F11F83819E2D9095892383830AC08F112C
:10249000EECFF801EA0DF11D83818E298383BB24E1
:1024A000B3946B2DC8010E947003F394EE0C19F4E1
:1024B000A394EE24E394B7E0BA1508F04BCF57CFBE
:1024C0008B3309F487CF823409F022CE83CFB70152
:1024D00080914604909147040E94D30340E06EEB44
:1024E00080914604909147040E949F038E010F5FE4
:1024F0001F4F78011801809046049090470498E09F
:10250000A92EB12C512C44244394C4010E944C03A5
:1025100081115428440CF1E0AF1AB108B1F7D7018A
:102520005D927D01AC15BD0531F780914604909117
:1025300047040E94F203813009F087CFF8018191AE
:102540008F018111EEC6EE16FF06C1F77ECF8F35E3
:1025500071F08F3709F079CF8CE001C08AE090915B
:102560004004981708F0D4CD80934004D1CD8BE07F
:10257000F6CF0E94AB0D5ACE00930101E09100010D
:10258000EA3008F04FC10E2E000CFF0BE653FD4E53
:102590000C94551C0A1424142D1434143B144214A6
:1025A00049148A14911498146CEC71E0CE010196D0
:1025B0000E94FC0A67ED71E0CE010A960E94FC0AB7
:1025C00050E040E0BE016F5F7F4FCE010A960E944F
:1025D000F108CE010A960E94CC0ACE0101960E9413
:1025E000CC0A61E070E083E090E00E94A409C6CFCD
:1025F0006CEC71E0CE0101960E94FC0A67ED71E07F
:10260000CE010A960E94FC0A41E050E0BE016F5FD5
:102610007F4FCE010A960E94F108CE010A960E94D1
:10262000CC0ACE0101960E94CC0A62E070E0DBCFBA
:1026300061EE71E0CE0101960E94FC0A6CEE71E041
:10264000CE010A960E94FC0A50E040E0BE016F5F96
:102650007F4FCE010A960E94F108CE010A960E9491
:10266000CC0ACE0101960E94CC0A63E070E0BBCF99
:1026700061EE71E0CE0101960E94FC0A6CEE71E001
:10268000CE010A960E94FC0A41E050E0BE016F5F55
:102690007F4FCE010A960E94F108CE010A960E9451
:1026A000CC0ACE0101960E94CC0A64E070E09BCF78
:1026B00066EF71E0CE0101960E94FC0A61E072E0D3
:1026C000CE010A960E94FC0A50E040E0BE016F5F16
:1026D0007F4FCE010A960E94F108CE010A960E9411
:1026E000CC0ACE0101960E94CC0A65E070E07BCF57
:1026F00066EF71E0CE0101960E94FC0A61E072E093
:10270000CE010A960E94FC0A41E050E0BE016F5FD4
:102710007F4FCE010A960E94F108CE010A960E94D0
:10272000CC0ACE0101960E94CC0A66E070E05BCF35
:102730006BE072E0CE0101960E94FC0A67E172E054
:10274000CE010A960E94FC0A50E040E0BE016F5F95
:102750007F4FCE010A960E94F108CE010A960E9490
:10276000CC0ACE0101960E94CC0A67E070E03BCF14
:102770006BE072E0CE0101960E94FC0A67E172E014
:10278000CE010A960E94FC0A41E050E0BE016F5F54
:102790007F4FCE010A960E94F108CE010A960E9450
:1027A000CC0ACE0101960E94CC0A68E070E01BCFF3
:1027B00062E272E0CE0101960E94FC0A60E372E0E0
:1027C000CE010A960E94FC0A50E040E0BE016F5F15
:1027D0007F4FCE010A960E94F108CE010A960E9410
:1027E000CC0ACE0101960E94CC0A69E070E0FBCED3
:1027F00062E272E0CE0101960E94FC0A60E372E0A0
:10280000CE010A960E94FC0A41E050E0DFCF10930F
:102810000101B4CE41E050E070E060E090E080E083
:102820000E94420D4092310450923204609233046F
:102830007092340480922D0490922E04A0922F0462
:10284000B0923004A8952AC142E050E061E070E007
:1028500090E080E00E94D90CE5CF43E050E062E0D8
:1028600070E081E090E0DCCF44E050E063E070E0B5
:1028700081E090E0EFCF45E050E064E070E082E07E
:1028800090E0CECF46E050E065E070E082E090E07E
:10289000E1CF82E694E00E949F028DE392E00E94E5
:1028A000EF0861E080E00E94570280916C039091F4
:1028B0006D030E9414098BE00E94C5000197F9F492
:1028C00080916C0390916D0301968A31910514F00B
:1028D00089E190E097FF02C090E080E090936D0363
:1028E00080936C0360916C0387E090E00E94D70CAA
:1028F00066E070E082E090E00E94A40993CF84E05B
:102900000E94C500019771F780916C0390916D034F
:102910000197DBCF48E050E067E070E083E090E0B3
:102920007FCF49E050E068E070E083E090E092CF34
:102930008BE00E94C500019769F482E694E00E9452
:102940009F028EE492E00E94EF0860E08FE090E04A
:102950000E94D70C84E00E94C500019769F482E6CA
:1029600094E00E949F0283E592E00E94EF0861E0FC
:102970008FE090E00E94D70C69E070E0BBCF0E942E
:1029800044090E949F0780919F03882309F4F7C39D
:102990008FE090E00E94D60D811118C083E00E9464
:1029A000C500019729F461E08FE090E00E94D70C08
:1029B0000E94440981E00E946E0B0E949F0720E064
:1029C00041E060E080E00E9486073CCF80919E035A
:1029D00081116CC020E030E04CE052E460919A0339
:1029E00070919B0380919C0390919D030E94A31979
:1029F00087FD11C020E030E041E654E46091960389
:102A00007091970380919803909199030E94291CDB
:102A100018160CF04BC0809104019091050197FDB0
:102A200036C021E040E061E081E00E94860782E656
:102A300094E00E949F0260E080E00E94570289E5D6
:102A400092E00E94EF0861E080E00E9457028091CE
:102A50000401909105010E94140989E692E00E9408
:102A6000EF08809104019091050101979093050171
:102A70008093040160E090E080E00E94D70C68EE53
:102A800073E080E090E00E948401A895C4CF109389
:102A90009E0361E090E080E00E94D70C40E050E0AF
:102AA000452B09F4D0CB0E940000CDCB20E030E0D4
:102AB0004AEF53E4609196037091970380919803D5
:102AC000909199030E94291C87FDC0C020E030E04E
:102AD00048EC51E460919A0370919B0380919C03B0
:102AE00090919D030E94A31918160CF4AFC0109387
:102AF0009E0310928F030E94B7014B015C010E945C
:102B0000B70140907103509072036090730370900E
:102B100074036419750986099709683E7340810535
:102B2000910508F4BBCF80919403909195039C018B
:102B30002F5F3F4F3093950320939403AC014D508A
:102B4000510942305105D8F421E041E060E080E0D5
:102B50000E94860782E694E00E949F0261E080E086
:102B60000E9457028EE692E00E94EF088092710365
:102B700090927203A0927303B092740363CEAC017F
:102B8000415151094330510588F421E041E060E0B2
:102B900080E00E94860782E694E00E949F0261E046
:102BA00080E00E9457028FE792E0DECF48970697B9
:102BB00088F421E041E060E080E00E94860782E640
:102BC00094E00E949F0261E080E00E94570280E949
:102BD00092E0CACF293231054CF021E041E061E0BA
:102BE00081E00E9486070E94AB0DC0CF21E041E04A
:102BF00060E081E00E94860782E694E00E949F02E6
:102C000060E080E00E9457028FE992E00E94EF08A6
:102C100080919403909195030E94140989E692E0B3
:102C20000E94EF0861E080E00E9457028AEA92E089
:102C30000E94EF086091960370919703809198032A
:102C40009091990342E00E94EE0990CF0E94B70153
:102C50006A8B7B8B8C8B9D8B0E94B70180901104BB
:102C600090901204A0901304B0901404681979098C
:102C70008A099B09683E73408105910508F40ECFCF
:102C8000809194039091950301969093950380937E
:102C9000940320E030E041E654E4609196037091A3
:102CA000970380919803909199030E94291C18160C
:102CB0001CF40E94AB0DEDCF80909A0390909B0383
:102CC000A0909C03B0909D0320E030E0A901C501D5
:102CD000B4010E94291C87FD42C020E030E040EF93
:102CE00051E4C501B4010E94A3191816C4F182E68B
:102CF00094E00E949F0260E081E00E94570281EB15
:102D000092E00E94EF0861E080E00E9457028FEBA2
:102D100092E00E94EF0860919A0370919B0380916A
:102D20009C0390919D0342E00E94EE098AEC92E0A0
:102D30000E94EF0810929E0321E041E060E080E0F5
:102D40000E9486074A885B886C887D8840921104BF
:102D500050921204609213047092140473CD20E018
:102D600030E040EF51E4C501B4010E94291C18165F
:102D70000CF095C020E030E042E852E4C501B40117
:102D80000E94A31987FF8BC01092950310929403A1
:102D900010929E0361E087E00E94EE0060E081E017
:102DA0000E94EE0061E082E00E94EE000E94B70106
:102DB0004B015C01409101045091020460910304B5
:102DC000709104048091760324013501441A550A58
:102DD000660A770AB301A201882309F448C020914A
:102DE0008503309186032E9DC0012F9D900D3E9D41
:102DF000900D1124092E000CAA0BBB0B4817590784
:102E00006A077B0770F01092760360E08CE00E9406
:102E1000EE008092010490920204A0920304B0920A
:102E2000040482E694E00E949F0260E080E00E9439
:102E300057028DEC92E00E94EF0861E080E00E9472
:102E400057028FEB92E00E94EF0860919A03709115
:102E50009B0380919C0390919D0342E00E94EE09A8
:102E60008AEC92E00E94EF0810938F036BCF2091C1
:102E70008D0330918E032E9DC0012F9D900D3E9DA0
:102E8000900D1124092E000CAA0BBB0B48175907F3
:102E90006A077B0730F21093760361E0B7CF20E03A
:102EA00030E042E852E4C501B4010E94291C87FDCC
:102EB00049CF8091FA0381115BC161E087E00E94F4
:102EC000EE0060E081E00E94EE0061E082E00E949E
:102ED000EE008090900390909103A0909203B090A8
:102EE000930320E030E04CE452E4C501B4010E94B9
:102EF000A31918160CF466C080910601882309F402
:102F000061C00E94B701AB01BC01809005049090A4
:102F10000604A0900704B0900804809177032A016A
:102F20003B01481859086A087B085301420188236D
:102F300049F120918703309188032E9DC0012F9D78
:102F4000900D3E9D900D1124092E000CAA0BBB0B79
:102F500088169906AA06BB0670F010927703409374
:102F6000050450930604609307047093080461E01D
:102F70008CE00E94EE0010938F0380E00E946E0BA5
:102F8000A895E0CE20917F03309180032E9DC00153
:102F90002F9D900D3E9D900D1124092E000CAA0B23
:102FA000BB0B88169906AA06BB0628F31093770375
:102FB000409305045093060460930704709308043B
:102FC00060E0D6CF20E030E044E352E4C501B40134
:102FD0000E94291C87FD71C020E030E04CE452E4DF
:102FE000C501B4010E94A31987FF67C00E94B70101
:102FF000AB01BC014090090450900A0460900B049E
:1030000070900C0420917803DC01CA0184199509A1
:10301000A609B7092C013D01222379F120918903EA
:1030200030918A032E9DC0012F9D900D3E9D900DE5
:103030001124092E000CAA0BBB0B481659066A0670
:103040007B0670F0109278034093090450930A04B1
:1030500060930B0470930C0461E08CE00E94EE001E
:1030600020E030E044E352E4C501B4010E94A3191A
:1030700087FF81CF109306017ECF2091810330918D
:1030800082032E9DC0012F9D900D3E9D900D112419
:10309000092E000CAA0BBB0B481659066A067B06C4
:1030A000F8F2109378034093090450930A04609354
:1030B0000B0470930C0460E0D0CFC0908B03D090D1
:1030C0008C0320908303309084030E94B7012091E9
:1030D0000D0430910E0440910F0450911004E091C2
:1030E00079032B013C01421A530A640A750AA301B1
:1030F0009201EE2309F1CE9CF001CF9CF00DDE9CF5
:10310000F00D11242F01FF0F6608770824153505EF
:103110004605570570F01092790360930D04709383
:103120000E0480930F049093100461E08CE00E94E1
:10313000EE001092060194CF2E9CF0012F9CF00D12
:103140003E9CF00D11242F01FF0F6608770824150F
:1031500035054605570568F31093790360930D0410
:1031600070930E0480930F049093100460E0DECF00
:1031700020E041E061E080E00E948607FCCE0E94F2
:10318000B7014B015C018091210490912204A09130
:103190002304B0912404A5019401281B390B4A0B88
:1031A0005B0BDA01C901883E9340A105B10508F423
:1031B00075CC80918F03882309F473C080917003CC
:1031C00081114DC0809102019091030197FD36C09D
:1031D00021E041E061E080E00E94860782E694E021
:1031E0000E949F0260E080E00E94570286ED92E01C
:1031F0000E94EF0861E080E00E9457028091020186
:10320000909103010E94140989E692E00E94EF0860
:1032100080910201909103010197909303018093A3
:10322000020160E090E080E00E94D70C68EE73E05D
:1032300080E090E00E948401A895C4CF61E090E016
:1032400080E00E94D70C10937003A895809221040F
:1032500090922204A0922304B09224041FCC82E610
:1032600094E00E949F0260E080E00E94570282EE9C
:1032700092E00E94EF0861E080E00E9457026091B6
:103280009A0370919B0380919C0390919D0342E06F
:103290000E94EE0921E041E061E081E00E948607A2
:1032A000D4CF80916E0390916F030597ACF582E6C1
:1032B00094E00E949F0260E080E00E9457028AEE44
:1032C00092E00E94EF0860E089E00E94570280913E
:1032D0006E0390916F030E94140961E080E00E94E8
:1032E000570260919A0370919B0380919C03909187
:1032F0009D0342E00E94EE0921E041E061E080E0B0
:103300000E94860780916E0390916F0301969093BF
:103310006F0380936E0399CF10938F031093700304
:10332000F1CF68E0C1010E943503998589138DC8EA
:103330008D818F3309F412C908F009C98F3109F062
:1033400084C889E00CC90E94E51908F481E0089559
:10335000E89409C097FB3EF490958095709561952F
:103360007F4F8F4F9F4F9923A9F0F92F96E9BB27E5
:103370009395F695879577956795B795F111F8CF61
:10338000FAF4BB0F11F460FF1BC06F5F7F4F8F4FCC
:103390009F4F16C0882311F096E911C0772321F0C2
:1033A0009EE8872F762F05C0662371F096E8862F5A
:1033B00070E060E02AF09A95660F771F881FDAF7B1
:1033C000880F9695879597F90895990F0008550FDE
:1033D000AA0BE0E8FEEF16161706E807F907C0F09B
:1033E00012161306E407F50798F0621B730B840BA3
:1033F000950B39F40A2661F0232B242B252B21F47D
:1034000008950A2609F4A140A6958FEF811D811D1C
:1034100008950E941C1A0C948D1A0E947F1A38F08D
:103420000E94861A20F0952311F00C94761A0C94C1
:103430007C1A11240C94C11A0E949E1A70F3959F55
:10344000C1F3950F50E0551F629FF001729FBB279B
:10345000F00DB11D639FAA27F00DB11DAA1F649F37
:103460006627B00DA11D661F829F2227B00DA11DEA
:10347000621F739FB00DA11D621F839FA00D611D70
:10348000221F749F3327A00D611D231F849F600D91
:10349000211D822F762F6A2F11249F5750409AF0BA
:1034A000F1F088234AF0EE0FFF1FBB1F661F771F46
:1034B000881F91505040A9F79E3F510580F00C9411
:1034C000761A0C94C11A5F3FE4F3983ED4F38695C4
:1034D00077956795B795F795E7959F5FC1F7FE2BB1
:1034E000880F911D9695879597F9089597F99F678D
:1034F00080E870E060E008959FEF80EC089500247C
:103500000A941616170618060906089500240A9448
:1035100012161306140605060895092E0394000CCE
:1035200011F4882352F0BB0F40F4BF2B11F460FF5D
:1035300004C06F5F7F4F8F4F9F4F089557FD905886
:10354000440F551F59F05F3F71F04795880F97FB67
:10355000991F61F09F3F79F0879508951216130621
:103560001406551FF2CF4695F1DF08C01616170650
:103570001806991FF1CF8695710561050894089585
:10358000E894BB2766277727CB0197F90895F99927
:10359000FECF92BD81BDF89A992780B50895262F58
:1035A000F999FECF1FBA92BD81BD20BD0FB6F89428
:1035B000FA9AF99A0FBE019608952F923F924F9270
:1035C0005F926F927F928F929F92AF92BF92CF92B3
:1035D000DF92EF92FF920F931F93CF93DF93CDB7BC
:1035E000DEB7CA1BDB0B0FB6F894DEBF0FBECDBF34
:1035F00009942A88398848885F846E847D848C8405
:103600009B84AA84B984C884DF80EE80FD800C810D
:103610001B81AA81B981CE0FD11D0FB6F894DEBFF0
:103620000FBECDBFED0108955058BB27AA270E94B9
:103630002C1B0C948D1A0E947F1A38F00E94861A57
:1036400020F039F49F3F19F426F40C947C1A0EF400
:10365000E095E7FB0C94761AE92F0E949E1A58F326
:10366000BA17620773078407950720F079F4A6F567
:103670000C94C01A0EF4E0950B2EBA2FA02D0B015E
:10368000B90190010C01CA01A0011124FF27591BA7
:1036900099F0593F50F4503E68F11A16F040A22FAD
:1036A000232F342F4427585FF3CF4695379527951E
:1036B000A795F0405395C9F77EF41F16BA0B620B1D
:1036C000730B840BBAF09150A1F0FF0FBB1F661F64
:1036D000771F881FC2F70EC0BA0F621F731F841FA7
:1036E00048F4879577956795B795F7959E3F08F0CD
:1036F000B0CF9395880F08F09927EE0F979587958F
:1037000008950E94951B0C948D1A0E94861A58F0F9
:103710000E947F1A40F029F45F3F29F00C94761A3A
:1037200051110C94C11A0C947C1A0E949E1A68F3D1
:103730009923B1F3552391F3951B550BBB27AA276A
:1037400062177307840738F09F5F5F4F220F331FA4
:10375000441FAA1FA9F335D00E2E3AF0E0E832D06C
:1037600091505040E695001CCAF72BD0FE2F29D06F
:10377000660F771F881FBB1F261737074807AB0741
:10378000B0E809F0BB0B802DBF01FF2793585F4FB6
:103790003AF09E3F510578F00C94761A0C94C11AB9
:1037A0005F3FE4F3983ED4F3869577956795B79598
:1037B000F7959F5FC9F7880F911D9695879597F9A3
:1037C0000895E1E0660F771F881FBB1F621773071C
:1037D0008407BA0720F0621B730B840BBA0BEE1F31
:1037E00088F7E09508950E94FA1B6894B1110C9433
:1037F000C11A08950E94A61A88F09F5798F0B92F11
:103800009927B751B0F0E1F0660F771F881F991F15
:103810001AF0BA95C9F714C0B13091F00E94C01ADD
:10382000B1E008950C94C01A672F782F8827B85FED
:1038300039F0B93FCCF3869577956795B395D9F76D
:103840003EF490958095709561957F4F8F4F9F4F77
:1038500008950E94E51908F48FEF08950E94E51974
:10386000880B990B0895A1E21A2EAA1BBB1BFD0120
:103870000DC0AA1FBB1FEE1FFF1FA217B307E4074F
:10388000F50720F0A21BB30BE40BF50B661F771FA7
:10389000881F991F1A9469F7609570958095909587
:1038A0009B01AC01BD01CF010895EE0FFF1F0590F4
:1038B000F491E02D09940F931F93CF93DF938230FF
:1038C000910510F482E090E0E0918004F091810491
:1038D00030E020E0B0E0A0E0309799F42115310508
:1038E00009F44AC0281B390B24303105D8F58A81E8
:1038F0009B816115710589F1FB0193838283FE0130
:1039000011C0408151810281138148175907E0F0AD
:103910004817590799F4109761F012960C93129773
:1039200013961C933296CF01DF91CF911F910F9187
:1039300008950093800410938104F4CF211531057C
:1039400051F04217530738F0A901DB019A01BD017C
:10395000DF01F801C1CFEF01F9CF9093810480938B
:103960008004CDCFFE01E20FF31F8193919322508B
:10397000310939832883D7CF20917E0430917F0489
:10398000232B41F42091090130910A0130937F04E7
:1039900020937E0420910701309108012115310503
:1039A00041F42DB73EB740910B0150910C01241BFF
:1039B000350BE0917E04F0917F04E217F307A0F449
:1039C0002E1B3F0B2817390778F0AC014E5F5F4F75
:1039D0002417350748F04E0F5F1F50937F04409324
:1039E0007E04819391939FCFF0E0E0E09CCFCF9352
:1039F000DF930097E9F0FC01329713821282A091C5
:103A00008004B0918104ED0130E020E01097A1F432
:103A100020813181820F931F20917E0430917F0499
:103A20002817390709F061C0F0937F04E0937E0402
:103A3000DF91CF910895EA01CE17DF07E8F54A81BB
:103A40005B819E0141155105B1F7E901FB83EA83D2
:103A500049915991C40FD51FEC17FD0761F480817E
:103A600091810296840F951FE90199838883828151
:103A700093819B838A83F0E0E0E012968D919C9184
:103A800013970097B9F52D913C911197CD010296AE
:103A9000820F931F20917E0430917F0428173907ED
:103AA00039F6309751F51092810410928004B0934A
:103AB0007F04A0937E04BCCFD383C2834081518115
:103AC000840F951FC817D90761F44E5F5F4F888137
:103AD0009981480F591F518340838A819B81938329
:103AE00082832115310509F0B0CFF0938104E09372
:103AF00080049ECFFD01DC01C0CF13821282D7CF9C
:103B0000B0E0A0E0E6E8FDE10C94DF1A8C0100973C
:103B100051F4CB010E945B1C8C01C801CDB7DEB70C
:103B2000E0E10C94FB1AFC01E60FF71F9C01225008
:103B30003109E217F30708F49DC0D901CD91DC915A
:103B40001197C617D70798F0C530D10530F3CE01CD
:103B500004978617970708F3C61BD70B2297C193C4
:103B6000D1936D937C93CF010E94F71CD6CF5B015C
:103B7000AC1ABD0A4C018C0E9D1EA0918004B09120
:103B80008104512C412CF12CE12C109731F58091BE
:103B90007E0490917F048815990509F05CC0461653
:103BA000570608F058C080910701909108010097CE
:103BB00041F48DB79EB740910B0150910C01841BCD
:103BC000950BE817F90708F055C0F0937F04E093D0
:103BD0007E04F90171836083A0CF8D919C91119730
:103BE00012966C90129713967C901397A815B905AE
:103BF00059F56C0142E0C40ED11CCA14DB0420F15B
:103C0000AC014A195B09DA011296159780F06282BD
:103C1000738251834083D9016D937C93E114F10445
:103C200071F0D7011396FC93EE93129776CF2296FC
:103C30008C0F9D1FF90191838083F301EFCFF093E7
:103C40008104E093800469CF4816590608F42C01DA
:103C50007D01D3019ACFCB010E945B1C7C010097B0
:103C600049F0AE01B8010E94421EC8010E94F71C33
:103C7000870153CF10E000E050CF81E090E0F8944E
:103C80000C94521EFB01DC0102C001900D924150C8
:103C90005040D8F70895FB01DC0101900D920020FF
:103CA000E1F70895F894FFCFC80102000200010077
:103CB000008204800000401454004010505E00BC9C
:103CC00000770100000000CE05A105D60677059A11
:103CD0000587057805000000004402FA01D6063485
:103CE000038C063002730654067700650073003CAF
:103CF0002D006E616E00696E66006F76660052453B
:103D00004C415920414E4F49585441202121210016
:103D10004B412E4C4549542E204849474820544594
:103D20004D502041004B414E4F4E494B48204C4591
:103D300049542E204D00464F5449410025004B4127
:103D400059534145524941004E45524F0058524F38
:103D50004E4F532052495350203D200058524F4E51
:103D60004F5320414E414D203D200050524F564C64
:103D7000494D410058524F4E2E5249502E4800583E
:103D8000524F4E2E414E2E480058524F4E2E524901
:103D9000502E4D0058524F4E2E414E2E4D0058522F
:103DA0004F4E2E5249502E4C0058524F4E2E414EDF
:103DB0002E4C0058524F4E2E414E2E5A455300580D
:103DC000524F4E2E412E50454C004F50454E203301
:103DD0002052454C4159530058524F4E2E50454C9D
:103DE0002E5A455300415258494B4F2050454C4C98
:103DF0004554203D20004F50454E00434C4F534505
:103E00000045495341475747492050454C4C45547C
:103E1000002073656300414552415320414E4F4994
:103E200058544F53203100414552415320414E4F89
:103E30004958544F53203200414552415320414E7E
:103E40004F4958544F5300414E41464C454B5349FE
:103E50002000464F544941200058414D494C4920CB
:103E6000454E41555349004B4159534145524941F3
:103E700020002043005A455354414D4120004B41FE
:103E80005448415249534D4F53004B4C45495354AC
:0C3E90004F004B4C454953494D4F00007A
:107E0000112484B714BE81FFF0D085E080938100F7
:107E100082E08093C00088E18093C10086E0809377
:107E2000C20080E18093C4008EE0C9D0259A86E02C
:107E300020E33CEF91E0309385002093840096BBD3
:107E4000B09BFECF1D9AA8958150A9F7CC24DD24C4
:107E500088248394B5E0AB2EA1E19A2EF3E0BF2EE7
:107E6000A2D0813461F49FD0082FAFD0023811F036
:107E7000013811F484E001C083E08DD089C08234E0
:107E800011F484E103C0853419F485E0A6D080C0E4
:107E9000853579F488D0E82EFF2485D0082F10E0AE
:107EA000102F00270E291F29000F111F8ED06801E7
:107EB0006FC0863521F484E090D080E0DECF843638
:107EC00009F040C070D06FD0082F6DD080E0C81688
:107ED00080E7D80618F4F601B7BEE895C0E0D1E017
:107EE00062D089930C17E1F7F0E0CF16F0E7DF06D8
:107EF00018F0F601B7BEE89568D007B600FCFDCFD4
:107F0000A601A0E0B1E02C9130E011968C91119780
:107F100090E0982F8827822B932B1296FA010C0160
:107F200087BEE89511244E5F5F4FF1E0A038BF0790
:107F300051F7F601A7BEE89507B600FCFDCF97BE46
:107F4000E89526C08437B1F42ED02DD0F82E2BD052
:107F50003CD0F601EF2C8F010F5F1F4F84911BD097
:107F6000EA94F801C1F70894C11CD11CFA94CF0C13
:107F7000D11C0EC0853739F428D08EE10CD085E9AC
:107F80000AD08FE07ACF813511F488E018D01DD067
:107F900080E101D065CF982F8091C00085FFFCCF94
:107FA0009093C60008958091C00087FFFCCF809118
:107FB000C00084FD01C0A8958091C6000895E0E648
:107FC000F0E098E1908380830895EDDF803219F02E
:107FD00088E0F5DFFFCF84E1DECF1F93182FE3DFCA
:107FE0001150E9F7F2DF1F91089580E0E8DFEE27F6
:047FF000FF270994CA
:027FFE00040479
:00000001FF
