:100000000C9472000C949A000C949A000C949A0030
:100010000C949A000C949A000C949A000C949A00F8
:100020000C949A000C949A000C949A000C949A00E8
:100030000C949A000C949A000C949A000C949A00D8
:100040000C94200B0C949A000C94900B0C946A0B5B
:100050000C949A000C949A000C949A000C949A00B8
:100060000C94C20B0C949A00005EBCE2613FDD83ED
:10007000C29C7E20A3FD1F41009D23BE46DB65F888
:100080008C11AF32CA57E974000000002400270029
:100090002A0000000000250028002B0000000008B6
:1000A000000201000003040700000000000000003F
:1000B00000000000230026002900040404040404B6
:1000C0000404020202020202030303030303010207
:1000D00004081020408001020408102001020408D6
:1000E0001020E10C11241FBECFEFD8E0DEBFCDBF42
:1000F00025E0A4E2B2E001C01D92A932B207E1F707
:1001000012E0A0E0B1E0E2E4F3E302C005900D925A
:10011000A432B107D9F710E0C2E7D0E004C02197BC
:10012000FE010E94A217C137D107C9F70E94B40D82
:100130000C949F190C940000833081F028F48130D6
:1001400099F08230A9F008958730A9F08830C9F07D
:100150008430B1F4809180008F7D03C08091800055
:100160008F7780938000089584B58F7784BD08953C
:1001700084B58F7DFBCF8091B0008F778093B000E6
:1001800008958091B0008F7DF9CF1F93CF93DF93B7
:10019000282F30E0F901E456FF4F8491F901E25332
:1001A000FF4FD491F901E654FF4FC491CC23A9F03D
:1001B000162F81110E949C00EC2FF0E0EE0FFF1F24
:1001C000EE56FF4FA591B4918FB7F894EC911111B1
:1001D00008C0D095DE23DC938FBFDF91CF911F91B4
:1001E0000895DE2BF8CFCF93DF9390E0FC01E2532C
:1001F000FF4F249186549F4FFC0184918823D1F0B6
:1002000090E0880F991FFC01E857FF4FA591B4912A
:10021000FC01EE56FF4FC591D49161110EC09FB7FE
:10022000F8948C91E22FE0958E238C932881E22321
:10023000E8839FBFDF91CF9108958FB7F894EC9139
:10024000E22BEC938FBFF6CF8E50806480937C00BE
:1002500080917A00806480937A0080917A0086FD94
:10026000FCCF809178009091790008953FB7F89481
:100270008091B3029091B402A091B502B091B60200
:1002800026B5A89B05C02F3F19F00196A11DB11DF1
:100290003FBFBA2FA92F982F8827BC01CD01620F2D
:1002A000711D811D911D42E0660F771F881F991FE8
:1002B0004A95D1F708958F929F92AF92BF92CF92B5
:1002C000DF92EF92FF926B017C010E9436014B019D
:1002D0005C01C114D104E104F104B9F00E943601BB
:1002E000681979098A099B09683E7340810591055F
:1002F00080F321E0C21AD108E108F10888EE880EE7
:1003000083E0981EA11CB11CE4CFFF90EF90DF901A
:10031000CF90BF90AF909F908F9008952FB7F89493
:100320006091AF027091B0028091B1029091B202DF
:100330002FBF08954F925F926F927F928F929F92FC
:10034000AF92BF92CF92DF92EF92FF920F931F93E3
:10035000CF93DF9300D000D000D0CDB7DEB79E831F
:100360008D8349835A836B837C83280139010E94E2
:100370008E016B017C010D811E81000F111F000F8A
:10038000111F095F1C4FF801408151816281738107
:100390008D819E81815D9C4F9E838D83FC01808138
:1003A00046015701841A950AA60AB70AA8EEB3E0D7
:1003B000882359F1A30192010E9410168616970610
:1003C000A806B90650F01082F801C082D182E282FC
:1003D000F38260E086E00E94C500A89526960FB6DD
:1003E000F894DEBF0FBECDBFDF91CF911F910F916B
:1003F000FF90EF90DF90CF90BF90AF909F908F9045
:100400007F906F905F904F90089529813A814B8142
:100410005C810E94101686169706A806B906E8F2B7
:1004200081E0ED81FE818083F801C082D182E28289
:10043000F38261E0CFCF0895E0919002F0919102B4
:10044000309729F01092E40210920603099408955F
:10045000CF93DF93AC01E0918E02F0918F02309741
:10046000F1F090918D0280918C029817C0F090E08D
:10047000292F30E02617370754F4D901AC5DBD4F62
:10048000240F351FE90128812C939F5FF1CF109233
:100490008D0260938C02CB01DF91CF910994DF91A3
:1004A000CF910895AF92BF92CF92DF92EF92FF92D9
:1004B0000F931F93CF93DF936C017B018B01040F8C
:1004C000151FEB015E01AE18BF08C017D10759F028
:1004D0006991D601ED91FC910190F081E02DC6016A
:1004E0000995892B79F7C501DF91CF911F910F9164
:1004F000FF90EF90DF90CF90BF90AF900895FC01F8
:10050000448155816081718187E094E00C945202AE
:10051000FC01538D448D252F30E0842F90E0821B09
:10052000930B541710F0CF96089501970895FC018E
:10053000918D828D981761F0A28DAE0FBF2FB11DE6
:100540005D968C91928D9F5F9F73928F90E008953E
:100550008FEF9FEF0895FC01918D828D981731F0F8
:10056000828DE80FF11D858D90E008958FEF9FEF4C
:100570000895FC01918D228D892F90E0805C9F4F22
:10058000821B91098F739927089589E393E00E9454
:10059000B90221E0892B09F420E0822F089580E040
:1005A00090E0892B29F00E94C50281110C94000073
:1005B0000895FC01A48DA80FB92FB11DA35ABF4FF8
:1005C0002C91848D90E001968F739927848FA68952
:1005D000B7892C93A089B1898C91837080648C93A6
:1005E000938D848D981306C00288F389E02D808155
:1005F0008F7D80830895EF92FF920F931F93CF9387
:10060000DF93EC0181E0888F9B8D8C8D98131AC04D
:10061000E889F989808185FF15C09FB7F894EE8934
:10062000FF896083E889F989808183708064808391
:100630009FBF81E090E0DF91CF911F910F91FF90DC
:10064000EF900895F62E0B8D10E00F5F1F4F0F7384
:100650001127E02E8C8D8E110CC00FB607FCFACF3F
:10066000E889F989808185FFF5CFCE010E94D90202
:10067000F1CFEB8DEC0FFD2FF11DE35AFF4FF08210
:100680009FB7F8940B8FEA89FB8980818062CFCF76
:10069000CF93DF93EC01888D8823B9F0AA89BB89B9
:1006A000E889F9898C9185FD03C0808186FD0DC0A4
:1006B0000FB607FCF7CF8C9185FFF2CF808185FFC5
:1006C000EDCFCE010E94D902E9CFDF91CF910895FD
:1006D00021E001C0220F6A95EAF7DC011C962C93F9
:1006E0001C971A965C934E931997ED91FC91048494
:1006F000F585E02D60E00994DC01ED91FC91068424
:10070000F785E02D41E0099581E090E00895DC0156
:10071000ED91FC910684F785E02D40E009940F935C
:100720001F93CF93DF93CDB7DEB728970FB6F8941A
:10073000DEBF0FBECDBF0091090110910A012091CB
:100740000B0130910C010D831E832F83388700919C
:100750000D0110910E0120910F01309110010983BC
:100760001A832B833C8390910E04691710F06FEF6E
:10077000690F262F30E040910F042C0F3D1FF90127
:10078000403199F4943089F46181680F606887E0A2
:1007900094E028960FB6F894DEBF0FBECDBFDF9170
:1007A000CF911F910F910C9487036581EECF61E08B
:1007B0000E9487038BE39FE10197F1F708950F9360
:1007C0001F93CF93DF93EC01423018F08C81886047
:1007D0008C834F836887222329F0413019F48C8160
:1007E00084608C8364E670E080E090E00E945B01AE
:1007F0006C8164FD57C0E881F9810684F785E02D9E
:1008000042E063E0CE0109958BE496E40197F1F7AD
:10081000E881F9810684F785E02D42E063E0CE01AE
:10082000099503E512E0C8010197F1F7E881F98124
:100830000684F785E02D42E063E0CE010995C8010A
:100840000197F1F7E881F9810684F785E02D42E010
:1008500062E0CE010995C8010197F1F76C816062F1
:10086000CE010E9487038BEE90E00197F1F784E0C0
:100870008D836CE0CE010E948703CE010E94D703D6
:1008800082E08E8366E0CE010E948703E881F981D1
:100890000484F585E02D6FEFCE01DF91CF911F919C
:1008A0000F9109946062CE010E9487038BE496E465
:1008B0000197F1F76C816062CE010E94870303E526
:1008C00012E0C8010197F1F76C816062CE010E94CD
:1008D0008703C1CF089508950895DC0180E0615039
:1008E00090F09D919827E92FEF70F0E0E859FF4FC5
:1008F0002491E92FE295EF70F0E0E858FF4FE49182
:10090000822F8E27ECCF0895DC012C911196ED916A
:10091000FC91F8948181822B81839281322F3095D2
:100920009323928387E090E00197F1F781818323FD
:10093000818383E290E00197F1F790817894EFEC66
:10094000F0E03197F1F7922381E009F480E0089517
:10095000FC0190810180F281E02D292F209560FF1C
:1009600014C0F8948281822382838181892B8183C0
:10097000A3E2B0E01197F1F78281982B92837894EB
:1009800087ED90E00197F1F70895F8948281822332
:1009900082838181892B8183AFEFB0E01197F1F7DA
:1009A0008281982B928378948FE090E0EBCFDF9256
:1009B000EF92FF920F931F93CF93DF93EC01D62E0C
:1009C000E42E08E010E0FF24F39461E08D2D8F21E8
:1009D00009F460E0CE010E94A804FF0C0150110947
:1009E000A1F7E11010C0F894E981FA819181888122
:1009F000809589238183E981FA819281888180951C
:100A0000892382837894DF91CF911F910F91FF907A
:100A1000EF90DF900895EF92FF920F931F93CF9383
:100A2000DF938C017B0140E065E50E94D704E7017C
:100A300088E0E80EF11C699140E0C8010E94D704EB
:100A4000CE15DF05C1F7DF91CF911F910F91FF9078
:100A5000EF900895FC0190810180F281E02DF894DF
:100A60008181292F20958223818378943DE743E07B
:100A700050E0315029F1DA011197F1F78081892393
:100A8000C1F3F8948281822382838181892B8183BF
:100A90007894ABE7B7E01197F1F7F894818182235E
:100AA0008183A3E1B1E01197F1F78081982381E080
:100AB00009F080E07894E3E6F6E03197F1F70895E5
:100AC00080E0089520916502260F3327331F2132DD
:100AD0003105ECF42091DD02FC0190E080E024304F
:100AE00069F082E00895A09165022191AC014B5B11
:100AF0005D4FA40FB52FB11D2C930196861798F367
:100B000080916502680F6093650280E0089581E03E
:100B100008951092DD0281E08093DC021092B7020A
:100B200061E082E10E94C50061E083E10E94C500AE
:100B3000E9EBF0E080818E7F808380818D7F8083F0
:100B400088E48093B80085E48093BC000895CF9337
:100B5000DF9391E0909344028823B9F0C091B800EC
:100B6000D091BA008091BC008A7B8093BC0060E089
:100B700082E10E94C50060E083E10E94C5000E94FE
:100B80008905D093BA00C093B800DF91CF91089542
:100B9000CF92DF92EF92FF920F931F93CF93DF9349
:100BA000D091060381E0D13208F09CC0C0910503CA
:100BB0000E9436016B017C018091DD0281116CC0C5
:100BC00082E08093DD0281E08093DC028FEF8093EE
:100BD000DB021092DA02D093D902A5EEB2E0E9EB83
:100BE000F2E080E0D8138DC01092B8028091B80274
:100BF000CC0FC82BC093B8028091B702813009F0A6
:100C000084C01092B7020E9436016B017C01809172
:100C1000B8028093BB008091DF029091E002A09126
:100C2000E102B091E202892B8A2B8B2BA1F00E946A
:100C300036010091DF021091E0022091E102309133
:100C4000E2026C197D098E099F090617170728070C
:100C5000390708F442C08091BC0083FDD8CF85ECF1
:100C60008093BC000E9436016B017C018091DD0203
:100C7000823009F44CC08091DB028F3F09F469C0D7
:100C80008091DB02803209F466C08091DB02803300
:100C900009F463C084E026C08091DF029091E002F5
:100CA000A091E102B091E202892B8A2B8B2B09F4EF
:100CB00083CF0E9436010091DF021091E002209163
:100CC000E1023091E2026C197D098E099F09061735
:100CD00017072807390708F06FCF8091DE020E94BE
:100CE000A70585E01092E402109206031092E30239
:100CF000DF91CF911F910F91FF90EF90DF90CF90F8
:100D000008959D9191938F5F6DCF85EEA9CF8091CE
:100D1000DF029091E002A091E102B091E202892B02
:100D20008A2B8B2B09F4A2CF0E9436010091DF029F
:100D30001091E0022091E1023091E2026C197D09EC
:100D40008E099F09061717072807390708F08ECF65
:100D5000C4CF80E0C7CF82E0C5CF83E0C3CF089582
:100D6000E0918D0280918C02E81730F4F0E0EC5DA8
:100D7000FD4F808190E008958FEF9FEF089590914F
:100D80008D0280918C022FEF3FEF981748F4E92FE6
:100D9000F0E0EC5DFD4F208130E09F5F90938D028D
:100DA000C901089580918C0290918D02891B990B45
:100DB0000895CF92DF92EF92FF920F931F93CF93FC
:100DC000DF937C01CB018A012091E302222389F089
:100DD000EB016B01C40ED51ECC15DD0569F06991E0
:100DE000D701ED91FC910190F081E02DC7010995AB
:100DF000F3CF642F0E946205C801DF91CF911F914C
:100E00000F91FF90EF90DF90CF900895CF93DF93F5
:100E10001F92CDB7DEB769832091E3022223F9F058
:100E200020910603203258F021E030E0FC013383AA
:100E3000228390E080E00F90DF91CF910895809120
:100E4000E402E82FF0E0EB51FD4F998190838F5F32
:100E50008093E4028093060381E090E0ECCF61E0B0
:100E6000CE0101960E946205F7CFFC012381222367
:100E7000E1F08181682B6083828191E09093E302AD
:100E8000809305031092E4021092060386ED93E02E
:100E90000E9406070E94C805282F30E081E090E0FC
:100EA000232B11F090E080E0089530E020E0F6CFB1
:100EB000EF92FF920F931F93CF938C01FC0184E07C
:100EC000C0E0262F30E060FF02C09589C92BB90130
:100ED00075956795815031968111F3CF413011F4AA
:100EE000F8014489F8016585C62BC42B7801FEE022
:100EF000EF0EF11CF80162896C2BC7010E943507C7
:100F0000F801628960956C23C701CF911F910F9101
:100F1000FF90EF900C9435070F931F93CF93DF93BF
:100F2000062F0F70423041F440E0602FDF91CF91E7
:100F30001F910F910C945807142FEC0170E084E07E
:100F4000759567958A95E1F7CE010E945807412F64
:100F5000602FCE01EBCFFC0184858823A1F0218591
:100F600032852115310521F4611107C0158606C0AF
:100F700021303105D9F76111F9CF85876585CF011A
:100F80000E960C9435070895EF92FF920F931F93DE
:100F9000CF93DF93EC01062FF42EE22E8B85888B06
:100FA00010928D0210928C021092E40210920603AD
:100FB0000E9489058CE192E090938B0280938A02D3
:100FC00088E292E09093890280938802888911E0F8
:100FD0001093E302809305030E94C80581111CC091
:100FE000198B86ED93E00E94BF068E87898988233E
:100FF00039F01F861C8260E0CE010E960E943507F4
:101000002E2D4F2D602FCE01DF91CF911F910F918B
:10101000FF90EF900C94DF03198AE8CF90E080E016
:1010200008954F925F926F927F928F929F92AF92AC
:10103000BF92CF92DF92EF92FF920F931F93CF93C5
:10104000DF93CDB7DEB72C970FB6F894DEBF0FBE97
:10105000CDBF6091A8027091A9028091AA029091DF
:10106000AB020E9440174B017B016091A40270917A
:10107000A5028091A6029091A7020E9440172B0121
:101080006B0160919E0270919F028091A0029091ED
:10109000A1020E9440178B01072E000C880B990BB0
:1010A0000E94E51420E030E040E05FE317FD5DC002
:1010B0000E9462160E944017162F072FB201550C8E
:1010C000880B990B0E94E51420E030E040E05FE3DC
:1010D000D7FC4EC00E9462160E944017D62EC72E23
:1010E000B401990C880B990B0E94E51420E030E0C4
:1010F00040E05FE3F7FC3FC00E9462160E94401789
:1011000009831A832FE431E02B83CC82DD8224E62D
:1011100031E02E837F83688781E591E089871A8695
:1011200083E591E08B8781E08C874CE050E0BE0145
:101130006F5F7F4F86ED93E00E94D9062C960FB625
:10114000F894DEBF0FBECDBFDF91CF911F910F91FD
:10115000FF90EF90DF90CF90BF90AF909F908F90D7
:101160007F906F905F904F9008950E946116A2CF7C
:101170000E946116B1CF0E946116C0CF1F93CF931A
:10118000DF93162FD42FC22F682F84E00E94C50052
:10119000612F82E00E94C5006D2F86E00E94C5008D
:1011A0006C2F87E0DF91CF911F910C94C500CF93F6
:1011B000DF93EDE9F0E08491EFECF0E0D491EBEB1C
:1011C000F0E0C491CC2379F081110E949C00EC2FB7
:1011D000F0E0EE0FFF1FE055FF4FA591B491EC91A9
:1011E000ED2381E009F480E0DF91CF910895FB01C8
:1011F00001900020E9F73197AF01461B570BDC0146
:10120000ED91FC910280F381E02D09948F929F92E1
:10121000AF92BF92EF92FF920F931F93CF93DF9302
:10122000CDB7DEB7A1970FB6F894DEBF0FBECDBF26
:101230007C01FA01CB0119A2223008F42AE08E01C8
:101240000F5D1F4F822E912CB12CA12CBF01A50147
:1012500094010E948017F901CA016A300CF5605DA3
:10126000D8016E938D01232B242B252B79F790E049
:1012700080E0109721F0BD01C7010E94F708A196F8
:101280000FB6F894DEBF0FBECDBFDF91CF911F9197
:101290000F91FF90EF90BF90AF909F908F90089527
:1012A000695CDECFCF92DF92EF92FF92CF93DF9314
:1012B0006B017C016DE287E094E00E947C03EC010D
:1012C00044275527BA014C195D096E097F092AE0A8
:1012D00087E094E00E9406098C0F9D1FDF91CF915B
:1012E000FF90EF90DF90CF900895BC0187E094E0ED
:1012F0000C94F70887E094E00E94D70361E084E053
:101300000E948F0385E591E00E94750961E08DE000
:101310000E94C50064EF71E080E090E00E945B01F4
:1013200060E08DE00E94C50064EF71E080E090E035
:101330000C945B012F923F924F925F926F927F923B
:101340008F929F92AF92BF92CF92DF92EF92FF92D5
:101350001F93CF93DF93EC016A017B01722EAB01E7
:101360009601CB01B6010E947B176EE571E08111F9
:1013700026C046015701E894B7F82FEF3FEF4FE73B
:101380005FE7C501B4010E947B1781110CC02FEFEC
:101390003FEF4FE75FE7C501B4010E94DE1462E64C
:1013A00071E0181664F02FEF3FEF4FE75FE4C701DD
:1013B000B6010E9476171816B4F466E671E0CE0105
:1013C000DF91CF911F91FF90EF90DF90CF90BF9072
:1013D000AF909F908F907F906F905F904F903F90D5
:1013E0002F900C94F7082FEF3FEF4FE75FECC7010A
:1013F000B6010E94DE1487FDE0CF20E030E0A901B5
:10140000C701B6010E94DE14312C212C87FF0DC0CC
:10141000E881F9810190F081E02D6DE2CE0109951E
:101420001C01F7FAF094F7F8F09410E060E070E037
:1014300080E09FE3711641F020E030E040E251E4AB
:101440000E94CE161F5FF6CFA70196010E9462167A
:101450002B013C010E9447174B015C012AE0BC01B3
:10146000A401CE010E9406097C01E20CF31C1123A9
:10147000E1F1C501B4010E94E3149B01AC01C30179
:10148000B2010E9461164B015C01E881F981019073
:10149000F081E02D6EE2CE010995E80EF91E1150A3
:1014A00020F120E030E040E251E4C501B4010E94A7
:1014B00044152B013C010E9447174B01B12CA12C74
:1014C0002AE0B501A401CE010E940609E80EF91E2A
:1014D000C501B4010E94E3149B01AC01C301B20138
:1014E0000E9461164B015C01DACFC701DF91CF91F9
:1014F0001F91FF90EF90DF90CF90BF90AF909F90A3
:101500008F907F906F905F904F903F902F900895B5
:101510000E948A190F931F93CF93DF93EC01888168
:101520009981009759F02A813B812617370730F0BF
:1015300081E0DF91CF911F910F9108958B016F5F33
:101540007F4F0E94CD18009759F0998388831B83A1
:101550000A832C813D81232B59F7FC011082E8CFAF
:1015600080E0E7CFEF92FF920F931F93CF93DF932B
:10157000EC017B01FB0101900020E9F731978F011D
:10158000061B170BB8010E948A0A28813981811134
:1015900013C02115310519F0C9010E9444181982A0
:1015A00018821D821C821B821A82DF91CF911F91AB
:1015B0000F91FF90EF9008951D830C83B701C9012F
:1015C000DF91CF911F910F91FF90EF900C9498199C
:1015D00085ED8093BC008091DF029091E002A091A4
:1015E000E102B091E2020796A11DB11D23E0B6957C
:1015F000A795979587952A95D1F72091BC0024FD52
:1016000003C01092DD0208954091DF025091E00284
:101610006091E1027091E202452B462B472B69F362
:101620000097A105B10541F02AE22A95F1F700C023
:101630000197A109B109E1CF8091DE020C94A705C1
:101640001F920F920FB60F9211242F933F938F93F7
:101650009F93AF93BF938091AF029091B002A091FE
:10166000B102B091B2023091AE0223E0230F2D37C8
:1016700058F50196A11DB11D2093AE028093AF02D3
:101680009093B002A093B102B093B2028091B302E2
:101690009091B402A091B502B091B6020196A11D3D
:1016A000B11D8093B3029093B402A093B502B0939E
:1016B000B602BF91AF919F918F913F912F910F9063
:1016C0000FBE0F901F90189526E8230F0296A11DBC
:1016D000B11DD2CF1F920F920FB60F9211242F93EC
:1016E0003F934F935F936F937F938F939F93AF93AA
:1016F000BF93EF93FF9389E393E00E94D902FF9198
:10170000EF91BF91AF919F918F917F916F915F9179
:101710004F913F912F910F900FBE0F901F901895F2
:101720001F920F920FB60F9211242F938F939F93B6
:10173000EF93FF93E0914903F0914A038081E09198
:101740004F03F091500382FD1BC0908180915203A2
:101750008F5F8F7320915303821741F0E091520302
:10176000F0E0E75CFC4F958F80935203FF91EF917F
:101770009F918F912F910F900FBE0F901F901895F2
:101780008081F4CF1F920F920FB60F9211242F93E6
:101790003F934F935F936F937F938F939F93AF93F9
:1017A000BF93EF93FF938091B900887F803609F44F
:1017B0004AC0F0F5883209F4A7C018F5803109F461
:1017C0009BC0B8F4882309F4F9C0883009F494C0A8
:1017D000FF91EF91BF91AF919F918F917F916F9109
:1017E0005F914F913F912F910F900FBE0F901F90DF
:1017F0001895883109F488C0803251F78093DB0254
:1018000014C0803409F49DC040F48033B9F38833A8
:10181000F9F68093DB0285ECB0C0803509F485C011
:10182000883509F496C0883499F60E94E80AD0CF2A
:10183000883909F48CC038F5883729F050F4883697
:1018400011F0803729F683E08093DD021092870241
:1018500057C0883809F47BC0803919F0803809F006
:10186000B7CF80918702803208F071C0E091870283
:1018700081E08E0F809387028091BB00F0E0E959F0
:10188000FD4F80833DC0803B39F0E0F4803A09F49D
:1018900079C0883A09F09CCF84E08093DD021092F1
:1018A000660210926502E0918A02F0918B0209951E
:1018B0008091650281110FC081E0809365021092D2
:1018C000450209C0803C09F4A6CF883C09F4A3CFA7
:1018D000883B09F07DCFE091660281E08E0F809316
:1018E0006602F0E0EB5BFD4F80818093BB0090913E
:1018F00066028091650229C08091B8028093BB0086
:1019000085EC8093BC0064CF9091DA028091D9027B
:10191000981758F5E091DA0281E08E0F8093DA0291
:10192000F0E0E754FD4F8081E9CFE091DA0281E0F9
:101930008E0F8093DA028091BB00F0E0E754FD4FF8
:1019400080839091DA028091D9029817C8F285E8D5
:10195000D8CFE091DA0281E08E0F8093DA02809195
:10196000BB00F0E0E754FD4F80838091DC028111E1
:101970005CCF81E08093B70284EA8093BC00109230
:10198000DD0226CF85EC8093BC001092DD028091B1
:101990008702803230F4E0918702F0E0E959FD4F90
:1019A00010826091870270E0E0918802F0918902D4
:1019B00087E692E00995109287020ACF1092DB0227
:1019C00034CF1F93CF93DF93E9E3F3E013821282C6
:1019D00088EE93E0A0E0B0E084839583A683B7838C
:1019E0002BE131E03183208325EC30E035872487FB
:1019F00024EC30E03787268720EC30E0318B208BD9
:101A000021EC30E0338B228B22EC30E0358B248BC1
:101A100026EC30E0378B268B118E128E138E148EAF
:101A2000E6EDF3E01382128284839583A683B78365
:101A30008DE291E09183808310922404109223041C
:101A4000E5E2F4E080E091E0DF019C011D9221508D
:101A50003040E1F7C0E2D4E08AE0888319E01A83DD
:101A600088E0898361E089E00E94F30061E0888179
:101A70000E94F30060E089810E94F30061E08A81A6
:101A80000E94C500E7E0F4E0138212828FE391E048
:101A900091838083108A8FEF87871686118A87E269
:101AA0008387148615861286118684E0828B82E0F5
:101AB000838BC1E0C48B80E1858B80E2868B80E4E0
:101AC000878B80E8808F50E040E063E0CF010E9488
:101AD000680360E085E00E94F300E3EDF0E0E4914C
:101AE000A9EFB3E0EC93EFEBF0E0E491F0E0EE0F60
:101AF000FF1FE055FF4F8591949112969C938E9312
:101B000011971B961C921B971D961C921D971C9655
:101B10001C921C971A961C921A9719961C92199748
:101B200018961C92189717961C92179716961C9247
:101B3000169715961C92159714961C921497139647
:101B40001C921397E2EEF3E0168A158A1182B2878F
:101B5000A1871782108610821383C483C583C6832E
:101B6000DF91CF911F910895CF93DF93CDB7DEB76B
:101B700061970FB6F894DEBF0FBECDBF789484B5E1
:101B8000826084BD84B5816084BD85B5826085BD79
:101B900085B5816085BD80916E00816080936E0007
:101BA00010928100809181008260809381008091F9
:101BB00081008160809381008091800081608093AA
:101BC00080008091B10084608093B1008091B0006A
:101BD00081608093B00080917A00846080937A0065
:101BE00080917A00826080937A0080917A0081608F
:101BF00080937A0080917A00806880937A001092B6
:101C0000C10021E041E061E081E00E94BE0861E0A6
:101C100084E00E94F30061E082E00E94F30061E052
:101C200086E00E94F30061E087E00E94F30061E03B
:101C30008DE00E94F30020E042E060E187E094E064
:101C40000E94C407E091EB03F091EC031386158624
:101C500014861286118610861782168215821482C7
:101C600013821092E9031092EA03BB24B394552423
:101C700053946E012AE0C20ED11CE090EB03F09069
:101C8000EC03D7011D968C91882309F4B4C1F701A8
:101C900013861586148610928D0210928C02109273
:101CA000E402109206030E9489058CE192E0909371
:101CB0008B0280938A0288E292E09093890280935B
:101CC000880280E18093BA008BE192E090938F02CA
:101CD00080938E0281E198E090939102809390022C
:101CE000E0914903F0914A0382E08083E09145034B
:101CF000F09146031082E0914703F09148038FEC86
:101D0000808310925103E0914D03F0914E0386E0E1
:101D10008083E0914B03F0914C038081806180834C
:101D2000E0914B03F0914C03808188608083E091C7
:101D30004B03F0914C03808180688083E0914B03DA
:101D4000F0914C0380818F7D808388E19FE00FB606
:101D5000F894A895809360000FBE9093600090E087
:101D6000292E90E0392E0E948E016B017C010E9489
:101D70008E01009192021091930220919402309171
:101D80009502601B710B820B930B683E73408105BB
:101D9000910508F4C2C08091EB039091EC030E947E
:101DA0002A0540E06CEC8091EB039091EC030E94DB
:101DB000D7044091E20364E48091EB039091EC033B
:101DC0000E94D7048091E603882311F1E091E50396
:101DD0008091E703882309F431C28091E2038111E5
:101DE0002DC20E948E012B013C018091EB0390914A
:101DF000EC030E948404813059F00E948E01641922
:101E00007509860997096E3E72408105910568F350
:101E100081E10E942401BC01990F880B990B0E945B
:101E2000E51460939E0270939F028093A0029093AA
:101E3000A1028FE00E942401BC01990F880B990B2D
:101E40000E94E5146093A8027093A9028093AA02ED
:101E50009093AB028EE00E942401BC01990F880B85
:101E6000990B0E94E5142B013C014092A402509270
:101E7000A5026092A6027092A70280E10E9424014E
:101E8000BC01990F880B990B0E94E51420E030E00B
:101E900040EA50E40E94441520E030E040E85AE374
:101EA0000E9444152DEC3CEC4CE45EE30E94CE16FF
:101EB00020E030E040E451E40E94761718160CF060
:101EC000E5C131E03093AD0222E0B301A20189E324
:101ED00093E00E949A096AE671E089E393E00E9428
:101EE000F7084091A8025091A9026091AA0270914E
:101EF000AB0222E089E393E00E949A096AE671E06E
:101F000089E393E00E94F708C0929202D092930274
:101F1000E0929402F0929502A8958091AD028823F8
:101F200009F4C5C18091AC028111CDC120E030E03F
:101F30004CE052E46091A8027091A9028091AA023B
:101F40009091AB020E94DE1487FD11C020E030E0CA
:101F500041E654E46091A4027091A5028091A6022A
:101F60009091A7020E94761718160CF0ACC18091D0
:101F700000019091010197FD92C121E040E061E0F4
:101F800081E00E94BE0887E094E00E94D70360E0F1
:101F900080E00E948F038DE691E00E94750961E068
:101FA00080E00E948F034091000150910101052EB5
:101FB000000C660B770B77FF6CC1CB01BA010E9456
:101FC00052098DE791E00E9475098091000190917E
:101FD00001010197909301018093000160E090E07E
:101FE00080E00E94021668EE73E080E090E00E94BC
:101FF0005B01A895BCCFC7010E942A0581110AC0C8
:10200000D7011B961C921B971D961C921D971C9620
:102010001C9241CE40E060EFC7010E94D70401E06E
:10202000812C712C11E0C7010E948404982EC701F5
:102030000E948404B1E09B1271C0813009F08FC00E
:10204000113408F424CEF7017386711001C0B586EF
:10205000D70113968C911397882309F418CE139601
:10206000FE013A962BE0E20EF11C8F018D918193D7
:10207000EA16FB06D9F767E0C8010E946D0499894A
:102080008913FBCD8091E9038F5F8093E9038A85F3
:10209000883239F008F079C0803119F0823209F0C5
:1020A000ECCD8091EA038F5F8093EA038091EB038C
:1020B0009091EC032091E203211122C00E942A0595
:1020C000B8018091EB039091EC030E940B0540E076
:1020D00064EB8091EB039091EC030E94D704809114
:1020E000EB039091EC030E948404F82E8091EB03A3
:1020F0009091EC030E942A05F11002C05092E20375
:102100008091EB039091EC032A85203109F489C07A
:102110000E942A05811140C080E086C0E82DF0E0D1
:10212000981213C0D7011B968C911B971817A8F40F
:10213000AE0FBF1F13968C91802389F4912C193018
:1021400018F4D7011C961C93712EEE0DFF1D838190
:10215000902F9095892383830AC08113EFCFF701D5
:10216000E80DF11D8381802B838399249394692D3D
:10217000C7010E94A8041F5F000F11F4839401E0BF
:10218000B7E0B81508F04FCF5BCF8B3309F489CF98
:10219000823409F072CD85CFB8018091EB03909124
:1021A000EC030E940B0540E06EEB8091EB039091F5
:1021B000EC030E94D7048E010F5F1F4F78011801B6
:1021C0006090EB037090EC0328E0822E912C412C60
:1021D000AA24A394C3010E94840481114A28AA0C52
:1021E00031E0831A9108B1F7D7014D927D01AC150A
:1021F000BD0531F78091EB039091EC030E942A0515
:10220000813009F089CFF80181918F018111C4C318
:10221000EE16FF06C1F780CF8F3571F08F3709F0CA
:102220007BCF8CE001C08AE09091E503981708F01D
:1022300024CD8093E50321CD8BE0F6CFE9508EEEDF
:1022400092E0E33038F4F0E0EE0FFF1FEF5EFE4F58
:10225000808191812C01990F660877088091E303B2
:10226000882329F060E08091E4030E94C500C30147
:10227000B2010E945B018091E303882309F4C8CD79
:1022800061E08091E4030E94C500C2CD1092AD02CE
:102290001BCE2AE087E094E00E94060992CE41E03E
:1022A0004093AC0261E090E080E00E9402162114AD
:1022B000310409F458CD0E94C502882309F453CD96
:1022C0000E94000050CD20E030E04AEF53E46091DE
:1022D000A4027091A5028091A6029091A7020E948B
:1022E000761787FDD0C020E030E048EC51E46091E3
:1022F000A8027091A9028091AA029091AB020E945B
:10230000DE1418160CF4BFC051E05093AC020E94CA
:102310008E016B017C010E948E010091960210914A
:1023200097022091980230919902601B710B820BE9
:10233000930B683E73408105910508F4B8CF8091F6
:10234000A2029091A3029C012F5F3F4F3093A30202
:102350002093A202AC014D50510942305105E0F4E6
:1023600021E041E060E080E00E94BE0887E094E068
:102370000E94D70361E080E00E948F0382E891E031
:102380000E947509C0929602D0929702E09298023C
:10239000F0929902A8958BCFAC014151510943307D
:1023A000510588F421E041E060E080E00E94BE0831
:1023B00087E094E00E94D70361E080E00E948F03F1
:1023C00083E991E0DDCF4897069788F421E041E06A
:1023D00060E080E00E94BE0887E094E00E94D7039E
:1023E00061E080E00E948F0384EA91E0C9CF293246
:1023F00031054CF021E041E061E081E00E94BE083F
:102400000E947A09BFCF21E041E060E081E00E94B4
:10241000BE0887E094E00E94D70360E080E00E945D
:102420008F0383EB91E00E9475094091A2025091C5
:10243000A302052E000C660B770B77FF1EC0CB01A5
:10244000BA010E9452098DE791E00E94750961E08E
:1024500080E00E948F038EEB91E00E94750940910D
:10246000A4025091A5026091A6027091A70222E0F9
:1024700087E094E00E949A0985CF2AE087E094E003
:102480000E940609E0CF0E948E014B015C010E9470
:102490008E0100911B0310911C0320911D033091AC
:1024A0001E03601B710B820B930B683E734081050A
:1024B000910508F4FCCE8091A2029091A3020196AE
:1024C0009093A3028093A2024090A4025090A50290
:1024D0006090A6027090A70220E030E041E654E44C
:1024E000C301B2010E94761718161CF40E947A09E3
:1024F000EBCFC090A802D090A902E090AA02F09081
:10250000AB0220E030E0A901C701B6010E947617B6
:1025100087FD3EC020E030E040EF51E4C701B60146
:102520000E94DE141816A4F187E094E00E94D703FD
:1025300060E081E00E948F0385EC91E00E947509C4
:1025400021E041E060E080E00E94BE0861E080E0C0
:102550000E948F0383ED91E00E9475094091A802CB
:102560005091A9026091AA027091AB0222E087E02B
:1025700094E00E949A098EED91E00E947509809284
:102580001B0390921C03A0921D03B0921E0302CF66
:1025900020E030E040EF51E4C701B6010E94761719
:1025A00018160CF04EC020E030E042E852E4C701BB
:1025B000B6010E94DE1487FF44C01092A30210925D
:1025C000A2021092AC0261E087E00E94C50060E0C8
:1025D00084E00E94C50061E082E00E94C50087E0BF
:1025E00094E00E94D70360E080E00E948F0381EEB8
:1025F00091E00E94750961E080E00E948F0383ED05
:1026000091E00E9475094091A8025091A902609141
:10261000AA027091AB0222E087E094E00E949A093E
:102620008EED91E00E9475090AE010E020E030E0B4
:1026300042E050E060E070E081E090E00E949A01AA
:102640009ECF20E030E042E852E4C701B6010E948C
:10265000761787FD94CF0E94D708811189C161E068
:1026600087E00E94C50060E084E00E94C50061E050
:1026700082E00E94C500C0909E02D0909F02E09030
:10268000A002F090A10220E030E04CE452E4C70147
:10269000B6010E94DE1418160CF42DC180910201BF
:1026A000882309F428C103E010E020E030E04AE08C
:1026B00050E060E070E082E090E00E949A010E94A9
:1026C0008E016B017C0120E030EC4FE754E4C30144
:1026D000B2010E94CE169B01AC0160E070E080E880
:1026E0009FE30E94611620E030E048EC52E40E9433
:1026F000441560939A0270939B0280939C0290937E
:102700009D021A8219821C821B821E821D8270E029
:1027100060E0CE0101960E948A0A29813A818111E6
:1027200033C12115310519F0C9010E9444181A82DC
:1027300019821E821D821C821B820E94D7086AEEAB
:1027400071E0882311F06BEF71E0CE0101960E94D9
:10275000B20A80911F0390912003A0912103B091B0
:102760002203A7019601281B390B4A0B5B0BDA01E8
:10277000C901883E9340A105B10588F187E094E046
:102780000E94D70360E080E00E948F03CE01019693
:102790000E947F0261E080E00E948F038CE092E063
:1027A0000E94750961E086E00E948F0340919A02C1
:1027B00050919B0260919C0270919D0222E087E003
:1027C00094E00E949A0982E192E00E947509C09209
:1027D0001F03D0922003E0922103F0922203809104
:1027E000230390912403A0912503B0912603A70110
:1027F0009601281B390B4A0B5B0BDA01C901803D9E
:102800009740A105B10568F187E094E00E94D703E5
:1028100060E080E00E948F03CE0101960E947F025B
:1028200061E080E00E948F0384E192E00E947509DC
:1028300061E08BE00E948F034091A8025091A902B1
:102840006091AA027091AB0222E087E094E00E94BE
:102850009A09C0922303D0922403E0922503F092B8
:1028600026038091270390912803A0912903B0911A
:102870002A03A7019601281B390B4A0B5B0BDA01CF
:10288000C901883B9B40A105B10568F187E094E050
:102890000E94D70360E080E00E948F03CE01019682
:1028A0000E947F0261E080E00E948F038EE192E04F
:1028B0000E94750961E08BE00E948F0340919E02A7
:1028C00050919F026091A0027091A10222E087E0E6
:1028D00094E00E949A09C0922703D0922803E092C4
:1028E0002903F0922A0389819A81009711F00E94AE
:1028F0004418A89544CE20E030E044E352E4C701F8
:10290000B6010E94761787FD24C020E030E04CE439
:1029100052E4C701B6010E94DE1487FF1AC003E02B
:1029200010E020E030E04AE050E060E070E083E05A
:1029300090E00E949A0120E030E044E352E4C701B5
:10294000B6010E94DE1487FFBACEE1E0E0930201F7
:10295000B6CE03E010E020E030E04AE050E060E076
:1029600070E084E090E00E949A0110920201E3CFAF
:102970000E94D708882309F4A2CE20E041E061E05C
:1029800080E00E94BE089BCE1E821D826CE671E034
:10299000C9010E949819D1CE68E0C1010E946D045E
:1029A00099858913B9CB8D818F3309F43CCC08F01C
:1029B00033CC8F3109F0B0CB89E036CC0E942015A2
:1029C00008F481E00895E89409C097FB3EF49095DF
:1029D0008095709561957F4F8F4F9F4F9923A9F0F8
:1029E000F92F96E9BB279395F69587957795679587
:1029F000B795F111F8CFFAF4BB0F11F460FF1BC0CB
:102A00006F5F7F4F8F4F9F4F16C0882311F096E95D
:102A100011C0772321F09EE8872F762F05C066230B
:102A200071F096E8862F70E060E02AF09A95660FC4
:102A3000771F881FDAF7880F9695879597F908957D
:102A4000990F0008550FAA0BE0E8FEEF16161706BF
:102A5000E807F907C0F012161306E407F50798F027
:102A6000621B730B840B950B39F40A2661F0232B40
:102A7000242B252B21F408950A2609F4A140A695BC
:102A80008FEF811D811D08950E9457150C94C81564
:102A90000E94BA1538F00E94C11520F0952311F05C
:102AA0000C94B1150C94B71511240C94FC150E94CC
:102AB000D91570F3959FC1F3950F50E0551F629F94
:102AC000F001729FBB27F00DB11D639FAA27F00D87
:102AD000B11DAA1F649F6627B00DA11D661F829FAE
:102AE0002227B00DA11D621F739FB00DA11D621F93
:102AF000839FA00D611D221F749F3327A00D611DB0
:102B0000231F849F600D211D822F762F6A2F112491
:102B10009F5750409AF0F1F088234AF0EE0FFF1FC4
:102B2000BB1F661F771F881F91505040A9F79E3F1B
:102B3000510580F00C94B1150C94FC155F3FE4F343
:102B4000983ED4F3869577956795B795F795E79571
:102B50009F5FC1F7FE2B880F911D9695879597F97A
:102B6000089597F99F6780E870E060E008959FEF0F
:102B700080EC089500240A94161617061806090614
:102B8000089500240A9412161306140605060895E3
:102B9000092E0394000C11F4882352F0BB0F40F46B
:102BA000BF2B11F460FF04C06F5F7F4F8F4F9F4FAB
:102BB000089557FD9058440F551F59F05F3F71F02D
:102BC0004795880F97FB991F61F09F3F79F0879594
:102BD0000895121613061406551FF2CF4695F1DF1D
:102BE00008C0161617061806991FF1CF86957105AD
:102BF000610508940895E894BB2766277727CB01E1
:102C000097F90895262FF999FECF1FBA92BD81BD7D
:102C100020BD0FB6F894FA9AF99A0FBE019608955E
:102C20000E945216A59F900DB49F900DA49F800DF9
:102C3000911D112408952F923F924F925F926F92AF
:102C40007F928F929F92AF92BF92CF92DF92EF923C
:102C5000FF920F931F93CF93DF93CDB7DEB7CA1BBD
:102C6000DB0B0FB6F894DEBF0FBECDBF09942A88E8
:102C7000398848885F846E847D848C849B84AA8490
:102C8000B984C884DF80EE80FD800C811B81AA811D
:102C9000B981CE0FD11D0FB6F894DEBF0FBECDBFE8
:102CA000ED010895A29FB001B39FC001A39F700DD5
:102CB000811D1124911DB29F700D811D1124911D44
:102CC00008955058BB27AA270E9479160C94C8155E
:102CD0000E94BA1538F00E94C11520F039F49F3FC8
:102CE00019F426F40C94B7150EF4E095E7FB0C9458
:102CF000B115E92F0E94D91558F3BA176207730767
:102D00008407950720F079F4A6F50C94FB150EF4D2
:102D1000E0950B2EBA2FA02D0B01B90190010C01EB
:102D2000CA01A0011124FF27591B99F0593F50F403
:102D3000503E68F11A16F040A22F232F342F44275B
:102D4000585FF3CF469537952795A795F040539553
:102D5000C9F77EF41F16BA0B620B730B840BBAF023
:102D60009150A1F0FF0FBB1F661F771F881FC2F78E
:102D70000EC0BA0F621F731F841F48F487957795A2
:102D80006795B795F7959E3F08F0B0CF9395880F5C
:102D900008F09927EE0F9795879508950E94E216FF
:102DA0000C94C8150E94C11558F00E94BA1540F045
:102DB00029F45F3F29F00C94B11551110C94FC15C6
:102DC0000C94B7150E94D91568F39923B1F35523D4
:102DD00091F3951B550BBB27AA276217730784072E
:102DE00038F09F5F5F4F220F331F441FAA1FA9F3C4
:102DF00035D00E2E3AF0E0E832D091505040E695B2
:102E0000001CCAF72BD0FE2F29D0660F771F881F12
:102E1000BB1F261737074807AB07B0E809F0BB0B05
:102E2000802DBF01FF2793585F4F3AF09E3F510519
:102E300078F00C94B1150C94FC155F3FE4F3983EC8
:102E4000D4F3869577956795B795F7959F5FC9F702
:102E5000880F911D9695879597F90895E1E0660F83
:102E6000771F881FBB1F621773078407BA0720F0FC
:102E7000621B730B840BBA0BEE1F88F7E095089565
:102E80000E9447176894B1110C94FC1508950E9494
:102E9000E11588F09F5798F0B92F9927B751B0F0F6
:102EA000E1F0660F771F881F991F1AF0BA95C9F7CE
:102EB00014C0B13091F00E94FB15B1E008950C945C
:102EC000FB15672F782F8827B85F39F0B93FCCF30F
:102ED000869577956795B395D9F73EF4909580954B
:102EE000709561957F4F8F4F9F4F08950E942015D9
:102EF00008F48FEF08950E942015880B990B089510
:102F0000A1E21A2EAA1BBB1BFD010DC0AA1FBB1FED
:102F1000EE1FFF1FA217B307E407F50720F0A21B5F
:102F2000B30BE40BF50B661F771F881F991F1A94CC
:102F300069F760957095809590959B01AC01BD01F6
:102F4000CF010895EE0FFF1F0590F491E02D099435
:102F50000F931F93CF93DF938230910510F482E09B
:102F600090E0E0912705F091280530E020E0B0E006
:102F7000A0E0309799F42115310509F44AC0281BC7
:102F8000390B24303105D8F58A819B816115710593
:102F900089F1FB0193838283FE0111C0408151813D
:102FA0000281138148175907E0F04817590799F42F
:102FB000109761F012960C93129713961C93329609
:102FC000CF01DF91CF911F910F91089500932705B5
:102FD00010932805F4CF2115310551F042175307FE
:102FE00038F0A901DB019A01BD01DF01F801C1CF71
:102FF000EF01F9CF9093280580932705CDCFFE01EF
:10300000E20FF31F81939193225031093983288372
:10301000D7CF2091250530912605232B41F420910F
:103020000501309106013093260520932505209156
:103030000301309104012115310541F42DB73EB74C
:103040004091070150910801241B350BE0912505A3
:10305000F0912605E217F307A0F42E1B3F0B28176B
:10306000390778F0AC014E5F5F4F2417350748F001
:103070004E0F5F1F50932605409325058193919332
:103080009FCFF0E0E0E09CCFCF93DF930097E9F093
:10309000FC01329713821282A0912705B091280576
:1030A000ED0130E020E01097A1F420813181820F02
:1030B000931F20912505309126052817390709F01F
:1030C00061C0F0932605E0932505DF91CF91089527
:1030D000EA01CE17DF07E8F54A815B819E014115C1
:1030E0005105B1F7E901FB83EA8349915991C40F76
:1030F000D51FEC17FD0761F4808191810296840F42
:10310000951FE90199838883828193819B838A83B8
:10311000F0E0E0E012968D919C9113970097B9F53D
:103120002D913C911197CD010296820F931F209112
:103130002505309126052817390739F6309751F5BE
:103140001092280510922705B0932605A093250517
:10315000BCCFD383C28340815181840F951FC81790
:10316000D90761F44E5F5F4F88819981480F591FDD
:10317000518340838A819B8193838283211531050A
:1031800009F0B0CFF0932805E09327059ECFFD010D
:10319000DC01C0CF13821282D7CFB0E0A0E0E3ED14
:1031A000F8E10C941D168C01009751F4CB010E949C
:1031B000A8178C01C801CDB7DEB7E0E10C94391631
:1031C000FC01E60FF71F9C0122503109E217F307BB
:1031D00008F49DC0D901CD91DC911197C617D7078E
:1031E00098F0C530D10530F3CE01049786179707C4
:1031F00008F3C61BD70B2297C193D1936D937C9391
:10320000CF010E944418D6CF5B01AC1ABD0A4C0115
:103210008C0E9D1EA0912705B0912805512C412CA4
:10322000F12CE12C109731F5809125059091260520
:103230008815990509F05CC04616570608F058C075
:103240008091030190910401009741F48DB79EB7DE
:103250004091070150910801841B950BE817F9076D
:1032600008F055C0F0932605E0932505F901718318
:103270006083A0CF8D919C91119712966C901297BC
:1032800013967C901397A815B90559F56C0142E087
:10329000C40ED11CCA14DB0420F1AC014A195B092D
:1032A000DA011296159780F062827382518340830F
:1032B000D9016D937C93E114F10471F0D701139659
:1032C000FC93EE93129776CF22968C0F9D1FF901F7
:1032D00091838083F301EFCFF0932805E0932705D6
:1032E00069CF4816590608F42C017D01D3019ACF05
:1032F000CB010E94A8177C01009749F0AE01B801EC
:103300000E948F19C8010E944418870153CF10E012
:1033100000E050CF81E090E0F8940C949F19FB01FD
:10332000DC0102C001900D9241505040D8F7089541
:10333000FB01DC0101900D920020E1F70895F89463
:02334000FFCFBD
:1033420002000100002905800000401454004010D2
:10335200505E00BC00770100000000FB02520288B0
:10336200024803B9029702AB02000000000607D927
:10337200060E08AF06D206BF06B006000000007CAB
:103382000352020E086C04C4076803AB078C07776C
:10339200006500730050524F564C494D41006E611A
:1033A2006E00696E66006F7666000D0A004549532D
:1033B20041475747492050454C4C455400207365BE
:1033C2006300414552415320414E4F4958544F5397
:1033D200203100414552415320414E4F4958544FEC
:1033E20053203200414552415320414E4F495854D7
:1033F2004F5300414E41464C454B53492000464FE6
:10340200544941200058414D494C4920454E4155AF
:103412005349004B415953414552494120002043F1
:10342200005A455354414D4120004B414E4F4E49A5
:103432004B48204C4549542E2041004B414E4F4EA3
:10344200494B48204C4549542E204D00464F544983
:10345200410025004B4159534145524941004E45D7
:04346200524F0000C5
:00000001FF
