:020000040000FA
:100000000C9472000C949A000C949A000C949A0030
:100010000C949A000C949A000C949A000C949A00F8
:100020000C949A000C949A000C949A000C949A00E8
:100030000C949A000C949A000C949A000C949A00D8
:100040000C94360B0C949A000C949A000C949A0021
:100050000C949A000C949A000C949A000C949A00B8
:100060000C94800B0C949A00005EBCE2613FDD832F
:10007000C29C7E20A3FD1F41009D23BE46DB65F888
:100080008C11AF32CA57E974000000002400270029
:100090002A0000000000250028002B0000000008B6
:1000A000000201000003040700000000000000003F
:1000B00000000000230026002900040404040404B6
:1000C0000404020202020202030303030303010207
:1000D00004081020408001020408102001020408D6
:1000E00010209F0C11241FBECFEFD8E0DEBFCDBF84
:1000F00024E0AAEAB2E001C01D92A533B207E1F7FD
:1001000012E0A0E0B1E0E8EEF8E302C005900D9245
:10011000AA3AB107D9F710E0C2E7D0E004C02197AE
:10012000FE010E94751AC137D107C9F70E943C0D24
:100130000C94721C0C940000833081F028F4813000
:1001400099F08230A9F008958730A9F08830C9F07D
:100150008430B1F4809180008F7D03C08091800055
:100160008F7780938000089584B58F7784BD08953C
:1001700084B58F7DFBCF8091B0008F778093B000E6
:1001800008958091B0008F7DF9CFCF93DF93282F12
:1001900030E0F901E456FF4F8491F901E253FF4F3B
:1001A000D491F901E654FF4FC491CC23A1F0811101
:1001B0000E949C00EC2FF0E0EE0FFF1FE055FF4F78
:1001C000A591B491EC91ED2381E090E009F480E0F9
:1001D000DF91CF91089580E090E0FACF1F93CF9305
:1001E000DF93282F30E0F901E456FF4F8491F901A5
:1001F000E253FF4FD491F901E654FF4FC491CC2351
:10020000A9F0162F81110E949C00EC2FF0E0EE0F58
:10021000FF1FEE56FF4FA591B4918FB7F894EC9164
:10022000111108C0D095DE23DC938FBFDF91CF91F1
:100230001F910895DE2BF8CFCF93DF9390E0FC0160
:10024000E253FF4F249186549F4FFC0184918823F1
:10025000D1F090E0880F991FFC01E857FF4FA5915E
:10026000B491FC01EE56FF4FC591D49161110EC0BF
:100270009FB7F8948C91E22FE0958E238C93288180
:10028000E223E8839FBFDF91CF9108958FB7F89461
:10029000EC91E22BEC938FBFF6CF8E50806480936D
:1002A0007C0080917A00806480937A0080917A004B
:1002B00086FDFCCF809178009091790008953FB73A
:1002C000F8948091900390919103A0919203B09142
:1002D000930326B5A89B05C02F3F19F00196A11DD9
:1002E000B11D3FBFBA2FA92F982F8827BC01CD0180
:1002F000620F711D811D911D42E0660F771F881FDF
:10030000991F4A95D1F708958F929F92AF92BF920D
:10031000CF92DF92EF92FF926B017C010E945F010E
:100320004B015C01C114D104E104F104B9F00E9455
:100330005F01681979098A099B09683E7340810544
:10034000910580F321E0C21AD108E108F10888EE96
:10035000880E83E0981EA11CB11CE4CFFF90EF90A3
:10036000DF90CF90BF90AF909F908F9008952FB760
:10037000F89460918C0370918D0380918E0390911D
:100380008F032FBF08950895E0911803F09119038A
:10039000309729F01092C1031092E3030994089555
:1003A000CF93DF93AC01E0911603F09117033097E0
:1003B000F1F090911503809114039817C0F090E02C
:1003C000292F30E02617370754F4D901A455BD4F23
:1003D000240F351FE90128812C939F5FF1CF1092E4
:1003E000150360931403CB01DF91CF910994DF9142
:1003F000CF910895AF92BF92CF92DF92EF92FF928A
:100400000F931F93CF93DF936C017B018B01040F3C
:10041000151FEB015E01AE18BF08C017D10759F0D8
:100420006991D601ED91FC910190F081E02DC6011A
:100430000995892B79F7C501DF91CF911F910F9114
:10044000FF90EF90DF90CF90BF90AF900895FC01A8
:10045000448155816081718185E194E00C94FA01B9
:1004600021E001C0220F6A95EAF7DC011C962C936B
:100470001C971A965C934E931997ED91FC91048406
:10048000F585E02D60E00994DC01ED91FC91068496
:10049000F785E02D41E0099581E090E00895DC01C9
:1004A000ED91FC910684F785E02D40E009940F93CF
:1004B0001F93CF93DF93CDB7DEB728970FB6F8948D
:1004C000DEBF0FBECDBF00910C0110910D01209138
:1004D0000E0130910F010D831E832F833887009109
:1004E0001001109111012091120130911301098323
:1004F0001A832B833C8390911C04691710F06FEFD3
:10050000690F262F30E040911D042C0F3D1FF9018B
:10051000403199F4943089F46181680F606885E115
:1005200094E028960FB6F894DEBF0FBECDBFDF91E2
:10053000CF911F910F910C944F026581EECF61E036
:100540000E944F028BE39FE10197F1F708950F930B
:100550001F93CF93DF93EC01423018F08C818860B9
:100560008C834F836887222329F0413019F48C81D2
:1005700084608C8364E670E080E090E00E948401F7
:100580006C8164FD57C0E881F9810684F785E02D10
:1005900042E063E0CE0109958BE496E40197F1F720
:1005A000E881F9810684F785E02D42E063E0CE0121
:1005B000099503E512E0C8010197F1F7E881F98197
:1005C0000684F785E02D42E063E0CE010995C8017D
:1005D0000197F1F7E881F9810684F785E02D42E083
:1005E00062E0CE010995C8010197F1F76C81606264
:1005F000CE010E944F028BEE90E00197F1F784E06C
:100600008D836CE0CE010E944F02CE010E949F02BA
:1006100082E08E8366E0CE010E944F02E881F9817C
:100620000484F585E02D6FEFCE01DF91CF911F910E
:100630000F9109946062CE010E944F028BE496E410
:100640000197F1F76C816062CE010E944F0203E5D1
:1006500012E0C8010197F1F76C816062CE010E943F
:100660004F02C1CF089508950895DC0180E06150E4
:1006700090F09D919827E92FEF70F0E0E859FF4F37
:100680002491E92FE295EF70F0E0E858FF4FE491F4
:10069000822F8E27ECCF0895DC012C911196ED91DD
:1006A000FC91F8948181822B81839281322F309545
:1006B0009323928387E090E00197F1F78181832370
:1006C000818383E290E00197F1F790817894EFECD9
:1006D000F0E03197F1F7922381E009F480E008958A
:1006E000FC0190810180F281E02D292F209560FF8F
:1006F00014C0F8948281822382838181892B818333
:10070000A3E2B0E01197F1F78281982B928378945D
:1007100087ED90E00197F1F70895F89482818223A4
:1007200082838181892B8183AFEFB0E01197F1F74C
:100730008281982B928378948FE090E0EBCFDF92C8
:10074000EF92FF920F931F93CF93DF93EC01D62E7E
:10075000E42E08E010E0FF24F39461E08D2D8F215A
:1007600009F460E0CE010E947003FF0C01501109F2
:10077000A1F7E11010C0F894E981FA819181888194
:10078000809589238183E981FA819281888180958E
:10079000892382837894DF91CF911F910F91FF90ED
:1007A000EF90DF900895EF92FF920F931F93CF93F6
:1007B000DF938C017B0140E065E50E949F03E70128
:1007C00088E0E80EF11C699140E0C8010E949F0397
:1007D000CE15DF05C1F7DF91CF911F910F91FF90EB
:1007E000EF900895FC0190810180F281E02DF89452
:1007F0008181292F20958223818378943DE743E0EE
:1008000050E0315029F1DA011197F1F78081892305
:10081000C1F3F8948281822382838181892B818331
:100820007894ABE7B7E01197F1F7F89481818223D0
:100830008183A3E1B1E01197F1F78081982381E0F2
:1008400009F080E07894E3E6F6E03197F1F7089557
:1008500080E008952091ED02260F3327331F2132C7
:100860003105ECF42091BA03FC0190E080E02430E3
:1008700069F082E00895A091ED022191AC0143530B
:100880005D4FA40FB52FB11D2C930196861798F3D9
:100890008091ED02680F6093ED0280E0089581E0A1
:1008A00008951092BA0381E08093B90310929403E3
:1008B00061E082E10E94EE0061E083E10E94EE00CF
:1008C000E9EBF0E080818E7F808380818D7F808363
:1008D00088E48093B80085E48093BC000895CF93AA
:1008E000DF9391E09093CC028823B9F0C091B800D7
:1008F000D091BA008091BC008A7B8093BC0060E0FC
:1009000082E10E94EE0060E083E10E94EE000E941E
:100910005104D093BA00C093B800DF91CF910895ED
:10092000CF92DF92EF92FF920F931F93CF93DF93BB
:10093000D091E30381E0D13208F09CC0C091E20382
:100940000E945F016B017C018091BA0381116CC030
:1009500082E08093BA0381E08093B9038FEF8093A4
:10096000B8031092B703D093B603A2ECB3E0E6E964
:10097000F3E080E0D8138DC0109295038091950329
:10098000CC0FC82BC093950380919403813009F05C
:1009900084C0109294030E945F016B017C018091DE
:1009A00095038093BB008091BC039091BD03A091FF
:1009B000BE03B091BF03892B8A2B8B2BA1F00E9421
:1009C0005F010091BC031091BD032091BE033091E3
:1009D000BF036C197D098E099F09061717072807A1
:1009E000390708F442C08091BC0083FDD8CF85EC64
:1009F0008093BC000E945F016B017C018091BA036F
:100A0000823009F44CC08091B8038F3F09F469C06B
:100A10008091B803803209F466C08091B8038033B6
:100A200009F463C084E026C08091BC039091BD03AB
:100A3000A091BE03B091BF03892B8A2B8B2B09F4A5
:100A400083CF0E945F010091BC031091BD032091F0
:100A5000BE033091BF036C197D098E099F090617EB
:100A600017072807390708F06FCF8091BB030E9452
:100A70006F0485E01092C1031092E3031092C0034B
:100A8000DF91CF911F910F91FF90EF90DF90CF906A
:100A900008959D9191938F5F6DCF85EEA9CF809141
:100AA000BC039091BD03A091BE03B091BF03892BFD
:100AB0008A2B8B2B09F4A2CF0E945F010091BC030B
:100AC0001091BD032091BE033091BF036C197D09C5
:100AD0008E099F09061717072807390708F08ECFD8
:100AE000C4CF80E0C7CF82E0C5CF83E0C3CF0895F5
:100AF000E091150380911403E81730F4F0E0E45519
:100B0000FD4F808190E008958FEF9FEF08959091C1
:100B10001503809114032FEF3FEF981748F4E92F46
:100B2000F0E0E455FD4F208130E09F5F9093150386
:100B3000C90108958091140390911503891B990BA5
:100B40000895CF92DF92EF92FF920F931F93CF936E
:100B5000DF937C01CB018A012091C003222389F01D
:100B6000EB016B01C40ED51ECC15DD0569F0699152
:100B7000D701ED91FC910190F081E02DC70109951D
:100B8000F3CF642F0E942A04C801DF91CF911F91F7
:100B90000F91FF90EF90DF90CF900895CF93DF9368
:100BA0001F92CDB7DEB769832091C0032223F9F0ED
:100BB0002091E303203258F021E030E0FC01338340
:100BC000228390E080E00F90DF91CF910895809193
:100BD000C103E82FF0E0EE53FC4F998190838F5FC3
:100BE0008093C1038093E30381E090E0ECCF61E068
:100BF000CE0101960E942A04F7CFFC012381222313
:100C0000E1F08181682B6083828191E09093C00341
:100C10008093E2031092C1031092E30384EE93E009
:100C20000E94CE050E949004282F30E081E090E0E1
:100C3000232B11F090E080E0089530E020E0F6CF23
:100C4000EF92FF920F931F93CF938C01FC0184E0EE
:100C5000C0E0262F30E060FF02C09589C92BB901A2
:100C600075956795815031968111F3CF413011F41C
:100C7000F8014489F8016585C62BC42B7801FEE094
:100C8000EF0EF11CF80162896C2BC7010E94FD0573
:100C9000F801628960956C23C701CF911F910F9174
:100CA000FF90EF900C94FD050F931F93CF93DF936C
:100CB000062F0F70423041F440E0602FDF91CF915A
:100CC0001F910F910C942006142FEC0170E084E02A
:100CD000759567958A95E1F7CE010E942006412F10
:100CE000602FCE01EBCFFC0184858823A1F0218504
:100CF00032852115310521F4611107C0158606C022
:100D000021303105D9F76111F9CF85876585CF018C
:100D10000E960C94FD050895EF92FF920F931F938A
:100D2000CF93DF93EC01062FF42EE22E8B85888B78
:100D300010921503109214031092C1031092E30352
:100D40000E94510484EC91E090931303809312036A
:100D500080ED91E09093110380931003888911E056
:100D60001093C0038093E2030E94900481111CC081
:100D7000198B84EE93E00E9487058E8789898823EA
:100D800039F01F861C8260E0CE010E960E94FD05A0
:100D90002E2D4F2D602FCE01DF91CF911F910F91FE
:100DA000FF90EF900C94A702198AE8CF90E080E0C2
:100DB00008954F925F926F927F928F929F92AF921F
:100DC000BF92CF92DF92EF92FF920F931F93CF9338
:100DD000DF93CDB7DEB72C970FB6F894DEBF0FBE0A
:100DE000CDBF609147037091480380914903909172
:100DF0004A030E94131A4B017B01609143037091D7
:100E0000440380914503909146030E94131A2B01DD
:100E10006B0160914B0370914C0380914D03909155
:100E20004E030E94131A8B01072E000C880B990B9E
:100E30000E94CA1720E030E040E05FE317FD5DC08C
:100E40000E9435190E94131A162F072FB201550C54
:100E5000880B990B0E94CA1720E030E040E05FE366
:100E6000D7FC4EC00E9435190E94131AD62EC72EE9
:100E7000B401990C880B990B0E94CA1720E030E04E
:100E800040E05FE3F7FC3FC00E9435190E94131A4F
:100E900009831A8320E431E02B83CC82DD8228E5AC
:100EA00031E02E837F83688782E491E089871A8608
:100EB00084E491E08B8781E08C874CE050E0BE01B8
:100EC0006F5F7F4F84EE93E00E94A1052C960FB6D2
:100ED000F894DEBF0FBECDBFDF91CF911F910F9170
:100EE000FF90EF90DF90CF90BF90AF909F908F904A
:100EF0007F906F905F904F9008950E943419A2CF19
:100F00000E943419B1CF0E943419C0CF1F93CF93E0
:100F1000DF93162FD42FC22F682F8AE00E94EE0095
:100F2000612F82E00E94EE006D2F86E00E94EE00AD
:100F30006C2F87E0DF91CF911F910C94EE000F93FF
:100F40001F93CF938C01C62F83E00E94C500813090
:100F5000910579F42091AA023091AB022115310557
:100F600061F49093AB028093AA0210925403109202
:100F70005303CF911F910F91089521303105C9F787
:100F800084E603301105A9F480932803C09300017F
:100F900010925403109253031092AB021092AA02C3
:100FA00064EF71E080E090E0CF911F910F910C947D
:100FB000840180930001C093280385E194E00E949E
:100FC0009F02E6CFFC0101900020E9F73197AF01C5
:100FD000481B590BBC0185E194E00C94FA018F92F7
:100FE0009F92AF92BF920F931F93CF93DF93CDB792
:100FF000DEB7A1970FB6F894DEBF0FBECDBF19A222
:10100000423008F44AE08E010F5D1F4F842E912C70
:10101000B12CA12CA50194010E94531AE62FB9010D
:10102000CA01EA30F4F4E05DD801EE938D01232B80
:10103000242B252B79F790E080E0109719F0CD0153
:101040000E94E207A1960FB6F894DEBF0FBECDBF97
:10105000DF91CF911F910F91BF90AF909F908F9094
:101060000895E95CE1CF0C94E207EF92FF921F93A1
:10107000CF93DF937C01EB01142F60E080E00E94AE
:101080005702C7010E942702612F8DE00E9457027C
:1010900086E491E00E94330861E080E00E945702FC
:1010A000CE01DF91CF911F91FF90EF900C9427021A
:1010B00085E194E00E949F0261E084E00E94570273
:1010C00089E491E00E94330861E08DE00E94EE0027
:1010D00064EF71E080E090E00E94840160E08DE0C8
:1010E0000E94EE0064EF71E080E090E00C948401D7
:1010F000CF92DF92EF92FF92CF93DF936C01990F23
:10110000EE08FF08F7FE19C06DE285E194E00E9449
:101110004402EC0166277727CB016C197D098E0903
:101120009F094AE00E94EF078C0F9D1FDF91CF912E
:10113000FF90EF90DF90CF9008954AE0C701B6018D
:10114000DF91CF91FF90EF90DF90CF900C94EF075D
:101150004F925F926F927F928F929F92AF92BF92C7
:10116000CF92DF92EF92FF920F931F93CF936B0179
:101170007C01742EAC019B010E944E1A882399F0C9
:1011800082E591E0CF911F910F91FF90EF90DF905A
:10119000CF90BF90AF909F908F907F906F905F9017
:1011A0004F900C94E20746015701E894B7F82FEFEF
:1011B0003FEF4FE75FE7C501B4010E944E1A81116E
:1011C0000DC02FEF3FEF4FE75FE7C501B4010E946D
:1011D000C31718161CF486E591E0D4CF2FEF3FEF2C
:1011E0004FE75FE4C701B6010E94491A18161CF4C4
:1011F0008AE591E0C7CF2FEF3FEF4FE75FECC701E4
:10120000B6010E94C31787FDF3CF20E030E0A901AB
:10121000C701B6010E94C31710E000E087FF0AC0B3
:101220006DE285E194E00E9444028C01F7FAF094AB
:10123000F7F8F094C0E060E070E080E09FE37C1697
:1012400041F020E030E040E251E40E94A119CF5F7C
:10125000F6CFA70196010E9435192B013C010E948F
:101260001A1A4B015C014AE00E94EF077C01E00E74
:10127000F11ECC23C1F1C501B4010E94C8179B0126
:10128000AC01C301B2010E9434194B015C016EE252
:1012900085E194E00E944402E80EF91EC15018F165
:1012A00020E030E040E251E4C501B4010E94291879
:1012B0002B013C010E941A1A4B01B12CA12C4AE0CF
:1012C000C501B4010E94EF07E80EF91EC501B40183
:1012D0000E94C8179B01AC01C301B2010E943419DE
:1012E0004B015C01DBCFC701CF911F910F91FF90A4
:1012F000EF90DF90CF90BF90AF909F908F907F90B6
:101300006F905F904F9008950E945D1CFC0180815A
:101310009181009711F00C94171B08950F931F9360
:10132000CF93DF93EC0188819981009759F02A814E
:101330003B812617370730F081E0DF91CF911F9175
:101340000F9108958B016F5F7F4F0E94A01B009744
:1013500059F0998388831B830A832C813D81232B39
:1013600059F7FC011082E8CF80E0E7CFEF92FF92BF
:101370000F931F93CF93DF93EC017B0119821882A7
:101380001B821A821D821C82FB0101900020E9F75A
:1013900031978F01061B170BB8010E948E09288117
:1013A0003981811113C02115310519F0C9010E943D
:1013B000171B198218821D821C821B821A82DF91E0
:1013C000CF911F910F91FF90EF9008951D830C8393
:1013D000B701C901DF91CF911F910F91FF90EF905D
:1013E0000C946B1CEF92FF920F931F93CF93DF939C
:1013F000EC017B01FB0101900020E9F731978F019F
:10140000061B170BB8010E948E09288139818111B2
:1014100013C02115310519F0C9010E94171B19824B
:1014200018821D821C821B821A82DF91CF911F912C
:101430000F91FF90EF9008951D830C83B701C901B0
:10144000DF91CF911F910F91FF90EF900C946B1C47
:1014500085ED8093BC008091BC039091BD03A09169
:10146000BE03B091BF030796A11DB11D23E0B69541
:10147000A795979587952A95D1F72091BC0024FDD3
:1014800003C01092BA0308954091BC035091BD036C
:101490006091BE037091BF03452B462B472B69F328
:1014A0000097A105B10541F02AE22A95F1F700C0A5
:1014B0000197A109B109E1CF8091BB030C946F049E
:1014C0000C94EF18CF92DF92EF92FF920F931F933D
:1014D000CF93DF93EC018B017A0185E194E00E94C8
:1014E0009F028EE591E00E94330860E08CE00E944C
:1014F0005702CE0101960E94780861E080E00E94C8
:101500005702CC0FDD1FCE01865E9C4F6C01FC01A3
:10151000808191810E9478088BE00E94C50001972C
:1015200019F5F6018081918101968A31910514F0B7
:1015300089E190E097FF02C090E080E0F60191839E
:101540008083C65EDC4F6881C7010E94600AB801D3
:1015500082E090E0DF91CF911F910F91FF90EF908B
:10156000DF90CF900C949F0784E00E94C500019704
:1015700041F7F60120813181215031092A313105AD
:1015800014F029E130E037FF02C030E020E0F6013E
:1015900031832083D6CFCF92DF92EF92FF920F93C9
:1015A0001F93CF93DF93EC018B017A0185E194E0E7
:1015B0000E949F028DE691E00E94330860E08CE07B
:1015C0000E945702CE0101960E94780861E080E0F7
:1015D0000E945702CC0FDD1FCE01805E9C4F6C0134
:1015E000FC01808191810E9478088BE00E94C500F7
:1015F000019719F5F6018081918101968A31910553
:1016000014F089E190E097FF02C090E080E0F601DD
:1016100091838083C05EDC4F6881C7010E94600AAD
:10162000B80182E090E0DF91CF911F910F91FF9080
:10163000EF90DF90CF900C949F0784E00E94C5004C
:10164000019741F7F60120813181215031092A317A
:10165000310514F029E130E037FF02C030E020E02E
:10166000F60131832083D6CF0C94E7181F920F9296
:101670000FB60F9211242F933F938F939F93AF93A5
:10168000BF9380918C0390918D03A0918E03B091B4
:101690008F0330918B0323E0230F2D3758F50196EC
:1016A000A11DB11D20938B0380938C0390938D0318
:1016B000A0938E03B0938F03809190039091910338
:1016C000A0919203B09193030196A11DB11D809347
:1016D000900390939103A0939203B0939303BF91CF
:1016E000AF919F918F913F912F910F900FBE0F90CF
:1016F0001F90189526E8230F0296A11DB11DD2CF89
:101700001F920F920FB60F9211242F933F934F9376
:101710005F936F937F938F939F93AF93BF93EF9359
:10172000FF938091B900887F803609F44AC0F0F5B4
:10173000883209F4A7C018F5803109F49BC0B8F4C9
:10174000882309F4F9C0883009F494C0FF91EF911F
:10175000BF91AF919F918F917F916F915F914F91C9
:101760003F912F910F900FBE0F901F9018958831C9
:1017700009F488C0803251F78093B80314C08034D4
:1017800009F49DC040F48033B9F38833F9F68093AF
:10179000B80385ECB0C0803509F485C0883509F4FC
:1017A00096C0883499F60E94280AD0CF883909F467
:1017B0008CC038F5883729F050F4883611F080371E
:1017C00029F683E08093BA0310920F0357C088383C
:1017D00009F47BC0803919F0803809F0B7CF8091C7
:1017E0000F03803208F071C0E0910F0381E08E0F8B
:1017F00080930F038091BB00F0E0E151FD4F8083A7
:101800003DC0803B39F0E0F4803A09F479C0883A71
:1018100009F09CCF84E08093BA031092EE021092FC
:10182000ED02E0911203F091130309958091ED020E
:1018300081110FC081E08093ED021092CD0209C0AA
:10184000803C09F4A6CF883C09F4A3CF883B09F07B
:101850007DCFE091EE0281E08E0F8093EE02F0E00A
:10186000E353FD4F80818093BB009091EE02809105
:10187000ED0229C0809195038093BB0085EC809395
:10188000BC0064CF9091B7038091B603981758F5C8
:10189000E091B70381E08E0F8093B703F0E0EA5642
:1018A000FC4F8081E9CFE091B70381E08E0F8093F8
:1018B000B7038091BB00F0E0EA56FC4F8083909123
:1018C000B7038091B6039817C8F285E8D8CFE091A6
:1018D000B70381E08E0F8093B7038091BB00F0E0E7
:1018E000EA56FC4F80838091B90381115CCF81E07F
:1018F0008093940384EA8093BC001092BA0326CFAD
:1019000085EC8093BC001092BA0380910F03803263
:1019100030F4E0910F03F0E0E151FD4F108260914F
:101920000F0370E0E0911003F09111038FEE92E04D
:10193000099510920F030ACF1092B80334CF1F936A
:10194000CF93DF93E4EEF3E01382128288EE93E00C
:10195000A0E0B0E084839583A683B7838EE191E015
:1019600091838083CEE2D4E08AE0888319E01A83F1
:1019700088E0898361E089E00E941C0161E0888140
:101980000E941C0160E089810E941C0161E08A8143
:101990000E94EE00E5E1F4E01382128280E391E020
:1019A00091838083108A8FEF87871686118A87E25A
:1019B0008387148615861286118684E0828B82E0E6
:1019C000838BC1E0C48B80E1858B80E2868B80E4D1
:1019D000878B80E8808F50E040E063E0CF010E9479
:1019E000300260E085E00E941C01E3EDF0E0E4914C
:1019F000A7E0B4E0EC93EFEBF0E0E491F0E0EE0F61
:101A0000FF1FE055FF4F8591949112969C938E9302
:101A100011971B961C921B971D961C921D971C9646
:101A20001C921C971A961C921A9719961C92199739
:101A300018961C92189717961C92179716961C9238
:101A4000169715961C92159714961C921497139638
:101A50001C921397E0EFF3E0168A158A1182B28781
:101A6000A1871782108610821383C483C583C6831F
:101A7000DF91CF911F910895CF93DF93CDB7DEB75C
:101A800069970FB6F894DEBF0FBECDBF789484B5CA
:101A9000826084BD84B5816084BD85B5826085BD6A
:101AA00085B5816085BD80916E00816080936E00F8
:101AB00010928100809181008260809381008091EA
:101AC000810081608093810080918000816080939B
:101AD00080008091B10084608093B1008091B0005B
:101AE00081608093B00080917A00846080937A0056
:101AF00080917A00826080937A0080917A00816080
:101B000080937A0080917A00806880937A001092A6
:101B1000C10021E041E061E080E00E94860761E0D1
:101B20008AE00E941C0161E082E00E941C0161E0E9
:101B300086E00E941C0161E087E00E941C0161E0D8
:101B40008DE00E941C018BE00E94C50021E00197FE
:101B500009F020E060E0822F0E941C0183E00E94D7
:101B6000C50021E0019709F020E060E0822F0E948B
:101B70001C0184E00E94C50021E0019709F020E0EB
:101B800060E0822F0E941C0120E042E060E185E1DC
:101B900094E00E948C06E091F903F091FA03138619
:101BA0001586148612861186108617821682158273
:101BB000148213821092F7031092F8035524539461
:101BC000442443946E012AE0C20ED11C0091F90313
:101BD0001091FA03D8011D968C91882309F4D7C07F
:101BE000F8011386158614861092150310921403BB
:101BF0001092C1031092E3030E94510484EC91E01F
:101C0000909313038093120380ED91E0909311035E
:101C10008093100380E18093BA0083EC91E090936D
:101C200017038093160389ED96E090931903809330
:101C3000180388E19FE00FB6F894A89580936000A0
:101C40000FBE9093600081E090E00E94340B90E022
:101C5000909321038093200383E090E00E94340B53
:101C600090E0909323038093220385E090E00E940C
:101C7000340B90E0909325038093240382E090E05E
:101C80000E94340B90E090931B0380931A0384E02E
:101C900090E00E94340B90E090931D0380931C030E
:101CA00086E090E00E94340B90E090931F038093B5
:101CB0001E0390E0292E90E0392E11E080918A03D6
:101CC000882309F406C30E94B7016B017C0180914F
:101CD000850390918603A0918703B0918803460104
:101CE0005701881A990AAA0ABB0AD501C401883E7D
:101CF0009340A105B10508F484C28BE00E94C500A1
:101D0000019749F485E194E00E949F0280912803A5
:101D100081508093280384E00E94C500019749F414
:101D200085E194E00E949F02809128038F5F809359
:101D300028030E94B7012B013C01809189039091F7
:101D40008A03A0918B03B0918C0353014201881A3E
:101D5000990AAA0ABB0AD501C40184369105A105D6
:101D6000B10508F446C2E0912803E83008F05BC1F1
:101D70000E2E000CFF0BE154F14F0C94751AF00F6E
:101D80002610461066108610A610C610E610C80170
:101D90000E94F20381110AC0D8011B961C921B9766
:101DA0001D961C921D971C961C921ECF40E060EF62
:101DB000C8010E949F03EE24E394A12C712CFF2400
:101DC000F394C8010E944C03B82EC8010E944C0332
:101DD000B1E0BB1273C0813009F092C0E0E4EF15AE
:101DE00008F0FECED8011B967C921B97711002C0A2
:101DF0001D965C92F8018381882309F4F1CED80105
:101E00001396FE013A96055F1F4F7F018D918193D6
:101E10000A171B07D9F767E0C7010E9435039989A4
:101E20008913D4CE8091F7038F5F8093F7038A855F
:101E3000883239F008F07BC0803119F0823209F025
:101E4000C5CE8091F8038F5F8093F8038091F903EA
:101E50009091FA032091F003211122C00E94F20315
:101E6000B7018091F9039091FA030E94D30340E0F7
:101E700064EB8091F9039091FA030E949F03809193
:101E8000F9039091FA030E944C03182F8091F903F3
:101E90009091FA030E94F203111102C04092F003E4
:101EA0008091F9039091FA032A85203109F48BC0BF
:101EB0000E94F203811142C080E088C0EA2DF0E068
:101EC000B81214C0D8011B968C911B97F816B0F469
:101ED000AE0FBF1F13968C918E2191F4B12CB8E0F8
:101EE000BF1518F0D8011C96FC927F2CE00FF11F53
:101EF00083819E2D9095892383830AC08F11EECF15
:101F0000F801EA0DF11D83818E298383BB24B394EC
:101F10006B2DC8010E947003F394EE0C19F4A39486
:101F2000EE24E394B7E0BA1508F04BCF57CF8B33CC
:101F300009F487CF823409F049CE83CFB70180916D
:101F4000F9039091FA030E94D30340E06EEB809175
:101F5000F9039091FA030E949F038E010F5F1F4FB8
:101F6000780118016090F9037090FA0328E0A22E1E
:101F7000B12C912C88248394C3010E944C038111BD
:101F80009828880CF1E0AF1AB108B1F7D7019D92FB
:101F90007D01CA16DB0631F78091F9039091FA03AF
:101FA0000E94F203813009F087CFF80181918F01FF
:101FB0008111D5C7EE16FF06C1F77ECF8F3571F0C0
:101FC0008F3709F079CF8CE001C08AE09091F3035C
:101FD000981708F0FBCD8093F303F8CD8BE0F6CF94
:101FE0006CE771E0CE0101960E94B60967E871E0E6
:101FF000CE010A960E94B60950E040E0BE016F5F34
:102000007F4FCE010A960E943508CE010A960E94A3
:102010008609CE0101960E94860970E060E083E0A7
:1020200090E00E949F07E0910001E73008F0D9C0DE
:102030000E2E000CFF0BE15EFF4E0C94751AE9109A
:1020400003110C1113111A11211128116CE771E001
:10205000CE0101960E94B60967E871E0CE010A96AA
:102060000E94B60941E050E0BE016F5F7F4FCE0194
:102070000A960E943508CE010A960E948609CE0172
:1020800001960E94860961E070E0C9CF61E971E0C4
:10209000CE0101960E94B6096CE971E0CE010A9664
:1020A0000E94B60950E040E0BE016F5F7F4FCE0155
:1020B0000A960E943508CE010A960E948609CE0132
:1020C00001960E94860962E070E0A9CF61E971E0A3
:1020D000CE0101960E94B6096CE971E0CE010A9624
:1020E0000E94B60941E050E0BE016F5F7F4FCE0114
:1020F0000A960E943508CE010A960E948609CE01F2
:1021000001960E94860963E070E089CF66EA71E07B
:10211000CE0101960E94B60961EB71E0CE010A96EC
:102120000E94B60950E040E0BE016F5F7F4FCE01D4
:102130000A960E943508CE010A960E948609CE01B1
:1021400001960E94860964E070E069CF66EA71E05A
:10215000CE0101960E94B60961EB71E0CE010A96AC
:102160000E94B60941E050E0BE016F5F7F4FCE0193
:102170000A960E943508CE010A960E948609CE0171
:1021800001960E94860965E070E049CF6AE771E038
:10219000CE0101960E94B6096BEB71E0CE010A9662
:1021A0000E94B60950E040E0BE016F5F7F4FCE0154
:1021B0000A960E943508CE010A960E948609CE0131
:1021C00001960E94860966E070E029CF10922803EC
:1021D0002ACF41E050E070E060E090E080E00E94B3
:1021E000CB0A4092890350928A0360928B037092CB
:1021F0008C03C0928503D0928603E0928703F0920D
:102200008803A8950EC242E050E061E070E090E0E3
:1022100080E00E94620AE5CF43E050E062E070E0B7
:1022200081E090E0DCCF44E050E063E070E081E0EA
:1022300090E0EFCF45E050E064E070E082E090E0B5
:10224000CECF46E050E065E070E082E090E0E1CF84
:1022500085E194E00E949F0286EC91E00E943308A1
:1022600061E080E00E94570280912603909127034D
:102270000E9478088BE00E94C5000197F9F48091D4
:1022800026039091270301968A31910514F089E184
:1022900090E097FF02C090E080E090932703809346
:1022A00026036091260387E090E00E94600A66E0C2
:1022B00070E082E090E00E949F0793CF84E00E944C
:1022C000C500019771F7809126039091270301972C
:1022D000DBCF0E94B7016B017C0180917D0390915F
:1022E0007E03A0917F03B0918003A7019601281B74
:1022F000390B4A0B5B0BDA01C901883E9340A105FB
:10230000B105A0F183E00E94C500019779F58091A5
:10231000530390915403029714F010938A0385E1BC
:1023200094E00E949F0260E081E00E945702809149
:102330005303909154030E94780880915303909125
:1023400054030196909354038093530380918A031E
:10235000882321F01092540310925303C0927D03FE
:10236000D0927E03E0927F03F0928003A8950E94B2
:10237000B7016B017C010E94B70140904F03509060
:1023800050036090510370905203641975098609D7
:102390009709683E73408105910508F4A7C08091B4
:1023A000F9039091FA030E94F20340E06CEC8091F3
:1023B000F9039091FA030E949F034091F00364E4B3
:1023C0008091F9039091FA030E949F038091F40396
:1023D000882311F1E091F3038091F503882309F438
:1023E000EBC08091F0038111E7C00E94B7012B017F
:1023F0003C018091F9039091FA030E944C038130D3
:1024000059F00E94B70164197509860997096E3E53
:1024100072408105910568F381E10E944D01BC0184
:10242000990F880B990B0E94CA1760934B03709306
:102430004C0380934D0390934E038FE00E944D0117
:10244000BC01990F880B990B0E94CA176093470330
:10245000709348038093490390934A038EE00E944F
:102460004D01BC01990F880B990B0E94CA1760930C
:10247000430370934403809345039093460380E1A4
:102480000E944D01BC01990F880B990B0E94CA173D
:1024900020E030E040EA50E40E94291820E030E0DB
:1024A00040E85AE30E9429182DEC3CEC4CE45EE332
:1024B0000E94A11920E030E040E451E40E94491A52
:1024C00018160CF0A1C010938903C0924F03D0924C
:1024D0005003E0925103F09252038CE00E94C50039
:1024E000892B09F494C010934203A8958091890325
:1024F000882309F462C480914103811199C020E0CE
:1025000030E04CE052E460914703709148038091C1
:10251000490390914A030E94C31787FD11C020E030
:1025200030E041E654E460914303709144038091AC
:102530004503909146030E94491A18160CF078C082
:10254000809103019091040197FD64C021E040E077
:1025500061E081E00E94860785E194E00E949F028D
:1025600060E080E00E94570287ED91E00E9433080E
:1025700061E080E00E945702809103019091040184
:102580000E94780887EE91E00E9433088091030151
:10259000909104010197909304018093030160E0FE
:1025A00090E080E00E94600A68EE73E080E090E0D6
:1025B0000E948401A895C4CFE9508EEE92E0E330EA
:1025C00038F4F0E0EE0FFF1FEC5EFE4F808191814A
:1025D0002C01990F660877088091F103882329F070
:1025E00060E08091F2030E94EE00C301B2010E94FC
:1025F00084018091F103882309F40ECF61E080917A
:10260000F2030E94EE0008CF109289035ECF109271
:1026100042036BCF1093410361E090E080E00E94A1
:10262000600A2114310409F449CB0E94000046CB12
:1026300020E030E04AEF53E460914303709144039B
:1026400080914503909146030E94491A87FDC0C0BE
:1026500020E030E048EC51E460914703709148037A
:102660008091490390914A030E94C31718160CF4F5
:10267000AFC01093410310923E030E94B7016B015B
:102680007C010E94B70140902C0350902D03609074
:102690002E0370902F036419750986099709683E07
:1026A00073408105910508F4BCCF80913F03909160
:1026B00040039C012F5F3F4F3093400320933F0323
:1026C000AC014D50510942305105D8F421E041E0B0
:1026D00060E080E00E94860785E194E00E949F020E
:1026E00061E080E00E9457028CEE91E00E94330886
:1026F000C0922C03D0922D03E0922E03F0922F0370
:1027000080CDAC01415151094330510588F421E09D
:1027100041E060E080E00E94860785E194E00E944D
:102720009F0261E080E00E9457028DEF91E0DECFD2
:102730004897069788F421E041E060E080E00E943D
:10274000860785E194E00E949F0261E080E00E949C
:1027500057028EE092E0CACF293231054CF021E0D9
:1027600041E061E081E00E9486070E945808C0CFE6
:1027700021E041E060E081E00E94860785E194E08D
:102780000E949F0260E080E00E9457028DE192E08B
:102790000E94330880913F03909140030E94780883
:1027A00087EE91E00E94330861E080E00E945702CA
:1027B00088E292E00E9433086091430370914403E1
:1027C000809145039091460342E00E94A80890CF73
:1027D0000E94B7016E8B7F8B888F998F0E94B70103
:1027E000C0906903D0906A03E0906B03F0906C0393
:1027F0006C197D098E099F09683E7340810591051A
:1028000008F40FCF80913F0390914003019690937D
:10281000400380933F0340904303509044036090F3
:1028200045037090460320E030E041E654E4C301E4
:10283000B2010E94491A18161CF40E945808EBCFE6
:10284000C0904703D0904803E0904903F0904A03BA
:1028500020E030E0A901C701B6010E94491A87FDB6
:1028600040C020E030E040EF51E4C701B6010E94D3
:10287000C3171816B4F185E194E00E949F0260E04E
:1028800081E00E9457028FE292E00E94330861E0EB
:1028900080E00E9457028DE392E00E94330860912D
:1028A0004703709148038091490390914A0342E0A5
:1028B0000E94A80888E492E00E94330821E041E0E9
:1028C00060E080E00E9486078E889F88A88CB98C83
:1028D0008092690390926A03A0926B03B0926C039A
:1028E00090CC20E030E040EF51E4C701B6010E94F7
:1028F000491A18160CF042C020E030E042E852E4D9
:10290000C701B6010E94C31787FF38C01092400369
:1029100010923F031092410361E087E00E94EE00B5
:1029200060E08AE00E94EE0061E082E00E94EE003A
:1029300085E194E00E949F0260E080E00E945702DF
:102940008BE492E00E94330861E080E00E9457022D
:102950008DE392E00E943308609147037091480331
:102960008091490390914A0342E00E94A80888E4BC
:1029700092E00E94330810933E03A6CF20E030E09F
:1029800042E852E4C701B6010E94491A87FD9CCF74
:102990000091420301110AC261E087E00E94EE004B
:1029A00060E08AE00E94EE0061E082E00E94EE00BA
:1029B000C0904B03D0904C03E0904D03F0904E0339
:1029C00020E030E04CE452E4C701B6010E94C31796
:1029D00018160CF443C180910501882309F43EC107
:1029E0000E94B701C0905D03D0905E03E0905F034A
:1029F000F0906003E09132034B015C018C189D085C
:102A0000AE08BF0875016401EE2309F413C128EB79
:102A1000C2162BE0D206E104F10470F010923203EA
:102A200060935D0370935E0380935F0390936003F4
:102A300061E086E00E94EE0010933E030E94B70121
:102A40006B017C0120E030EC4FE754E4C301B2019C
:102A50000E94A1199B01AC0160E070E080E89FE357
:102A60000E94341920E030E048EC52E40E9429181A
:102A700060933A0370933B0380933C0390933D0330
:102A80006BE771E0CE0101960E94B60964E572E041
:102A9000002311F065E672E0CE0101960E94F20972
:102AA00080916D0390916E03A0916F03B0917003BC
:102AB00046015701881A990AAA0ABB0AD501C4011E
:102AC000883E9340A105B10578F185E194E00E942C
:102AD0009F0260E080E00E945702CE0101960E94B2
:102AE000270261E080E00E94570286E792E00E94A0
:102AF000330861E086E00E94570260913A037091CA
:102B00003B0380913C0390913D0342E00E94A80862
:102B10008CE792E00E943308C0926D03D0926E035E
:102B2000E0926F03F09270038091710390917203B1
:102B3000A0917303B091740346015701881A990A52
:102B4000AA0ABB0AD501C401803D9740A105B10581
:102B500058F185E194E00E949F0260E080E00E94CD
:102B60005702CE0101960E94270261E080E00E9498
:102B700057028EE792E00E94330861E08BE00E94EA
:102B800057026091470370914803809149039091E7
:102B90004A0342E00E94A808C0927103D0927203D7
:102BA000E0927303F0927403809175039091760321
:102BB000A0917703B091780346015701881A990ACA
:102BC000AA0ABB0AD501C401883B9B40A105B105F7
:102BD00058F185E194E00E949F0260E080E00E944D
:102BE0005702CE0101960E94270261E080E00E9418
:102BF000570288E892E00E94330861E08BE00E946F
:102C0000570260914B0370914C0380914D0390915A
:102C10004E0342E00E94A808C0927503D09276034A
:102C2000E0927703F0927803CE0101960E94860924
:102C3000A8954ACE30E1C31637E2D306E104F10489
:102C400008F4FACE1093320360935D0370935E0331
:102C500080935F039093600360E0EBCE20E030E070
:102C600044E352E4C701B6010E94491A87FD59C0E6
:102C700020E030E04CE452E4C701B6010E94C317E3
:102C800087FF4FC00E94B70180906103909062035C
:102C9000A0906303B0906403E09133039B01AC0107
:102CA000281939094A095B092A8B3B8B4C8B5D8BB0
:102CB000EE2301F1283B3B404105510570F0109295
:102CC0003303609361037093620380936303909373
:102CD000640361E086E00E94EE0020E030E044E31F
:102CE00052E4C701B6010E94C31787FFA5CE109317
:102CF0000501A2CE8A889B88AC88BD8820E1821617
:102D000027E29206A104B10440F3109333036093C9
:102D1000610370936203809363039093640360E0A4
:102D2000D9CF0E94B7018090650390906603A09070
:102D30006703B0906803E09134039B01AC0128194C
:102D400039094A095B092A8B3B8B4C8B5D8BEE233F
:102D5000B1F0283B3B404105510570F0109234031F
:102D60006093650370936603809367039093680391
:102D700061E086E00E94EE0010920501AECF8A88E5
:102D80009B88AC88BD8820E1821627E29206A104C8
:102D9000B10490F31093340360936503709366035A
:102DA000809367039093680360E0E3CF20E041E005
:102DB00061E080E00E9486073FCE0E94B7016B0170
:102DC0007C018091790390917A03A0917B03B0916B
:102DD0007C03A7019601281B390B4A0B5B0BDA0118
:102DE000C901883E9340A105B10508F41ACC809131
:102DF0003E03882309F473C080912B0381114DC0D9
:102E0000809101019091020197FD36C021E041E0DF
:102E100061E080E00E94860785E194E00E949F02C5
:102E200060E080E00E9457028DE892E00E94330843
:102E300061E080E00E9457028091010190910201BF
:102E40000E94780887EE91E00E943308809101018A
:102E5000909102010197909302018093010160E03B
:102E600090E080E00E94600A68EE73E080E090E00D
:102E70000E948401A895C4CF61E090E080E00E94A8
:102E8000600A10932B03A895C0927903D0927A031D
:102E9000E0927B03F0927C03C4CB85E194E00E9436
:102EA0009F0260E080E00E94570289E992E00E9460
:102EB000330861E080E00E945702609147037091FF
:102EC00048038091490390914A0342E00E94A80878
:102ED00021E041E061E081E00E948607D4CF80914B
:102EE000290390912A030597ACF585E194E00E94AF
:102EF0009F0260E080E00E94570281EA92E00E9417
:102F0000330860E089E00E94570280912903909184
:102F10002A030E94780861E080E00E9457026091D5
:102F20004703709148038091490390914A0342E01E
:102F30000E94A80821E041E061E080E00E9486074D
:102F40008091290390912A03019690932A038093FC
:102F5000290399CF10933E0310932B03F1CF68E020
:102F6000C1010E943503998589130C945C0F8D81F2
:102F70008F3309F42AC808F021C88F3111F00C945E
:102F80005C0F89E023C80E94051808F481E00895C9
:102F9000E89409C097FB3EF49095809570956195F3
:102FA0007F4F8F4F9F4F9923A9F0F92F96E9BB27A9
:102FB0009395F695879577956795B795F111F8CF25
:102FC000FAF4BB0F11F460FF1BC06F5F7F4F8F4F90
:102FD0009F4F16C0882311F096E911C0772321F086
:102FE0009EE8872F762F05C0662371F096E8862F1E
:102FF00070E060E02AF09A95660F771F881FDAF775
:10300000880F9695879597F90895990F0008550FA1
:10301000AA0BE0E8FEEF16161706E807F907C0F05E
:1030200012161306E407F50798F0621B730B840B66
:10303000950B39F40A2661F0232B242B252B21F440
:1030400008950A2609F4A140A6958FEF811D811DE0
:1030500008950E943C180C94AD180E949F1838F0F7
:103060000E94A61820F0952311F00C9496180C9449
:103070009C1811240C94E1180E94BE1870F3959FBF
:10308000C1F3950F50E0551F629FF001729FBB275F
:10309000F00DB11D639FAA27F00DB11DAA1F649FFB
:1030A0006627B00DA11D661F829F2227B00DA11DAE
:1030B000621F739FB00DA11D621F839FA00D611D34
:1030C000221F749F3327A00D611D231F849F600D55
:1030D000211D822F762F6A2F11249F5750409AF07E
:1030E000F1F088234AF0EE0FFF1FBB1F661F771F0A
:1030F000881F91505040A9F79E3F510580F00C94D5
:1031000096180C94E1185F3FE4F3983ED4F386954B
:1031100077956795B795F795E7959F5FC1F7FE2B74
:10312000880F911D9695879597F9089597F99F6750
:1031300080E870E060E008959FEF80EC089500243F
:103140000A941616170618060906089500240A940C
:1031500012161306140605060895092E0394000C92
:1031600011F4882352F0BB0F40F4BF2B11F460FF21
:1031700004C06F5F7F4F8F4F9F4F089557FD90584A
:10318000440F551F59F05F3F71F04795880F97FB2B
:10319000991F61F09F3F79F08795089512161306E5
:1031A0001406551FF2CF4695F1DF08C01616170614
:1031B0001806991FF1CF8695710561050894089549
:1031C000E894BB2766277727CB0197F90895F999EB
:1031D000FECF92BD81BDF89A992780B50895262F1C
:1031E000F999FECF1FBA92BD81BD20BD0FB6F894EC
:1031F000FA9AF99A0FBE019608952F923F924F9234
:103200005F926F927F928F929F92AF92BF92CF9276
:10321000DF92EF92FF920F931F93CF93DF93CDB77F
:10322000DEB7CA1BDB0B0FB6F894DEBF0FBECDBFF7
:1032300009942A88398848885F846E847D848C84C8
:103240009B84AA84B984C884DF80EE80FD800C81D1
:103250001B81AA81B981CE0FD11D0FB6F894DEBFB4
:103260000FBECDBFED0108955058BB27AA270E947D
:103270004C190C94AD180E949F1838F00E94A618A3
:1032800020F039F49F3F19F426F40C949C180EF4A6
:10329000E095E7FB0C949618E92F0E94BE1858F3AE
:1032A000BA17620773078407950720F079F4A6F52B
:1032B0000C94E0180EF4E0950B2EBA2FA02D0B0104
:1032C000B90190010C01CA01A0011124FF27591B6B
:1032D00099F0593F50F4503E68F11A16F040A22F71
:1032E000232F342F4427585FF3CF469537952795E2
:1032F000A795F0405395C9F77EF41F16BA0B620BE1
:10330000730B840BBAF09150A1F0FF0FBB1F661F27
:10331000771F881FC2F70EC0BA0F621F731F841F6A
:1033200048F4879577956795B795F7959E3F08F090
:10333000B0CF9395880F08F09927EE0F9795879552
:1033400008950E94B5190C94AD180E94A61858F063
:103350000E949F1840F029F45F3F29F00C949618C2
:1033600051110C94E1180C949C180E94BE1868F33B
:103370009923B1F3552391F3951B550BBB27AA272E
:1033800062177307840738F09F5F5F4F220F331F68
:10339000441FAA1FA9F335D00E2E3AF0E0E832D030
:1033A00091505040E695001CCAF72BD0FE2F29D033
:1033B000660F771F881FBB1F261737074807AB0705
:1033C000B0E809F0BB0B802DBF01FF2793585F4F7A
:1033D0003AF09E3F510578F00C9496180C94E11841
:1033E0005F3FE4F3983ED4F3869577956795B7955C
:1033F000F7959F5FC9F7880F911D9695879597F967
:103400000895E1E0660F771F881FBB1F62177307DF
:103410008407BA0720F0621B730B840BBA0BEE1FF4
:1034200088F7E09508950E941A1A6894B1110C94D7
:10343000E11808950E94C61888F09F5798F0B92F98
:103440009927B751B0F0E1F0660F771F881F991FD9
:103450001AF0BA95C9F714C0B13091F00E94E01883
:10346000B1E008950C94E018672F782F8827B85F93
:1034700039F0B93FCCF3869577956795B395D9F731
:103480003EF490958095709561957F4F8F4F9F4F3B
:1034900008950E94051808F48FEF08950E940518FA
:1034A000880B990B0895A1E21A2EAA1BBB1BFD01E4
:1034B0000DC0AA1FBB1FEE1FFF1FA217B307E40713
:1034C000F50720F0A21BB30BE40BF50B661F771F6B
:1034D000881F991F1A9469F760957095809590954B
:1034E0009B01AC01BD01CF010895EE0FFF1F0590B8
:1034F000F491E02D09940F931F93CF93DF938230C3
:10350000910510F482E090E0E0913304F0913404EE
:1035100030E020E0B0E0A0E0309799F421153105CB
:1035200009F44AC0281B390B24303105D8F58A81AB
:103530009B816115710589F1FB0193838283FE01F3
:1035400011C0408151810281138148175907E0F071
:103550004817590799F4109761F012960C93129737
:1035600013961C933296CF01DF91CF911F910F914B
:1035700008950093330410933404F4CF21153105DA
:1035800051F04217530738F0A901DB019A01BD0140
:10359000DF01F801C1CFEF01F9CF9093340480939C
:1035A0003304CDCFFE01E20FF31F8193919322509C
:1035B000310939832883D7CF2091310430913204E7
:1035C000232B41F4209108013091090130933204FA
:1035D0002093310420910601309107012115310516
:1035E00041F42DB73EB740910A0150910B01241BC5
:1035F000350BE0913104F0913204E217F307A0F4A7
:103600002E1B3F0B2817390778F0AC014E5F5F4F38
:103610002417350748F04E0F5F1F50933204409334
:103620003104819391939FCFF0E0E0E09CCFCF9362
:10363000DF930097E9F0FC01329713821282A09188
:103640003304B0913404ED0130E020E01097A1F490
:1036500020813181820F931F2091310430913204F7
:103660002817390709F061C0F0933204E093310460
:10367000DF91CF910895EA01CE17DF07E8F54A817F
:103680005B819E0141155105B1F7E901FB83EA8396
:1036900049915991C40FD51FEC17FD0761F4808142
:1036A00091810296840F951FE90199838883828115
:1036B00093819B838A83F0E0E0E012968D919C9148
:1036C00013970097B9F52D913C911197CD01029672
:1036D000820F931F2091310430913204281739074B
:1036E00039F6309751F51092340410923304B093A8
:1036F0003204A0933104BCCFD383C2834081518173
:10370000840F951FC817D90761F44E5F5F4F8881FA
:103710009981480F591F518340838A819B819383EC
:1037200082832115310509F0B0CFF0933404E09382
:1037300033049ECFFD01DC01C0CF13821282D7CFAC
:10374000B0E0A0E0E6EAFBE10C94FF188C010097E2
:1037500051F4CB010E947B1A8C01C801CDB7DEB7B2
:10376000E0E10C941B19FC01E60FF71F9C012250AD
:103770003109E217F30708F49DC0D901CD91DC911E
:103780001197C617D70798F0C530D10530F3CE0191
:1037900004978617970708F3C61BD70B2297C19388
:1037A000D1936D937C93CF010E94171BD6CF5B0101
:1037B000AC1ABD0A4C018C0E9D1EA0913304B09131
:1037C0003404512C412CF12CE12C109731F58091CF
:1037D0003104909132048815990509F05CC04616B1
:1037E000570608F058C08091060190910701009794
:1037F00041F48DB79EB740910A0150910B01841B93
:10380000950BE817F90708F055C0F0933204E093E0
:103810003104F90171836083A0CF8D919C91119740
:1038200012966C90129713967C901397A815B90571
:1038300059F56C0142E0C40ED11CCA14DB0420F11E
:10384000AC014A195B09DA011296159780F0628281
:10385000738251834083D9016D937C93E114F10409
:1038600071F0D7011396FC93EE93129776CF2296C0
:103870008C0F9D1FF90191838083F301EFCFF093AB
:103880003404E093330469CF4816590608F42C0138
:103890007D01D3019ACFCB010E947B1A7C01009756
:1038A00049F0AE01B8010E94621CC8010E94171BBA
:1038B000870153CF10E000E050CF81E090E0F89412
:1038C0000C94721CFB01DC0102C001900D9241506E
:1038D0005040D8F70895FB01DC0101900D920020C3
:1038E000E1F70895F894FFCFC8020002000100003C
:1038F0003504800000401454004010505E00BC00AD
:10390000770100000000CE05A105D60677059A05CF
:1039100087057805000000004402FA01D60634034A
:103920008C063002730654067700650073003C2D48
:103930000050524F564C494D41006E616E00696E09
:1039400066006F76660058524F4E4F5320524953CF
:1039500050203D200058524F4E4F5320414E414D74
:10396000203D200058524F4E2E5249502E310058C3
:10397000524F4E2E414E2E310058524F4E2E52492C
:10398000502E320058524F4E2E414E2E3200585279
:103990004F4E2E5249502E330058524F4E2E414E0C
:1039A0002E330058524F4E2E412E50454C0041525E
:1039B00058494B4F2050454C4C4554203D20004524
:1039C000495341475747492050454C4C45540020E6
:1039D00073656300414552415320414E4F4958544D
:1039E0004F53203100414552415320414E4F4958D9
:1039F000544F53203200414552415320414E4F49CC
:103A000058544F5300414E41464C454B53492000BA
:103A1000464F544941200058414D494C4920454E9C
:103A200041555349004B41595341455249412000AA
:103A30002043005A455354414D4120004B414E4FC5
:103A40004E494B48204C4549542E2041004B414E95
:103A50004F4E494B48204C4549542E204D00464F6F
:103A60005449410025004B415953414552494100B9
:103A70004E45524F004B415448415249534D4F53CC
:103A8000004B4C454953544F004B4C454953494D0D
:023A90004F00E5
:107E0000112484B714BE81FFF0D085E080938100F7
:107E100082E08093C00088E18093C10086E0809377
:107E2000C20080E18093C4008EE0C9D0259A86E02C
:107E300020E33CEF91E0309385002093840096BBD3
:107E4000B09BFECF1D9AA8958150A9F7CC24DD24C4
:107E500088248394B5E0AB2EA1E19A2EF3E0BF2EE7
:107E6000A2D0813461F49FD0082FAFD0023811F036
:107E7000013811F484E001C083E08DD089C08234E0
:107E800011F484E103C0853419F485E0A6D080C0E4
:107E9000853579F488D0E82EFF2485D0082F10E0AE
:107EA000102F00270E291F29000F111F8ED06801E7
:107EB0006FC0863521F484E090D080E0DECF843638
:107EC00009F040C070D06FD0082F6DD080E0C81688
:107ED00080E7D80618F4F601B7BEE895C0E0D1E017
:107EE00062D089930C17E1F7F0E0CF16F0E7DF06D8
:107EF00018F0F601B7BEE89568D007B600FCFDCFD4
:107F0000A601A0E0B1E02C9130E011968C91119780
:107F100090E0982F8827822B932B1296FA010C0160
:107F200087BEE89511244E5F5F4FF1E0A038BF0790
:107F300051F7F601A7BEE89507B600FCFDCF97BE46
:107F4000E89526C08437B1F42ED02DD0F82E2BD052
:107F50003CD0F601EF2C8F010F5F1F4F84911BD097
:107F6000EA94F801C1F70894C11CD11CFA94CF0C13
:107F7000D11C0EC0853739F428D08EE10CD085E9AC
:107F80000AD08FE07ACF813511F488E018D01DD067
:107F900080E101D065CF982F8091C00085FFFCCF94
:107FA0009093C60008958091C00087FFFCCF809118
:107FB000C00084FD01C0A8958091C6000895E0E648
:107FC000F0E098E1908380830895EDDF803219F02E
:107FD00088E0F5DFFFCF84E1DECF1F93182FE3DFCA
:107FE0001150E9F7F2DF1F91089580E0E8DFEE27F6
:047FF000FF270994CA
:027FFE00040479
:00000001FF
