:020000040000FA
:100000000C9472000C949A000C949A000C949A0030
:100010000C949A000C949A000C949A000C949A00F8
:100020000C949A000C949A000C949A000C949A00E8
:100030000C949A000C949A000C949A000C949A00D8
:100040000C94160C0C949A000C94860C0C94600C76
:100050000C949A000C949A000C949A000C949A00B8
:100060000C94B80C0C949A00005EBCE2613FDD83F6
:10007000C29C7E20A3FD1F41009D23BE46DB65F888
:100080008C11AF32CA57E974000000002400270029
:100090002A0000000000250028002B0000000008B6
:1000A000000201000003040700000000000000003F
:1000B00000000000230026002900040404040404B6
:1000C0000404020202020202030303030303010207
:1000D00004081020408001020408102001020408D6
:1000E0001020D70D11241FBECFEFD8E0DEBFCDBF4B
:1000F00011E0A0E0B1E0E6E1FDE202C005900D9262
:10010000A43EB107D9F724E0A4EEB1E001C01D92EE
:10011000A13EB207E1F710E0C2E7D0E004C02197AA
:10012000FE010E946F16C137D107C9F70E94AA0EBF
:100130000C9489160C94000090E0FC01E456FF4FEB
:100140002491FC01E253FF4F3491FC01E654FF4F30
:10015000E491EE23C9F0222339F0233001F1A8F411
:10016000213019F1223029F1F0E0EE0FFF1FEE5699
:10017000FF4FA591B4918FB7F894EC91611126C00F
:1001800030953E233C938FBF08952730A9F0283047
:10019000C9F0243049F7809180008F7D03C08091A1
:1001A00080008F7780938000DFCF84B58F7784BD08
:1001B000DBCF84B58F7DFBCF8091B0008F778093AC
:1001C000B000D2CF8091B0008F7DF9CF3E2BDACF37
:1001D000CF93DF9390E0FC01E253FF4F24918654CC
:1001E0009F4FFC0184918823D1F090E0880F991FE4
:1001F000FC01E857FF4FA591B491FC01EE56FF4F6B
:10020000C591D49161110EC09FB7F8948C91E22FE3
:10021000E0958E238C932881E223E8839FBFDF91B2
:10022000CF9108958FB7F894EC91E22BEC938FBFA8
:10023000F6CF8E50806480937C0080917A00806439
:1002400080937A0080917A0086FDFCCF80917800BF
:100250009091790008953FB7F89480916F02909142
:100260007002A0917102B091720226B5A89B05C0E0
:100270002F3F19F00196A11DB11D3FBFBA2FA92F25
:10028000982F8827BC01CD01620F711D811D911D22
:1002900042E0660F771F881F991F4A95D1F708958E
:1002A0008F929F92AF92BF92CF92DF92EF92FF9286
:1002B0006B017C010E942B014B015C01C114D10434
:1002C000E104F104B9F00E942B01681979098A0947
:1002D0009B09683E73408105910580F321E0C21AB5
:1002E000D108E108F10888EE880E83E0981EA11C71
:1002F000B11CE4CFFF90EF90DF90CF90BF90AF9014
:100300009F908F9008952FB7F89460916B02709131
:100310006C0280916D0290916E022FBF08954F92F2
:100320005F926F927F928F929F92AF92BF92CF9285
:10033000DF92EF92FF920F931F93CF93DF9300D042
:1003400000D000D0CDB7DEB79E838D8349835A831A
:100350006B837C83280139010E9483016B017C013E
:100360000D811E81000F111F000F111F0D531D4F16
:10037000F80140815181628173818D819E81855117
:100380009D4F9E838D83FC01808146015701841A15
:10039000950AA60AB70AA8EEB3E0882349F1A3019B
:1003A00092010E94501686169706A806B906B0F16B
:1003B0001082F801C082D182E282F38260E086E09E
:1003C00026960FB6F894DEBF0FBECDBFDF91CF915A
:1003D0001F910F91FF90EF90DF90CF90BF90AF9063
:1003E0009F908F907F906F905F904F900C949C00A7
:1003F00029813A814B815C810E94501686169706AE
:10040000A806B90658F081E0ED81FE818083F801ED
:10041000C082D182E282F38261E0D1CF26960FB60C
:10042000F894DEBF0FBECDBFDF91CF911F910F912A
:10043000FF90EF90DF90CF90BF90AF909F908F9004
:100440007F906F905F904F9008950895E0915002D3
:10045000F0915102309729F01092A0021092C2023E
:1004600009940895CF93DF93AC01E0914E02F0918F
:100470004F023097F1F090914D0280914C02981705
:10048000C0F090E0292F30E02617370754F4D90147
:10049000AC51BE4F240F351FE90128812C939F5F7B
:1004A000F1CF10924D0260934C02CB01DF91CF91BE
:1004B0000994DF91CF910895AF92BF92CF92DF92CE
:1004C000EF92FF920F931F93CF93DF936C017B0109
:1004D0008B01040F151FEB015E01AE18BF08C0179A
:1004E000D10759F06991D601ED91FC910190F0810D
:1004F000E02DC6010995892B79F7C501DF91CF91D0
:100500001F910F91FF90EF90DF90CF90BF90AF9031
:100510000895FC01538D448D252F30E0842F90E009
:10052000821B930B541710F0CF96089501970895EE
:10053000FC01918D828D981761F0A28DAE0FBF2FB7
:10054000B11D5D968C91928D9F5F9F73928F90E00D
:1005500008958FEF9FEF0895FC01918D828D98177C
:1005600031F0828DE80FF11D858D90E008958FEFB9
:100570009FEF0895FC01918D228D892F90E0805C82
:100580009F4F821B91098F739927089585EF92E001
:100590000E94BA0221E0892B09F420E0822F0895FD
:1005A00080E090E0892B29F00E94C60281110C9412
:1005B00000000895FC01A48DA80FB92FB11DA35A06
:1005C000BF4F2C91848D90E001968F739927848F73
:1005D000A689B7892C93A089B1898C918370806496
:1005E0008C93938D848D981306C00288F389E02D37
:1005F00080818F7D80830895EF92FF920F931F93E8
:10060000CF93DF93EC0181E0888F9B8D8C8D9813C5
:100610001AC0E889F989808185FF15C09FB7F894D1
:10062000EE89FF896083E889F9898081837080641D
:1006300080839FBF81E090E0DF91CF911F910F9168
:10064000FF90EF900895F62E0B8D10E00F5F1F4F77
:100650000F731127E02E8C8D8E110CC00FB607FC86
:10066000FACFE889F989808185FFF5CFCE010E9414
:10067000DA02F1CFEB8DEC0FFD2FF11DE35AFF4FA6
:10068000F0829FB7F8940B8FEA89FB8980818062A2
:10069000CFCFCF93DF93EC01888D8823B9F0AA895F
:1006A000BB89E889F9898C9185FD03C0808186FD2D
:1006B0000DC00FB607FCF7CF8C9185FFF2CF80817C
:1006C00085FFEDCFCE010E94DA02E9CFDF91CF9115
:1006D000089521E001C0220F6A95EAF7DC011C961B
:1006E0002C931C971A965C934E931997ED91FC915D
:1006F0000484F585E02D60E00994DC01ED91FC9126
:100700000684F785E02D41E0099581E090E00895A9
:10071000DC01ED91FC910684F785E02D40E0099421
:100720000F931F93CF93DF93CDB7DEB728970FB604
:10073000F894DEBF0FBECDBF0091030110910401FC
:1007400020910501309106010D831E832F83388788
:1007500000910701109108012091090130910A01CF
:1007600009831A832B833C839091CA03691710F085
:100770006FEF690F262F30E04091CB032C0F3D1F08
:10078000F901403199F4943089F46181680F60680F
:1007900083EC93E028960FB6F894DEBF0FBECDBF72
:1007A000DF91CF911F910F910C9488036581EECF5B
:1007B00061E00E9488038BE39FE10197F1F70895C0
:1007C0000F931F93CF93DF93EC01423018F08C818D
:1007D00088608C834F836887222329F0413019F485
:1007E0008C8184608C8364E670E080E090E00E94FD
:1007F00050016C8164FD57C0E881F9810684F7855A
:10080000E02D42E063E0CE0109958BE496E4019788
:10081000F1F7E881F9810684F785E02D42E063E095
:10082000CE01099503E512E0C8010197F1F7E881CF
:10083000F9810684F785E02D42E063E0CE01099559
:10084000C8010197F1F7E881F9810684F785E02D69
:1008500042E062E0CE010995C8010197F1F76C8191
:100860006062CE010E9488038BEE90E00197F1F761
:1008700084E08D836CE0CE010E948803CE010E944B
:10088000D80382E08E8366E0CE010E948803E8816F
:10089000F9810484F585E02D6FEFCE01DF91CF91D2
:1008A0001F910F9109946062CE010E9488038BE42E
:1008B00096E40197F1F76C816062CE010E94880393
:1008C00003E512E0C8010197F1F76C816062CE0187
:1008D0000E948803C1CF089508950895DC0180E047
:1008E000615090F09D919827E92FEF70F0E0E85962
:1008F000FF4F2491E92FE295EF70F0E0E858FF4FA9
:10090000E491822F8E27ECCF0895DC012C91119673
:10091000ED91FC91F8948181822B81839281322F19
:1009200030959323928387E090E00197F1F78181DE
:100930008323818383E290E00197F1F7908178949B
:10094000EFECF0E03197F1F7922381E009F480E0D9
:100950000895FC0190810180F281E02D292F2095DE
:1009600060FF14C0F8948281822382838181892B65
:100970008183A3E2B0E01197F1F78281982B9283F3
:10098000789487ED90E00197F1F70895F8948281CB
:10099000822382838181892B8183AFEFB0E011971D
:1009A000F1F78281982B928378948FE090E0EBCFDF
:1009B000DF92EF92FF920F931F93CF93DF93EC019F
:1009C000D62EE42E08E010E0FF24F39461E08D2D94
:1009D0008F2109F460E0CE010E94A904FF0C0150B0
:1009E0001109A1F7E11010C0F894E981FA81918111
:1009F0008881809589238183E981FA819281888128
:100A00008095892382837894DF91CF911F910F91F4
:100A1000FF90EF90DF900895EF92FF920F931F9356
:100A2000CF93DF938C017B0140E065E50E94D80401
:100A3000E70188E0E80EF11C699140E0C8010E94DE
:100A4000D804CE15DF05C1F7DF91CF911F910F912B
:100A5000FF90EF900895FC0190810180F281E02DDC
:100A6000F8948181292F20958223818378943DE712
:100A700043E050E0315029F1DA011197F1F780811C
:100A80008923C1F3F8948281822382838181892B17
:100A900081837894ABE7B7E01197F1F7F8948181FF
:100AA00082238183A3E1B1E01197F1F7808198233C
:100AB00081E009F080E07894E3E6F6E03197F1F721
:100AC000089580E008956F927F928F929F92AF92E7
:100AD000BF92CF92DF92EF92FF920F931F93CF932B
:100AE000DF938C01EB018091A7039091A8030E94F2
:100AF0002B05882309F43FC0B8018091A70390918A
:100B0000A8030E940C0540E06EEB8091A703909132
:100B1000A8030E94D8047E016E0189E0C80ED11C92
:100B20008E01A090A703B090A80388E0882E912C96
:100B3000712C66246394C5010E9485048111762876
:100B4000660CE1E08E1A9108B1F7F80171928F01FD
:100B5000CE16DF0631F78091A7039091A8030E947B
:100B60002B05813041F4F70181917F01811105C08E
:100B7000E017F107C1F790E008C068E0CE010E94DD
:100B80006E0491E028852813F6CF892FDF91CF914D
:100B90001F910F91FF90EF90DF90CF90BF90AF909B
:100BA0009F908F907F906F90089520912502260F3F
:100BB0003327331F21323105ECF420919902FC01D7
:100BC00090E080E0243069F082E00895A091250251
:100BD0002191AC014B5F5D4FA40FB52FB11D2C933C
:100BE0000196861798F380912502680F609325027D
:100BF00080E0089581E008951092990281E0809349
:100C000098021092730261E082E10E949C0061E010
:100C100083E10E949C00E9EBF0E080818E7F80837D
:100C200080818D7F808388E48093B80085E4809301
:100C3000BC000895CF93DF9391E090930402882342
:100C4000B9F0C091B800D091BA008091BC008A7B05
:100C50008093BC0060E082E10E949C0060E083E140
:100C60000E949C000E94FC05D093BA00C093B8007B
:100C7000DF91CF910895CF92DF92EF92FF920F9381
:100C80001F93CF93DF93D091C20281E0D13208F05D
:100C90009CC0C091C1020E942B016B017C0180911C
:100CA000990281116CC082E08093990281E0809367
:100CB00098028FEF8093970210929602D09395023C
:100CC000A1EAB2E0E5E7F2E080E0D8138DC010922F
:100CD000740280917402CC0FC82BC093740280916F
:100CE0007302813009F084C0109273020E942B01BC
:100CF0006B017C01809174028093BB0080919B0208
:100D000090919C02A0919D02B0919E02892B8A2B0A
:100D10008B2BA1F00E942B0100919B0210919C0251
:100D200020919D0230919E026C197D098E099F09C8
:100D3000061717072807390708F442C08091BC003E
:100D400083FDD8CF85EC8093BC000E942B016B0102
:100D50007C0180919902823009F44CC08091970205
:100D60008F3F09F469C080919702803209F466C010
:100D700080919702803309F463C084E026C080919B
:100D80009B0290919C02A0919D02B0919E02892BA2
:100D90008A2B8B2B09F483CF0E942B0100919B029D
:100DA00010919C0220919D0230919E026C197D0948
:100DB0008E099F09061717072807390708F06FCF14
:100DC00080919A020E941A0685E01092A002109269
:100DD000C20210929F02DF91CF911F910F91FF905D
:100DE000EF90DF90CF9008959D9191938F5F6DCF9D
:100DF00085EEA9CF80919B0290919C02A0919D02CB
:100E0000B0919E02892B8A2B8B2B09F4A2CF0E94D2
:100E10002B0100919B0210919C0220919D02309128
:100E20009E026C197D098E099F090617170728076E
:100E3000390708F08ECFC4CF80E0C7CF82E0C5CF9E
:100E400083E0C3CF0895E0914D0280914C02E817F2
:100E500030F4F0E0EC51FE4F808190E008958FEF88
:100E60009FEF089590914D0280914C022FEF3FEF3C
:100E7000981748F4E92FF0E0EC51FE4F208130E064
:100E80009F5F90934D02C901089580914C0290910B
:100E90004D02891B990B0895CF92DF92EF92FF923A
:100EA0000F931F93CF93DF937C01CB018A01209195
:100EB0009F02222389F0EB016B01C40ED51ECC15D5
:100EC000DD0569F06991D701ED91FC910190F08108
:100ED000E02DC7010995F3CF642F0E94D505C80105
:100EE000DF91CF911F910F91FF90EF90DF90CF9006
:100EF0000895CF93DF931F92CDB7DEB7698320911A
:100F00009F022223F9F02091C202203258F021E002
:100F100030E0FC013383228390E080E00F90DF918A
:100F2000CF9108958091A002E82FF0E0EF55FD4F9A
:100F3000998190838F5F8093A0028093C20281E0A9
:100F400090E0ECCF61E0CE0101960E94D505F7CF8D
:100F5000FC0123812223E1F08181682B608382815F
:100F600091E090939F028093C1021092A002109290
:100F7000C20282E993E00E9479070E943B06282F73
:100F800030E081E090E0232B11F090E080E00895C4
:100F900030E020E0F6CFEF92FF920F931F93CF93B4
:100FA0008C01FC0184E0C0E0262F30E060FF02C02D
:100FB0009589C92BB9017595679581503196811135
:100FC000F3CF413011F4F8014489F8016585C62B4F
:100FD000C42B7801FEE0EF0EF11CF80162896C2B46
:100FE000C7010E94A807F801628960956C23C701B8
:100FF000CF911F910F91FF90EF900C94A8070F9342
:101000001F93CF93DF93062F0F70423041F440E0DF
:10101000602FDF91CF911F910F910C94CB07142F6C
:10102000EC0170E084E0759567958A95E1F7CE0153
:101030000E94CB07412F602FCE01EBCFFC018485AE
:101040008823A1F0218532852115310521F4611114
:1010500007C0158606C021303105D9F76111F9CFD7
:1010600085876585CF010E960C94A8070895EF92A9
:10107000FF920F931F93CF93DF93EC01062FF42E73
:10108000E22E8B85888B10924D0210924C021092AA
:10109000A0021092C2020E94FC0586E292E09093A8
:1010A0004B0280934A0282E392E09093490280933C
:1010B0004802888911E010939F028093C1020E9428
:1010C0003B0681111CC0198B82E993E00E94320714
:1010D0008E878989882339F01F861C8260E0CE01C3
:1010E0000E960E94A8072E2D4F2D602FCE01DF9166
:1010F000CF911F910F91FF90EF900C94E003198A0C
:10110000E8CF90E080E008954F925F926F927F92D7
:101110008F929F92AF92BF92CF92DF92EF92FF9207
:101120000F931F93CF93DF93CDB7DEB72C970FB6F6
:10113000F894DEBF0FBECDBF60916402709165026E
:1011400080916602909167020E94BB144B017B0163
:1011500060916002709161028091620290916302DD
:101160000E94BB142B016B016091520270915302DB
:1011700080915402909155020E94BB148B01072E5E
:10118000000C880B990B0E94F31420E030E040E043
:101190005FE317FD5DC00E94D8130E94BB14162F99
:1011A000072FB201550C880B990B0E94F31420E015
:1011B00030E040E05FE3D7FC4EC00E94D8130E94AD
:1011C000BB14D62EC72EB401990C880B990B0E9424
:1011D000F31420E030E040E05FE3F7FC3FC00E9402
:1011E000D8130E94BB1409831A8329E431E02B83AE
:1011F000CC82DD822EE531E02E837F8368878BE40D
:1012000091E089871A868DE491E08B8781E08C8755
:101210004CE050E0BE016F5F7F4F82E993E00E9497
:101220004C072C960FB6F894DEBF0FBECDBFDF91F2
:10123000CF911F910F91FF90EF90DF90CF90BF90D3
:10124000AF909F908F907F906F905F904F90089598
:101250000E94D713A2CF0E94D713B1CF0E94D713F9
:10126000C0CF1F93CF93DF93162FD42FC22F682F99
:1012700084E00E949C00612F82E00E949C006D2F00
:1012800086E00E949C006C2F87E0DF91CF911F9138
:101290000C949C00BF92CF92DF92EF92FF920F933B
:1012A0001F93CF93DF93EC01B62EC72E8D8581114E
:1012B00005C0CE010E942B0581110EC01B861D8624
:1012C0001C8680E0DF91CF911F910F91FF90EF90EE
:1012D000DF90CF90BF90089540E060EFCE010E9474
:1012E000D80401E0E12CD12C11E0CE010E9485044C
:1012F000F82ECE010E94850491E0F91218C08130C9
:1013000099F51134D8F2DB86D11002C081E08D87C7
:101310008B81882399F22396EB2DFC2DCF01089623
:1013200029912193E817F907D9F781E0CBCFEE2D6A
:10133000F0E0F8120FC08B851817A0F4DE01AE0F95
:10134000BF1F13968C91802379F4F12C193008F487
:101350001C87D12EEC0FFD1F8381902F9095892340
:1013600083830AC08113F1CFFE01EE0DF11D83814D
:10137000802B8383FF24F3946F2DCE010E94A90458
:101380001F5F000F11F4E39401E087E08E1508F071
:10139000ACCFB7CFCF93DF93CDB7DEB761970FB6A2
:1013A000F894DEBF0FBECDBFE091A703F091A80374
:1013B0001386158614861286118610861782168269
:1013C000158214821382BE01665F7F4F8091A7034E
:1013D0009091A8030E944A0981110DC060E070E05D
:1013E0008EEF92EC61960FB6F894DEBF0FBECDBFC4
:1013F000DF91CF91089567E0CE010A960E946E04B6
:1014000099898913EBCFBE016F5F7F4FCE010A969A
:101410000E946305882311F36A8170E0762F6627A6
:10142000770F770F770F298148E0249F90011124CF
:10143000262B372B8A858031E1F468856623C9F035
:1014400070E08F81AB01481B5109CA019695982F16
:101450008827979587950E941A16CB018097B90126
:1014600053E0660F771F5A95E1F760789C01260FCD
:10147000371F213854EE35070CF4B0CFB901330FC4
:10148000880B990B0E94F31420E030E040E05CE30D
:101490000E94A815A7CF0E948416FB01019000208E
:1014A000E9F73197AF01461B570BDC01ED91FC9139
:1014B0000280F381E02D09948F929F92AF92BF92A8
:1014C000EF92FF920F931F93CF93DF93CDB7DEB7C9
:1014D000A1970FB6F894DEBF0FBECDBF7C01FA0115
:1014E000CB0119A2223008F42AE08E010F5D1F4FB4
:1014F000822E912CB12CA12CBF01A50194010E9438
:101500002E16F901CA016A300CF5605DD8016E93A0
:101510008D01232B242B252B79F790E080E0109769
:1015200021F0BD01C7010E944D0AA1960FB6F894A3
:10153000DEBF0FBECDBFDF91CF911F910F91FF9006
:10154000EF90BF90AF909F908F900895695CDECF31
:10155000CF92DF92EF92FF92CF93DF936B017C01EA
:101560006DE283EC93E00E947D03EC014427552754
:10157000BA014C195D096E097F092AE083EC93E0FA
:101580000E945C0A8C0F9D1FDF91CF91FF90EF901E
:10159000DF90CF900895BC0183EC93E00C944D0A4A
:1015A00083EC93E00E94D80361E084E00E94900302
:1015B0008FE491E00E94CB0A61E08DE00E949C00E4
:1015C00064EF71E080E090E00E94500160E08DE007
:1015D0000E949C0064EF71E080E090E00C94500168
:1015E0002F923F924F925F926F927F928F929F9233
:1015F000AF92BF92CF92DF92EF92FF921F93CF9361
:10160000DF93EC016A017B01722EAB019601CB01E5
:10161000B6010E94151668E571E0811126C04601E9
:101620005701E894B7F82FEF3FEF4FE75FE7C501A9
:10163000B4010E94151681110CC02FEF3FEF4FE748
:101640005FE7C501B4010E9444146CE571E018160F
:1016500064F02FEF3FEF4FE75FE4C701B6010E9450
:10166000A3151816B4F460E671E0CE01DF91CF91B6
:101670001F91FF90EF90DF90CF90BF90AF909F9021
:101680008F907F906F905F904F903F902F900C9431
:101690004D0A2FEF3FEF4FE75FECC701B6010E9405
:1016A000441487FDE0CF20E030E0A901C701B60176
:1016B0000E944414312C212C87FF0DC0E881F98150
:1016C0000190F081E02D6DE2CE0109951C01F7FA41
:1016D000F094F7F8F09410E060E070E080E09FE3B1
:1016E000711641F020E030E040E251E40E944914DC
:1016F0001F5FF6CFA70196010E94D8132B013C0172
:101700000E94C2144B015C012AE0BC01A401CE017D
:101710000E945C0A7C01E20CF31C1123E1F1C5017B
:10172000B4010E94F1149B01AC01C301B2010E94FB
:10173000D7134B015C01E881F9810190F081E02D24
:101740006EE2CE010995E80EF91E115020F120E05D
:1017500030E040E251E4C501B4010E94A8152B011C
:101760003C010E94C2144B01B12CA12C2AE0B5010E
:10177000A401CE010E945C0AE80EF91EC501B40165
:101780000E94F1149B01AC01C301B2010E94D71366
:101790004B015C01DACFC701DF91CF911F91FF9020
:1017A000EF90DF90CF90BF90AF909F908F907F9001
:1017B0006F905F904F903F902F90089585ED8093AC
:1017C000BC0080919B0290919C02A0919D02B091DF
:1017D0009E020796A11DB11D23E0B695A79597958A
:1017E00087952A95D1F72091BC0024FD03C0109263
:1017F0009902089540919B0250919C0260919D0234
:1018000070919E02452B462B472B69F30097A1054B
:10181000B10541F02AE22A95F1F700C00197A1092C
:10182000B109E1CF80919A020C941A061F920F928F
:101830000FB60F9211242F933F938F939F93AF93E3
:10184000BF9380916B0290916C02A0916D02B09158
:101850006E0230916A0223E0230F2D3758F501966E
:10186000A11DB11D20936A0280936B0290936C02BC
:10187000A0936D02B0936E0280916F0290917002FE
:10188000A0917102B09172020196A11DB11D8093C9
:101890006F0290937002A0937102B0937202BF9195
:1018A000AF919F918F913F912F910F900FBE0F900D
:1018B0001F90189526E8230F0296A11DB11DD2CFC7
:1018C0001F920F920FB60F9211242F933F934F93B5
:1018D0005F936F937F938F939F93AF93BF93EF9398
:1018E000FF9385EF92E00E94DA02FF91EF91BF91A2
:1018F000AF919F918F917F916F915F914F913F91A8
:101900002F910F900FBE0F901F9018951F920F925E
:101910000FB60F9211242F938F939F93EF93FF9302
:10192000E0910503F09106038081E0910B03F091B3
:101930000C0382FD1BC0908180910E038F5F8F731B
:1019400020910F03821741F0E0910E03F0E0EB507D
:10195000FD4F958F80930E03FF91EF919F918F9193
:101960002F910F900FBE0F901F9018958081F4CF8C
:101970001F920F920FB60F9211242F933F934F9304
:101980005F936F937F938F939F93AF93BF93EF93E7
:10199000FF938091B900887F803609F44AC0F0F542
:1019A000883209F4A7C018F5803109F49BC0B8F457
:1019B000882309F4F9C0883009F494C0FF91EF91AD
:1019C000BF91AF919F918F917F916F915F914F9157
:1019D0003F912F910F900FBE0F901F901895883157
:1019E00009F488C0803251F78093970214C0803484
:1019F00009F49DC040F48033B9F38833F9F680933D
:101A0000970285ECB0C0803509F485C0883509F4AB
:101A100096C0883499F60E94DE0BD0CF883909F43D
:101A20008CC038F5883729F050F4883611F08037AB
:101A300029F683E0809399021092470257C08838B4
:101A400009F47BC0803919F0803809F0B7CF809154
:101A50004702803208F071C0E091470281E08E0FAA
:101A6000809347028091BB00F0E0E95DFD4F8083E9
:101A70003DC0803B39F0E0F4803A09F479C0883AFF
:101A800009F09CCF84E08093990210922602109274
:101A90002502E0914A02F0914B02099580912502BE
:101AA00081110FC081E0809325021092050209C0C8
:101AB000803C09F4A6CF883C09F4A3CF883B09F009
:101AC0007DCFE091260281E08E0F80932602F0E028
:101AD000EB5FFD4F80818093BB0090912602809147
:101AE000250229C0809174028093BB0085EC80930D
:101AF000BC0064CF9091960280919502981758F59A
:101B0000E091960281E08E0F80939602F0E0EB5810
:101B1000FD4F8081E9CFE091960281E08E0F8093A6
:101B200096028091BB00F0E0EB58FD4F80839091CE
:101B30009602809195029817C8F285E8D8CFE09177
:101B4000960281E08E0F809396028091BB00F0E0B8
:101B5000EB58FD4F80838091980281115CCF81E02A
:101B60008093730284EA8093BC001092990226CF7E
:101B700085EC8093BC0010929902809147028032DC
:101B800030F4E0914702F0E0E95DFD4F1082609192
:101B9000470270E0E0914802F091490287E292E04A
:101BA0000995109247020ACF1092970234CF1F93E3
:101BB000CF93DF93E5EFF2E01382128288EE93E099
:101BC000A0E0B0E084839583A683B78325E131E06C
:101BD0003183208325EC30E03587248724EC30E006
:101BE0003787268720EC30E0318B208B21EC30E0EA
:101BF000338B228B22EC30E0358B248B26EC30E0CB
:101C0000378B268B118E128E138E148EE2E9F3E041
:101C10001382128284839583A683B78387E291E03F
:101C2000918380831092E0031092DF03E1EEF3E0F2
:101C300080E091E0DF019C011D9221503040E1F7EE
:101C4000CCEDD3E08AE0888319E01A8388E08983A9
:101C500061E089E00E94E80061E088810E94E8007C
:101C600060E089810E94E80061E08A810E949C0016
:101C7000E3ECF3E01382128289E391E091838083A5
:101C8000108A8FEF87871686118A87E283871486EA
:101C900015861286118684E0828B82E0838BC1E0F8
:101CA000C48B80E1858B80E2868B80E4878B80E823
:101CB000808F50E040E063E0CF010E94690360E064
:101CC00085E00E94E800E3EDF0E0E491A5EBB3E0ED
:101CD000EC93EFEBF0E0E491F0E0EE0FFF1FE05546
:101CE000FF4F8591949112969C938E9311971B961A
:101CF0001C921B971D961C921D971C961C921C975C
:101D00001A961C921A9719961C92199718961C925B
:101D1000189717961C92179716961C921697159659
:101D20001C92159714961C92149713961C92139755
:101D3000EEE9F3E0168A158A1182B287A18717822D
:101D4000108610821383C483C583C683DF91CF912D
:101D50001F910895CF93DF93CDB7DEB761970FB68C
:101D6000F894DEBF0FBECDBF789484B5826084BD89
:101D700084B5816084BD85B5826085BD85B581608F
:101D800085BD80916E00816080936E00109281000D
:101D900080918100826080938100809181008160C8
:101DA0008093810080918000816080938000809189
:101DB000B10084608093B1008091B0008160809315
:101DC000B00080917A00846080937A0080917A00DC
:101DD000826080937A0080917A00816080937A009B
:101DE00080917A00806880937A001092C10021E08F
:101DF00041E061E081E00E94310961E084E00E94FD
:101E0000E80061E082E00E94E80061E086E00E9474
:101E1000E80061E087E00E94E80061E08DE00E9458
:101E2000E80020E042E060E183EC93E00E943708A4
:101E3000E091A703F091A8031386158614861286F5
:101E400011861086178216821582148213821092D0
:101E5000A5031092A60311E0BE01665F7F4F80913B
:101E6000A7039091A8030E944A09882309F475C02A
:101E700067E0CE010A960E946E0499898913ECCF1F
:101E80008091A5038F5F8093A5038A85883231F006
:101E900008F049C0803111F08232F1F68091A6033A
:101EA0008F5F8093A60380919E03811128C080914B
:101EB000A7039091A8030E942B05BE01665F7F4F88
:101EC0008091A7039091A8030E940C0540E064EB69
:101ED0008091A7039091A8030E94D8048091A70342
:101EE0009091A8030E948504F82E8091A7039091F9
:101EF000A8030E942B05F11002C010939E038A854F
:101F00008031E1F0BE016F5F7F4FCE010A960E94E3
:101F10006305882331F08D818F33D9F058F48F31E8
:101F2000D1F080E00EC08B3309F4B8CF823409F0D1
:101F300093CFB4CF8F3521F08F3799F78CE001C064
:101F40008BE09091A103981708F086CF8093A103AE
:101F500083CF8AE0F6CF89E0F4CF10924D02109241
:101F60004C021092A0021092C2020E94FC0586E26E
:101F700092E090934B0280934A0282E392E0909326
:101F800049028093480280E18093BA0085E292E0A2
:101F900090934F0280934E0284E898E09093510210
:101FA00080935002E0910503F091060382E0808364
:101FB000E0910103F09102031082E0910303F0919C
:101FC00004038FEC808310920D03E0910903F091DC
:101FD0000A0386E08083E0910703F0910803808183
:101FE00080618083E0910703F0910803808188601D
:101FF0008083E0910703F0910803808180688083EB
:10200000E0910703F091080380818F7D808388E150
:102010009FE00FB6F894A895809360000FBE909350
:10202000600090E0E92E90E0F92EDD24D3940E9428
:1020300083014B015C010E94830140905602509045
:102040005702609058027090590264197509860908
:102050009709683E73408105910508F4BAC08091E4
:10206000A7039091A8030E942B0540E06CEC80919F
:10207000A7039091A8030E94D80440919E0364E4B2
:102080008091A7039091A8030E94D8048091A20395
:10209000882311F1E091A1038091A303882309F41F
:1020A00006C180919E03811102C10E9483012B0110
:1020B0003C018091A7039091A8030E948504813080
:1020C00059F00E94830164197509860997096E3ECB
:1020D00072408105910568F30E94CA09609352021B
:1020E0007093530280935402909355028FE00E94A4
:1020F0001901BC01990F880B990B0E94F31460938E
:1021000064027093650280936602909367028EE08A
:102110000E941901BC01990F880B990B0E94F314BE
:102120002B013C0140926002509261026092620277
:102130007092630280E10E941901BC01990F880B23
:10214000990B0E94F31420E030E040EA50E40E9432
:10215000A81520E030E040E85AE30E94A8152DECD5
:102160003CEC4CE45EE30E94491420E030E040E4A3
:1021700051E40E94A31518160CF0C1C0D092690258
:1021800022E0B301A20185EF92E00E94F00A64E62A
:1021900071E085EF92E00E944D0A409164025091F7
:1021A0006502609166027091670222E085EF92E01D
:1021B0000E94F00A64E671E085EF92E00E944D0A09
:1021C0008092560290925702A0925802B092590201
:1021D000A89580916902882309F4A1C080916802C2
:1021E0008111A9C020E030E04CE052E4609164022B
:1021F0007091650280916602909167020E9444147A
:1022000087FD11C020E030E041E654E460916002B7
:102210007091610280916202909163020E94A31505
:1022200018160CF088C0809100019091010197FD73
:102230006FC021E040E061E081E00E94310983EC61
:1022400093E00E94D80360E080E00E94900387E65C
:1022500091E00E94CB0A61E080E00E9490034091EF
:10226000000150910101052E000C660B770B77FFE2
:1022700049C0CB01BA010E94A80A87E791E00E94F9
:10228000CB0A809100019091010101979093010187
:102290008093000160E090E080E00E94C91368EE46
:1022A00073E080E090E00E945001A895BCCFE95017
:1022B0008EEE92E0E33038F4F0E0EE0FFF1FE55FC2
:1022C000FE4F808191812C01990F660877088091DB
:1022D0009F03882329F060E08091A0030E949C0066
:1022E000C301B2010E94500180919F03882309F429
:1022F000F3CE61E08091A0030E949C00EDCE10928D
:1023000069023ECF2AE083EC93E00E945C0AB5CFDD
:10231000D092680261E090E080E00E94C913E1146D
:10232000F10409F484CE0E94C602882309F47FCE0A
:102330000E9400007CCE20E030E04AEF53E4609140
:1023400060027091610280916202909163020E942A
:10235000A31587FDCFC020E030E048EC51E4609148
:1023600064027091650280916602909167020E94FA
:10237000441418160CF4BEC0D09268020E94830167
:102380004B015C010E94830140905A0250905B0215
:1023900060905C0270905D02641975098609970966
:1023A000683E73408105910508F4B9CF80915E02C3
:1023B00090915F029C012F5F3F4F30935F0220930B
:1023C0005E02AC014D50510942305105E0F421E06C
:1023D00041E060E080E00E94310983EC93E00E94DC
:1023E000D80361E080E00E9490038CE791E00E94B6
:1023F000CB0A80925A0290925B02A0925C02B09249
:102400005D02A8958CCFAC01415151094330510573
:1024100088F421E041E060E080E00E94310983EC33
:1024200093E00E94D80361E080E00E9490038DE871
:1024300091E0DDCF4897069788F421E041E060E025
:1024400080E00E94310983EC93E00E94D80361E0B0
:1024500080E00E9490038EE991E0C9CF29323105D6
:102460004CF021E041E061E081E00E9431090E94EE
:10247000D00ABFCF21E041E060E081E00E94310955
:1024800083EC93E00E94D80360E080E00E94900318
:102490008DEA91E00E94CB0A40915E0250915F026A
:1024A000052E000C660B770B77FF1EC0CB01BA011F
:1024B0000E94A80A87E791E00E94CB0A61E080E0D1
:1024C0000E94900388EB91E00E94CB0A4091600249
:1024D00050916102609162027091630222E083EC8C
:1024E00093E00E94F00A85CF2AE083EC93E00E94FB
:1024F0005C0AE0CF0E9483012B013C010E94830112
:102500008090D7029090D802A090D902B090DA02C1
:10251000681979098A099B09683E7340810591050C
:1025200008F4FDCE80915E0290915F020196909337
:102530005F0280935E0220E030E041E654E4609167
:1025400060027091610280916202909163020E9428
:10255000A31518161CF40E94D00AEDCF80906402D7
:1025600090906502A0906602B090670220E030E093
:10257000A901C501B4010E94A31587FD3EC020E05A
:1025800030E040EF51E4C501B4010E944414181634
:10259000A4F183EC93E00E94D80360E081E00E9404
:1025A00090038FEB91E00E94CB0A21E041E060E0D4
:1025B00080E00E94310961E080E00E9490038DEC90
:1025C00091E00E94CB0A40916402509165026091B3
:1025D00066027091670222E083EC93E00E94F00AA9
:1025E00088ED91E00E94CB0A4092D7025092D80227
:1025F0006092D9027092DA0204CF20E030E040EF1E
:1026000051E4C501B4010E94A31518160CF04EC088
:1026100020E030E042E852E4C501B4010E944414D5
:1026200087FF44C010925F0210925E02109268020F
:1026300061E086E00E949C0060E084E00E949C00D3
:1026400061E082E00E949C0083EC93E00E94D8034A
:1026500060E080E00E9490038BED91E00E94CB0A45
:1026600061E080E00E9490038DEC91E00E94CB0A33
:102670004091640250916502609166027091670218
:1026800022E083EC93E00E94F00A88ED91E00E9442
:10269000CB0A0AE010E020E030E042E050E060E0E9
:1026A00070E081E090E00E948F019ECF20E030E05A
:1026B00042E852E4C501B4010E94A31587FD94CFFE
:1026C00081E10E941901811592407CF50E94CA099E
:1026D00020E030E04CE452E40E94441418169CF5CB
:1026E0000E94CA0920E030E044E352E40E94A315AE
:1026F00087FF38C004E110E020E030E042E050E025
:1027000060E070E084E090E00E948F01109202018E
:102710000E94CA0920E030E044E352E40E944414DD
:1027200087FF62CFD09202015FCF81E10E94190141
:10273000811592400CF458CF20E041E061E080E048
:102740000E94310951CF80910201882349F20AE0A9
:1027500010E020E030E043E050E060E070E082E034
:1027600090E0A1CF0E94CA0920E030E04CE452E49E
:102770000E94441487FFBECF0AE010E020E030E062
:1027800043E050E060E070E083E090E00E948F0161
:10279000BFCF262FF999FECF1FBA92BD81BD20BDB4
:1027A0000FB6F894FA9AF99A0FBE01960895505808
:1027B000BB27AA270E94EF130C9469150E945B1592
:1027C00038F00E94621520F039F49F3F19F426F486
:1027D0000C9458150EF4E095E7FB0C945215E92F74
:1027E0000E947A1558F3BA17620773078407950792
:1027F00020F079F4A6F50C949C150EF4E0950B2EC0
:10280000BA2FA02D0B01B90190010C01CA01A00142
:102810001124FF27591B99F0593F50F4503E68F19D
:102820001A16F040A22F232F342F4427585FF3CFDE
:10283000469537952795A795F0405395C9F77EF4AF
:102840001F16BA0B620B730B840BBAF09150A1F0F8
:10285000FF0FBB1F661F771F881FC2F70EC0BA0F7E
:10286000621F731F841F48F4879577956795B79506
:10287000F7959E3F08F0B0CF9395880F08F0992701
:10288000EE0F9795879508950E942E1508F481E024
:1028900008950E945D140C9469150E94621558F009
:1028A0000E945B1540F029F45F3F29F00C9452150B
:1028B00051110C949D150C9458150E947A1568F3CB
:1028C0009923B1F3552391F3951B550BBB27AA27E9
:1028D00062177307840738F09F5F5F4F220F331F23
:1028E000441FAA1FA9F335D00E2E3AF0E0E832D0EB
:1028F00091505040E695001CCAF72BD0FE2F29D0EE
:10290000660F771F881FBB1F261737074807AB07BF
:10291000B0E809F0BB0B802DBF01FF2793585F4F34
:102920003AF09E3F510578F00C9452150C949D1589
:102930005F3FE4F3983ED4F3869577956795B79516
:10294000F7959F5FC9F7880F911D9695879597F921
:102950000895E1E0660F771F881FBB1F621773079A
:102960008407BA0720F0621B730B840BBA0BEE1FAF
:1029700088F7E09508950E94C2146894B1110C94F0
:102980009D1508950E94821588F09F5798F0B92FE1
:102990009927B751B0F0E1F0660F771F881F991F94
:1029A0001AF0BA95C9F714C0B13091F00E949C1585
:1029B000B1E008950C949C15672F782F8827B85F95
:1029C00039F0B93FCCF3869577956795B395D9F7EC
:1029D0003EF490958095709561957F4F8F4F9F4FF6
:1029E0000895E89409C097FB3EF490958095709502
:1029F00061957F4F8F4F9F4F9923A9F0F92F96E94B
:102A0000BB279395F695879577956795B795F111BF
:102A1000F8CFFAF4BB0F11F460FF1BC06F5F7F4F5C
:102A20008F4F9F4F16C0882311F096E911C077236E
:102A300021F09EE8872F762F05C0662371F096E877
:102A4000862F70E060E02AF09A95660F771F881F46
:102A5000DAF7880F9695879597F90895990F0008EA
:102A6000550FAA0BE0E8FEEF16161706E807F90760
:102A7000C0F012161306E407F50798F0621B730BFB
:102A8000840B950B39F40A2661F0232B242B252B7C
:102A900021F408950A2609F4A140A6958FEF811D1F
:102AA000811D089597F99F6780E870E060E00895C0
:102AB0009FEF80EC089500240A9416161706180656
:102AC0000906089500240A94121613061406050632
:102AD0000895092E0394000C11F4882352F0BB0FC3
:102AE00040F4BF2B11F460FF04C06F5F7F4F8F4F26
:102AF0009F4F089557FD9058440F551F59F05F3F61
:102B000071F04795880F97FB991F61F09F3F79F00F
:102B100087950895121613061406551FF2CF469591
:102B2000F1DF08C0161617061806991FF1CF869513
:102B30007105610508940895E894BB2766277727F7
:102B4000CB0197F908950E942E1508F48FEF089590
:102B50000E94BB150C9469150E945B1538F00E9409
:102B6000621520F0952311F00C9452150C94581511
:102B700011240C949D150E947A1570F3959FC1F352
:102B8000950F50E0551F629FF001729FBB27F00D1B
:102B9000B11D639FAA27F00DB11DAA1F649F662770
:102BA000B00DA11D661F829F2227B00DA11D621FBF
:102BB000739FB00DA11D621F839FA00D611D221F79
:102BC000749F3327A00D611D231F849F600D211D5D
:102BD000822F762F6A2F11249F5750409AF0F1F0E0
:102BE00088234AF0EE0FFF1FBB1F661F771F881F49
:102BF00091505040A9F79E3F510580F00C9452151A
:102C00000C949D155F3FE4F3983ED4F38695779539
:102C10006795B795F795E7959F5FC1F7FE2B880FEE
:102C2000911D9695879597F908950E942E15880B0A
:102C3000990B089597FB072E16F4009407D077FDA3
:102C400009D00E945B1607FC05D03EF49095819553
:102C50009F4F0895709561957F4F0895A1E21A2EB8
:102C6000AA1BBB1BFD010DC0AA1FBB1FEE1FFF1F30
:102C7000A217B307E407F50720F0A21BB30BE40B80
:102C8000F50B661F771F881F991F1A9469F76095C7
:102C90007095809590959B01AC01BD01CF01089581
:102CA0000E947516A59F900DB49F900DA49F800D56
:102CB000911D11240895AA1BBB1B51E107C0AA1F37
:102CC000BB1FA617B70710F0A61BB70B881F991FCD
:102CD0005A95A9F780959095BC01CD010895EE0F06
:102CE000FF1F0590F491E02D0994A29FB001B39FBE
:102CF000C001A39F700D811D1124911DB29F700D05
:102D0000811D1124911D089581E090E0F8940C94A8
:102D10008916F894FFCF02000100401454004010BF
:102D2000505E00BC00770100000000FC025C0289DC
:102D3000024903BA029802AC020000000079074C75
:102D40000781082207450732072307000000007D9E
:102D5000035C0281086D04370869031E08FF0777CA
:102D6000006500730050524F564C494D41006E6152
:102D70006E00696E66006F7666000D0A0045495365
:102D800041475747492050454C4C455400207365F6
:102D90006300414552415320414E4F4958544F53CF
:102DA000203100414552415320414E4F4958544F24
:102DB00053203200414552415320414E4F4958540F
:102DC0004F5300414E41464C454B53492000464F1E
:102DD000544941200058414D494C4920454E4155E8
:102DE0005349004B4159534145524941200020432A
:0A2DF000005A455354414D412000A4
:107E0000112484B714BE81FFF0D085E080938100F7
:107E100082E08093C00088E18093C10086E0809377
:107E2000C20080E18093C4008EE0C9D0259A86E02C
:107E300020E33CEF91E0309385002093840096BBD3
:107E4000B09BFECF1D9AA8958150A9F7CC24DD24C4
:107E500088248394B5E0AB2EA1E19A2EF3E0BF2EE7
:107E6000A2D0813461F49FD0082FAFD0023811F036
:107E7000013811F484E001C083E08DD089C08234E0
:107E800011F484E103C0853419F485E0A6D080C0E4
:107E9000853579F488D0E82EFF2485D0082F10E0AE
:107EA000102F00270E291F29000F111F8ED06801E7
:107EB0006FC0863521F484E090D080E0DECF843638
:107EC00009F040C070D06FD0082F6DD080E0C81688
:107ED00080E7D80618F4F601B7BEE895C0E0D1E017
:107EE00062D089930C17E1F7F0E0CF16F0E7DF06D8
:107EF00018F0F601B7BEE89568D007B600FCFDCFD4
:107F0000A601A0E0B1E02C9130E011968C91119780
:107F100090E0982F8827822B932B1296FA010C0160
:107F200087BEE89511244E5F5F4FF1E0A038BF0790
:107F300051F7F601A7BEE89507B600FCFDCF97BE46
:107F4000E89526C08437B1F42ED02DD0F82E2BD052
:107F50003CD0F601EF2C8F010F5F1F4F84911BD097
:107F6000EA94F801C1F70894C11CD11CFA94CF0C13
:107F7000D11C0EC0853739F428D08EE10CD085E9AC
:107F80000AD08FE07ACF813511F488E018D01DD067
:107F900080E101D065CF982F8091C00085FFFCCF94
:107FA0009093C60008958091C00087FFFCCF809118
:107FB000C00084FD01C0A8958091C6000895E0E648
:107FC000F0E098E1908380830895EDDF803219F02E
:107FD00088E0F5DFFFCF84E1DECF1F93182FE3DFCA
:107FE0001150E9F7F2DF1F91089580E0E8DFEE27F6
:047FF000FF270994CA
:027FFE00040479
:00000001FF
