:020000040000FA
:100000000C9472000C949A000C949A000C949A0030
:100010000C949A000C949A000C949A000C949A00F8
:100020000C949A000C949A000C949A000C949A00E8
:100030000C949A000C949A000C949A000C949A00D8
:100040000C9489090C949A000C949A000C949A00D0
:100050000C949A000C949A000C949A000C949A00B8
:100060000C94D3090C949A00005EBCE2613FDD83DE
:10007000C29C7E20A3FD1F41009D23BE46DB65F888
:100080008C11AF32CA57E974000000002400270029
:100090002A0000000000250028002B0000000008B6
:1000A000000201000003040700000000000000003F
:1000B00000000000230026002900040404040404B6
:1000C0000404020202020202030303030303010207
:1000D00004081020408001020408102001020408D6
:1000E0001020F20A11241FBECFEFD8E0DEBFCDBF33
:1000F00023E0AEE2B2E001C01D92A939B207E1F7F8
:1001000012E0A0E0B1E0EEE6F1E302C005900D924E
:10011000AE32B107D9F710E0C2E7D0E004C02197B2
:10012000FE010E94B816C137D107C9F70E948F0B94
:100130000C94B5180C940000833081F028F48130C1
:1001400099F08230A9F008958730A9F08830C9F07D
:100150008430B1F4809180008F7D03C08091800055
:100160008F7780938000089584B58F7784BD08953C
:1001700084B58F7DFBCF8091B0008F778093B000E6
:1001800008958091B0008F7DF9CF1F93CF93DF93B7
:10019000282F30E0F901E456FF4F8491F901E25332
:1001A000FF4FD491F901E654FF4FC491CC23A9F03D
:1001B000162F81110E949C00EC2FF0E0EE0FFF1F24
:1001C000EE56FF4FA591B4918FB7F894EC911111B1
:1001D00008C0D095DE23DC938FBFDF91CF911F91B4
:1001E0000895DE2BF8CFCF93DF9390E0FC01E2532C
:1001F000FF4F249186549F4FFC0184918823D1F0B6
:1002000090E0880F991FFC01E857FF4FA591B4912A
:10021000FC01EE56FF4FC591D49161110EC09FB7FE
:10022000F8948C91E22FE0958E238C932881E22321
:10023000E8839FBFDF91CF9108958FB7F894EC9139
:10024000E22BEC938FBFF6CF8E50806480937C00BE
:1002500080917A00806480937A0080917A0086FD94
:10026000FCCF809178009091790008953FB7F89481
:100270008091F4029091F502A091F602B091F702FC
:1002800026B5A89B05C02F3F19F00196A11DB11DF1
:100290003FBFBA2FA92F982F8827BC01CD01620F2D
:1002A000711D811D911D42E0660F771F881F991FE8
:1002B0004A95D1F708958F929F92AF92BF92CF92B5
:1002C000DF92EF92FF926B017C010E9436014B019D
:1002D0005C01C114D104E104F104B9F00E943601BB
:1002E000681979098A099B09683E7340810591055F
:1002F00080F321E0C21AD108E108F10888EE880EE7
:1003000083E0981EA11CB11CE4CFFF90EF90DF901A
:10031000CF90BF90AF909F908F9008952FB7F89493
:100320006091F0027091F1028091F2029091F302DB
:100330002FBF08950895E0919A02F0919B023097A3
:1003400029F0109225031092470309940895CF9342
:10035000DF93AC01E0919802F09199023097F1F0AF
:1003600090919702809196029817C0F090E0292F03
:1003700030E02617370754F4D901A25DBD4F240F92
:10038000351FE90128812C939F5FF1CF10929702CE
:1003900060939602CB01DF91CF910994DF91CF91C9
:1003A0000895AF92BF92CF92DF92EF92FF920F9398
:1003B0001F93CF93DF936C017B018B01040F151FFB
:1003C000EB015E01AE18BF08C017D10759F0699163
:1003D000D601ED91FC910190F081E02DC6010995C7
:1003E000892B79F7C501DF91CF911F910F91FF9074
:1003F000EF90DF90CF90BF90AF900895FC014481C3
:1004000055816081718189E793E00C94D10121E0ED
:1004100001C0220F6A95EAF7DC011C962C931C9709
:100420001A965C934E931997ED91FC910484F5858F
:10043000E02D60E00994DC01ED91FC910684F785E4
:10044000E02D41E0099581E090E00895DC01ED9117
:10045000FC910684F785E02D40E009940F931F93EB
:10046000CF93DF93CDB7DEB728970FB6F894DEBFF2
:100470000FBECDBF00910B0110910C0120910D0119
:1004800030910E010D831E832F83388700910F0159
:1004900010911001209111013091120109831A83EA
:1004A0002B833C8390918003691710F06FEF690FE5
:1004B000262F30E0409181032C0F3D1FF901403180
:1004C00099F4943089F46181680F606889E793E05A
:1004D00028960FB6F894DEBF0FBECDBFDF91CF9147
:1004E0001F910F910C9426026581EECF61E00E946E
:1004F00026028BE39FE10197F1F708950F931F9375
:10050000CF93DF93EC01423018F08C8188608C83AC
:100510004F836887222329F0413019F48C8184604D
:100520008C8364E670E080E090E00E945B016C8167
:1005300064FD57C0E881F9810684F785E02D42E02B
:1005400063E0CE0109958BE496E40197F1F7E88129
:10055000F9810684F785E02D42E063E0CE0109953C
:1005600003E512E0C8010197F1F7E881F9810684FB
:10057000F785E02D42E063E0CE010995C8010197BF
:10058000F1F7E881F9810684F785E02D42E062E029
:10059000CE010995C8010197F1F76C816062CE0127
:1005A0000E9426028BEE90E00197F1F784E08D83A4
:1005B0006CE0CE010E942602CE010E94760282E00B
:1005C0008E8366E0CE010E942602E881F9810484D0
:1005D000F585E02D6FEFCE01DF91CF911F910F9147
:1005E00009946062CE010E9426028BE496E4019792
:1005F000F1F76C816062CE010E94260203E512E0F1
:10060000C8010197F1F76C816062CE010E94260259
:10061000C1CF089508950895DC0180E0615090F005
:100620009D919827E92FEF70F0E0E859FF4F249152
:10063000E92FE295EF70F0E0E858FF4FE491822F48
:100640008E27ECCF0895DC012C911196ED91FC9151
:10065000F8948181822B81839281322F309593236C
:10066000928387E090E00197F1F781818323818372
:1006700083E290E00197F1F790817894EFECF0E05D
:100680003197F1F7922381E009F480E00895FC01AD
:1006900090810180F281E02D292F209560FF14C008
:1006A000F8948281822382838181892B8183A3E2D2
:1006B000B0E01197F1F78281982B9283789487EDBF
:1006C00090E00197F1F70895F89482818223828364
:1006D0008181892B8183AFEFB0E01197F1F782819F
:1006E000982B928378948FE090E0EBCFDF92EF929B
:1006F000FF920F931F93CF93DF93EC01D62EE42E3E
:1007000008E010E0FF24F39461E08D2D8F2109F4BF
:1007100060E0CE010E944703FF0C01501109A1F7D0
:10072000E11010C0F894E981FA8191818881809567
:1007300089238183E981FA81928188818095892347
:1007400082837894DF91CF911F910F91FF90EF906A
:10075000DF900895EF92FF920F931F93CF93DF9353
:100760008C017B0140E065E50E947603E70188E0AB
:10077000E80EF11C699140E0C8010E947603CE1595
:10078000DF05C1F7DF91CF911F910F91FF90EF909F
:100790000895FC0190810180F281E02DF89481811F
:1007A000292F20958223818378943DE743E050E010
:1007B000315029F1DA011197F1F780818923C1F3D2
:1007C000F8948281822382838181892B818378942A
:1007D000ABE7B7E01197F1F7F89481818223818329
:1007E000A3E1B1E01197F1F78081982381E009F04E
:1007F00080E07894E3E6F6E03197F1F7089580E041
:10080000089520916F02260F3327331F21323105BF
:10081000ECF420911E03FC0190E080E0243069F0AC
:1008200082E00895A0916F022191AC01415B5D4F80
:10083000A40FB52FB11D2C930196861798F38091C4
:100840006F02680F60936F0280E0089581E0089561
:1008500010921E0381E080931D031092F80261E064
:1008600082E10E94C50061E083E10E94C500E9EBDE
:10087000F0E080818E7F808380818D7F808388E41B
:100880008093B80085E48093BC000895CF93DF93F4
:1008900091E090934E028823B9F0C091B800D091B6
:1008A000BA008091BC008A7B8093BC0060E082E14A
:1008B0000E94C50060E083E10E94C5000E942804F8
:1008C000D093BA00C093B800DF91CF910895CF9232
:1008D000DF92EF92FF920F931F93CF93DF93D0910C
:1008E000470381E0D13208F09CC0C09146030E94CA
:1008F00036016B017C0180911E0381116CC082E086
:1009000080931E0381E080931D038FEF80931C036F
:1009100010921B03D0931A03A6E2B3E0EAEFF2E0D1
:1009200080E0D8138DC01092F9028091F902CC0FAB
:10093000C82BC093F9028091F802813009F084C07D
:100940001092F8020E9436016B017C018091F9023D
:100950008093BB008091200390912103A0912203FA
:10096000B0912303892B8A2B8B2BA1F00E94360197
:100970000091200310912103209122033091230341
:100980006C197D098E099F09061717072807390773
:1009900008F442C08091BC0083FDD8CF85EC8093E1
:1009A000BC000E9436016B017C0180911E038230E5
:1009B00009F44CC080911C038F3F09F469C08091F9
:1009C0001C03803209F466C080911C03803309F453
:1009D00063C084E026C08091200390912103A09100
:1009E0002203B0912303892B8A2B8B2B09F483CF0D
:1009F0000E943601009120031091210320912203CF
:100A0000309123036C197D098E099F09061717077A
:100A10002807390708F06FCF80911F030E94460412
:100A200085E0109225031092470310922403DF9172
:100A3000CF911F910F91FF90EF90DF90CF9008958D
:100A40009D9191938F5F6DCF85EEA9CF809120030B
:100A500090912103A0912203B0912303892B8A2B2B
:100A60008B2B09F4A2CF0E94360100912003109134
:100A7000210320912203309123036C197D098E09F3
:100A80009F09061717072807390708F08ECFC4CF2C
:100A900080E0C7CF82E0C5CF83E0C3CF0895E09167
:100AA000970280919602E81730F4F0E0E25DFD4F86
:100AB000808190E008958FEF9FEF089590919702C5
:100AC000809196022FEF3FEF981748F4E92FF0E05E
:100AD000E25DFD4F208130E09F5F90939702C90156
:100AE00008958091960290919702891B990B089521
:100AF000CF92DF92EF92FF920F931F93CF93DF93EA
:100B00007C01CB018A0120912403222389F0EB018F
:100B10006B01C40ED51ECC15DD0569F06991D701B6
:100B2000ED91FC910190F081E02DC7010995F3CF83
:100B3000642F0E940104C801DF91CF911F910F9192
:100B4000FF90EF90DF90CF900895CF93DF931F92A7
:100B5000CDB7DEB76983209124032223F9F02091D9
:100B60004703203258F021E030E0FC013383228338
:100B700090E080E00F90DF91CF9108958091250360
:100B8000E82FF0E0EA5DFC4F998190838F5F8093BE
:100B900025038093470381E090E0ECCF61E0CE0134
:100BA00001960E940104F7CFFC0123812223E1F08A
:100BB0008181682B6083828191E0909324038093EC
:100BC0004603109225031092470388E493E00E94A5
:100BD000A5050E946704282F30E081E090E0232BD8
:100BE00011F090E080E0089530E020E0F6CFEF9241
:100BF000FF920F931F93CF938C01FC0184E0C0E020
:100C0000262F30E060FF02C09589C92BB901759588
:100C10006795815031968111F3CF413011F4F8017D
:100C20004489F8016585C62BC42B7801FEE0EF0EE0
:100C3000F11CF80162896C2BC7010E94D405F801F0
:100C4000628960956C23C701CF911F910F91FF902E
:100C5000EF900C94D4050F931F93CF93DF93062F3F
:100C60000F70423041F440E0602FDF91CF911F912F
:100C70000F910C94F705142FEC0170E084E075954A
:100C800067958A95E1F7CE010E94F705412F602F05
:100C9000CE01EBCFFC0184858823A1F0218532852C
:100CA0002115310521F4611107C0158606C02130D8
:100CB0003105D9F76111F9CF85876585CF010E968A
:100CC0000C94D4050895EF92FF920F931F93CF9346
:100CD000DF93EC01062FF42EE22E8B85888B109289
:100CE00097021092960210922503109247030E94D9
:100CF00028048BE991E0909395028093940287EA0F
:100D000091E09093930280939202888911E010936E
:100D10002403809346030E94670481111CC0198B31
:100D200088E493E00E945E058E878989882339F0E4
:100D30001F861C8260E0CE010E960E94D4052E2DE7
:100D40004F2D602FCE01DF91CF911F910F91FF901A
:100D5000EF900C947E02198AE8CF90E080E008952D
:100D60004F925F926F927F928F929F92AF92BF92BB
:100D7000CF92DF92EF92FF920F931F93CF93DF9367
:100D8000CDB7DEB72C970FB6F894DEBF0FBECDBF40
:100D90006091C0027091C1028091C2029091C30221
:100DA0000E9456164B017B016091B9027091BA0204
:100DB0008091BB029091BC020E9456162B016B01E0
:100DC0006091B2027091B3028091B4029091B50229
:100DD0000E9456168B01072E000C880B990B0E945F
:100DE000151420E030E040E05FE317FD5DC00E9495
:100DF00078150E945616162F072FB201550C880B36
:100E0000990B0E94151420E030E040E05FE3D7FC2E
:100E10004EC00E9478150E945616D62EC72EB401D9
:100E2000990C880B990B0E94151420E030E040E0EB
:100E30005FE3F7FC3FC00E9478150E9456160983B5
:100E40001A832FE331E02B83CC82DD8224E531E06D
:100E50002E837F83688781E491E089871A8683E403
:100E600091E08B8781E08C874CE050E0BE016F5FA2
:100E70007F4F88E493E00E9478052C960FB6F89493
:100E8000DEBF0FBECDBFDF91CF911F910F91FF90BD
:100E9000EF90DF90CF90BF90AF909F908F907F901A
:100EA0006F905F904F9008950E947715A2CF0E9497
:100EB0007715B1CF0E947715C0CF1F93CF93DF93E3
:100EC000162FD42FC22F682F84E00E94C500612FF7
:100ED00082E00E94C5006D2F86E00E94C5006C2F45
:100EE00087E0DF91CF911F910C94C500FC01019028
:100EF0000020E9F73197AF01481B590BBC0189E786
:100F000093E00C94D1018F929F92AF92BF920F9376
:100F10001F93CF93DF93CDB7DEB7A1970FB6F894A9
:100F2000DEBF0FBECDBF19A2423008F44AE08E01E9
:100F30000F5D1F4F842E912CB12CA12CA501940183
:100F40000E949616E62FB901CA01EA30F4F4E05D7A
:100F5000D801EE938D01232B242B252B79F790E0DC
:100F600080E0109719F0CD010E947607A1960FB688
:100F7000F894DEBF0FBECDBFDF91CF911F910F91CF
:100F8000BF90AF909F908F900895E95CE1CF0C9453
:100F9000760789E793E00E94760261E084E00E9490
:100FA0002E0285E491E00E94C70761E08DE00E9477
:100FB000C50064EF71E080E090E00E945B0160E0BA
:100FC0008DE00E94C50064EF71E080E090E00C9439
:100FD0005B014F925F926F927F928F929F92AF923E
:100FE000BF92CF92DF92EF92FF920F931F93CF9316
:100FF0006B017C01742EAC019B010E949116882329
:1010000099F08EE491E0CF911F910F91FF90EF90B6
:10101000DF90CF90BF90AF909F908F907F906F9018
:101020005F904F900C94760746015701E894B7F80B
:101030002FEF3FEF4FE75FE7C501B4010E94911624
:1010400081110DC02FEF3FEF4FE75FE7C501B401FE
:101050000E940E1418161CF482E591E0D4CF2FEFF5
:101060003FEF4FE75FE4C701B6010E948C161816E8
:101070001CF486E591E0C7CF2FEF3FEF4FE75FEC21
:10108000C701B6010E940E1487FDF3CF20E030E0C7
:10109000A901C701B6010E940E1410E000E087FF0D
:1010A0000AC06DE289E793E00E941B028C01F7FA07
:1010B000F094F7F8F094C0E060E070E080E09FE327
:1010C0007C1641F020E030E040E251E40E94E4155B
:1010D000CF5FF6CFA70196010E9478152B013C0146
:1010E0000E945D164B015C014AE00E9483077C016F
:1010F000E00EF11ECC23C1F1C501B4010E9413140E
:101100009B01AC01C301B2010E9477154B015C0148
:101110006EE289E793E00E941B02E80EF91EC150BF
:1011200018F120E030E040E251E4C501B4010E9432
:1011300074142B013C010E945D164B01B12CA12CB3
:101140004AE0C501B4010E948307E80EF91EC501FB
:10115000B4010E9413149B01AC01C301B2010E94AF
:1011600077154B015C01DBCFC701CF911F910F9128
:10117000FF90EF90DF90CF90BF90AF909F908F90B7
:101180007F906F905F904F900895CF92DF92EF9293
:10119000FF92CF93DF9397FF1BC06B017C016DE241
:1011A00089E793E00E941B02EC0166277727CB01B9
:1011B0006C197D098E099F094AE00E9483078C0FF4
:1011C0009D1FDF91CF91FF90EF90DF90CF9008951A
:1011D0004AE0DF91CF91FF90EF90DF90CF900C9499
:1011E00083070E94A0180F931F93CF93DF93EC0106
:1011F00088819981009759F02A813B81261737070A
:1012000030F081E0DF91CF911F910F9108958B0114
:101210006F5F7F4F0E94E317009759F0998388838F
:101220001B830A832C813D81232B59F7FC011082FB
:10123000E8CF80E0E7CFEF92FF920F931F93CF9319
:10124000DF93EC017B01FB0101900020E9F731976E
:101250008F01061B170BB8010E94F3082881398102
:10126000811113C02115310519F0C9010E945A17C7
:10127000198218821D821C821B821A82DF91CF91F3
:101280001F910F91FF90EF9008951D830C83B7017C
:10129000C901DF91CF911F910F91FF90EF900C94B6
:1012A000AE1885ED8093BC008091200390912103BE
:1012B000A0912203B09123030796A11DB11D23E045
:1012C000B695A795979587952A95D1F72091BC005B
:1012D00024FD03C010921E030895409120035091F5
:1012E00021036091220370912303452B462B472B4A
:1012F00069F30097A105B10541F02AE22A95F1F7BB
:1013000000C00197A109B109E1CF80911F030C949E
:1013100046041F920F920FB60F9211242F933F9302
:101320008F939F93AF93BF938091F0029091F102BE
:10133000A091F202B091F3023091EF0223E0230F6B
:101340002D3758F50196A11DB11D2093EF02809312
:10135000F0029093F102A093F202B093F302809115
:10136000F4029091F502A091F602B091F702019675
:10137000A11DB11D8093F4029093F502A093F60293
:10138000B093F702BF91AF919F918F913F912F91B1
:101390000F900FBE0F901F90189526E8230F02960E
:1013A000A11DB11DD2CF1F920F920FB60F92112423
:1013B0002F933F934F935F936F937F938F939F935D
:1013C000AF93BF93EF93FF938091B900887F8036EE
:1013D00009F44AC0F0F5883209F4A7C018F5803145
:1013E00009F49BC0B8F4882309F4F9C0883009F4E3
:1013F00094C0FF91EF91BF91AF919F918F917F9199
:101400006F915F914F913F912F910F900FBE0F9071
:101410001F901895883109F488C0803251F7809365
:101420001C0314C0803409F49DC040F48033B9F328
:101430008833F9F680931C0385ECB0C0803509F43D
:1014400085C0883509F496C0883499F60E94510900
:10145000D0CF883909F48CC038F5883729F050F49A
:10146000883611F0803729F683E080931E031092AE
:10147000910257C0883809F47BC0803919F0803850
:1014800009F0B7CF80919102803208F071C0E091ED
:10149000910281E08E0F809391028091BB00F0E079
:1014A000EF58FD4F80833DC0803B39F0E0F4803A37
:1014B00009F479C0883A09F09CCF84E080931E0338
:1014C0001092700210926F02E0919402F0919502D6
:1014D000099580916F0281110FC081E080936F02A6
:1014E00010924F0209C0803C09F4A6CF883C09F451
:1014F000A3CF883B09F07DCFE091700281E08E0F91
:1015000080937002F0E0E15BFD4F80818093BB002F
:101510009091700280916F0229C08091F9028093AE
:10152000BB0085EC8093BC0064CF90911B0380913D
:101530001A03981758F5E0911B0381E08E0F8093F2
:101540001B03F0E0E650FD4F8081E9CFE0911B03E3
:1015500081E08E0F80931B038091BB00F0E0E6508A
:10156000FD4F808390911B0380911A039817C8F256
:1015700085E8D8CFE0911B0381E08E0F80931B0399
:101580008091BB00F0E0E650FD4F808380911D0309
:1015900081115CCF81E08093F80284EA8093BC00E3
:1015A00010921E0326CF85EC8093BC0010921E0380
:1015B00080919102803230F4E0919102F0E0EF5896
:1015C000FD4F10826091910270E0E0919202F091E3
:1015D000930281E792E00995109291020ACF10924E
:1015E0001C0334CF1F93CF93DF93E8E4F3E013821F
:1015F000128288EE93E0A0E0B0E084839583A68316
:10160000B7838DE191E091838083C2E9D3E08AE0E2
:10161000888319E01A8388E0898361E089E00E9469
:10162000F30061E088810E94F30060E089810E94FC
:10163000F30061E08A810E94C500E9E7F3E01382CC
:1016400012828FE291E091838083108A8FEF8787E7
:101650001686118A87E2838714861586128611867C
:1016600084E0828B82E0838BC1E0C48B80E1858B38
:1016700080E2868B80E4878B80E8808F50E040E0BA
:1016800063E0CF010E94070260E085E00E94F30062
:10169000E3EDF0E0E491ABE6B3E0EC93EFEBF0E0E8
:1016A000E491F0E0EE0FFF1FE055FF4F859194911C
:1016B00012969C938E9311971B961C921B971D96C6
:1016C0001C921D971C961C921C971A961C921A9796
:1016D00019961C92199718961C92189717961C9297
:1016E000179716961C92169715961C921597149696
:1016F0001C92149713961C921397E4E5F3E0168A54
:10170000158A1182B287A1871782108610821383EF
:10171000C483C583C683DF91CF911F910895CF9372
:10172000DF93CDB7DEB769970FB6F894DEBF0FBE73
:10173000CDBF789484B5826084BD84B5816084BD5A
:1017400085B5826085BD85B5816085BD80916E005F
:10175000816080936E001092810080918100826090
:1017600080938100809181008160809381008091CD
:1017700080008160809380008091B10084608093BC
:10178000B1008091B00081608093B00080917A00B8
:10179000846080937A0080917A00826080937A00DE
:1017A00080917A00816080937A0080917A008068CD
:1017B00080937A001092C10021E041E061E080E076
:1017C0000E945D0761E084E00E94F30061E082E036
:1017D0000E94F30061E086E00E94F30061E087E090
:1017E0000E94F30061E08DE00E94F30020E042E0FF
:1017F00060E189E793E00E946306E0915D03F09168
:101800005E0313861586148612861186108617824B
:10181000168215821482138210925B0310925C036D
:1018200077247394662463946E012AE0C20ED11C5F
:10183000E0905D03F0905E03D7011D968C918823A4
:1018400009F475C1F7011386158614861092970264
:101850001092960210922503109247030E942804CA
:101860008BE991E0909395028093940287EA91E04E
:10187000909393028093920280E18093BA008AE968
:1018800091E0909399028093980280EB96E0909378
:101890009B0280939A0288E19FE00FB6F894A89586
:1018A000809360000FBE909360002AED222E20E00E
:1018B000322E11E00E948E012B013C010E948E010C
:1018C000C0909C02D0909D02E0909E02F0909F02FA
:1018D0006C197D098E099F09683E73408105910549
:1018E00008F4BBC080915D0390915E030E94C90320
:1018F00040E06CEC80915D0390915E030E94760362
:101900004091540364E480915D0390915E030E94D2
:10191000760380915803882311F1E0915703809159
:101920005903882309F426C280915403811122C2ED
:101930000E948E016B017C0180915D0390915E039A
:101940000E942303813059F00E948E016C197D0999
:101950008E099F096E3E72408105910568F381E111
:101960000E942401BC01990F880B990B0E94151449
:101970006093B2027093B3028093B4029093B50265
:101980008FE00E942401BC01990F880B990B0E94E3
:1019900015146093C0027093C1028093C2029093A9
:1019A000C3028EE00E942401BC01990F880B990BA1
:1019B0000E9415146093B9027093BA028093BB021F
:1019C0009093BC0280E10E942401BC01990F880B16
:1019D000990B0E94151420E030E040EA50E40E9488
:1019E000741420E030E040E85AE30E9474142DECB7
:1019F0003CEC4CE45EE30E94E41520E030E040E47F
:101A000051E40E948C1618160CF0DCC11093EE0203
:101A100040929C0250929D0260929E0270929F02A0
:101A2000E8EAF0E08491F101F490E6ECF0E0E49073
:101A3000EE2009F4CAC181110E949C00EE2DF0E055
:101A4000EE0FFF1FE055FF4FA591B4918C91F82246
:101A500009F4BBC11093B602A8958091EE028823C9
:101A600009F4F0C58091BD028111C1C120E030E0D0
:101A70004CE052E46091C0027091C1028091C202B8
:101A80009091C3020E940E1487FD11C020E030E047
:101A900041E654E46091B9027091BA028091BB02B0
:101AA0009091BC020E948C1618160CF0A0C1809177
:101AB00000019091010197FD8BC121E040E061E0C0
:101AC00081E00E945D0789E793E00E94760260E072
:101AD00080E00E942E028AE591E00E94C70761E043
:101AE00080E00E942E026091000170910101072E9A
:101AF000000C880B990B0E94C5088AE691E00E94B1
:101B0000C707809100019091010101979093010115
:101B10008093000160E090E080E00E94321568EE62
:101B200073E080E090E00E945B01A895C0CFC70100
:101B30000E94C90381110AC0D7011B961C921B97F2
:101B40001D961C921D971C961C9280CE40E060EF63
:101B5000C7010E94760301E0A12C912C11E0C7017E
:101B60000E942303B82EC7010E942303B1E0BB12D9
:101B700071C0813009F08FC0113408F463CEF701D1
:101B80009386911001C07586D70113968C91139797
:101B9000882309F457CE1396FE013A962BE0E20E05
:101BA000F11C8F018D918193EA16FB06D9F767E04E
:101BB000C8010E940C03998989133ACE80915B0376
:101BC0008F5F80935B038A85883239F008F079C093
:101BD000803119F0823209F02BCE80915C038F5F47
:101BE00080935C0380915D0390915E032091540388
:101BF000211122C00E94C903B80180915D03909118
:101C00005E030E94AA0340E064EB80915D03909123
:101C10005E030E94760380915D0390915E030E94B3
:101C20002303F82E80915D0390915E030E94C90307
:101C3000F11002C06092540380915D0390915E03A5
:101C40002A85203109F489C00E94C903811140C04E
:101C500080E086C0EA2DF0E0B81213C0D7011B96D1
:101C60008C911B971817A8F4AE0FBF1F13968C9179
:101C7000802389F4B12C193018F4D7011C961C93D9
:101C8000912EEE0DFF1D8381902F909589238383E4
:101C90000AC08113EFCFF701EA0DF11D8381802B7C
:101CA0008383BB24B3946B2DC7010E9447031F5F3E
:101CB000000F11F4A39401E0B7E0BA1508F04FCF7C
:101CC0005BCF8B3309F489CF823409F0B1CD85CF56
:101CD000B80180915D0390915E030E94AA0340E0E9
:101CE0006EEB80915D0390915E030E9476038E01FE
:101CF0000F5F1F4F7801180180905D0390905E0385
:101D000038E0A32EB12C512C44244394C4010E94EA
:101D1000230381115428440C31E0A31AB108B1F710
:101D2000D7015D927D01CA16DB0631F780915D0314
:101D300090915E030E94C903813009F089CFF801B8
:101D400081918F01811158C5EE15FF05C1F780CF34
:101D50008F3571F08F3709F07BCF8CE001C08AE0BE
:101D600090915703981708F063CD8093570360CD87
:101D70008BE0F6CFE9508EEE92E0E33038F4F0E0FD
:101D8000EE0FFF1FED5EFE4F808191816C01990F78
:101D9000EE08FF0880915503882329F060E08091C8
:101DA00056030E94C500C701B6010E945B018091E5
:101DB0005503882309F4D3CD61E0809156030E9436
:101DC000C500CDCD1092EE0223CE1092B60244CEC5
:101DD0001093BD0261E090E080E00E94321540E087
:101DE00050E0452B09F466CD0E94000063CD20E051
:101DF00030E04AEF53E46091B9027091BA028091E9
:101E0000BB029091BC020E948C1687FDC5C020E0E9
:101E100030E048EC51E46091C0027091C1028091C1
:101E2000C2029091C3020E940E1418160CF4B4C0A2
:101E30001093BD021092C5020E948E016B017C01BD
:101E40000E948E014090A0025090A1026090A202D8
:101E50007090A3026419750986099709683E73405A
:101E60008105910508F4BBCF8091B7029091B8022B
:101E70009C012F5F3F4F3093B8022093B702AC0113
:101E80004D50510942305105E0F421E041E060E05D
:101E900080E00E945D0789E793E00E94760261E09E
:101EA00080E00E942E028FE691E00E94C707C09258
:101EB000A002D092A102E092A202F092A302A89501
:101EC0008ECFAC01415151094330510588F421E0D6
:101ED00041E060E080E00E945D0789E793E00E94B6
:101EE000760261E080E00E942E0280E891E0DDCF82
:101EF0004897069788F421E041E060E080E00E9486
:101F00005D0789E793E00E94760261E080E00E942D
:101F10002E0281E991E0C9CF293231054CF021E050
:101F200041E061E081E00E945D070E94C907BFCFE8
:101F300021E041E060E081E00E945D0789E793E0F5
:101F40000E94760260E080E00E942E0280EA91E02A
:101F50000E94C7076091B7027091B802072E000C6B
:101F6000880B990B0E94C5088AE691E00E94C7077A
:101F700061E080E00E942E028BEA91E00E94C70798
:101F80006091B9027091BA028091BB029091BC023B
:101F900042E00E94E9078BCF0E948E016E8B7F8BFF
:101FA000888F998F0E948E01C090DA02D090DB0258
:101FB000E090DC02F090DD026C197D098E099F092A
:101FC000683E73408105910508F409CF8091B702FE
:101FD0009091B80201969093B8028093B702409016
:101FE000B9025090BA026090BB027090BC0220E02F
:101FF00030E041E654E4C301B2010E948C16181689
:102000001CF40E94C907EBCFC090C002D090C1025F
:10201000E090C202F090C30220E030E0A901C701C5
:10202000B6010E948C1687FD40C020E030E040EFF2
:1020300051E4C701B6010E940E141816B4F189E7E5
:1020400093E00E94760260E081E00E942E0282EB23
:1020500091E00E94C70721E041E060E080E00E943B
:102060005D0761E080E00E942E0280EC91E00E941A
:10207000C7076091C0027091C1028091C202909125
:10208000C30242E00E94E9078BEC91E00E94C7077F
:102090008E889F88A88CB98C8092DA029092DB029D
:1020A000A092DC02B092DD020ACF20E030E040EFE7
:1020B00051E4C701B6010E948C1618160CF081C0BD
:1020C00020E030E042E852E4C701B6010E940E145D
:1020D00087FF77C01092B8021092B7021092BD022B
:1020E00061E087E00E94C50060E084E00E94C500D6
:1020F00061E082E00E94C50089E793E00E947602D9
:1021000060E080E00E942E028EEC91E00E94C70702
:1021100061E080E00E942E0280EC91E00E94C707FF
:102120006091C0027091C1028091C2029091C3027D
:1021300042E00E94E9078BEC91E00E94C7070E94F1
:102140008E012091A502C090CA02D090CB02E090EF
:10215000CC02F090CD024B015C018C189D08AE08BA
:10216000BF08750164012223C9F020E1C21627E2ED
:10217000D206E104F10470F01092A5026093CA0245
:102180007093CB028093CC029093CD0260E086E006
:102190000E94C500A8951093C5027ACF20EDC21603
:1021A00027E0D206E104F104A8F31093A50260939E
:1021B000CA027093CB028093CC029093CD0261E06F
:1021C000E6CF20E030E042E852E4C701B6010E94C9
:1021D0008C1687FD5DCF8091B602811124C261E02B
:1021E00087E00E94C50060E084E00E94C50061E0D5
:1021F00082E00E94C500C090B202D090B302E0908D
:10220000B402F090B50220E030E04CE452E4C701A3
:10221000B6010E940E1418160CF45DC180910201E3
:10222000882309F458C10E948E01C090CE02D0903C
:10223000CF02E090D002F090D102E091A6024B01D3
:102240005C018C189D08AE08BF0875016401EE237F
:1022500009F42DC128EBC2162BE0D206E104F104EB
:1022600070F01092A6026093CE027093CF0280931A
:10227000D0029093D10261E086E00E94C5001093E5
:10228000C5020E948E016B017C0120E030EC4FE71B
:1022900054E4C301B2010E94E4159B01AC0160E06B
:1022A00070E080E89FE30E94771520E030E048EC82
:1022B00052E40E9474146093AE027093AF02809354
:1022C000B0029093B1021A8219821C821B821E8274
:1022D0001D8270E060E0CE0101960E94F308298122
:1022E0003A818111A7C12115310519F0C9010E9458
:1022F0005A171A8219821E821D821C821B828091AB
:10230000B60267ED71E0882311F068EE71E0CE014E
:1023100001960E941B098091DE029091DF02A0913C
:10232000E002B091E10246015701881A990AAA0A0F
:10233000BB0AD501C401883E9340A105B10578F1DF
:1023400089E793E00E94760260E080E00E942E021E
:10235000CE0101960E94FE0161E080E00E942E0203
:1023600089EF91E00E94C70761E086E00E942E029B
:102370006091AE027091AF028091B0029091B10273
:1023800042E00E94E9078FEF91E00E94C707C092E8
:10239000DE02D092DF02E092E002F092E102809150
:1023A000E2029091E302A091E402B091E5024601BD
:1023B0005701881A990AAA0ABB0AD501C401803DAF
:1023C0009740A105B10558F189E793E00E94760294
:1023D00060E080E00E942E02CE0101960E94FE0184
:1023E00061E080E00E942E0281E092E00E94C70737
:1023F00061E08BE00E942E026091C0027091C102E8
:102400008091C2029091C30242E00E94E907C0920B
:10241000E202D092E302E092E402F092E5028091BF
:10242000E6029091E702A091E802B091E90246012C
:102430005701881A990AAA0ABB0AD501C401883B28
:102440009B40A105B10558F189E793E00E9476020F
:1024500060E080E00E942E02CE0101960E94FE0103
:1024600061E080E00E942E028BE092E00E94C707AC
:1024700061E08BE00E942E026091B2027091B30283
:102480008091B4029091B50242E00E94E907C092A7
:10249000E602D092E702E092E802F092E902898136
:1024A0009A81009711F00E945A17A895F1CD30E15A
:1024B000C31637E2D306E104F10408F4E0CE10932A
:1024C000A6026093CE027093CF028093D0029093C5
:1024D000D10260E0D1CE20E030E044E352E4C70115
:1024E000B6010E948C1687FD59C020E030E04CE414
:1024F00052E4C701B6010E940E1487FF4FC00E942C
:102500008E018090D2029090D302A090D402B0901D
:10251000D502E091A7029B01AC01281939094A09AB
:102520005B092A8B3B8B4C8B5D8BEE2301F1283BA7
:102530003B404105510570F01092A7026093D20212
:102540007093D3028093D4029093D50261E086E029
:102550000E94C50020E030E044E352E4C701B60128
:102560000E940E1487FF8BCE1093020188CE8A88BA
:102570009B88AC88BD8820E1821627E29206A104E0
:10258000B10440F31093A7026093D2027093D30278
:102590008093D4029093D50260E0D9CF0E948E013F
:1025A0008090D6029090D702A090D802B090D90225
:1025B000E091A8029B01AC01281939094A095B097D
:1025C0002A8B3B8B4C8B5D8BEE23B1F0283B3B4041
:1025D0004105510570F01092A8026093D6027093E5
:1025E000D7028093D8029093D90261E086E00E94DE
:1025F000C50010920201AECF8A889B88AC88BD8846
:1026000020E1821627E29206A104B10490F3109310
:10261000A8026093D6027093D7028093D802909359
:10262000D90260E0E3CF20E041E061E080E00E9479
:102630005D0725CE1E821D826AEC71E0C9010E94F1
:10264000AE185DCE0E948E016B017C018091EA0282
:102650009091EB02A091EC02B091ED02A7019601DE
:10266000281B390B4A0B5B0BDA01C901883E9340EA
:10267000A105B10508F4B3CB8091C502882309F404
:1026800077C08091C402811151C080910301909163
:10269000040197FD3AC021E041E061E080E00E9442
:1026A0005D0789E793E00E94760260E080E00E9487
:1026B0002E0280E192E00E94C70761E080E00E9464
:1026C0002E026091030170910401072E000C880B0B
:1026D000990B0E94C5088AE691E00E94C707809185
:1026E00003019091040101979093040180930301E9
:1026F00060E090E080E00E94321568EE73E080E0D8
:1027000090E00E945B01A895C0CF61E090E080E07E
:102710000E9432151093C402A895C092EA02D0928A
:10272000EB02E092EC02F092ED0259CB89E793E0E4
:102730000E94760260E080E00E942E028CE192E02E
:102740000E94C70761E080E00E942E026091C002F3
:102750007091C1028091C2029091C30242E00E9436
:10276000E90721E041E061E081E00E945D07D4CF0C
:102770008091BE029091BF020597CCF589E793E066
:102780000E94760260E080E00E942E0284E292E0E5
:102790000E94C70760E089E00E942E026091BE029D
:1027A0007091BF02072E000C880B990B0E94C50880
:1027B00061E080E00E942E026091C0027091C1022F
:1027C0008091C2029091C30242E00E94E90721E099
:1027D00041E061E080E00E945D078091BE0290913F
:1027E000BF0201969093BF028093BE0295CF1093D3
:1027F000C5021093C402F1CF68E0C1010E940C032E
:102800009985891325CA8D818F3309F4A8CA08F0E8
:102810009FCA8F3109F01CCA89E0A2CA0E945014D5
:1028200008F481E00895E89409C097FB3EF4909580
:102830008095709561957F4F8F4F9F4F9923A9F099
:10284000F92F96E9BB279395F69587957795679528
:10285000B795F111F8CFFAF4BB0F11F460FF1BC06C
:102860006F5F7F4F8F4F9F4F16C0882311F096E9FF
:1028700011C0772321F09EE8872F762F05C06623AD
:1028800071F096E8862F70E060E02AF09A95660F66
:10289000771F881FDAF7880F9695879597F908951F
:1028A000990F0008550FAA0BE0E8FEEF1616170661
:1028B000E807F907C0F012161306E407F50798F0C9
:1028C000621B730B840B950B39F40A2661F0232BE2
:1028D000242B252B21F408950A2609F4A140A6955E
:1028E0008FEF811D811D08950E9487140C94F814A8
:1028F0000E94EA1438F00E94F11420F0952311F0A0
:102900000C94E1140C94E71411240C942C150E94DF
:10291000091570F3959FC1F3950F50E0551F629F05
:10292000F001729FBB27F00DB11D639FAA27F00D28
:10293000B11DAA1F649F6627B00DA11D661F829F4F
:102940002227B00DA11D621F739FB00DA11D621F34
:10295000839FA00D611D221F749F3327A00D611D51
:10296000231F849F600D211D822F762F6A2F112433
:102970009F5750409AF0F1F088234AF0EE0FFF1F66
:10298000BB1F661F771F881F91505040A9F79E3FBD
:10299000510580F00C94E1140C942C155F3FE4F386
:1029A000983ED4F3869577956795B795F795E79513
:1029B0009F5FC1F7FE2B880F911D9695879597F91C
:1029C000089597F99F6780E870E060E008959FEFB1
:1029D00080EC089500240A941616170618060906B6
:1029E000089500240A941216130614060506089585
:1029F000092E0394000C11F4882352F0BB0F40F40D
:102A0000BF2B11F460FF04C06F5F7F4F8F4F9F4F4C
:102A1000089557FD9058440F551F59F05F3F71F0CE
:102A20004795880F97FB991F61F09F3F79F0879535
:102A30000895121613061406551FF2CF4695F1DFBE
:102A400008C0161617061806991FF1CF869571054E
:102A5000610508940895E894BB2766277727CB0182
:102A600097F90895262FF999FECF1FBA92BD81BD1F
:102A700020BD0FB6F894FA9AF99A0FBE0196089500
:102A80002F923F924F925F926F927F928F929F927E
:102A9000AF92BF92CF92DF92EF92FF920F931F936C
:102AA000CF93DF93CDB7DEB7CA1BDB0B0FB6F8941D
:102AB000DEBF0FBECDBF09942A88398848885F845D
:102AC0006E847D848C849B84AA84B984C884DF80CE
:102AD000EE80FD800C811B81AA81B981CE0FD11DB2
:102AE0000FB6F894DEBF0FBECDBFED01089550586C
:102AF000BB27AA270E948F150C94F8140E94EA1491
:102B000038F00E94F11420F039F49F3F19F426F4B4
:102B10000C94E7140EF4E095E7FB0C94E114E92F14
:102B20000E94091558F3BA176207730784079507BF
:102B300020F079F4A6F50C942B150EF4E0950B2EED
:102B4000BA2FA02D0B01B90190010C01CA01A001FF
:102B50001124FF27591B99F0593F50F4503E68F15A
:102B60001A16F040A22F232F342F4427585FF3CF9B
:102B7000469537952795A795F0405395C9F77EF46C
:102B80001F16BA0B620B730B840BBAF09150A1F0B5
:102B9000FF0FBB1F661F771F881FC2F70EC0BA0F3B
:102BA000621F731F841F48F4879577956795B795C3
:102BB000F7959E3F08F0B0CF9395880F08F09927BE
:102BC000EE0F9795879508950E94F8150C94F814C8
:102BD0000E94F11458F00E94EA1440F029F45F3F7B
:102BE00029F00C94E11451110C942C150C94E71459
:102BF0000E94091568F39923B1F3552391F3951BAE
:102C0000550BBB27AA2762177307840738F09F5F0D
:102C10005F4F220F331F441FAA1FA9F335D00E2E7A
:102C20003AF0E0E832D091505040E695001CCAF7E7
:102C30002BD0FE2F29D0660F771F881FBB1F2617AA
:102C400037074807AB07B0E809F0BB0B802DBF0181
:102C5000FF2793585F4F3AF09E3F510578F00C9450
:102C6000E1140C942C155F3FE4F3983ED4F3869561
:102C700077956795B795F7959F5FC9F7880F911D71
:102C80009695879597F90895E1E0660F771F881F5D
:102C9000BB1F621773078407BA0720F0621B730B10
:102CA000840BBA0BEE1F88F7E09508950E945D161D
:102CB0006894B1110C942C1508950E94111588F098
:102CC0009F5798F0B92F9927B751B0F0E1F0660FF0
:102CD000771F881F991F1AF0BA95C9F714C0B13031
:102CE00091F00E942B15B1E008950C942B15672FDD
:102CF000782F8827B85F39F0B93FCCF38695779560
:102D00006795B395D9F73EF4909580957095619548
:102D10007F4F8F4F9F4F08950E94501408F48FEFFC
:102D200008950E945014880B990B0895A1E21A2E61
:102D3000AA1BBB1BFD010DC0AA1FBB1FEE1FFF1F5F
:102D4000A217B307E407F50720F0A21BB30BE40BAF
:102D5000F50B661F771F881F991F1A9469F76095F6
:102D60007095809590959B01AC01BD01CF010895B0
:102D7000EE0FFF1F0590F491E02D09940F931F9320
:102D8000CF93DF938230910510F482E090E0E091E0
:102D90009703F091980330E020E0B0E0A0E0309796
:102DA00099F42115310509F44AC0281B390B243048
:102DB0003105D8F58A819B816115710589F1FB0187
:102DC00093838283FE0111C040815181028113816E
:102DD00048175907E0F04817590799F4109761F020
:102DE00012960C93129713961C933296CF01DF9193
:102DF000CF911F910F91089500939703109398031B
:102E0000F4CF2115310551F04217530738F0A901CD
:102E1000DB019A01BD01DF01F801C1CFEF01F9CF5C
:102E20009093980380939703CDCFFE01E20FF31F99
:102E3000819391932250310939832883D7CF2091F0
:102E4000950330919603232B41F420910701309193
:102E5000080130939603209395032091050130914A
:102E600006012115310541F42DB73EB74091090106
:102E700050910A01241B350BE0919503F0919603C4
:102E8000E217F307A0F42E1B3F0B2817390778F041
:102E9000AC014E5F5F4F2417350748F04E0F5F1FA0
:102EA0005093960340939503819391939FCFF0E0C5
:102EB000E0E09CCFCF93DF930097E9F0FC013297DD
:102EC00013821282A0919703B0919803ED0130E034
:102ED00020E01097A1F420813181820F931F20916F
:102EE0009503309196032817390709F061C0F093D4
:102EF0009603E0939503DF91CF910895EA01CE17F1
:102F0000DF07E8F54A815B819E0141155105B1F764
:102F1000E901FB83EA8349915991C40FD51FEC174E
:102F2000FD0761F4808191810296840F951FE9016C
:102F300099838883828193819B838A83F0E0E0E098
:102F400012968D919C9113970097B9F52D913C9114
:102F50001197CD010296820F931F20919503309116
:102F600096032817390739F6309751F510929803D0
:102F700010929703B0939603A0939503BCCFD3838D
:102F8000C28340815181840F951FC817D90761F40E
:102F90004E5F5F4F88819981480F591F518340834D
:102FA0008A819B81938382832115310509F0B0CFFB
:102FB000F0939803E09397039ECFFD01DC01C0CF0F
:102FC00013821282D7CFB0E0A0E0E9EEF7E10C94D3
:102FD00042158C01009751F4CB010E94BE168C0162
:102FE000C801CDB7DEB7E0E10C945E15FC01E60F39
:102FF000F71F9C0122503109E217F30708F49DC026
:10300000D901CD91DC911197C617D70798F0C5303B
:10301000D10530F3CE0104978617970708F3C61B36
:10302000D70B2297C193D1936D937C93CF010E94CC
:103030005A17D6CF5B01AC1ABD0A4C018C0E9D1EEF
:10304000A0919703B0919803512C412CF12CE12CC5
:10305000109731F580919503909196038815990505
:1030600009F05CC04616570608F058C0809105016B
:1030700090910601009741F48DB79EB740910901E8
:1030800050910A01841B950BE817F90708F055C009
:10309000F0939603E0939503F90171836083A0CFC9
:1030A0008D919C91119712966C90129713967C902B
:1030B0001397A815B90559F56C0142E0C40ED11C4F
:1030C000CA14DB0420F1AC014A195B09DA0112963B
:1030D000159780F06282738251834083D9016D938A
:1030E0007C93E114F10471F0D7011396FC93EE93F5
:1030F000129776CF22968C0F9D1FF90191838083C2
:10310000F301EFCFF0939803E093970369CF48164C
:10311000590608F42C017D01D3019ACFCB010E94FE
:10312000BE167C01009749F0AE01B8010E94A518B7
:10313000C8010E945A17870153CF10E000E050CF1A
:1031400081E090E0F8940C94B518FB01DC0102C01A
:1031500001900D9241505040D8F70895FB01DC01D9
:1031600001900D920020E1F70895F894FFCF02003E
:103170000102000000990380000040145400401038
:10318000505E00BC00770100000000A5057805AD89
:10319000064E0571055E054F05000000001B02D1BB
:1031A00001AD060B03630607024A062B067700658E
:1031B00000730050524F564C494D41006E616E00F5
:1031C000696E66006F766600454953414757474927
:1031D0002050454C4C4554002073656300414552D6
:1031E000415320414E4F4958544F532031004145DF
:1031F00052415320414E4F4958544F5320320041C1
:103200004552415320414E4F4958544F5300414E6F
:1032100041464C454B53492000464F5449412000FC
:1032200058414D494C4920454E41555349004B4169
:103230005953414552494120002043005A455354B7
:10324000414D4120004B414E4F4E494B48204C458B
:1032500049542E2041004B414E4F4E494B48204C83
:103260004549542E204D00464F5449410025004BFE
:103270004159534145524941004E45524F004B413F
:103280005448415249534D4F53004B4C45495354B8
:0C3290004F004B4C454953494D4F000086
:107E0000112484B714BE81FFF0D085E080938100F7
:107E100082E08093C00088E18093C10086E0809377
:107E2000C20080E18093C4008EE0C9D0259A86E02C
:107E300020E33CEF91E0309385002093840096BBD3
:107E4000B09BFECF1D9AA8958150A9F7CC24DD24C4
:107E500088248394B5E0AB2EA1E19A2EF3E0BF2EE7
:107E6000A2D0813461F49FD0082FAFD0023811F036
:107E7000013811F484E001C083E08DD089C08234E0
:107E800011F484E103C0853419F485E0A6D080C0E4
:107E9000853579F488D0E82EFF2485D0082F10E0AE
:107EA000102F00270E291F29000F111F8ED06801E7
:107EB0006FC0863521F484E090D080E0DECF843638
:107EC00009F040C070D06FD0082F6DD080E0C81688
:107ED00080E7D80618F4F601B7BEE895C0E0D1E017
:107EE00062D089930C17E1F7F0E0CF16F0E7DF06D8
:107EF00018F0F601B7BEE89568D007B600FCFDCFD4
:107F0000A601A0E0B1E02C9130E011968C91119780
:107F100090E0982F8827822B932B1296FA010C0160
:107F200087BEE89511244E5F5F4FF1E0A038BF0790
:107F300051F7F601A7BEE89507B600FCFDCF97BE46
:107F4000E89526C08437B1F42ED02DD0F82E2BD052
:107F50003CD0F601EF2C8F010F5F1F4F84911BD097
:107F6000EA94F801C1F70894C11CD11CFA94CF0C13
:107F7000D11C0EC0853739F428D08EE10CD085E9AC
:107F80000AD08FE07ACF813511F488E018D01DD067
:107F900080E101D065CF982F8091C00085FFFCCF94
:107FA0009093C60008958091C00087FFFCCF809118
:107FB000C00084FD01C0A8958091C6000895E0E648
:107FC000F0E098E1908380830895EDDF803219F02E
:107FD00088E0F5DFFFCF84E1DECF1F93182FE3DFCA
:107FE0001150E9F7F2DF1F91089580E0E8DFEE27F6
:047FF000FF270994CA
:027FFE00040479
:00000001FF
