:100000000C9472000C949A000C949A000C949A0030
:100010000C949A000C949A000C949A000C949A00F8
:100020000C949A000C949A000C949A000C949A00E8
:100030000C949A000C949A000C949A000C949A00D8
:100040000C94F90A0C949A000C94690B0C94430BD1
:100050000C949A000C949A000C949A000C949A00B8
:100060000C949B0B0C949A00005EBCE2613FDD8314
:10007000C29C7E20A3FD1F41009D23BE46DB65F888
:100080008C11AF32CA57E974000000002400270029
:100090002A0000000000250028002B0000000008B6
:1000A000000201000003040700000000000000003F
:1000B00000000000230026002900040404040404B6
:1000C0000404020202020202030303030303010207
:1000D00004081020408001020408102001020408D6
:1000E0001020BA0C11241FBECFEFD8E0DEBFCDBF69
:1000F00011E0A0E0B1E0EAE4F9E202C005900D925F
:10010000AE3BB107D9F724E0AEEBB1E001C01D92E0
:10011000AA38B207E1F710E0C2E7D0E004C02197A7
:10012000FE010E949814C137D107C9F70E948D0DB6
:100130000C94A3140C94000090E0FC01E456FF4FD3
:100140002491FC01E253FF4F3491FC01E654FF4F30
:10015000E491EE23C9F0222339F0233001F1A8F411
:10016000213019F1223029F1F0E0EE0FFF1FEE5699
:10017000FF4FA591B4918FB7F894EC91611126C00F
:1001800030953E233C938FBF08952730A9F0283047
:10019000C9F0243049F7809180008F7D03C08091A1
:1001A00080008F7780938000DFCF84B58F7784BD08
:1001B000DBCF84B58F7DFBCF8091B0008F778093AC
:1001C000B000D2CF8091B0008F7DF9CF3E2BDACF37
:1001D000CF93DF93D62FC42F682F84E00E949C001A
:1001E0006D2F82E00E949C006C2F86E00E949C0094
:1001F00061E087E0DF91CF910C949C00CF93DF9377
:1002000090E0FC01E253FF4F249186549F4FFC0184
:1002100084918823D1F090E0880F991FFC01E85762
:10022000FF4FA591B491FC01EE56FF4FC591D491BB
:1002300061110EC09FB7F8948C91E22FE0958E2348
:100240008C932881E223E8839FBFDF91CF910895AB
:100250008FB7F894EC91E22BEC938FBFF6CF8E50D2
:10026000806480937C0080917A00806480937A001F
:1002700080917A0086FDFCCF809178009091790082
:1002800008953FB7F89480914A0290914B02A09153
:100290004C02B0914D0226B5A89B05C02F3F19F026
:1002A0000196A11DB11D3FBFBA2FA92F982F8827F6
:1002B000BC01CD01620F711D811D911D42E0660FD1
:1002C000771F881F991F4A95D1F708958F929F92A3
:1002D000AF92BF92CF92DF92EF92FF926B017C01BF
:1002E0000E9441014B015C01C114D104E104F104FD
:1002F000B9F00E944101681979098A099B09683E91
:1003000073408105910580F321E0C21AD108E1080C
:10031000F10888EE880E83E0981EA11CB11CE4CF82
:10032000FF90EF90DF90CF90BF90AF909F908F9015
:1003300008952FB7F894609146027091470280911A
:100340004802909149022FBF08950895E0912A0232
:10035000F0912B02309729F010927B0210929D02AF
:1003600009940895CF93DF93AC01E0912802F091B6
:1003700029023097F1F09091270280912602981778
:10038000C0F090E0292F30E02617370754F4D90148
:10039000A254BE4F240F351FE90128812C939F5F83
:1003A000F1CF1092270260932602CB01DF91CF910B
:1003B0000994DF91CF910895AF92BF92CF92DF92CF
:1003C000EF92FF920F931F93CF93DF936C017B010A
:1003D0008B01040F151FEB015E01AE18BF08C0179B
:1003E000D10759F06991D601ED91FC910190F0810E
:1003F000E02DC6010995892B79F7C501DF91CF91D1
:100400001F910F91FF90EF90DF90CF90BF90AF9032
:100410000895FC01538D448D252F30E0842F90E00A
:10042000821B930B541710F0CF96089501970895EF
:10043000FC01918D828D981761F0A28DAE0FBF2FB8
:10044000B11D5D968C91928D9F5F9F73928F90E00E
:1004500008958FEF9FEF0895FC01918D828D98177D
:1004600031F0828DE80FF11D858D90E008958FEFBA
:100470009FEF0895FC01918D228D892F90E0805C83
:100480009F4F821B91098F73992708958EE992E0FF
:100490000E943A0221E0892B09F420E0822F08957E
:1004A00080E090E0892B29F00E94460281110C9493
:1004B00000000895FC01A48DA80FB92FB11DA35A07
:1004C000BF4F2C91848D90E001968F739927848F74
:1004D000A689B7892C93A089B1898C918370806497
:1004E0008C93938D848D981306C00288F389E02D38
:1004F00080818F7D80830895EF92FF920F931F93E9
:10050000CF93DF93EC0181E0888F9B8D8C8D9813C6
:100510001AC0E889F989808185FF15C09FB7F894D2
:10052000EE89FF896083E889F9898081837080641E
:1005300080839FBF81E090E0DF91CF911F910F9169
:10054000FF90EF900895F62E0B8D10E00F5F1F4F78
:100550000F731127E02E8C8D8E110CC00FB607FC87
:10056000FACFE889F989808185FFF5CFCE010E9415
:100570005A02F1CFEB8DEC0FFD2FF11DE35AFF4F27
:10058000F0829FB7F8940B8FEA89FB8980818062A3
:10059000CFCFCF93DF93EC01888D8823B9F0AA8960
:1005A000BB89E889F9898C9185FD03C0808186FD2E
:1005B0000DC00FB607FCF7CF8C9185FFF2CF80817D
:1005C00085FFEDCFCE010E945A02E9CFDF91CF9196
:1005D000089521E001C0220F6A95EAF7DC011C961C
:1005E0002C931C971A965C934E931997ED91FC915E
:1005F0000484F585E02D60E00994DC01ED91FC9127
:100600000684F785E02D41E0099581E090E00895AA
:10061000DC01ED91FC910684F785E02D40E0099422
:100620000F931F93CF93DF93CDB7DEB728970FB605
:10063000F894DEBF0FBECDBF0091020110910301FF
:1006400020910401309105010D831E832F8338878B
:1006500000910601109107012091080130910901D4
:1006600009831A832B833C8390917303691710F0DD
:100670006FEF690F262F30E0409174032C0F3D1F60
:10068000F901403199F4943089F46181680F606810
:100690008CE693E028960FB6F894DEBF0FBECDBF70
:1006A000DF91CF911F910F910C9408036581EECFDC
:1006B00061E00E9408038BE39FE10197F1F7089541
:1006C0000F931F93CF93DF93EC01423018F08C818E
:1006D00088608C834F836887222329F0413019F486
:1006E0008C8184608C8364E670E080E090E00E94FE
:1006F00066016C8164FD57C0E881F9810684F78545
:10070000E02D42E063E0CE0109958BE496E4019789
:10071000F1F7E881F9810684F785E02D42E063E096
:10072000CE01099503E512E0C8010197F1F7E881D0
:10073000F9810684F785E02D42E063E0CE0109955A
:10074000C8010197F1F7E881F9810684F785E02D6A
:1007500042E062E0CE010995C8010197F1F76C8192
:100760006062CE010E9408038BEE90E00197F1F7E2
:1007700084E08D836CE0CE010E940803CE010E94CC
:10078000580382E08E8366E0CE010E940803E88170
:10079000F9810484F585E02D6FEFCE01DF91CF91D3
:1007A0001F910F9109946062CE010E9408038BE4AF
:1007B00096E40197F1F76C816062CE010E94080314
:1007C00003E512E0C8010197F1F76C816062CE0188
:1007D0000E940803C1CF089508950895DC0180E0C8
:1007E000615090F09D919827E92FEF70F0E0E85963
:1007F000FF4F2491E92FE295EF70F0E0E858FF4FAA
:10080000E491822F8E27ECCF0895DC012C91119674
:10081000ED91FC91F8948181822B81839281322F1A
:1008200030959323928387E090E00197F1F78181DF
:100830008323818383E290E00197F1F7908178949C
:10084000EFECF0E03197F1F7922381E009F480E0DA
:100850000895FC0190810180F281E02D292F2095DF
:1008600060FF14C0F8948281822382838181892B66
:100870008183A3E2B0E01197F1F78281982B9283F4
:10088000789487ED90E00197F1F70895F8948281CC
:10089000822382838181892B8183AFEFB0E011971E
:1008A000F1F78281982B928378948FE090E0EBCFE0
:1008B000DF92EF92FF920F931F93CF93DF93EC01A0
:1008C000D62EE42E08E010E0FF24F39461E08D2D95
:1008D0008F2109F460E0CE010E942904FF0C015031
:1008E0001109A1F7E11010C0F894E981FA81918112
:1008F0008881809589238183E981FA819281888129
:100900008095892382837894DF91CF911F910F91F5
:10091000FF90EF90DF900895EF92FF920F931F9357
:10092000CF93DF938C017B0140E065E50E94580482
:10093000E70188E0E80EF11C699140E0C8010E94DF
:100940005804CE15DF05C1F7DF91CF911F910F91AC
:10095000FF90EF900895FC0190810180F281E02DDD
:10096000F8948181292F20958223818378943DE713
:1009700043E050E0315029F1DA011197F1F780811D
:100980008923C1F3F8948281822382838181892B18
:1009900081837894ABE7B7E01197F1F7F894818100
:1009A00082238183A3E1B1E01197F1F7808198233D
:1009B00081E009F080E07894E3E6F6E03197F1F722
:1009C000089580E008956F927F928F929F92AF92E8
:1009D000BF92CF92DF92EF92FF920F931F93CF932C
:1009E000DF938C01EB0180915003909151030E94A1
:1009F000AB04882309F43FC0B80180915003909163
:100A000051030E948C0440E06EEB80915003909162
:100A100051030E9458047E016E0189E0C80ED11C6A
:100A20008E01A0905003B090510388E0882E912C45
:100A3000712C66246394C5010E94050481117628F7
:100A4000660CE1E08E1A9108B1F7F80171928F01FE
:100A5000CE16DF0631F780915003909151030E942A
:100A6000AB04813041F4F70181917F01811105C010
:100A7000E017F107C1F790E008C068E0CE010E94DE
:100A8000EE0391E028852813F6CF892FDF91CF91CF
:100A90001F910F91FF90EF90DF90CF90BF90AF909C
:100AA0009F908F907F906F9008952091FF01260F67
:100AB0003327331F21323105ECF420917402FC01FD
:100AC00090E080E0243069F082E00895A091FF0179
:100AD0002191AC0141525E4FA40FB52FB11D2C9353
:100AE0000196861798F38091FF01680F6093FF01CC
:100AF00080E0089581E008951092740281E080936F
:100B0000730210924E0261E082E10E949C0061E05B
:100B100083E10E949C00E9EBF0E080818E7F80837E
:100B200080818D7F808388E48093B80085E4809302
:100B3000BC000895CF93DF9391E09093DE0188236A
:100B4000B9F0C091B800D091BA008091BC008A7B06
:100B50008093BC0060E082E10E949C0060E083E141
:100B60000E949C000E947C05D093BA00C093B800FC
:100B7000DF91CF910895CF92DF92EF92FF920F9382
:100B80001F93CF93DF93D0919D0281E0D13208F083
:100B90009CC0C0919C020E9441016B017C0180912C
:100BA000740281116CC082E08093740281E08093B2
:100BB00073028FEF8093720210927102D0937002D1
:100BC000ACE7B2E0E0E5F2E080E0D8138DC010922F
:100BD0004F0280914F02CC0FC82BC0934F028091DF
:100BE0004E02813009F084C010924E020E944101F1
:100BF0006B017C0180914F028093BB008091760253
:100C000090917702A0917802B0917902892B8A2B7A
:100C10008B2BA1F00E944101009176021091770286
:100C200020917802309179026C197D098E099F0913
:100C3000061717072807390708F442C08091BC003F
:100C400083FDD8CF85EC8093BC000E9441016B01ED
:100C50007C0180917402823009F44CC08091720250
:100C60008F3F09F469C080917202803209F466C036
:100C700080917202803309F463C084E026C08091C1
:100C8000760290917702A0917802B0917902892B37
:100C90008A2B8B2B09F483CF0E94410100917602AD
:100CA0001091770220917802309179026C197D09B8
:100CB0008E099F09061717072807390708F06FCF15
:100CC000809175020E949A0585E010927B02109235
:100CD0009D0210927A02DF91CF911F910F91FF90A8
:100CE000EF90DF90CF9008959D9191938F5F6DCF9E
:100CF00085EEA9CF8091760290917702A09178023B
:100D0000B0917902892B8A2B8B2B09F4A2CF0E94F8
:100D10004101009176021091770220917802309182
:100D200079026C197D098E099F0906171707280794
:100D3000390708F08ECFC4CF80E0C7CF82E0C5CF9F
:100D400083E0C3CF0895E091270280912602E8173F
:100D500030F4F0E0E254FE4F808190E008958FEF90
:100D60009FEF089590912702809126022FEF3FEF89
:100D7000981748F4E92FF0E0E254FE4F208130E06C
:100D80009F5F90932702C901089580912602909158
:100D90002702891B990B0895CF92DF92EF92FF9261
:100DA0000F931F93CF93DF937C01CB018A01209196
:100DB0007A02222389F0EB016B01C40ED51ECC15FB
:100DC000DD0569F06991D701ED91FC910190F08109
:100DD000E02DC7010995F3CF642F0E945505C80186
:100DE000DF91CF911F910F91FF90EF90DF90CF9007
:100DF0000895CF93DF931F92CDB7DEB7698320911B
:100E00007A022223F9F020919D02203258F021E04D
:100E100030E0FC013383228390E080E00F90DF918B
:100E2000CF91089580917B02E82FF0E0E458FD4FC8
:100E3000998190838F5F80937B0280939D0281E0F4
:100E400090E0ECCF61E0CE0101960E945505F7CF0E
:100E5000FC0123812223E1F08181682B6083828160
:100E600091E090937A0280939C0210927B02109200
:100E70009D028BE393E00E94F9060E94BB05282F98
:100E800030E081E090E0232B11F090E080E00895C5
:100E900030E020E0F6CFEF92FF920F931F93CF93B5
:100EA0008C01FC0184E0C0E0262F30E060FF02C02E
:100EB0009589C92BB9017595679581503196811136
:100EC000F3CF413011F4F8014489F8016585C62B50
:100ED000C42B7801FEE0EF0EF11CF80162896C2B47
:100EE000C7010E942807F801628960956C23C70139
:100EF000CF911F910F91FF90EF900C9428070F93C3
:100F00001F93CF93DF93062F0F70423041F440E0E0
:100F1000602FDF91CF911F910F910C944B07142FED
:100F2000EC0170E084E0759567958A95E1F7CE0154
:100F30000E944B07412F602FCE01EBCFFC0184852F
:100F40008823A1F0218532852115310521F4611115
:100F500007C0158606C021303105D9F76111F9CFD8
:100F600085876585CF010E960C9428070895EF922A
:100F7000FF920F931F93CF93DF93EC01062FF42E74
:100F8000E22E8B85888B10922702109226021092F7
:100F90007B0210929D020E947C0586EA91E090936C
:100FA00025028093240282EB91E0909323028093A8
:100FB0002202888911E010937A0280939C020E9499
:100FC000BB0581111CC0198B8BE393E00E94B20614
:100FD0008E878989882339F01F861C8260E0CE01C4
:100FE0000E960E9428072E2D4F2D602FCE01DF91E7
:100FF000CF911F910F91FF90EF900C946003198A8D
:10100000E8CF90E080E008954F925F926F927F92D8
:101010008F929F92AF92BF92CF92DF92EF92FF9208
:101020000F931F93CF93DF93CDB7DEB72C970FB6F7
:10103000F894DEBF0FBECDBF60913E0270913F02BB
:1010400080914002909141020E94EF124B017B017E
:1010500060913A0270913B0280913C0290913D0276
:101060000E94EF122B016B0160912C0270912D02F6
:1010700080912E0290912F020E94EF128B01072E79
:10108000000C880B990B0E94271320E030E040E011
:101090005FE317FD5DC00E940C120E94EF12162F35
:1010A000072FB201550C880B990B0E94271320E0E3
:1010B00030E040E05FE3D7FC4EC00E940C120E947B
:1010C000EF12D62EC72EB401990C880B990B0E94F3
:1010D000271320E030E040E05FE3F7FC3FC00E94D0
:1010E0000C120E94EF1209831A8328E431E02B834B
:1010F000CC82DD8224E531E02E837F8368878AE419
:1011000091E089871A868CE491E08B8781E08C8757
:101110004CE050E0BE016F5F7F4F8BE393E00E9495
:10112000CC062C960FB6F894DEBF0FBECDBFDF9174
:10113000CF911F910F91FF90EF90DF90CF90BF90D4
:10114000AF909F908F907F906F905F904F90089599
:101150000E940B12A2CF0E940B12B1CF0E940B1261
:10116000C0CFBF92CF92DF92EF92FF920F931F9367
:10117000CF93DF93EC01B62EC72E8D85811105C06C
:10118000CE010E94AB0481110EC01B861D861C86F9
:1011900080E0DF91CF911F910F91FF90EF90DF9052
:1011A000CF90BF90089540E060EFCE010E945804B8
:1011B00001E0E12CD12C11E0CE010E940504F82EB3
:1011C000CE010E94050491E0F91218C0813099F512
:1011D0001134D8F2DB86D11002C081E08D878B817B
:1011E000882399F22396EB2DFC2DCF0108962991A7
:1011F0002193E817F907D9F781E0CBCFEE2DF0E086
:10120000F8120FC08B851817A0F4DE01AE0FBF1FB8
:1012100013968C91802379F4F12C193008F41C87F3
:10122000D12EEC0FFD1F8381902F9095892383830E
:101230000AC08113F1CFFE01EE0DF11D8381802BD9
:101240008383FF24F3946F2DCE010E9429041F5F36
:10125000000F11F4E39401E087E08E1508F0ACCFA5
:10126000B7CF0E949E14FB0101900020E9F731974F
:10127000AF01461B570BDC01ED91FC910280F3811D
:10128000E02D09948F929F92AF92BF92EF92FF92BE
:101290000F931F93CF93DF93CDB7DEB7A1970FB610
:1012A000F894DEBF0FBECDBF7C01FA01CB0119A2BD
:1012B000223008F42AE08E010F5D1F4F822E912C00
:1012C000B12CA12CBF01A50194010E946214F90167
:1012D000CA016A300CF5605DD8016E938D01232B35
:1012E000242B252B79F790E080E0109721F0BD01A9
:1012F000C7010E943309A1960FB6F894DEBF0FBE56
:10130000CDBFDF91CF911F910F91FF90EF90BF90D4
:10131000AF909F908F900895695CDECFCF92DF925F
:10132000EF92FF92CF93DF936B017C016DE28CE62D
:1013300093E00E94FD02EC0144275527BA014C19A5
:101340005D096E097F092AE08CE693E00E9442095C
:101350008C0F9D1FDF91CF91FF90EF90DF90CF908A
:1013600008952F923F924F925F926F927F928F9249
:101370009F92AF92BF92CF92DF92EF92FF921F9314
:10138000CF93DF93EC016A017B01722EAB019601D2
:10139000CB01B6010E9449146EE471E0811126C0B0
:1013A00046015701E894B7F82FEF3FEF4FE75FE7AB
:1013B000C501B4010E94491481110CC02FEF3FEF09
:1013C0004FE75FE7C501B4010E94781262E571E062
:1013D000181664F02FEF3FEF4FE75FE4C701B60147
:1013E0000E94D7131816B4F466E571E0CE01DF91C0
:1013F000CF911F91FF90EF90DF90CF90BF90AF9073
:101400009F908F907F906F905F904F903F902F9024
:101410000C9433092FEF3FEF4FE75FECC701B601A4
:101420000E94781287FDE0CF20E030E0A901C701DB
:10143000B6010E947812312C212C87FF0DC0E88163
:10144000F9810190F081E02D6DE2CE0109951C013A
:10145000F7FAF094F7F8F09410E060E070E080E0C4
:101460009FE3711641F020E030E040E251E40E9439
:101470007D121F5FF6CFA70196010E940C122B016F
:101480003C010E94F6124B015C012AE0BC01A40160
:10149000CE010E9442097C01E20CF31C1123E1F110
:1014A000C501B4010E9425139B01AC01C301B20127
:1014B0000E940B124B015C01E881F9810190F081DF
:1014C000E02D6EE2CE010995E80EF91E115020F1D3
:1014D00020E030E040E251E4C501B4010E94DC1399
:1014E0002B013C010E94F6124B01B12CA12C2AE0E9
:1014F000B501A401CE010E944209E80EF91EC50102
:10150000B4010E9425139B01AC01C301B2010E94EA
:101510000B124B015C01DACFC701DF91CF911F9114
:10152000FF90EF90DF90CF90BF90AF909F908F9003
:101530007F906F905F904F903F902F9008958CE632
:1015400093E00E94580361E084E00E9410036AE582
:1015500071E08CE693E00E94330961E08DE00E9427
:101560009C0064EF71E080E090E00E94660160E022
:101570008DE00E949C0064EF71E080E090E00C94AC
:10158000660185ED8093BC00809176029091770290
:10159000A0917802B09179020796A11DB11D23E0B8
:1015A000B695A795979587952A95D1F72091BC0078
:1015B00024FD03C010927402089540917602509168
:1015C00077026091780270917902452B462B472B68
:1015D00069F30097A105B10541F02AE22A95F1F7D8
:1015E00000C00197A109B109E1CF809175020C9467
:1015F0009A051F920F920FB60F9211242F933F93CB
:101600008F939F93AF93BF9380914602909147022F
:10161000A0914802B09149023091450223E0230F86
:101620002D3758F50196A11DB11D209345028093D9
:10163000460290934702A0934802B09349028091DA
:101640004A0290914B02A0914C02B0914D0201963A
:10165000A11DB11D80934A0290934B02A0934C02AE
:10166000B0934D02BF91AF919F918F913F912F9178
:101670000F900FBE0F901F90189526E8230F02962B
:10168000A11DB11DD2CF1F920F920FB60F92112440
:101690002F933F934F935F936F937F938F939F937A
:1016A000AF93BF93EF93FF938EE992E00E945A02AB
:1016B000FF91EF91BF91AF919F918F917F916F912A
:1016C0005F914F913F912F910F900FBE0F901F9000
:1016D00018951F920F920FB60F9211242F938F938C
:1016E0009F93EF93FF93E091AE02F091AF02808160
:1016F000E091B402F091B50282FD1BC0908180910F
:10170000B7028F5F8F732091B802821741F0E0918A
:10171000B702F0E0E256FD4F958F8093B702FF913C
:10172000EF919F918F912F910F900FBE0F901F906F
:1017300018958081F4CF1F920F920FB60F9211244B
:101740002F933F934F935F936F937F938F939F93C9
:10175000AF93BF93EF93FF938091B900887F80365A
:1017600009F44AC0F0F5883209F4A7C018F58031B1
:1017700009F49BC0B8F4882309F4F9C0883009F44F
:1017800094C0FF91EF91BF91AF919F918F917F9105
:101790006F915F914F913F912F910F900FBE0F90DE
:1017A0001F901895883109F488C0803251F78093D2
:1017B000720214C0803409F49DC040F48033B9F340
:1017C0008833F9F68093720285ECB0C0803509F455
:1017D00085C0883509F496C0883499F60E94C10AFC
:1017E000D0CF883909F48CC038F5883729F050F407
:1017F000883611F0803729F683E0809374021092C6
:10180000210257C0883809F47BC0803919F080382C
:1018100009F0B7CF80912102803208F071C0E091C9
:10182000210281E08E0F809321028091BB00F0E0C5
:10183000EF5FFD4F80833DC0803B39F0E0F4803A9C
:1018400009F479C0883A09F09CCF84E0809374024F
:10185000109200021092FF01E0912402F091250203
:1018600009958091FF0181110FC081E08093FF01F4
:101870001092DF0109C0803C09F4A6CF883C09F42E
:10188000A3CF883B09F07DCFE091000281E08E0F6D
:1018900080930002F0E0E152FE4F80818093BB0014
:1018A000909100028091FF0129C080914F028093A6
:1018B000BB0085EC8093BC0064CF90917102809155
:1018C0007002981758F5E091710281E08E0F8093B5
:1018D0007102F0E0E05BFD4F8081E9CFE0917102A1
:1018E00081E08E0F809371028091BB00F0E0E05B9D
:1018F000FD4F808390917102809170029817C8F219
:1019000085E8D8CFE091710281E08E0F809371025B
:101910008091BB00F0E0E05BFD4F8083809173021B
:1019200081115CCF81E080934E0284EA8093BC00F9
:101930001092740226CF85EC8093BC001092740242
:1019400080912102803230F4E0912102F0E0EF5FDB
:10195000FD4F10826091210270E0E0912202F0912F
:10196000230281E092E00995109221020ACF1092A1
:10197000720234CF1F93CF93DF93EEE9F2E013822C
:10198000128288EE93E0A0E0B0E084839583A68382
:10199000B78324E131E03183208325EC30E03587C3
:1019A000248724EC30E03787268720EC30E0318B29
:1019B000208B21EC30E0338B228B22EC30E0358B16
:1019C000248B26EC30E0378B268B118E128E138EF3
:1019D000148EEBE3F3E01382128284839583A68353
:1019E000B78386E291E091838083109289031092FD
:1019F0008803EAE8F3E080E091E0DF019C011D92BA
:101A000021503040E1F7C5E8D3E08AE0888319E04F
:101A10001A8388E0898361E089E00E94FE0061E02A
:101A200088810E94FE0060E089810E94FE0061E0E2
:101A30008A810E949C00ECE6F3E01382128288E324
:101A400091E091838083108A8FEF87871686118AB1
:101A500087E28387148615861286118684E0828B3E
:101A600082E0838BC1E0C48B80E1858B80E2868B32
:101A700080E4878B80E8808F50E040E063E0CF0116
:101A80000E94E90260E085E00E94FE00E3EDF0E0E4
:101A9000E491AEE5B3E0EC93EFEBF0E0E491F0E03D
:101AA000EE0FFF1FE055FF4F8591949112969C9386
:101AB0008E9311971B961C921B971D961C921D9737
:101AC0001C961C921C971A961C921A9719961C9297
:101AD000199718961C92189717961C921797169696
:101AE0001C92169715961C92159714961C92149793
:101AF00013961C921397E7E4F3E0168A158A118275
:101B0000B287A1871782108610821383C483C5838E
:101B1000C683DF91CF911F910895CF93DF93CDB707
:101B2000DEB761970FB6F894DEBF0FBECDBF7894D5
:101B300084B5826084BD84B5816084BD85B58260D2
:101B400085BD85B5816085BD80916E008160809383
:101B50006E001092810080918100826080938100EC
:101B600080918100816080938100809180008160FC
:101B7000809380008091B10084608093B100809157
:101B8000B00081608093B00080917A00846080937F
:101B90007A0080917A00826080937A0080917A0046
:101BA000816080937A0080917A00806880937A00C7
:101BB0001092C10041E061E081E00E94E80061E034
:101BC00084E00E94FE0061E082E00E94FE0061E08D
:101BD00086E00E94FE0061E087E00E94FE0061E076
:101BE0008DE00E94FE0020E042E060E18CE693E0A0
:101BF0000E94B707E0915003F091510313861586B8
:101C00001486128611861086178216821582148217
:101C1000138210924E0310924F0311E0BE01665FD3
:101C20007F4F80915003909151030E94B108882307
:101C300009F475C067E0CE010A960E94EE03998907
:101C40008913ECCF80914E038F5F80934E038A857A
:101C5000883231F008F049C0803111F08232F1F65B
:101C600080914F038F5F80934F03809147038111D1
:101C700028C080915003909151030E94AB04BE0193
:101C8000665F7F4F80915003909151030E948C04B6
:101C900040E064EB80915003909151030E945804FE
:101CA00080915003909151030E940504082F809168
:101CB0005003909151030E94AB04011102C0109394
:101CC00047038A858031E1F0BE016F5F7F4FCE010F
:101CD0000A960E94E304882331F08D818F33D9F076
:101CE00058F48F31D1F080E00EC08B3309F4B8CFB7
:101CF000823409F093CFB4CF8F3521F08F3799F725
:101D00008CE001C08BE090914A03981708F086CFD1
:101D100080934A0383CF8AE0F6CF89E0F4CF109214
:101D200027021092260210927B0210929D020E94BE
:101D30007C0586EA91E0909325028093240282EB51
:101D400091E0909323028093220280E18093BA0075
:101D500085EA91E0909329028093280284E098E03C
:101D600090932B0280932A02E091AE02F091AF0291
:101D700082E08083E091AA02F091AB021082E091B0
:101D8000AC02F091AD028FEC80831092B602E0912C
:101D9000B202F091B30286E08083E091B002F0914C
:101DA000B102808180618083E091B002F091B10244
:101DB000808188608083E091B002F091B1028081DF
:101DC00080688083E091B002F091B10280818F7DC4
:101DD000808388E19FE00FB6F894A8958093600017
:101DE0000FBE9093600090E080E00E94F511811199
:101DF00003C00E949F0AF7CF8CE693E00E9458032D
:101E000061E080E00E94100390E080E00E94F51104
:101E1000482F50E070E060E02AE08CE693E00E94FA
:101E2000420961E090E080E00E94FD1100E010E0D6
:101E3000BB24B3940E9499016B017C010E9499011B
:101E40004090300250903102609032027090330224
:101E50006419750986099709683E734081059105E3
:101E600008F4D6C080915003909151030E94AB04B6
:101E700040E06CEC80915003909151030E94580413
:101E80004091470364E480915003909151030E9474
:101E9000580480914B03882311F1E0914A0380910B
:101EA0004C03882309F429C180914703811125C17E
:101EB0000E9499012B013C018091500390915103A4
:101EC0000E940504813059F00E9499016419750936
:101ED000860997096E3E72408105910568F3E0918D
:101EE0005003F091510313861586148612861186CD
:101EF000108617821682158214821382BE01665FD5
:101F00007F4F80915003909151030E94B10881113D
:101F10001CC160E070E08EEF92EC60932C02709335
:101F20002D0280932E0290932F028FE00E942F01AA
:101F3000BC01990F880B990B0E94271360933E02F6
:101F400070933F0280934002909341028EE00E9482
:101F50002F01BC01990F880B990B0E9427132B01AD
:101F60003C0140923A0250923B0260923C027092D5
:101F70003D0280E10E942F01BC01990F880B990B53
:101F80000E94271320E030E040EA50E40E94DC1376
:101F900020E030E040E85AE30E94DC132DEC3CECFA
:101FA0004CE45EE30E947D1220E030E040E451E426
:101FB0000E94D71318160CF019C1B092440222E007
:101FC000B301A2018EE992E00E94B10963E671E0DB
:101FD0008EE992E00E94330940913E0250913F0207
:101FE000609140027091410222E08EE992E00E94ED
:101FF000B10963E671E08EE992E00E943309C09274
:102000003002D0923102E0923202F0923302A8956F
:1020100080914402882309F4F9C080914302811120
:1020200001C1809142028111FDC020E030E04CE00E
:1020300052E460913E0270913F0280914002909183
:1020400041020E94781287FD11C020E030E041E695
:1020500054E460913A0270913B0280913C0290916D
:102060003D020E94D71318160CF0DCC080910001CD
:102070009091010197FDC3C040E061E081E00E94C2
:10208000E8008CE693E00E94580360E080E00E9444
:10209000100366E671E08CE693E00E94330961E08C
:1020A00080E00E9410034091000150910101052E33
:1020B000000C660B770B77FF9CC0CB01BA010E9426
:1020C0008E0966E771E08CE693E00E943309809107
:1020D000000190910101019790930101809300010B
:1020E00060E090E080E00E94FD1168EE73E080E027
:1020F00090E00E946601A895B9CFE9508EEE92E07B
:10210000E33038F4F0E0EE0FFF1FE65FFE4F808112
:1021100091812C01990F66087708809148038823E4
:1021200029F060E0809149030E949C00C301B20144
:102130000E94660180914803882309F4D0CE61E0B3
:10214000809149030E949C00CACE67E0CE010A96A6
:102150000E94EE0399898913DCCEBE016F5F7F4F29
:10216000CE010A960E94E304882309F4D2CE6A8144
:1021700070E0762F6627770F770F770F298158E069
:10218000259F90011124262B372B8A858031E1F47D
:1021900068856623C9F070E08F81AB01481B510947
:1021A000CA019695982F8827979587950E944E1477
:1021B000CB018097B90153E0660F771F5A95E1F77D
:1021C00060789C01260F371F213854EE35070CF438
:1021D000A0CEB901330F880B990B0E94271320E082
:1021E00030E040E05CE30E94DC1397CE10924402A2
:1021F000E6CE2AE08CE693E00E94420962CFB092DC
:10220000420261E090E080E00E94FD11011511059D
:1022100009F410CE0E944602882309F40BCE0E94D6
:10222000000008CE20E030E04AEF53E460913A022B
:1022300070913B0280913C0290913D020E94D71325
:1022400087FDE4CF20E030E048EC51E460913E02AD
:1022500070913F0280914002909141020E94781259
:102260001816A4F20E9499016B017C010E94990149
:1022700040903602509037026090380270903902D8
:102280006419750986099709683E734081059105AF
:1022900008F4BCCF10924302809134029091350231
:1022A0009C012F5F3F4F3093350220933402AC01E5
:1022B0004D50510942305105A0F441E060E080E00A
:1022C0000E94E8008CE693E00E94580361E080E001
:1022D0000E9410036BE771E08CE693E00E943309E3
:1022E000FFCFAC014151510943305105E8F441E0C1
:1022F00060E080E00E94E8008CE693E00E945803D2
:1023000061E080E00E9410036CE871E08CE693E0ED
:102310000E943309C0923602D0923702E09238020E
:10232000F0923902A89572CF489741E0069778F469
:1023300060E080E00E94E8008CE693E00E94580391
:1023400061E080E00E9410036DE971E0DFCF293287
:1023500031053CF061E081E00E94E8000E949F0AA4
:10236000D9CF60E081E00E94E8008CE693E00E9413
:10237000580360E080E00E9410036CEA71E08CE694
:1023800093E00E9433094091340250913502052EAA
:10239000000C660B770B77FF22C0CB01BA010E94BD
:1023A0008E0966E771E08CE693E00E94330961E0F4
:1023B00080E00E94100367EB71E08CE693E00E94DE
:1023C000330940913A0250913B0260913C02709176
:1023D0003D0222E08CE693E00E94B1099BCF2AE007
:1023E0008CE693E00E944209DCCFF999FECF92BDC2
:1023F00081BDF89A992780B50895262FF999FECFC7
:102400001FBA92BD81BD20BD0FB6F894FA9AF99A11
:102410000FBE019608955058BB27AA270E94231289
:102420000C949D130E948F1338F00E94961320F095
:1024300039F49F3F19F426F40C948C130EF4E095B4
:10244000E7FB0C948613E92F0E94AE1358F3BA17DA
:10245000620773078407950720F079F4A6F50C94BA
:10246000D0130EF4E0950B2EBA2FA02D0B01B9015D
:1024700090010C01CA01A0011124FF27591B99F0FA
:10248000593F50F4503E68F11A16F040A22F232F06
:10249000342F4427585FF3CF469537952795A79556
:1024A000F0405395C9F77EF41F16BA0B620B730BFD
:1024B000840BBAF09150A1F0FF0FBB1F661F771F6E
:1024C000881FC2F70EC0BA0F621F731F841F48F423
:1024D000879577956795B795F7959E3F08F0B0CFAC
:1024E0009395880F08F09927EE0F97958795089593
:1024F0000E94621308F481E008950E9491120C94E6
:102500009D130E94961358F00E948F1340F029F4F7
:102510005F3F29F00C94861351110C94D1130C9445
:102520008C130E94AE1368F39923B1F3552391F3F2
:10253000951B550BBB27AA2762177307840738F032
:102540009F5F5F4F220F331F441FAA1FA9F335D08F
:102550000E2E3AF0E0E832D091505040E695001C43
:10256000CAF72BD0FE2F29D0660F771F881FBB1FFD
:10257000261737074807AB07B0E809F0BB0B802DDB
:10258000BF01FF2793585F4F3AF09E3F510578F007
:102590000C9486130C94D1135F3FE4F3983ED4F36C
:1025A000869577956795B795F7959F5FC9F7880FDB
:1025B000911D9695879597F90895E1E0660F771F2D
:1025C000881FBB1F621773078407BA0720F0621BBE
:1025D000730B840BBA0BEE1F88F7E09508950E94E9
:1025E000F6126894B1110C94D11308950E94B61399
:1025F00088F09F5798F0B92F9927B751B0F0E1F0C4
:10260000660F771F881F991F1AF0BA95C9F714C073
:10261000B13091F00E94D013B1E008950C94D01322
:10262000672F782F8827B85F39F0B93FCCF38695AC
:1026300077956795B395D9F73EF490958095709509
:1026400061957F4F8F4F9F4F0895E89409C097FB86
:102650003EF490958095709561957F4F8F4F9F4F79
:102660009923A9F0F92F96E9BB279395F6958795BD
:1026700077956795B795F111F8CFFAF4BB0F11F480
:1026800060FF1BC06F5F7F4F8F4F9F4F16C0882327
:1026900011F096E911C0772321F09EE8872F762F5D
:1026A00005C0662371F096E8862F70E060E02AF09E
:1026B0009A95660F771F881FDAF7880F969587958A
:1026C00097F90895990F0008550FAA0BE0E8FEEF5F
:1026D00016161706E807F907C0F012161306E407E6
:1026E000F50798F0621B730B840B950B39F40A26DF
:1026F00061F0232B242B252B21F408950A2609F4BD
:10270000A140A6958FEF811D811D089597F99F67C0
:1027100080E870E060E008959FEF80EC0895002469
:102720000A941616170618060906089500240A9436
:1027300012161306140605060895092E0394000CBC
:1027400011F4882352F0BB0F40F4BF2B11F460FF4B
:1027500004C06F5F7F4F8F4F9F4F089557FD905874
:10276000440F551F59F05F3F71F04795880F97FB55
:10277000991F61F09F3F79F087950895121613060F
:102780001406551FF2CF4695F1DF08C0161617063E
:102790001806991FF1CF8695710561050894089573
:1027A000E894BB2766277727CB0197F908950E9405
:1027B000621308F48FEF08950E94EF130C949D1399
:1027C0000E948F1338F00E94961320F0952311F089
:1027D0000C9486130C948C1311240C94D1130E9426
:1027E000AE1370F3959FC1F3950F50E0551F629F94
:1027F000F001729FBB27F00DB11D639FAA27F00D5A
:10280000B11DAA1F649F6627B00DA11D661F829F80
:102810002227B00DA11D621F739FB00DA11D621F65
:10282000839FA00D611D221F749F3327A00D611D82
:10283000231F849F600D211D822F762F6A2F112464
:102840009F5750409AF0F1F088234AF0EE0FFF1F97
:10285000BB1F661F771F881F91505040A9F79E3FEE
:10286000510580F00C9486130C94D1135F3FE4F370
:10287000983ED4F3869577956795B795F795E79544
:102880009F5FC1F7FE2B880F911D9695879597F94D
:1028900008950E946213880B990B089597FB072EE9
:1028A00016F4009407D077FD09D00E94841407FC29
:1028B00005D03EF4909581959F4F08957095619550
:1028C0007F4F0895A1E21A2EAA1BBB1BFD010DC06C
:1028D000AA1FBB1FEE1FFF1FA217B307E407F507D0
:1028E00020F0A21BB30BE40BF50B661F771F881FAC
:1028F000991F1A9469F760957095809590959B0142
:10290000AC01BD01CF010895AA1BBB1B51E107C05B
:10291000AA1FBB1FA617B70710F0A61BB70B881F6F
:10292000991F5A95A9F780959095BC01CD010895FE
:10293000EE0FFF1F0590F491E02D099481E090E0E7
:0A294000F8940C94A314F894FFCF50
:10294A00020000401454004010505E00BC007701A1
:10295A00000000007C02DC010902C9023A021802E6
:10296A002C0200000000F906CC060108A206C506E2
:10297A00B206A30600000000FD02DC010108ED0317
:10298A00B707E9029E077F077700650073006E614B
:10299A006E00696E66006F76660050524F564C495B
:1029AA004D41000D0A0045495341475747492050B8
:1029BA00454C4C45540020736563004145524153D0
:1029CA0020414E4F4958544F5320310041455241FE
:1029DA005320414E4F4958544F53203200414552DB
:1029EA00415320414E4F4958544F5300414E41469E
:0E29FA004C454B53492000464F5449412000A4
:00000001FF
