:020000040000FA
:100000000C9458000C9480000C9480000C94800098
:100010000C9480000C9480000C9480000C94800060
:100020000C9480000C9480000C9480000C94800050
:100030000C9480000C9480000C9480000C94800040
:100040000C947F040C9480000C94EF040C94C9046D
:100050000C9480000C9480000C9480000C94800020
:100060000C9421050C94800000000000250028005D
:100070002B00040404040404040402020202020229
:10008000030303030303010204081020408001025C
:1000900004081020010204081020000000080002DB
:1000A00001000003040700000000000000004006FB
:1000B00011241FBECFEFD8E0DEBFCDBF11E0A0E01E
:1000C000B1E0EAE5F3E102C005900D92AA34B10770
:1000D000D9F722E0AAE4B1E001C01D92A23AB2072A
:1000E000E1F710E0C8E5D0E004C02197FE010E94CE
:1000F000AA07C735D107C9F70E9479060C94AB0946
:100100000C94000090E0FC01E656FF4F2491FC01A6
:10011000EA57FF4F3491FC01EE58FF4FE491EE2374
:10012000C9F0222339F0233001F1A8F4213019F16C
:10013000223029F1F0E0EE0FFF1FE859FF4FA591A3
:10014000B4918FB7F894EC91611126C030953E239D
:100150003C938FBF08952730A9F02830C9F0243090
:1001600049F7809180008F7D03C0809180008F7758
:1001700080938000DFCF84B58F7784BDDBCF84B5DB
:100180008F7DFBCF8091B0008F778093B000D2CF6E
:100190008091B0008F7DF9CF3E2BDACF3FB7F89436
:1001A0008091F1019091F201A091F301B091F401DD
:1001B00026B5A89B05C02F3F19F00196A11DB11DC2
:1001C0003FBFBA2FA92F982F8827BC01CD01620FFE
:1001D000711D811D911D42E0660F771F881F991FB9
:1001E0004A95D1F70895E091EA01F091EB0130973B
:1001F00029F01092E5011092E40109940895CF933B
:10020000DF93AC01E091E801F091E9013097F1F062
:100210009091E7018091E6019817C0F090E0292FB6
:1002200030E02617370754F4D901A05BBE4F240FE6
:10023000351FE90128812C939F5FF1CF1092E701D0
:100240006093E601CB01DF91CF910994DF91CF91CB
:100250000895AF92BF92CF92DF92EF92FF920F93E9
:100260001F93CF93DF936C017B018B01040F151F4C
:10027000EB015E01AE18BF08C017D10759F06991B4
:10028000D601ED91FC910190F081E02DC601099518
:10029000892B79F7C501DF91CF911F910F91FF90C5
:1002A000EF90DF90CF90BF90AF900895FC01538DF9
:1002B000448D252F30E0842F90E0821B930B541740
:1002C00010F0CF96089501970895FC01918D828DCD
:1002D000981761F0A28DAE0FBF2FB11D5D968C9166
:1002E000928D9F5F9F73928F90E008958FEF9FEFA5
:1002F0000895FC01918D828D981731F0828DE80F61
:10030000F11D858D90E008958FEF9FEF0895FC011A
:10031000918D228D892F90E0805C9F4F821B9109E7
:100320008F739927089585EF91E00E94870121E05E
:10033000892B09F420E0822F089580E090E0892B3A
:1003400029F00E94930181110C9400000895FC0192
:10035000A48DA80FB92FB11DA35ABF4F2C91848D26
:1003600090E001968F739927848FA689B7892C9383
:10037000A089B1898C91837080648C93938D848DD6
:10038000981306C00288F389E02D80818F7D8083D9
:100390000895EF92FF920F931F93CF93DF93EC0199
:1003A00081E0888F9B8D8C8D98131AC0E889F9891C
:1003B000808185FF15C09FB7F894EE89FF8960831F
:1003C000E889F98980818370806480839FBF81E0A0
:1003D00090E0DF91CF911F910F91FF90EF900895E2
:1003E000F62E0B8D10E00F5F1F4F0F731127E02EBD
:1003F0008C8D8E110CC00FB607FCFACFE889F989F5
:10040000808185FFF5CFCE010E94A701F1CFEB8D52
:10041000EC0FFD2FF11DE35AFF4FF0829FB7F894C8
:100420000B8FEA89FB8980818062CFCFCF93DF93E6
:10043000EC01888D8823B9F0AA89BB89E889F989FC
:100440008C9185FD03C0808186FD0DC00FB607FC31
:10045000F7CF8C9185FFF2CF808185FFEDCFCE0164
:100460000E94A701E9CFDF91CF91089520919601D5
:10047000260F3327331F21323105ECF42091BA01C6
:10048000FC0190E080E0243069F082E00895A091C2
:1004900096012191AC014A585E4FA40FB52FB11DB2
:1004A0002C930196861798F380919601680F6093BC
:1004B000960180E0089581E008951092BA0181E0EC
:1004C0008093BC011092BB0161E082E10E94820036
:1004D00061E083E10E948200E9EBF0E080818E7FA1
:1004E000808380818D7F808388E48093B80085E459
:1004F0008093BC0008950895E091E7018091E601A2
:10050000E81730F4F0E0E05BFE4F808190E0089562
:100510008FEF9FEF08959091E7018091E6012FEF13
:100520003FEF981748F4E92FF0E0E05BFE4F2081A1
:1005300030E09F5F9093E701C90108958091E60143
:100540009091E701891B990B0895CF93DF93CB011D
:10055000EA01642F0E943602CE01DF91CF91089507
:10056000CF93DF931F92CDB7DEB7698361E0CE01F1
:1005700001960E94360281E090E00F90DF91CF91CA
:10058000089590E080E00895FB0101900020E9F7D4
:100590003197AF01461B570BDC01ED91FC910280B6
:1005A000F381E02D09948F929F92AF92BF92CF92E8
:1005B000DF92EF92FF920F931F93CF93DF93CDB70C
:1005C000DEB7A1970FB6F894DEBF0FBECDBF6C01AA
:1005D000990FEE08FF08F7FE4BC06DE285EF91E042
:1005E0000E94C9018C0122273327A9012C193D093A
:1005F0004E095F0919A2CE0181967C019AE0892EED
:10060000912CA12CB12CCA01B901A50194010E9421
:100610008807605DF70162937F012115310541056F
:10062000510589F790E080E0309729F0BF0185EF10
:1006300091E00E94C402080F191F6AE271E085EF81
:1006400091E00E94C402800F911FA1960FB6F8940A
:10065000DEBF0FBECDBFDF91CF911F910F91FF90F5
:10066000EF90DF90CF90BF90AF909F908F900895C4
:10067000A701960119A28E010F5D1F4F8AE0C82EB7
:10068000D12CE12CF12CCA01B901A70196010E94DD
:100690008807605DF80162938F01211531054105DE
:1006A000510589F7309739F0BF0185EF91E00E943D
:1006B000C4028C01C2CF10E000E0BFCF6DE271E058
:1006C00082E992E00C94C402CF93DF9385ED80938E
:1006D000BC008091720190917301A0917401B0915E
:1006E00075010796A11DB11D23E0B695A7959795B5
:1006F00087952A95D1F72091BC0024FD03C0109264
:10070000BA0136C040917201509173016091740139
:1007100070917501452B462B472B69F30097A10576
:10072000B10541F02AE22A95F1F700C00197A1092D
:10073000B109E1CF8091710191E09093700188231C
:10074000B9F0C091B800D091BA008091BC008A7B0A
:100750008093BC0060E082E10E94820060E083E15F
:100760000E9482000E945D02D093BA00C093B8003C
:10077000DF91CF9108956F927F928F929F92AF9267
:10078000BF92CF92DF92EF92FF920F931F93CF937E
:10079000DF9300D0CDB7DEB7CE0101966C0180911A
:1007A000E6019091E701891B990B02970CF45EC05A
:1007B00082E992E00E948B02A82E82E992E00E94D8
:1007C0008B02B82E82E992E00E948B0289831A8202
:1007D000F60101900020E9F731978F010C191D09EE
:1007E00048019FEF891A990AB40190E080E00E94C5
:1007F000D5087C01009729F4B12CA12C10E000E071
:1008000067C0FC011082B6010E94A4090115110500
:1008100009F44FC07A2C612CC3018B295C0167E37A
:1008200071E0C7010E949B09892B41F4B0924F01EE
:10083000A0924E01C7010E944C08B1CF69E371E05C
:10084000C7010E949B09892B29F4B0924D01A09207
:100850004C01F0CF68E471E0C7010E949B09892B2D
:1008600041F5B0924B01A0924A01E4CF80914A0138
:1008700090914B010E94D30280914C0190914D01C7
:100880000E94D30280914E0190914F010E94D302A9
:100890000F900F90DF91CF911F910F91FF90EF90EC
:1008A000DF90CF90BF90AF909F908F907F906F9090
:1008B0000895B40190E080E00E94D5085C01892B86
:1008C00009F49CCFF5011082B701C5010E94A4096B
:1008D000A801B50185EF91E00E9429016AE271E06B
:1008E00085EF91E00E94C402A114B10419F0C50182
:1008F0000E944C08E114F10409F451CF9BCF1F92E0
:100900000F920FB60F9211242F933F938F939F93C3
:10091000AF93BF938091ED019091EE01A091EF0113
:10092000B091F0013091EC0123E0230F2D3758F501
:100930000196A11DB11D2093EC018093ED019093D0
:10094000EE01A093EF01B093F0018091F10190913D
:10095000F201A091F301B091F4010196A11DB11D26
:100960008093F1019093F201A093F301B093F4010D
:10097000BF91AF919F918F913F912F910F900FBE9B
:100980000F901F90189526E8230F0296A11DB11D08
:10099000D2CF1F920F920FB60F9211242F933F9335
:1009A0004F935F936F937F938F939F93AF93BF9377
:1009B000EF93FF9385EF91E00E94A701FF91EF91E4
:1009C000BF91AF919F918F917F916F915F914F9167
:1009D0003F912F910F900FBE0F901F9018951F926F
:1009E0000F920FB60F9211242F938F939F93EF9333
:1009F000FF93E0910502F09106028081E0910B02E5
:100A0000F0910C0282FD1BC0908180910E028F5FDD
:100A10008F7320910F02821741F0E0910E02F0E0F7
:100A2000EB50FE4F958F80930E02FF91EF919F91B7
:100A30008F912F910F900FBE0F901F90189580816E
:100A4000F4CF1F920F920FB60F9211242F933F9362
:100A50004F935F936F937F938F939F93AF93BF93C6
:100A6000EF93FF938091B900887F803609F44AC0E4
:100A7000F0F5883209F4A7C018F5803109F49BC05D
:100A8000B8F4882309F4F9C0883009F494C0FF91C0
:100A9000EF91BF91AF919F918F917F916F915F91F6
:100AA0004F913F912F910F900FBE0F901F9018956F
:100AB000883109F488C0803251F78093B90114C09D
:100AC000803409F49DC040F48033B9F38833F9F6DB
:100AD0008093B90185ECB0C0803509F485C08835B4
:100AE00009F496C0883499F60E946403D0CF8839FF
:100AF00009F48CC038F5883729F050F4883611F0A5
:100B0000803729F683E08093BA011092B80157C06C
:100B1000883809F47BC0803919F0803809F0B7CFE4
:100B20008091B801803208F071C0E091B80181E095
:100B30008E0F8093B8018091BB00F0E0E856FE4F25
:100B400080833DC0803B39F0E0F4803A09F479C0FD
:100B5000883A09F09CCF84E08093BA011092970103
:100B600010929601E091E201F091E30109958091E4
:100B7000960181110FC081E0809396011092760159
:100B800009C0803C09F4A6CF883C09F4A3CF883B78
:100B900009F07DCFE091970181E08E0F809397015E
:100BA000F0E0EA58FE4F80818093BB00909197015E
:100BB0008091960129C08091DF018093BB0085EC74
:100BC0008093BC0064CF9091DE018091DD01981785
:100BD00058F5E091DE0181E08E0F8093DE01F0E0B8
:100BE000E354FE4F8081E9CFE091DE0181E08E0F7A
:100BF0008093DE018091BB00F0E0E354FE4F8083E0
:100C00009091DE018091DD019817C8F285E8D8CF78
:100C1000E091DE0181E08E0F8093DE018091BB00C8
:100C2000F0E0E354FE4F80838091BC0181115CCFE2
:100C300081E08093BB0184EA8093BC001092BA01EA
:100C400026CF85EC8093BC001092BA018091B80148
:100C5000803230F4E091B801F0E0E856FE4F1082A7
:100C60006091B80170E0E091E001F091E10188E964
:100C700091E009951092B8010ACF1092B90134CFD2
:100C8000E5EFF1E01382128288EE93E0A0E0B0E09D
:100C900084839583A683B7832AE031E03183208360
:100CA00025EC30E03587248724EC30E03787268731
:100CB00020EC30E0318B208B21EC30E0338B228B29
:100CC00022EC30E0358B248B26EC30E0378B268B02
:100CD000118E128E138E148EE2E9F2E013821282CC
:100CE00084839583A683B7838CE191E0918380838D
:100CF0000895789484B5826084BD84B5816084BD94
:100D000085B5826085BD85B5816085BD80916E00A9
:100D1000816080936E0010928100809181008260DA
:100D20008093810080918100816080938100809117
:100D300080008160809380008091B1008460809306
:100D4000B1008091B00081608093B00080917A0002
:100D5000846080937A0080917A00826080937A0028
:100D600080917A00816080937A0080917A00806817
:100D700080937A001092C1001092E7011092E60170
:100D80001092E5011092E4010E945D0283EF90E071
:100D90009093E3018093E2018FEF90E09093E10163
:100DA0008093E00180E18093BA008BEB93E0909315
:100DB000E9018093E8018EE593E09093EB01809345
:100DC000EA01E0910502F091060282E08083E09161
:100DD0000102F09102021082E0910302F0910402FC
:100DE0008FEC808310920D02E0910902F0910A02CB
:100DF00086E08083E0910702F091080280818061A3
:100E00008083E0910702F0910802808188608083EE
:100E1000E0910702F0910802808180688083E09170
:100E20000702F091080280818F7D80836BE371E07F
:100E300085EF91E00E94C4026AE271E085EF91E0E3
:100E40000E94C402C0E0D0E00E94CE004B015C01D1
:100E500084E6C82ED12CE12CF12C0E94CE0068191A
:100E600079098A099B09683E734081059105A8F3B9
:100E700021E0C21AD108E108F10888EE880E83E06B
:100E8000981EA11CB11CC114D104E104F10429F77E
:100E90002097D1F20E9493018823B1F20E940000B2
:100EA000D3CF2F923F924F925F926F927F928F9209
:100EB0009F92AF92BF92CF92DF92EF92FF920F93E9
:100EC0001F93CF93DF93CDB7DEB7CA1BDB0B0FB6F3
:100ED000F894DEBF0FBECDBF09942A8839884888B0
:100EE0005F846E847D848C849B84AA84B984C88446
:100EF000DF80EE80FD800C811B81AA81B981CE0F3D
:100F0000D11D0FB6F894DEBF0FBECDBFED01089521
:100F1000A1E21A2EAA1BBB1BFD010DC0AA1FBB1FFD
:100F2000EE1FFF1FA217B307E407F50720F0A21B6F
:100F3000B30BE40BF50B661F771F881F991F1A94DC
:100F400069F760957095809590959B01AC01BD0106
:100F5000CF010895EE0FFF1F0590F491E02D099445
:100F60000F931F93CF93DF938230910510F482E0AB
:100F700090E0E091A002F091A10230E020E0B0E02A
:100F8000A0E0309799F42115310509F44AC0281BD7
:100F9000390B24303105D8F58A819B8161157105A3
:100FA00089F1FB0193838283FE0111C0408151814D
:100FB0000281138148175907E0F04817590799F43F
:100FC000109761F012960C93129713961C93329619
:100FD000CF01DF91CF911F910F9108950093A0024F
:100FE0001093A102F4CF2115310551F04217530798
:100FF00038F0A901DB019A01BD01DF01F801C1CF81
:10100000EF01F9CF9093A1028093A002CDCFFE0112
:10101000E20FF31F81939193225031093983288382
:10102000D7CF20919E0230919F02232B41F4209133
:1010300002013091030130939F0220939E02209180
:101040000001309101012115310541F42DB73EB762
:101050004091040150910501241B350BE0919E0243
:10106000F0919F02E217F307A0F42E1B3F0B281705
:10107000390778F0AC014E5F5F4F2417350748F011
:101080004E0F5F1F50939F0240939E028193919356
:101090009FCFF0E0E0E09CCFCF93DF930097E9F0A3
:1010A000FC01329713821282A091A002B091A1029A
:1010B000ED0130E020E01097A1F420813181820F12
:1010C000931F20919E0230919F022817390709F043
:1010D00061C0F0939F02E0939E02DF91CF9108954B
:1010E000EA01CE17DF07E8F54A815B819E014115D1
:1010F0005105B1F7E901FB83EA8349915991C40F86
:10110000D51FEC17FD0761F4808191810296840F51
:10111000951FE90199838883828193819B838A83C8
:10112000F0E0E0E012968D919C9113970097B9F54D
:101130002D913C911197CD010296820F931F209122
:101140009E0230919F022817390739F6309751F5E2
:101150001092A1021092A002B0939F02A0939E024F
:10116000BCCFD383C28340815181840F951FC817A0
:10117000D90761F44E5F5F4F88819981480F591FED
:10118000518340838A819B8193838283211531051A
:1011900009F0B0CFF093A102E093A0029ECFFD0131
:1011A000DC01C0CF13821282D7CFB0E0A0E0EBED1C
:1011B000F8E00C9453078C01009751F4CB010E9486
:1011C000B0078C01C801CDB7DEB7E0E10C946F0722
:1011D000FC01E60FF71F9C0122503109E217F307CB
:1011E00008F49DC0D901CD91DC911197C617D7079E
:1011F00098F0C530D10530F3CE01049786179707D4
:1012000008F3C61BD70B2297C193D1936D937C93A0
:10121000CF010E944C08D6CF5B01AC1ABD0A4C012D
:101220008C0E9D1EA091A002B091A102512C412CC8
:10123000F12CE12C109731F580919E0290919F0244
:101240008815990509F05CC04616570608F058C085
:101250008091000190910101009741F48DB79EB7F4
:101260004091040150910501841B950BE817F90783
:1012700008F055C0F0939F02E0939E02F90171833C
:101280006083A0CF8D919C91119712966C901297CC
:1012900013967C901397A815B90559F56C0142E097
:1012A000C40ED11CCA14DB0420F1AC014A195B093D
:1012B000DA011296159780F062827382518340831F
:1012C000D9016D937C93E114F10471F0D701139669
:1012D000FC93EE93129776CF22968C0F9D1FF90107
:1012E00091838083F301EFCFF093A102E093A002FA
:1012F00069CF4816590608F42C017D01D3019ACF15
:10130000CB010E94B0077C01009749F0AE01B80103
:101310000E949209C8010E944C08870153CF10E037
:1013200000E050CFFB01DC0102C001900D92415062
:101330005040D8F70895FB01DC018D910190801990
:101340000110D9F3990B0895FB01DC0101900D9276
:101350000020E1F70895F894FFCF0000A20280007A
:1013600000000000C901290156011602870165012C
:10137000790100000000B002A502C1027B029E02BA
:101380008B027C020D0A004869204D6173746572FE
:1013900000770066004920616D2049324320536C7C
:0413A000617665000D
:107E0000112484B714BE81FFF0D085E080938100F7
:107E100082E08093C00088E18093C10086E0809377
:107E2000C20080E18093C4008EE0C9D0259A86E02C
:107E300020E33CEF91E0309385002093840096BBD3
:107E4000B09BFECF1D9AA8958150A9F7CC24DD24C4
:107E500088248394B5E0AB2EA1E19A2EF3E0BF2EE7
:107E6000A2D0813461F49FD0082FAFD0023811F036
:107E7000013811F484E001C083E08DD089C08234E0
:107E800011F484E103C0853419F485E0A6D080C0E4
:107E9000853579F488D0E82EFF2485D0082F10E0AE
:107EA000102F00270E291F29000F111F8ED06801E7
:107EB0006FC0863521F484E090D080E0DECF843638
:107EC00009F040C070D06FD0082F6DD080E0C81688
:107ED00080E7D80618F4F601B7BEE895C0E0D1E017
:107EE00062D089930C17E1F7F0E0CF16F0E7DF06D8
:107EF00018F0F601B7BEE89568D007B600FCFDCFD4
:107F0000A601A0E0B1E02C9130E011968C91119780
:107F100090E0982F8827822B932B1296FA010C0160
:107F200087BEE89511244E5F5F4FF1E0A038BF0790
:107F300051F7F601A7BEE89507B600FCFDCF97BE46
:107F4000E89526C08437B1F42ED02DD0F82E2BD052
:107F50003CD0F601EF2C8F010F5F1F4F84911BD097
:107F6000EA94F801C1F70894C11CD11CFA94CF0C13
:107F7000D11C0EC0853739F428D08EE10CD085E9AC
:107F80000AD08FE07ACF813511F488E018D01DD067
:107F900080E101D065CF982F8091C00085FFFCCF94
:107FA0009093C60008958091C00087FFFCCF809118
:107FB000C00084FD01C0A8958091C6000895E0E648
:107FC000F0E098E1908380830895EDDF803219F02E
:107FD00088E0F5DFFFCF84E1DECF1F93182FE3DFCA
:107FE0001150E9F7F2DF1F91089580E0E8DFEE27F6
:047FF000FF270994CA
:027FFE00040479
:00000001FF
