:100000000C945D000C9485000C9485000C94850084
:100010000C9485000C9485000C9485000C9485004C
:100020000C9485000C9485000C9485000C9485003C
:100030000C9485000C9485000C9485000C9485002C
:100040000C946A050C9485000C94DA050C94B405A4
:100050000C9485000C9485000C9485000C9485000C
:100060000C940C060C9485000000000800020100AE
:100070000003040700000000000000000000000072
:10008000250028002B0000000000240027002A0083
:10009000040404040404040402020202020203032E
:1000A0000303030301020408102040800102040836
:1000B00010200102040810202B0711241FBECFEFCF
:1000C000D8E0DEBFCDBF23E0A6E4B1E001C01D92C1
:1000D000A13DB207E1F711E0A0E0B1E0EEE9F7E100
:1000E00002C005900D92A634B107D9F710E0CDE516
:1000F000D0E004C02197FE010E94D509CC35D1077C
:10010000C9F70E9472070C94CD0B0C94000090E08C
:10011000FC01EC55FF4F249180579F4FFC018491C7
:10012000882399F090E0880F991FFC01EA57FF4F50
:10013000A591B491FC01E458FF4F859194918FB73C
:10014000F894EC91E22BEC938FBF089590E0FC01C2
:10015000E859FF4F2491FC01EC55FF4F3491FC010D
:10016000E057FF4FE491EE23C9F0222339F023300A
:1001700001F1A8F4213019F1223029F1F0E0EE0F5D
:10018000FF1FE458FF4FA591B4918FB7F894EC91FD
:10019000611126C030953E233C938FBF08952730D0
:1001A000A9F02830C9F0243049F7809180008F7D74
:1001B00003C0809180008F7780938000DFCF84B56B
:1001C0008F7784BDDBCF84B58F7DFBCF8091B0006E
:1001D0008F778093B000D2CF8091B0008F7DF9CF20
:1001E0003E2BDACFCF92DF92EF92FF920F931F93C5
:1001F0009FB7F89400910502109106022091070222
:10020000309108029FBFDB01A35EBD4F9C91FB01B3
:10021000EE0FFF1FEE0FFF1FE75FFD4F4081518183
:100220006281738168017901C41AD50AE60AF70A66
:10023000B701A601992399F0483E53406105710525
:10024000D8F01C92008311832283338360E01F91D6
:100250000F91FF90EF90DF90CF900C94A600403D5F
:1002600057406105710540F091E09C930083118334
:100270002283338361E0EBCF1F910F91FF90EF90CA
:10028000DF90CF9008953FB7F8948091010290914C
:100290000202A0910302B091040226B5A89B05C0FA
:1002A0002F3F19F00196A11DB11D3FBFBA2FA92FF5
:1002B000982F8827BC01CD01620F711D811D911DF2
:1002C00042E0660F771F881F991F4A95D1F708955E
:1002D00008950895AF92BF92CF92DF92EF92FF926E
:1002E0000F931F93CF93DF936C017B018B01040F5E
:1002F000151FEB015E01AE18BF08C017D10759F0FA
:100300006991D601ED91FC910190F081E02DC6013B
:100310000995892B79F7C501DF91CF911F910F9135
:10032000FF90EF90DF90CF90BF90AF900895FC01C9
:10033000538D448D252F30E0842F90E0821B930B4A
:10034000541710F0CF96089501970895FC01918DF0
:10035000828D981761F0A28DAE0FBF2FB11D5D96F3
:100360008C91928D9F5F9F73928F90E008958FEF95
:100370009FEF0895FC01918D828D981731F0828D49
:10038000E80FF11D858D90E008958FEF9FEF0895A0
:10039000FC01918D228D892F90E0805C9F4F821B04
:1003A00091098F739927089582E292E00E94C80113
:1003B00021E0892B09F420E0822F089580E090E06D
:1003C000892B29F00E94D40181110C94000008951A
:1003D000FC01A48DA80FB92FB11DA35ABF4F2C91BA
:1003E000848D90E001968F739927848FA689B789B1
:1003F0002C93A089B1898C91837080648C93938DA8
:10040000848D981306C00288F389E02D80818F7D4A
:1004100080830895EF92FF920F931F93CF93DF9302
:10042000EC0181E0888F9B8D8C8D98131AC0E88930
:10043000F989808185FF15C09FB7F894EE89FF89FF
:100440006083E889F98980818370806480839FBF9D
:1004500081E090E0DF91CF911F910F91FF90EF909D
:100460000895F62E0B8D10E00F5F1F4F0F731127AD
:10047000E02E8C8D8E110CC00FB607FCFACFE889E8
:10048000F989808185FFF5CFCE010E94E801F1CF87
:10049000EB8DEC0FFD2FF11DE35AFF4FF0829FB75C
:1004A000F8940B8FEA89FB8980818062CFCFCF934C
:1004B000DF93EC01888D8823B9F0AA89BB89E8898C
:1004C000F9898C9185FD03C0808186FD0DC00FB632
:1004D00007FCF7CF8C9185FFF2CF808185FFEDCFB0
:1004E000CE010E94E801E9CFDF91CF9108952091DC
:1004F000AE01260F3327331F21323105ECF4209152
:10050000D201FC0190E080E0243069F082E008959F
:10051000A091AE012191AC0142575E4FA40FB52FBF
:10052000B11D2C930196861798F38091AE01680F48
:100530006093AE0180E0089581E008951092D201A9
:1005400081E08093D4011092D30161E082E10E94A6
:10055000A60061E083E10E94A600E9EBF0E0808163
:100560008E7F808380818D7F808388E48093B80034
:1005700085E48093BC000895CF93DF9391E090933E
:100580008D018823B9F0C091B800D091BA00809154
:10059000BC008A7B8093BC0060E082E10E94A600E0
:1005A00060E083E10E94A6000E949E02D093BA0000
:1005B000C093B800DF91CF9108950895E091FF01B5
:1005C0008091FE01E81730F4F0E0E859FE4F808199
:1005D00090E008958FEF9FEF08959091FF01809133
:1005E000FE012FEF3FEF981748F4E92FF0E0E859AC
:1005F000FE4F208130E09F5F9093FF01C901089575
:100600008091FE019091FF01891B990B0895CF9273
:10061000DF92EF92FF920F931F93CF93DF937C01B2
:10062000CB018A0120916701222389F0EB016B0144
:10063000C40ED51ECC15DD0569F06991D701ED9189
:10064000FC910190F081E02DC7010995F3CF642F53
:100650000E947702C801DF91CF911F910F91FF9007
:10066000EF90DF90CF900895CF93DF931F92CDB797
:10067000DEB76983209167012223F9F02091FC0104
:10068000203258F021E030E0FC013383228390E0F7
:1006900080E00F90DF91CF9108958091FD01E82FC8
:1006A000F0E0E95BFE4F998190838F5F8093FD01BD
:1006B0008093FC0181E090E0ECCF61E0CE010196F7
:1006C0000E947702F7CF90E080E00895FC018081DE
:1006D0009181009711F00C94770A0895FB01019025
:1006E0000020E9F73197AF01461B570BDC01ED9174
:1006F000FC910280F381E02D09940F931F93CF9317
:10070000DF938C01EB01072E000C880B990B0E94E4
:100710006F0820E030E040E05FE3D7FD1DC00E949D
:1007200033090E949F09C62F672F8FEB92E00E942A
:1007300034036C2F8FEB92E00E943403F801608148
:1007400071816115710559F08FEB92E0DF91CF91C6
:100750001F910F910C946E030E943209E2CFDF913A
:10076000CF911F910F910895EF92FF920F931F93D6
:10077000CF93DF93EC017B01198218821B821A82CE
:100780001D821C82FB0101900020E9F731978F0147
:10079000061B170BB8016F5F7F4F90E080E00E944F
:1007A000000B0097B9F0998388831B830A832C81FF
:1007B0003D81232B11F4FC0110821D830C83B701B2
:1007C00088819981DF91CF911F910F91FF90EF90D8
:1007D0000C94C60B88819981009711F00E94770ACA
:1007E000198218821D821C821B821A82DF91CF918E
:1007F0001F910F91FF90EF9008958F929F92AF926B
:10080000BF92CF92DF92EF92FF920F931F93CF93FD
:10081000DF9300D000D000D0CDB7DEB781E0809369
:10082000670188E0809346011092FD011092FC015F
:100830006AE271E0CE0101960E94B40370E060E0CC
:10084000CE0101960E947D03CE0101960E946603AF
:100850006CE271E0CE0101960E94B40370E060E0AA
:10086000CE0101960E947D03CE0101960E9466038F
:100870006EE271E0CE0101960E94B40370E060E088
:10088000CE0101960E947D03CE0101960E9466036F
:1008900060E371E0CE0101960E94B40370E060E075
:1008A000CE0101960E947D03CE0101960E9466034F
:1008B0000091FC01013208F094C0109146010E94A1
:1008C00043016B017C018091D201811165C082E0FE
:1008D0008093D20181E08093D4018FEF8093D10186
:1008E0001092F6010093F501A7E4B1E0E5EDF1E027
:1008F00080E008138FC01092F7018091F701110F6B
:10090000182B1093F7018091D301813009F086C034
:100910001092D3010E9443016B017C018091F70189
:100920008093BB008091890190918A01A0918B01F5
:10093000B0918C01892B8A2B8B2B99F00E9443015B
:100940000091890110918A0120918B0130918C01D5
:100950006C197D098E099F090617170728073907A3
:10096000E0F18091BC0083FDD9CF85EC8093BC0081
:100970000E9443016B017C018091D201823009F415
:100980004FC08091D1018F3F61F18091D1018032C0
:1009900041F18091D10125C08091890190918A0116
:1009A000A0918B01B0918C01892B8A2B8B2B09F4A0
:1009B0008ACF0E9443018090890190908A01A09083
:1009C0008B01B0908C016C197D098E099F098616E8
:1009D0009706A806B90608F076CF809188010E9494
:1009E000BC021092FD011092FC0110926701269644
:1009F0000FB6F894DEBF0FBECDBFDF91CF911F9130
:100A00000F91FF90EF90DF90CF90BF90AF909F90AD
:100A10008F9008959D9191938F5F6BCF85EEA6CFB8
:100A20008091890190918A01A0918B01B0918C01F4
:100A3000892B8A2B8B2B09F49FCF0E9443010091B5
:100A4000890110918A0120918B0130918C016C19E0
:100A50007D098E099F09061717072807390708F02F
:100A60008BCFBBCF85ED8093BC00809189019091A5
:100A70008A01A0918B01B0918C010796A11DB11D37
:100A800023E0B695A795979587952A95D1F720915C
:100A9000BC0024FD03C01092D20108954091890149
:100AA00050918A0160918B0170918C01452B462BEE
:100AB000472B69F30097A105B10541F02AE22A9579
:100AC000F1F700C00197A109B109E1CF8091880138
:100AD0000C94BC021F920F920FB60F9211242F9309
:100AE0003F938F939F93AF93BF9380910502909113
:100AF0000602A0910702B09108023091000223E0A3
:100B0000230F2D3758F50196A11DB11D209300022A
:100B10008093050290930602A0930702B093080207
:100B20008091010290910202A0910302B09104020F
:100B30000196A11DB11D8093010290930202A09322
:100B40000302B0930402BF91AF919F918F913F91A7
:100B50002F910F900FBE0F901F90189526E8230F2E
:100B60000296A11DB11DD2CF1F920F920FB60F9208
:100B700011242F933F934F935F936F937F938F93A2
:100B80009F93AF93BF93EF93FF9382E292E00E9413
:100B9000E801FF91EF91BF91AF919F918F917F916C
:100BA0006F915F914F913F912F910F900FBE0F90DA
:100BB0001F9018951F920F920FB60F9211242F932A
:100BC0008F939F93EF93FF93E0913202F091330262
:100BD0008081E0913802F091390282FD1BC0908142
:100BE00080913B028F5F8F7320913C02821741F00E
:100BF000E0913B02F0E0EE5DFD4F958F80933B026C
:100C0000FF91EF919F918F912F910F900FBE0F90B9
:100C10001F9018958081F4CF1F920F920FB60F92FC
:100C200011242F933F934F935F936F937F938F93F1
:100C30009F93AF93BF93EF93FF938091B900887F09
:100C4000803609F44AC0F0F5883209F4A7C018F5D7
:100C5000803109F49BC0B8F4882309F4F9C08830C6
:100C600009F494C0FF91EF91BF91AF919F918F9143
:100C70007F916F915F914F913F912F910F900FBE98
:100C80000F901F901895883109F488C0803251F771
:100C90008093D10114C0803409F49DC040F48033A6
:100CA000B9F38833F9F68093D10185ECB0C0803573
:100CB00009F485C0883509F496C0883499F60E94F5
:100CC0003205D0CF883909F48CC038F5883729F03F
:100CD00050F4883611F0803729F683E08093D201F2
:100CE0001092D00157C0883809F47BC0803919F0C0
:100CF000803809F0B7CF8091D001803208F071C000
:100D0000E091D00181E08E0F8093D0018091BB00F3
:100D1000F0E0E055FE4F80833DC0803B39F0E0F4C9
:100D2000803A09F479C0883A09F09CCF84E0809336
:100D3000D2011092AF011092AE01E091FA01F09150
:100D4000FB0109958091AE0181110FC081E0809374
:100D5000AE0110928E0109C0803C09F4A6CF883CF8
:100D600009F4A3CF883B09F07DCFE091AF0181E08A
:100D70008E0F8093AF01F0E0E257FE4F80818093A9
:100D8000BB009091AF018091AE0129C08091F70125
:100D90008093BB0085EC8093BC0064CF9091F601FA
:100DA0008091F501981758F5E091F60181E08E0FDA
:100DB0008093F601F0E0EB52FE4F8081E9CFE091A5
:100DC000F60181E08E0F8093F6018091BB00F0E088
:100DD000EB52FE4F80839091F6018091F5019817B8
:100DE000C8F285E8D8CFE091F60181E08E0F8093BC
:100DF000F6018091BB00F0E0EB52FE4F80838091C2
:100E0000D40181115CCF81E08093D30184EA809387
:100E1000BC001092D20126CF85EC8093BC001092CA
:100E2000D2018091D001803230F4E091D001F0E025
:100E3000E055FE4F10826091D00170E0E091F80122
:100E4000F091F90180EB91E009951092D0010ACF61
:100E50001092D10134CFE2E2F2E01382128288EEE6
:100E600093E0A0E0B0E084839583A683B7832AE073
:100E700031E03183208325EC30E03587248724EC72
:100E800030E03787268720EC30E0318B208B21EC57
:100E900030E0338B228B22EC30E0358B248B26EC38
:100EA00030E0378B268B118E128E138E148EEFEB63
:100EB000F2E01382128284839583A683B7838CE148
:100EC00091E0918380831092CC021092CB02EDECE2
:100ED000F2E080E091E0DF019C011D922150304062
:100EE000E1F70895789484B5826084BD84B581600B
:100EF00084BD85B5826085BD85B5816085BD8091E5
:100F00006E00816080936E0010928100809181005C
:100F10008260809381008091810081608093810054
:100F2000809180008160809380008091B100846016
:100F30008093B1008091B00081608093B000809177
:100F40007A00846080937A0080917A008260809336
:100F50007A0080917A00816080937A0080917A0093
:100F6000806880937A001092C100E0913202F09183
:100F7000330282E08083E0912E02F0912F021082F2
:100F8000E0913002F09131028FEC808310923A02AE
:100F9000E0913602F091370286E08083E0913402DE
:100FA000F0913502808180618083E0913402F0917C
:100FB0003502808188608083E0913402F0913502AF
:100FC000808180688083E0913402F09135028081D5
:100FD0008F7D80838CE00E9487008BE00E948700D9
:100FE0001092FF011092FE011092FD011092FC017F
:100FF0000E949E0288E691E09093FB018093FA01A3
:1010000089E691E09093F9018093F80162E371E041
:1010100082E292E00E946E0362E471E082E292E07A
:101020000E946E038FB7F89440910502509106021A
:1010300060910702709108028FBFEDECF2E08081B1
:101040009181892BE1F0709683E0ED3CF807B8F3CD
:10105000C0E0D0E062E070E08CE090E00E94F2003E
:1010600063E070E08BE090E00E94F200209791F343
:101070000E94D401882371F30E940000EBCF80917D
:10108000CB029091CC0201969093CC028093CB023C
:10109000892B31F481E090E09093CC028093CB02D5
:1010A0008091CB029091CC02978786878DEF93E059
:1010B000918380831382128244835583668377836E
:1010C00088EE93E0A0E0B0E080879187A287B387A5
:1010D00081E090E095878487BBCFE89409C097FBB7
:1010E0003EF490958095709561957F4F8F4F9F4FFF
:1010F0009923A9F0F92F96E9BB279395F695879543
:1011000077956795B795F111F8CFFAF4BB0F11F405
:1011100060FF1BC06F5F7F4F8F4F9F4F16C08823AC
:1011200011F096E911C0772321F09EE8872F762FE2
:1011300005C0662371F096E8862F70E060E02AF023
:101140009A95660F771F881FDAF7880F969587950F
:1011500097F9089597F99F6780E870E060E0089537
:101160009FEF80EC089500240A94161617061806BF
:101170000906089500240A9412161306140605069B
:101180000895092E0394000C11F4882352F0BB0F2C
:1011900040F4BF2B11F460FF04C06F5F7F4F8F4F8F
:1011A0009F4F089557FD9058440F551F59F05F3FCA
:1011B00071F04795880F97FB991F61F09F3F79F079
:1011C00087950895121613061406551FF2CF4695FB
:1011D000F1DF08C0161617061806991FF1CF86957D
:1011E0007105610508940895E894BB276627772761
:1011F000CB0197F908952F923F924F925F926F9291
:101200007F928F929F92AF92BF92CF92DF92EF9296
:10121000FF920F931F93CF93DF93CDB7DEB7CA1B17
:10122000DB0B0FB6F894DEBF0FBECDBF09942A8842
:10123000398848885F846E847D848C849B84AA84EA
:10124000B984C884DF80EE80FD800C811B81AA8177
:10125000B981CE0FD11D0FB6F894DEBF0FBECDBF42
:10126000ED0108955058BB27AA270E944A090C9403
:10127000C1080E94B30838F00E94BA0820F039F47F
:101280009F3F19F426F40C94B0080EF4E095E7FBA8
:101290000C94AA08E92F0E94D20858F3BA176207E3
:1012A00073078407950720F079F4A6F50C94F408E9
:1012B0000EF4E0950B2EBA2FA02D0B01B901900171
:1012C0000C01CA01A0011124FF27591B99F0593FB5
:1012D00050F4503E68F11A16F040A22F232F342FFD
:1012E0004427585FF3CF469537952795A795F0404B
:1012F0005395C9F77EF41F16BA0B620B730B840B60
:10130000BAF09150A1F0FF0FBB1F661F771F881F17
:10131000C2F70EC0BA0F621F731F841F48F487956F
:1013200077956795B795F7959E3F08F0B0CF939561
:10133000880F08F09927EE0F9795879508950E94DA
:10134000A6096894B1110C94F50808950E94DA0872
:1013500088F09F5798F0B92F9927B751B0F0E1F076
:10136000660F771F881F991F1AF0BA95C9F714C026
:10137000B13091F00E94F408B1E008950C94F408A3
:10138000672F782F8827B85F39F0B93FCCF386955F
:1013900077956795B395D9F73EF4909580957095BC
:1013A00061957F4F8F4F9F4F0895EE0FFF1F059060
:1013B000F491E02D09940F931F93CF93DF93823024
:1013C000910510F482E090E0E091CF03F091D0031A
:1013D00030E020E0B0E0A0E0309799F4211531052D
:1013E00009F44AC0281B390B24303105D8F58A810D
:1013F0009B816115710589F1FB0193838283FE0155
:1014000011C0408151810281138148175907E0F0D2
:101410004817590799F4109761F012960C93129798
:1014200013961C933296CF01DF91CF911F910F91AC
:1014300008950093CF031093D003F4CF2115310505
:1014400051F04217530738F0A901DB019A01BD01A1
:10145000DF01F801C1CFEF01F9CF9093D003809362
:10146000CF03CDCFFE01E20FF31F81939193225062
:10147000310939832883D7CF2091CD033091CE0312
:10148000232B41F420910201309103013093CE03CC
:101490002093CD03209100013091010121153105E8
:1014A00041F42DB73EB74091040150910501241B32
:1014B000350BE091CD03F091CE03E217F307A0F4D2
:1014C0002E1B3F0B2817390778F0AC014E5F5F4F9A
:1014D0002417350748F04E0F5F1F5093CE034093FB
:1014E000CD03819391939FCFF0E0E0E09CCFCF9329
:1014F000DF930097E9F0FC01329713821282A091EA
:10150000CF03B091D003ED0130E020E01097A1F4BB
:1015100020813181820F931F2091CD033091CE0322
:101520002817390709F061C0F093CE03E093CD038B
:10153000DF91CF910895EA01CE17DF07E8F54A81E0
:101540005B819E0141155105B1F7E901FB83EA83F7
:1015500049915991C40FD51FEC17FD0761F48081A3
:1015600091810296840F951FE90199838883828176
:1015700093819B838A83F0E0E0E012968D919C91A9
:1015800013970097B9F52D913C911197CD010296D3
:10159000820F931F2091CD033091CE032817390776
:1015A00039F6309751F51092D0031092CF03B093D3
:1015B000CE03A093CD03BCCFD383C283408151819E
:1015C000840F951FC817D90761F44E5F5F4F88815C
:1015D0009981480F591F518340838A819B8193834E
:1015E00082832115310509F0B0CFF093D003E09349
:1015F000CF039ECFFD01DC01C0CF13821282D7CF73
:10160000B0E0A0E0E6E0FBE00C94FD088C01009760
:1016100051F4CB010E94DB098C01C801CDB7DEB7C4
:10162000E0E10C941909FC01E60FF71F9C01225020
:101630003109E217F30708F49DC0D901CD91DC917F
:101640001197C617D70798F0C530D10530F3CE01F2
:1016500004978617970708F3C61BD70B2297C193E9
:10166000D1936D937C93CF010E94770AD6CF5B0113
:10167000AC1ABD0A4C018C0E9D1EA091CF03B091F7
:10168000D003512C412CF12CE12C109731F5809195
:10169000CD039091CE038815990509F05CC04616DC
:1016A000570608F058C08091000190910101009701
:1016B00041F48DB79EB74091040150910501841B00
:1016C000950BE817F90708F055C0F093CE03E093A7
:1016D000CD03F90171836083A0CF8D919C91119707
:1016E00012966C90129713967C901397A815B905D3
:1016F00059F56C0142E0C40ED11CCA14DB0420F180
:10170000AC014A195B09DA011296159780F06282E2
:10171000738251834083D9016D937C93E114F1046A
:1017200071F0D7011396FC93EE93129776CF229621
:101730008C0F9D1FF90191838083F301EFCFF0930C
:10174000D003E093CF0369CF4816590608F42C0163
:101750007D01D3019ACFCB010E94DB097C01009768
:1017600049F0AE01B8010E94BD0BC8010E94770A82
:10177000870153CF10E000E050CFFB01DC0102C035
:1017800001900D9241505040D8F70895FB01DC01C3
:0E17900001900D920020E1F70895F894FFCF2C
:10179E000000D1038000000000000A026A019701D8
:1017AE005702C801A601BA01000000003403070366
:1017BE006303DD020003ED02DE02770066006500C2
:1017CE0073004920616D20493243204D6173746569
:0617DE0072000D0A00007C
:00000001FF
