:100000000C945D000C9485000C9485000C94850084
:100010000C9485000C9485000C9485000C9485004C
:100020000C9485000C9485000C9485000C9485003C
:100030000C9485000C9485000C9485000C9485002C
:100040000C945F050C9485000C94CF050C94A905C5
:100050000C9485000C9485000C9485000C9485000C
:100060000C9401060C9485000000000800020100B9
:100070000003040700000000000000000000000072
:10008000250028002B0000000000240027002A0083
:10009000040404040404040402020202020203032E
:1000A0000303030301020408102040800102040836
:1000B0001020010204081020200711241FBECFEFDA
:1000C000D8E0DEBFCDBF23E0A0E7B1E001C01D92C4
:1000D000A33EB207E1F711E0A0E0B1E0E8EFF9E1FB
:1000E00002C005900D92A037B107D9F710E0CDE519
:1000F000D0E004C02197FE010E94020BCC35D1074D
:10010000C9F70E9467070C94FA0C0C94000090E069
:10011000FC01EC55FF4F249180579F4FFC018491C7
:10012000882399F090E0880F991FFC01EA57FF4F50
:10013000A591B491FC01E458FF4F859194918FB73C
:10014000F894EC91E22BEC938FBF089590E0FC01C2
:10015000E859FF4F2491FC01EC55FF4F3491FC010D
:10016000E057FF4FE491EE23C9F0222339F023300A
:1001700001F1A8F4213019F1223029F1F0E0EE0F5D
:10018000FF1FE458FF4FA591B4918FB7F894EC91FD
:10019000611126C030953E233C938FBF08952730D0
:1001A000A9F02830C9F0243049F7809180008F7D74
:1001B00003C0809180008F7780938000DFCF84B56B
:1001C0008F7784BDDBCF84B58F7DFBCF8091B0006E
:1001D0008F778093B000D2CF8091B0008F7DF9CF20
:1001E0003E2BDACF3FB7F8948091300290913102E4
:1001F000A0913202B091330226B5A89B05C02F3FD3
:1002000019F00196A11DB11D3FBFBA2FA92F982F3C
:100210008827BC01CD01620F711D811D911D42E037
:10022000660F771F881F991F4A95D1F7089580910F
:10023000290290912802891B990B08950895089529
:10024000AF92BF92CF92DF92EF92FF920F931F93E4
:10025000CF93DF936C017B018B01040F151FEB0122
:100260005E01AE18BF08C017D10759F06991D601D9
:10027000ED91FC910190F081E02DC6010995892B4B
:1002800079F7C501DF91CF911F910F91FF90EF900A
:10029000DF90CF90BF90AF900895FC01538D448DB7
:1002A000252F30E0842F90E0821B930B541710F021
:1002B000CF96089501970895FC01918D828D98172E
:1002C00061F0A28DAE0FBF2FB11D5D968C91928D06
:1002D0009F5F9F73928F90E008958FEF9FEF089537
:1002E000FC01918D828D981731F0828DE80FF11D00
:1002F000858D90E008958FEF9FEF0895FC01918D1B
:10030000228D892F90E0805C9F4F821B91098F7313
:100310009927089584E392E00E947E0121E0892BD1
:1003200009F420E0822F089580E090E0892B29F0E5
:100330000E948A0181110C9400000895FC01A48D93
:10034000A80FB92FB11DA35ABF4F2C91848D90E0F7
:1003500001968F739927848FA689B7892C93A089DA
:10036000B1898C91837080648C93938D848D981364
:1003700006C00288F389E02D80818F7D80830895F7
:10038000EF92FF920F931F93CF93DF93EC0181E0E5
:10039000888F9B8D8C8D98131AC0E889F98980818C
:1003A00085FF15C09FB7F894EE89FF896083E889BF
:1003B000F98980818370806480839FBF81E090E0B1
:1003C000DF91CF911F910F91FF90EF900895F62E3E
:1003D0000B8D10E00F5F1F4F0F731127E02E8C8DD8
:1003E0008E110CC00FB607FCFACFE889F98980811D
:1003F00085FFF5CFCE010E949E01F1CFEB8DEC0F72
:10040000FD2FF11DE35AFF4FF0829FB7F8940B8F39
:10041000EA89FB8980818062CFCFCF93DF93EC01A3
:10042000888D8823B9F0AA89BB89E889F9898C91DC
:1004300085FD03C0808186FD0DC00FB607FCF7CF98
:100440008C9185FFF2CF808185FFEDCFCE010E9498
:100450009E01E9CFDF91CF9108952091B301260F3E
:100460003327331F21323105ECF420910202FC01C5
:1004700090E080E0243069F082E00895A091B3011B
:100480002191AC014D565E4FA40FB52FB11D2C9399
:100490000196861798F38091B301680F6093B301BA
:1004A00080E0089581E008951092020281E0809337
:1004B00001021092FC0161E082E10E94A60061E06D
:1004C00083E10E94A600E9EBF0E080818E7F8083CB
:1004D00080818D7F808388E48093B80085E4809359
:1004E000BC000895CF93DF9391E09093920188230D
:1004F000B9F0C091B800D091BA008091BC008A7B5D
:100500008093BC0060E082E10E94A60060E083E18D
:100510000E94A6000E945402D093BA00C093B80073
:10052000DF91CF9108950895E091280280912902EA
:10053000E81730F4F0E0E85FFD4F808190E0089527
:100540008FEF9FEF089590912802809129022FEF5D
:100550003FEF981748F4E92FF0E0E85FFD4F208166
:1005600030E09F5F90932802C9010895CF92DF92F7
:10057000EF92FF920F931F93CF93DF937C01CB01F8
:100580008A0120919101222389F0EB016B01C40EB5
:10059000D51ECC15DD0569F06991D701ED91FC916F
:1005A0000190F081E02DC7010995F3CF642F0E94DF
:1005B0002D02C801DF91CF911F910F91FF90EF9015
:1005C000DF90CF900895CF93DF931F92CDB7DEB722
:1005D0006983209191012223F9F02091DA012032E0
:1005E00058F021E030E0FC013383228390E080E08A
:1005F0000F90DF91CF9108958091DB01E82FF0E01B
:10060000EF58FE4F998190838F5F8093DB01809339
:10061000DA0181E090E0ECCF61E0CE0101960E942A
:100620002D02F7CF90E080E00895FC018081918158
:10063000009711F00C94A40B0895FB010190002089
:10064000E9F73197AF01461B570BDC01ED91FC91A7
:100650000280F381E02D09940F931F93CF93DF93D2
:100660008C01EB01072E000C880B990B0E947A0974
:1006700020E030E040E05FE3D7FD1DC00E943E0A6D
:100680000E94AA0AC62F672F81ED92E00E94E30222
:100690006C2F81ED92E00E94E302F801608171818C
:1006A0006115710559F081ED92E0DF91CF911F91B5
:1006B0000F910C941D030E943D0AE2CFDF91CF9170
:1006C0001F910F9108958F929F92AF92BF920F93B7
:1006D0001F93CF93DF93CDB7DEB7A1970FB6F894F2
:1006E000DEBF0FBECDBF19A2423008F44AE08E0132
:1006F0000F5D1F4F842E912CB12CA12CA5019401CC
:100700000E94E00AE62FB901CA01EA3004F5E05D73
:10071000D801EE938D01232B242B252B79F790E024
:1007200080E0109729F0BD0184E392E00E941D0350
:10073000A1960FB6F894DEBF0FBECDBFDF91CF916B
:100740001F910F91BF90AF909F908F900895E95C9B
:10075000DFCFEF92FF920F931F93CF93DF93EC01C4
:100760007B01198218821B821A821D821C82FB0166
:1007700001900020E9F731978F01061B170BB80194
:100780006F5F7F4F90E080E00E942D0C0097B9F0E2
:10079000998388831B830A832C813D81232B11F449
:1007A000FC0110821D830C83B70188819981DF9140
:1007B000CF911F910F91FF90EF900C94F30C8881D3
:1007C0009981009711F00E94A40B198218821D8252
:1007D0001C821B821A82DF91CF911F910F91FF9093
:1007E000EF9008958F929F92AF92BF92CF92DF9237
:1007F000EF92FF920F931F93CF93DF9300D000D01F
:1008000000D0CDB7DEB781E08093910188E080937E
:1008100070011092DB011092DA016AE271E0CE0100
:1008200001960E94A90370E060E0CE0101960E944B
:100830002C03CE0101960E9415036CE271E0CE01FB
:1008400001960E94A90370E060E0CE0101960E942B
:100850002C03CE0101960E9415036EE271E0CE01D9
:1008600001960E94A90370E060E0CE0101960E940B
:100870002C03CE0101960E94150360E371E0CE01C6
:1008800001960E94A90370E060E0CE0101960E94EB
:100890002C03CE0101960E9415030091DA0101326A
:1008A00008F094C0109170010E94F2006B017C016D
:1008B00080910202811165C082E08093020281E092
:1008C000809301028FEF809300021092FF0100934A
:1008D000FE01A1E7B1E0ECEDF1E080E008138FC08C
:1008E0001092FD018091FD01110F182B1093FD0155
:1008F0008091FC01813009F086C01092FC010E94B9
:10090000F2006B017C018091FD018093BB0080911E
:10091000040290910502A0910602B0910702892B72
:100920008A2B8B2B99F00E94F20000910402109107
:10093000050220910602309107026C197D098E098B
:100940009F090617170728073907E0F18091BC00B7
:1009500083FDD9CF85EC8093BC000E94F2006B012F
:100960007C0180910202823009F44FC08091000224
:100970008F3F61F180910002803241F1809100024D
:1009800025C08091040290910502A0910602B091C9
:100990000702892B8A2B8B2B09F48ACF0E94F20045
:1009A0008090040290900502A0900602B090070289
:1009B0006C197D098E099F0986169706A806B90647
:1009C00008F076CF809103020E9472021092DB0140
:1009D0001092DA011092910126960FB6F894DEBFBC
:1009E0000FBECDBFDF91CF911F910F91FF90EF9080
:1009F000DF90CF90BF90AF909F908F9008959D9182
:100A000091938F5F6BCF85EEA6CF8091040290917A
:100A10000502A0910602B0910702892B8A2B8B2B2D
:100A200009F49FCF0E94F200009104021091050288
:100A300020910602309107026C197D098E099F09E9
:100A4000061717072807390708F08BCFBBCF85EDAE
:100A50008093BC008091040290910502A09106024F
:100A6000B09107020796A11DB11D23E0B695A79589
:100A7000979587952A95D1F72091BC0024FD03C056
:100A80001092020208954091040250910502609173
:100A9000060270910702452B462B472B69F30097FE
:100AA000A105B10541F02AE22A95F1F700C00197AE
:100AB000A109B109E1CF809103020C9472021F9247
:100AC0000F920FB60F9211242F933F938F939F9302
:100AD000AF93BF9380912C0290912D02A0912E0292
:100AE000B0912F0230912B0223E0230F2D3758F5C0
:100AF0000196A11DB11D20932B0280932C0290938F
:100B00002D02A0932E02B0932F028091300290917B
:100B10003102A0913202B09133020196A11DB11DA4
:100B20008093300290933102A0933202B09333024B
:100B3000BF91AF919F918F913F912F910F900FBED9
:100B40000F901F90189526E8230F0296A11DB11D46
:100B5000D2CF1F920F920FB60F9211242F933F9373
:100B60004F935F936F937F938F939F93AF93BF93B5
:100B7000EF93FF9384E392E00E949E01FF91EF9137
:100B8000BF91AF919F918F917F916F915F914F91A5
:100B90003F912F910F900FBE0F901F9018951F92AD
:100BA0000F920FB60F9211242F938F939F93EF9371
:100BB000FF93E0914402F09145028081E0914A0266
:100BC000F0914B0282FD1BC0908180914D028F5F9E
:100BD0008F7320914E02821741F0E0914D02F0E0B8
:100BE000EC5CFD4F958F80934D02FF91EF919F91AB
:100BF0008F912F910F900FBE0F901F9018958081AD
:100C0000F4CF1F920F920FB60F9211242F933F93A0
:100C10004F935F936F937F938F939F93AF93BF9304
:100C2000EF93FF938091B900887F803609F44AC022
:100C3000F0F5883209F4A7C018F5803109F49BC09B
:100C4000B8F4882309F4F9C0883009F494C0FF91FE
:100C5000EF91BF91AF919F918F917F916F915F9134
:100C60004F913F912F910F900FBE0F901F901895AD
:100C7000883109F488C0803251F78093000214C093
:100C8000803409F49DC040F48033B9F38833F9F619
:100C90008093000285ECB0C0803509F485C08835AA
:100CA00009F496C0883499F60E942705D0CF883978
:100CB00009F48CC038F5883729F050F4883611F0E3
:100CC000803729F683E0809302021092D50157C045
:100CD000883809F47BC0803919F0803809F0B7CF23
:100CE0008091D501803208F071C0E091D50181E09A
:100CF0008E0F8093D5018091BB00F0E0EB54FE4F46
:100D000080833DC0803B39F0E0F4803A09F479C03B
:100D1000883A09F09CCF84E0809302021092B401DB
:100D20001092B301E091D801F091D9010995809119
:100D3000B30181110FC081E08093B3011092930140
:100D400009C0803C09F4A6CF883C09F4A3CF883BB6
:100D500009F07DCFE091B40181E08E0F8093B40162
:100D6000F0E0ED56FE4F80818093BB009091B4017E
:100D70008091B30129C08091FD018093BB0085EC77
:100D80008093BC0064CF9091FF018091FE01981781
:100D900058F5E091FF0181E08E0F8093FF01F0E0B4
:100DA000E452FE4F8081E9CFE091FF0181E08E0F98
:100DB0008093FF018091BB00F0E0E452FE4F8083FE
:100DC0009091FF018091FE019817C8F285E8D8CF75
:100DD000E091FF0181E08E0F8093FF018091BB00C5
:100DE000F0E0E452FE4F80838091010281115CCFDC
:100DF00081E08093FC0184EA8093BC00109202029F
:100E000026CF85EC8093BC00109202028091D50120
:100E1000803230F4E091D501F0E0EB54FE4F1082C7
:100E20006091D50170E0E091D601F091D70185EB9A
:100E300091E009951092D5010ACF1092000234CFAB
:100E4000E4E3F2E01382128288EE93E0A0E0B0E0E7
:100E500084839583A683B7832AE031E0318320839E
:100E600025EC30E03587248724EC30E0378726876F
:100E700020EC30E0318B208B21EC30E0338B228B67
:100E800022EC30E0358B248B26EC30E0378B268B40
:100E9000118E128E138E148EE1EDF2E01382128207
:100EA00084839583A683B7838CE191E091838083CB
:100EB0001092DE021092DD02EFEDF2E080E091E0B0
:100EC000DF019C011D9221503040E1F70895789494
:100ED00084B5826084BD84B5816084BD85B582603F
:100EE00085BD85B5816085BD80916E0081608093F0
:100EF0006E00109281008091810082608093810059
:100F00008091810081608093810080918000816068
:100F1000809380008091B10084608093B1008091C3
:100F2000B00081608093B00080917A0084608093EB
:100F30007A0080917A00826080937A0080917A00B2
:100F4000816080937A0080917A00806880937A0033
:100F50001092C100E0914402F091450282E080834A
:100F6000E0914002F09141021082E0914202F09142
:100F700043028FEC808310924C02E0914802F09182
:100F8000490286E08083E0914602F0914702808129
:100F900080618083E0914602F09147028081886001
:100FA0008083E0914602F0914702808180688083CF
:100FB000E0914602F091470280818F7D80838CE032
:100FC0000E9487008BE00E948700109228021092F6
:100FD00029021092DB011092DA010E9454028EE184
:100FE00091E09093D9018093D8018FE191E09093A3
:100FF000D7018093D60162E371E084E392E00E941E
:101000001D0362E471E084E392E00E941D038FB748
:10101000F89440912C0250912D0260912E02709113
:101020002F028FBFEFEDF2E080819181892B09F4CF
:1010300078C0709623E0EF3DF207B0F395EEB92E3D
:1010400025ECA22E00E010E0D1E099249A940E94B1
:10105000F2006B017C0180910202811190C0D0935B
:101060000202D0930102909200021092FF011092AE
:10107000FE01D093FD018091FD0180618093FD010F
:101080008091FC01813009F0DDC01092FC010E94CA
:10109000F2006B017C018091FD018093BB00809187
:1010A000040290910502A0910602B0910702892BDB
:1010B0008A2B8B2BA1F00E94F200409004025090EA
:1010C000050260900602709007026C197D098E0976
:1010D0009F09461657066806790608F471C0809184
:1010E000BC0083FDD8CFA092BC000E94F2006B012F
:1010F0007C0180910202813009F4A7C08091FF0138
:10110000C1E0811102C0C091FF01ACEDB1E0E8E0A7
:10111000F2E080E08C1709F458C09D9191938F5FA5
:10112000F9CF8091DD029091DE0201969093DE026C
:101130008093DD02892B31F481E090E09093DE0210
:101140008093DD028091DD029091DE029787868791
:1011500082EF93E0918380831382128244835583CC
:101160006683778388EE93E0A0E0B0E08087918784
:10117000A287B38781E090E0958784875FCF8091D5
:10118000040290910502A0910602B0910702892BFA
:101190008A2B8B2B09F45FCF0E94F200409004024F
:1011A0005090050260900602709007026C197D094C
:1011B0008E099F09461657066806790608F04BCF38
:1011C000809103020E947202C0E010922802C09334
:1011D0002902EC2EF12C65E471E084E392E00E9498
:1011E0001D036C2F70E090E080E04AE00E946303F2
:1011F00061E571E084E392E00E941D03D12CC12CD3
:10120000CE14DF040CF043C081ED92E00E94A302F3
:1012100080932A0262E671E084E392E00E941D035B
:1012200060912A0270E090E080E04AE00E9463034F
:1012300062E471E084E392E00E941D038FEFC81A1C
:10124000D80ADECFB092BC0050CF809104029091BA
:101250000502A0910602B0910702892B8A2B8B2BE5
:1012600009F447CF0E94F20040900402509005021A
:1012700060900602709007026C197D098E099F0923
:10128000461657066806790608F033CF99CF0E94B4
:10129000F2002B013C0184EFC82EDD24D394E12C15
:1012A000F12C0E94F2006419750986099709683EBD
:1012B000734081059105A8F321E0C21AD108E10825
:1012C000F10888EE480E83E0581E611C711CC114A1
:1012D000D104E104F10429F70115110509F4B7CE91
:1012E0000E948A01882309F4B2CE0E940000AFCE8A
:1012F000E89409C097FB3EF49095809570956195B0
:101300007F4F8F4F9F4F9923A9F0F92F96E9BB2765
:101310009395F695879577956795B795F111F8CFE1
:10132000FAF4BB0F11F460FF1BC06F5F7F4F8F4F4C
:101330009F4F16C0882311F096E911C0772321F042
:101340009EE8872F762F05C0662371F096E8862FDA
:1013500070E060E02AF09A95660F771F881FDAF731
:10136000880F9695879597F9089597F99F6780E874
:1013700070E060E008959FEF80EC089500240A94E7
:101380001616170618060906089500240A94121660
:101390001306140605060895092E0394000C11F493
:1013A000882352F0BB0F40F4BF2B11F460FF04C040
:1013B0006F5F7F4F8F4F9F4F089557FD9058440F99
:1013C000551F59F05F3F71F04795880F97FB991FA4
:1013D00061F09F3F79F08795089512161306140661
:1013E000551FF2CF4695F1DF08C0161617061806EE
:1013F000991FF1CF86957105610508940895E894C9
:10140000BB2766277727CB0197F908952F923F9244
:101410004F925F926F927F928F929F92AF92BF9204
:10142000CF92DF92EF92FF920F931F93CF93DF93B0
:10143000CDB7DEB7CA1BDB0B0FB6F894DEBF0FBE0D
:10144000CDBF09942A88398848885F846E847D845A
:101450008C849B84AA84B984C884DF80EE80FD805C
:101460000C811B81AA81B981CE0FD11D0FB6F894D2
:10147000DEBF0FBECDBFED0108955058BB27AA2790
:101480000E94550A0C94CC090E94BE0938F00E94B3
:10149000C50920F039F49F3F19F426F40C94BB09D8
:1014A0000EF4E095E7FB0C94B509E92F0E94DD09E5
:1014B00058F3BA17620773078407950720F079F489
:1014C000A6F50C94FF090EF4E0950B2EBA2FA02D73
:1014D0000B01B90190010C01CA01A0011124FF27E1
:1014E000591B99F0593F50F4503E68F11A16F040DC
:1014F000A22F232F342F4427585FF3CF46953795DB
:101500002795A795F0405395C9F77EF41F16BA0B9F
:10151000620B730B840BBAF09150A1F0FF0FBB1F4D
:10152000661F771F881FC2F70EC0BA0F621F731F96
:10153000841F48F4879577956795B795F7959E3FF3
:1015400008F0B0CF9395880F08F09927EE0F979584
:10155000879508950E94B10A6894B1110C94000A0D
:1015600008950E94E50988F09F5798F0B92F9927B0
:10157000B751B0F0E1F0660F771F881F991F1AF07E
:10158000BA95C9F714C0B13091F00E94FF09B1E0DB
:1015900008950C94FF09672F782F8827B85F39F0DA
:1015A000B93FCCF3869577956795B395D9F73EF417
:1015B00090958095709561957F4F8F4F9F4F0895BF
:1015C000A1E21A2EAA1BBB1BFD010DC0AA1FBB1F47
:1015D000EE1FFF1FA217B307E407F50720F0A21BB9
:1015E000B30BE40BF50B661F771F881F991F1A9426
:1015F00069F760957095809590959B01AC01BD0150
:10160000CF010895EE0FFF1F0590F491E02D09948E
:101610000F931F93CF93DF938230910510F482E0F4
:1016200090E0E091E103F091E20330E020E0B0E0EF
:10163000A0E0309799F42115310509F44AC0281B20
:10164000390B24303105D8F58A819B8161157105EC
:1016500089F1FB0193838283FE0111C04081518196
:101660000281138148175907E0F04817590799F488
:10167000109761F012960C93129713961C93329662
:10168000CF01DF91CF911F910F9108950093E10356
:101690001093E203F4CF2115310551F0421753079F
:1016A00038F0A901DB019A01BD01DF01F801C1CFCA
:1016B000EF01F9CF9093E2038093E103CDCFFE01D8
:1016C000E20FF31F819391932250310939832883CC
:1016D000D7CF2091DF033091E003232B41F42091F9
:1016E0000201309103013093E0032093DF03209146
:1016F0000001309101012115310541F42DB73EB7AC
:101700004091040150910501241B350BE091DF034A
:10171000F091E003E217F307A0F42E1B3F0B28170C
:10172000390778F0AC014E5F5F4F2417350748F05A
:101730004E0F5F1F5093E0034093DF03819391931B
:101740009FCFF0E0E0E09CCFCF93DF930097E9F0EC
:10175000FC01329713821282A091E103B091E2035F
:10176000ED0130E020E01097A1F420813181820F5B
:10177000931F2091DF033091E0032817390709F008
:1017800061C0F093E003E093DF03DF91CF91089510
:10179000EA01CE17DF07E8F54A815B819E0141151A
:1017A0005105B1F7E901FB83EA8349915991C40FCF
:1017B000D51FEC17FD0761F4808191810296840F9B
:1017C000951FE90199838883828193819B838A8312
:1017D000F0E0E0E012968D919C9113970097B9F597
:1017E0002D913C911197CD010296820F931F20916C
:1017F000DF033091E0032817390739F6309751F5A8
:101800001092E2031092E103B093E003A093DF0390
:10181000BCCFD383C28340815181840F951FC817E9
:10182000D90761F44E5F5F4F88819981480F591F36
:10183000518340838A819B81938382832115310563
:1018400009F0B0CFF093E203E093E1039ECFFD01F6
:10185000DC01C0CF13821282D7CFB0E0A0E0E3E377
:10186000FCE00C94080A8C01009751F4CB010E9413
:10187000080B8C01C801CDB7DEB7E0E10C94240A57
:10188000FC01E60FF71F9C0122503109E217F30714
:1018900008F49DC0D901CD91DC911197C617D707E7
:1018A00098F0C530D10530F3CE010497861797071D
:1018B00008F3C61BD70B2297C193D1936D937C93EA
:1018C000CF010E94A40BD6CF5B01AC1ABD0A4C011C
:1018D0008C0E9D1EA091E103B091E203512C412C8E
:1018E000F12CE12C109731F58091DF039091E0030A
:1018F0008815990509F05CC04616570608F058C0CF
:101900008091000190910101009741F48DB79EB73D
:101910004091040150910501841B950BE817F907CC
:1019200008F055C0F093E003E093DF03F901718301
:101930006083A0CF8D919C91119712966C90129715
:1019400013967C901397A815B90559F56C0142E0E0
:10195000C40ED11CCA14DB0420F1AC014A195B0986
:10196000DA011296159780F0628273825183408368
:10197000D9016D937C93E114F10471F0D7011396B2
:10198000FC93EE93129776CF22968C0F9D1FF90150
:1019900091838083F301EFCFF093E203E093E103BF
:1019A00069CF4816590608F42C017D01D3019ACF5E
:1019B000CB010E94080B7C01009749F0AE01B801F1
:1019C0000E94EA0CC8010E94A40B870153CF10E0CB
:1019D00000E050CFFB01DC0102C001900D924150AC
:1019E0005040D8F70895FB01DC0101900D920020D2
:0819F000E1F70895F894FFCF20
:1019F8000000E303800000000000C00120014D0149
:101A08000D027E015C01700100000000E302B602D5
:101A1800120393021701A30294027700660065007F
:101A280073004920616D20493243204D617374650C
:101A380072000D0A00536C6176652073656E742020
:101A480000206F6620696E666F726D6174696F6ED3
:101A58000A00536C6176652053656E743A20000065
:00000001FF
