:100000000C9458000C9480000C9480000C94800098
:100010000C9480000C9480000C9480000C94800060
:100020000C9480000C9480000C9480000C94800050
:100030000C9480000C9480000C9480000C94800040
:100040000C94C3030C9480000C9433040C940D04A2
:100050000C9480000C9480000C9480000C94800020
:100060000C9465040C94800000000000250028001A
:100070002B00040404040404040402020202020229
:10008000030303030303010204081020408001025C
:1000900004081020010204081020000000080002DB
:1000A00001000003040700000000000000008405B8
:1000B00011241FBECFEFD8E0DEBFCDBF22E0A6E403
:1000C000B1E001C01D92A63BB207E1F711E0A0E04C
:1000D000B1E0E4E4F6E102C005900D92A634B10768
:1000E000D9F710E0C8E5D0E004C02197FE010E94D6
:1000F0002809C735D107C9F70E94BD050C94200B0C
:100100000C94000090E0FC01E656FF4F2491FC01A6
:10011000EA57FF4F3491FC01EE58FF4FE491EE2374
:10012000C9F0222339F0233001F1A8F4213019F16C
:10013000223029F1F0E0EE0FFF1FE859FF4FA591A3
:10014000B4918FB7F894EC91611126C030953E239D
:100150003C938FBF08952730A9F02830C9F0243090
:1001600049F7809180008F7D03C0809180008F7758
:1001700080938000DFCF84B58F7784BDDBCF84B5DB
:100180008F7DFBCF8091B0008F778093B000D2CF6E
:100190008091B0008F7DF9CF3E2BDACF3FB7F89436
:1001A0008091050290910602A0910702B091080289
:1001B00026B5A89B05C02F3F19F00196A11DB11DC2
:1001C0003FBFBA2FA92F982F8827BC01CD01620FFE
:1001D000711D811D911D42E0660F771F881F991FB9
:1001E0004A95D1F7089508950895AF92BF92CF929E
:1001F000DF92EF92FF920F931F93CF93DF936C01E7
:100200007B018B01040F151FEB015E01AE18BF08C7
:10021000C017D10759F06991D601ED91FC91019079
:10022000F081E02DC6010995892B79F7C501DF9191
:10023000CF911F910F91FF90EF90DF90CF90BF90E3
:10024000AF900895FC01538D448D252F30E0842F0D
:1002500090E0821B930B541710F0CF9608950197EE
:100260000895FC01918D828D981761F0A28DAE0FDB
:10027000BF2FB11D5D968C91928D9F5F9F73928F62
:1002800090E008958FEF9FEF0895FC01918D828D8E
:10029000981731F0828DE80FF11D858D90E008955B
:1002A0008FEF9FEF0895FC01918D228D892F90E0B3
:1002B000805C9F4F821B91098F739927089589E075
:1002C00092E00E94530121E0892B09F420E0822F63
:1002D000089580E090E0892B29F00E945F01811150
:1002E0000C9400000895FC01A48DA80FB92FB11D36
:1002F000A35ABF4F2C91848D90E001968F7399275C
:10030000848FA689B7892C93A089B1898C91837039
:1003100080648C93938D848D981306C00288F38932
:10032000E02D80818F7D80830895EF92FF920F935F
:100330001F93CF93DF93EC0181E0888F9B8D8C8D91
:1003400098131AC0E889F989808185FF15C09FB785
:10035000F894EE89FF896083E889F9898081837048
:10036000806480839FBF81E090E0DF91CF911F91F7
:100370000F91FF90EF900895F62E0B8D10E00F5F18
:100380001F4F0F731127E02E8C8D8E110CC00FB6EE
:1003900007FCFACFE889F989808185FFF5CFCE0186
:1003A0000E947301F1CFEB8DEC0FFD2FF11DE35A8D
:1003B000FF4FF0829FB7F8940B8FEA89FB89808109
:1003C0008062CFCFCF93DF93EC01888D8823B9F083
:1003D000AA89BB89E889F9898C9185FD03C0808150
:1003E00086FD0DC00FB607FCF7CF8C9185FFF2CFCD
:1003F000808185FFEDCFCE010E947301E9CFDF91AF
:10040000CF91089520918701260F3327331F213282
:100410003105ECF42091D601FC0190E080E024301D
:1004200069F082E00895A09187012191AC014959BA
:100430005E4FA40FB52FB11D2C930196861798F32C
:1004400080918701680F6093870180E0089581E0C3
:1004500008951092D60181E08093D5011092B001E9
:1004600061E082E10E94820061E083E10E948200FB
:10047000E9EBF0E080818E7F808380818D7F8083B7
:1004800088E48093B80085E48093BC000895CF93FE
:10049000DF9391E0909366018823B9F0C091B80092
:1004A000D091BA008091BC008A7B8093BC0060E050
:1004B00082E10E94820060E083E10E9482000E944B
:1004C0002902D093BA00C093B800DF91CF9108956C
:1004D0000895E091AF018091AE01E81730F4F0E0AB
:1004E000EA5BFE4F808190E008958FEF9FEF0895C3
:1004F0009091AF018091AE012FEF3FEF981748F434
:10050000E92FF0E0EA5BFE4F208130E09F5F90939F
:10051000AF01C90108958091AE019091AF01891B8F
:10052000990B0895CF92DF92EF92FF920F931F9352
:10053000CF93DF937C01CB018A012091FF0122231D
:1005400089F0EB016B01C40ED51ECC15DD0569F0F9
:100550006991D701ED91FC910190F081E02DC701E7
:100560000995F3CF642F0E940202C801DF91CF9159
:100570001F910F91FF90EF90DF90CF900895CF9350
:10058000DF931F92CDB7DEB769832091FF0122234D
:10059000F9F02091FC01203258F021E030E0FC011C
:1005A0003383228390E080E00F90DF91CF91089514
:1005B0008091FD01E82FF0E0E452FE4F9981908395
:1005C0008F5F8093FD018093FC0181E090E0ECCF90
:1005D00061E0CE0101960E940202F7CF90E080E038
:1005E0000895FB0101900020E9F73197AF01461B08
:1005F000570BDC01ED91FC910280F381E02D099411
:10060000CF92DF92EF92FF92CF93DF93EC01072E10
:10061000000C880B990B0E94C20720E030E040E0FC
:100620005FE30E9486080E94F2086B016D2D772718
:1006300067FD7A9586EA92E00E94BF026C2D86EAF9
:1006400092E00E94BF02688179816115710551F0C5
:1006500086EA92E0DF91CF91FF90EF90DF90CF900C
:100660000C94F102DF91CF91FF90EF90DF90CF904B
:100670000895FC0180819181009711F00C94CA09C2
:100680000895EF92FF920F931F93CF93DF93EC01A6
:100690007B01FB0101900020E9F731978F01061BD8
:1006A000170B88819981009729F02A813B812017B7
:1006B000310788F4B8016F5F7F4F0E94530A00979B
:1006C000B9F0998388831B830A832C813D81232B76
:1006D00011F4FC0110821D830C83B701888199817C
:1006E000DF91CF911F910F91FF90EF900C94190B18
:1006F00088819981009711F00E94CA091982188295
:100700001D821C821B821A82DF91CF911F910F9153
:10071000FF90EF90089585ED8093BC008091D80103
:100720009091D901A091DA01B091DB010796A11D4A
:10073000B11D23E0B695A795979587952A95D1F792
:100740002091BC0024FD03C01092D6010895409171
:10075000D8015091D9016091DA017091DB01452BEC
:10076000462B472B69F30097A105B10541F02AE21A
:100770002A95F1F700C00197A109B109E1CF809155
:10078000D7010C9447021F920F920FB60F921124BB
:100790002F933F938F939F93AF93BF9380910102C9
:1007A00090910202A0910302B091040230910002E4
:1007B00023E0230F2D3758F50196A11DB11D20937D
:1007C00000028093010290930202A0930302B0936F
:1007D00004028091050290910602A0910702B09157
:1007E00008020196A11DB11D809305029093060297
:1007F000A0930702B0930802BF91AF919F918F9190
:100800003F912F910F900FBE0F901F90189526E8E3
:10081000230F0296A11DB11DD2CF1F920F920FB6CA
:100820000F9211242F933F934F935F936F937F9376
:100830008F939F93AF93BF93EF93FF9389E092E0E1
:100840000E947301FF91EF91BF91AF919F918F91A2
:100850007F916F915F914F913F912F910F900FBEBC
:100860000F901F9018951F920F920FB60F921124A0
:100870002F938F939F93EF93FF93E0911902F09141
:100880001A028081E0911F02F091200282FD1BC0BC
:100890009081809122028F5F8F73209123028217B3
:1008A00041F0E0912202F0E0E75FFD4F958F8093E9
:1008B0002202FF91EF919F918F912F910F900FBE88
:1008C0000F901F9018958081F4CF1F920F920FB652
:1008D0000F9211242F933F934F935F936F937F93C6
:1008E0008F939F93AF93BF93EF93FF938091B90042
:1008F000887F803609F44AC0F0F5883209F4A7C031
:1009000018F5803109F49BC0B8F4882309F4F9C0C4
:10091000883009F494C0FF91EF91BF91AF919F91FE
:100920008F917F916F915F914F913F912F910F9098
:100930000FBE0F901F901895883109F488C080323F
:1009400051F78093D40114C0803409F49DC040F461
:100950008033B9F38833F9F68093D40185ECB0C0C5
:10096000803509F485C0883509F496C0883499F635
:100970000E948B03D0CF883909F48CC038F58837B2
:1009800029F050F4883611F0803729F683E08093FF
:10099000D6011092A90157C0883809F47BC080396C
:1009A00019F0803809F0B7CF8091A901803208F0A2
:1009B00071C0E091A90181E08E0F8093A90180911F
:1009C000BB00F0E0E757FE4F80833DC0803B39F02D
:1009D000E0F4803A09F479C0883A09F09CCF84E0C9
:1009E0008093D6011092880110928701E091AC01AA
:1009F000F091AD0109958091870181110FC081E0CF
:100A0000809387011092670109C0803C09F4A6CF4A
:100A1000883C09F4A3CF883B09F07DCFE0918801A1
:100A200081E08E0F80938801F0E0E959FE4F8081CC
:100A30008093BB00909188018091870129C08091AB
:100A4000B1018093BB0085EC8093BC0064CF909192
:100A5000D3018091D201981758F5E091D30181E03C
:100A60008E0F8093D301F0E0EE54FE4F8081E9CFEA
:100A7000E091D30181E08E0F8093D3018091BB0080
:100A8000F0E0EE54FE4F80839091D3018091D2012B
:100A90009817C8F285E8D8CFE091D30181E08E0F96
:100AA0008093D3018091BB00F0E0EE54FE4F808331
:100AB0008091D50181115CCF81E08093B00184EAFF
:100AC0008093BC001092D60126CF85EC8093BC00A9
:100AD0001092D6018091A901803230F4E091A901F1
:100AE000F0E0E757FE4F10826091A90170E0E091BD
:100AF000AA01F091AB0189E891E009951092A90152
:100B00000ACF1092D40134CFE9E0F2E013821282CE
:100B100088EE93E0A0E0B0E084839583A683B7835A
:100B20002AE031E03183208325EC30E035872487CB
:100B300024EC30E03787268720EC30E0318B208BA7
:100B400021EC30E0338B228B22EC30E0358B248B90
:100B500026EC30E0378B268B118E128E138E148E7E
:100B6000E6EAF2E01382128284839583A683B78338
:100B70008CE191E0918380830895CF93DF9300D03F
:100B800000D000D0CDB7DEB7789484B5826084BD44
:100B900084B5816084BD85B5826085BD85B5816081
:100BA00085BD80916E00816080936E0010928100FF
:100BB00080918100826080938100809181008160BA
:100BC000809381008091800081608093800080917B
:100BD000B10084608093B1008091B0008160809307
:100BE000B00080917A00846080937A0080917A00CE
:100BF000826080937A0080917A00816080937A008D
:100C000080917A00806880937A001092C100E09110
:100C10001902F0911A0282E08083E0911502F091AE
:100C200016021082E0911702F09118028FEC808377
:100C300010922102E0911D02F0911E0286E0808355
:100C4000E0911B02F0911C02808180618083E09121
:100C50001B02F0911C02808188608083E0911B025E
:100C6000F0911C02808180688083E0911B02F091EA
:100C70001C0280818F7D80831092AF011092AE01A3
:100C80001092FD011092FC010E94290283EF90E076
:100C90009093AD018093AC0184EF90E09093AB0111
:100CA0008093AA016AE271E089E092E00E94F10279
:100CB0006AE371E089E092E00E94F1027724739484
:100CC00098E0692E25EE522E35EC432E00E010E020
:100CD00042E0342E22242A947092FF016092FE0199
:100CE0001092FD011092FC011A8219821C821B8253
:100CF0001E821D826DE371E0CE0101960E944103C8
:100D000067E170E0CE0101960E940003CE010196DA
:100D10000E9439031A8219821C821B821E821D8244
:100D20006FE371E0CE0101960E94410365E070E03F
:100D3000CE0101960E940003CE0101960E94390364
:100D40001A8219821C821B821E821D8261E471E05C
:100D5000CE0101960E94410366E370E0CE01019648
:100D60000E940003CE0101960E9439031A82198263
:100D70001C821B821E821D8263E471E0CE010196FB
:100D80000E94410362E070E0CE0101960E940003E0
:100D9000CE0101960E943903E090FC0120E22E155D
:100DA00008F48FC0F090FE010E94CE004B015C0160
:100DB0008091D601811160C03092D6017092D50128
:100DC0002092D4011092D301E092D201ACEDB1E0B7
:100DD000E2EBF1E0E812ABC01092B1018091B101F9
:100DE000FF0CF82AF092B1018091B001813009F036
:100DF000A2C01092B0010E94CE006B017C018091D4
:100E0000B1018093BB008091D8019091D901A0914C
:100E1000DA01B091DB01892B8A2B8B2B99F00E9490
:100E2000CE008090D8019090D901A090DA01B090C6
:100E3000DB016C197D098E099F0986169706A806A5
:100E4000B906D8F18091BC0083FDD9CF4092BC0097
:100E50000E94CE006B017C018091D601823009F4A2
:100E60006DC08091D4018F3F61F18091D4018032B7
:100E700041F18091D40125C08091D8019091D90190
:100E8000A091DA01B091DB01892B8A2B8B2B09F41D
:100E90008FCF0E94CE002091D8013091D90140918E
:100EA000DA015091DB01681979098A099B09261733
:100EB00037074807590708F07BCF8091D7010E9478
:100EC00047021092FD011092FC011092FF010E9456
:100ED000CE006B017C018AE0882E912CA12CB12CD4
:100EE0000E94CE006C197D098E099F09683E7340EF
:100EF00081059105A8F381E0881A9108A108B1083D
:100F000028EEC20E23E0D21EE11CF11C81149104D4
:100F1000A104B10429F70115110509F4DDCE0E94E1
:100F20005F01882309F4D8CE0E940000D5CE9D91A0
:100F300091938F5F4FCF5092BC008ACF8091D801A0
:100F40009091D901A091DA01B091DB01892B8A2B14
:100F50008B2B09F481CF0E94CE008090D801909015
:100F6000D901A090DA01B090DB016C197D098E09DE
:100F70009F0986169706A806B90608F06DCF9DCF83
:100F8000E89409C097FB3EF4909580957095619523
:100F90007F4F8F4F9F4F9923A9F0F92F96E9BB27D9
:100FA0009395F695879577956795B795F111F8CF55
:100FB000FAF4BB0F11F460FF1BC06F5F7F4F8F4FC0
:100FC0009F4F16C0882311F096E911C0772321F0B6
:100FD0009EE8872F762F05C0662371F096E8862F4E
:100FE00070E060E02AF09A95660F771F881FDAF7A5
:100FF000880F9695879597F9089597F99F6780E8E8
:1010000070E060E008959FEF80EC089500240A945A
:101010001616170618060906089500240A941216D3
:101020001306140605060895092E0394000C11F406
:10103000882352F0BB0F40F4BF2B11F460FF04C0B3
:101040006F5F7F4F8F4F9F4F089557FD9058440F0C
:10105000551F59F05F3F71F04795880F97FB991F17
:1010600061F09F3F79F087950895121613061406D4
:10107000551FF2CF4695F1DF08C016161706180661
:10108000991FF1CF86957105610508940895E8943C
:10109000BB2766277727CB0197F908952F923F92B8
:1010A0004F925F926F927F928F929F92AF92BF9278
:1010B000CF92DF92EF92FF920F931F93CF93DF9324
:1010C000CDB7DEB7CA1BDB0B0FB6F894DEBF0FBE81
:1010D000CDBF09942A88398848885F846E847D84CE
:1010E0008C849B84AA84B984C884DF80EE80FD80D0
:1010F0000C811B81AA81B981CE0FD11D0FB6F89446
:10110000DEBF0FBECDBFED0108955058BB27AA2703
:101110000E949D080C9414080E94060838F00E9452
:101120000D0820F039F49F3F19F426F40C940308BD
:101130000EF4E095E7FB0C94FD07E92F0E942508CB
:1011400058F3BA17620773078407950720F079F4FC
:10115000A6F50C9447080EF4E0950B2EBA2FA02D9F
:101160000B01B90190010C01CA01A0011124FF2754
:10117000591B99F0593F50F4503E68F11A16F0404F
:10118000A22F232F342F4427585FF3CF469537954E
:101190002795A795F0405395C9F77EF41F16BA0B13
:1011A000620B730B840BBAF09150A1F0FF0FBB1FC1
:1011B000661F771F881FC2F70EC0BA0F621F731F0A
:1011C000841F48F4879577956795B795F7959E3F67
:1011D00008F0B0CF9395880F08F09927EE0F9795F8
:1011E000879508950E94F9086894B1110C944808F5
:1011F00008950E942D0888F09F5798F0B92F9927DD
:10120000B751B0F0E1F0660F771F881F991F1AF0F1
:10121000BA95C9F714C0B13091F00E944708B1E007
:1012200008950C944708672F782F8827B85F39F006
:10123000B93FCCF3869577956795B395D9F73EF48A
:1012400090958095709561957F4F8F4F9F4F089532
:10125000EE0FFF1F0590F491E02D09940F931F935B
:10126000CF93DF938230910510F482E090E0E0911B
:10127000B402F091B50230E020E0B0E0A0E0309799
:1012800099F42115310509F44AC0281B390B243083
:101290003105D8F58A819B816115710589F1FB01C2
:1012A00093838283FE0111C04081518102811381A9
:1012B00048175907E0F04817590799F4109761F05B
:1012C00012960C93129713961C933296CF01DF91CE
:1012D000CF911F910F9108950093B4021093B5021E
:1012E000F4CF2115310551F04217530738F0A90109
:1012F000DB019A01BD01DF01F801C1CFEF01F9CF98
:101300009093B5028093B402CDCFFE01E20FF31F9C
:10131000819391932250310939832883D7CF20912B
:10132000B2023091B302232B41F42091020130919B
:1013300003013093B3022093B20220910001309157
:1013400001012115310541F42DB73EB7409104014B
:1013500050910501241B350BE091B202F091B302CC
:10136000E217F307A0F42E1B3F0B2817390778F07C
:10137000AC014E5F5F4F2417350748F04E0F5F1FDB
:101380005093B3024093B202819391939FCFF0E0C8
:10139000E0E09CCFCF93DF930097E9F0FC01329718
:1013A00013821282A091B402B091B502ED0130E037
:1013B00020E01097A1F420813181820F931F2091AA
:1013C000B2023091B3022817390709F061C0F093D7
:1013D000B302E093B202DF91CF910895EA01CE17F4
:1013E000DF07E8F54A815B819E0141155105B1F7A0
:1013F000E901FB83EA8349915991C40FD51FEC178A
:10140000FD0761F4808191810296840F951FE901A7
:1014100099838883828193819B838A83F0E0E0E0D3
:1014200012968D919C9113970097B9F52D913C914F
:101430001197CD010296820F931F2091B202309135
:10144000B3022817390739F6309751F51092B502D3
:101450001092B402B093B302A093B202BCCFD38374
:10146000C28340815181840F951FC817D90761F449
:101470004E5F5F4F88819981480F591F5183408388
:101480008A819B81938382832115310509F0B0CF36
:10149000F093B502E093B4029ECFFD01DC01C0CF12
:1014A00013821282D7CFB0E0A0E0E9E5FAE00C9415
:1014B00050088C01009751F4CB010E942E098C0139
:1014C000C801CDB7DEB7E0E10C946C08FC01E60F73
:1014D000F71F9C0122503109E217F30708F49DC061
:1014E000D901CD91DC911197C617D70798F0C53077
:1014F000D10530F3CE0104978617970708F3C61B72
:10150000D70B2297C193D1936D937C93CF010E9407
:10151000CA09D6CF5B01AC1ABD0A4C018C0E9D1EC8
:10152000A091B402B091B502512C412CF12CE12CC8
:10153000109731F58091B2029091B3028815990508
:1015400009F05CC04616570608F058C080910001AB
:1015500090910101009741F48DB79EB7409104012D
:1015600050910501841B950BE817F90708F055C049
:10157000F093B302E093B202F90171836083A0CFCC
:101580008D919C91119712966C90129713967C9066
:101590001397A815B90559F56C0142E0C40ED11C8A
:1015A000CA14DB0420F1AC014A195B09DA01129676
:1015B000159780F06282738251834083D9016D93C5
:1015C0007C93E114F10471F0D7011396FC93EE9330
:1015D000129776CF22968C0F9D1FF90191838083FD
:1015E000F301EFCFF093B502E093B40269CF481650
:1015F000590608F42C017D01D3019ACFCB010E943A
:101600002E097C01009749F0AE01B8010E94100B31
:10161000C8010E94CA09870153CF10E000E050CFF3
:10162000FB01DC0102C001900D9241505040D8F7FF
:101630000895FB01DC0101900D920020E1F708956F
:04164000F894FFCF4C
:101644000000B6028000000000009501F5002201B0
:10165400E20153013101450100000000BF02920282
:10166400EE0268028B02780269024920616D20490A
:101674003243204D6173746572000D0A0077006671
:0616840000650073000088
:00000001FF
