:020000040000FA
:100000000C9458000C9480000C9480000C94800098
:100010000C9480000C9480000C9480000C94800060
:100020000C9480000C9480000C9480000C94800050
:100030000C9480000C9480000C9480000C94800040
:100040000C9492030C9480000C9460030C943A037B
:100050000C9480000C9480000C9480000C94800020
:100060000C94DC030C9480000000000025002800A4
:100070002B00040404040404040402020202020229
:10008000030303030303010204081020408001025C
:1000900004081020010204081020000000080002DB
:1000A0000100000304070000000000000000FB0442
:1000B00011241FBECFEFD8E0DEBFCDBF11E0A0E01E
:1000C000B1E0EAE6FEE002C005900D92A833B10768
:1000D000D9F722E0A8E3B1E001C01D92A238B2072F
:1000E000E1F710E0C8E5D0E004C02197FE010E94CE
:1000F0002D07C735D107C9F70E9434050C94330783
:100100000C94000008950895AF92BF92CF92DF92B1
:10011000EF92FF920F931F93CF93DF936C017B01BC
:100120008B01040F151FEB015E01AE18BF08C0174D
:10013000D10759F06991D601ED91FC910190F081C0
:10014000E02DC6010995892B79F7C501DF91CF9183
:100150001F910F91FF90EF90DF90CF90BF90AF90E5
:100160000895FC01538D448D252F30E0842F90E0BD
:10017000821B930B541710F0CF96089501970895A2
:10018000FC01918D828D981761F0A28DAE0FBF2F6B
:10019000B11D5D968C91928D9F5F9F73928F90E0C1
:1001A00008958FEF9FEF0895FC01918D828D981730
:1001B00031F0828DE80FF11D858D90E008958FEF6D
:1001C0009FEF0895FC01918D228D892F90E0805C36
:1001D0009F4F821B91098F739927089589ED91E0B4
:1001E0000E94E20021E0892B09F420E0822F08958B
:1001F00080E090E0892B29F00E94EE0081110C94A0
:1002000000000895FC01A48DA80FB92FB11DA35AB9
:10021000BF4F2C91848D90E001968F739927848F26
:10022000A689B7892C93A089B1898C918370806449
:100230008C93938D848D981306C00288F389E02DEA
:1002400080818F7D80830895EF92FF920F931F939B
:10025000CF93DF93EC0181E0888F9B8D8C8D981379
:100260001AC0E889F989808185FF15C09FB7F89485
:10027000EE89FF896083E889F989808183708064D1
:1002800080839FBF81E090E0DF91CF911F910F911C
:10029000FF90EF900895F62E0B8D10E00F5F1F4F2B
:1002A0000F731127E02E8C8D8E110CC00FB607FC3A
:1002B000FACFE889F989808185FFF5CFCE010E94C8
:1002C0000201F1CFEB8DEC0FFD2FF11DE35AFF4F33
:1002D000F0829FB7F8940B8FEA89FB898081806256
:1002E000CFCFCF93DF93EC01888D8823B9F0AA8913
:1002F000BB89E889F9898C9185FD03C0808186FDE1
:100300000DC00FB607FCF7CF8C9185FFF2CF80812F
:1003100085FFEDCFCE010E940201E9CFDF91CF91A1
:10032000089590E0FC01E656FF4F2491FC01EA5746
:10033000FF4F3491FC01EE58FF4FE491EE23C9F0DA
:10034000222339F0233001F1A8F4213019F12230B1
:1003500029F1F0E0EE0FFF1FE859FF4FA591B4918E
:100360008FB7F894EC91611126C030953E233C93F1
:100370008FBF08952730A9F02830C9F0243049F7FD
:10038000809180008F7D03C0809180008F77809363
:100390008000DFCF84B58F7784BDDBCF84B58F7DC0
:1003A000FBCF8091B0008F778093B000D2CF809147
:1003B000B0008F7DF9CF3E2BDACF3FB7F894809114
:1003C000810190918201A0918301B091840126B5B1
:1003D000A89B05C02F3F19F00196A11DB11D3FBF7D
:1003E000BA2FA92F982F8827BC01CD01620F711D4C
:1003F000811D911D42E0660F771F881F991F4A9546
:10040000D1F7089520915901260F3327331F213248
:100410003105ECF42091B101FC0190E080E0243042
:1004200069F082E00895A09159012191AC01475CE7
:100430005E4FA40FB52FB11D2C930196861798F32C
:1004400080915901680F6093590180E0089581E01F
:1004500008951092B10181E08093B0011092AB0138
:1004600061E082E10E94910161E083E10E949101DB
:10047000E9EBF0E080818E7F808380818D7F8083B7
:1004800088E48093B80085E48093BC000895CF93FE
:10049000DF9391E0909338018823B9F0C091B800C0
:1004A000D091BA008091BC008A7B8093BC0060E050
:1004B00082E10E94910160E083E10E9491010E942B
:1004C0002902D093BA00C093B800DF91CF9108956C
:1004D0000895E091B8018091B701E81730F4F0E099
:1004E000E754FE4F808190E008958FEF9FEF0895CD
:1004F0009091B8018091B7012FEF3FEF981748F422
:10050000E92FF0E0E754FE4F208130E09F5F9093A9
:10051000B801C90108958091B7019091B801891B74
:10052000990B0895CF93DF93CB01EA01642F0E94CA
:100530000202CE01DF91CF910895CF93DF931F92F6
:10054000CDB7DEB7698361E0CE0101960E94020259
:1005500081E090E00F90DF91CF91089590E080E0EE
:100560000895FC0101900020E9F73197AF01481B85
:10057000590BBC0189ED91E00C9484008F929F92FD
:10058000AF92BF920F931F93CF93DF93CDB7DEB798
:10059000A1970FB6F894DEBF0FBECDBF19A24230AF
:1005A00008F44AE08E010F5D1F4F842E912CB12C70
:1005B000A12CA50194010E940B07E62FB901CA01E5
:1005C000EA30F4F4E05DD801EE938D01232B242B67
:1005D000252B79F790E080E0109719F0CD010E946B
:1005E000B102A1960FB6F894DEBF0FBECDBFDF916A
:1005F000CF911F910F91BF90AF909F908F900895D2
:10060000E95CE1CF85ED8093BC008091B3019091CE
:10061000B401A091B501B091B6010796A11DB11D1D
:1006200023E0B695A795979587952A95D1F72091C0
:10063000BC0024FD03C01092B10108954091B301A4
:100640005091B4016091B5017091B601452B462BD4
:10065000472B69F30097A105B10541F025E32A95E1
:10066000F1F700000197A109B109E1CF8091B20132
:100670000C9447021F920F920FB60F9211242F93E2
:100680003F934F935F936F937F938F939F93AF931A
:10069000BF93EF93FF9389ED91E00E940201FF91D8
:1006A000EF91BF91AF919F918F917F916F915F91EA
:1006B0004F913F912F910F900FBE0F901F90189563
:1006C0001F920F920FB60F9211242F938F939F9327
:1006D000EF93FF93E091E901F091EA018081E091CD
:1006E000EF01F091F00182FD1BC090818091F20139
:1006F0008F5F8F732091F301821741F0E091F20137
:10070000F0E0E752FE4F958F8093F201FF91EF9159
:100710009F918F912F910F900FBE0F901F90189562
:100720008081F4CF1F920F920FB60F9211242F9356
:100730003F938F939F93AF93BF9380917D0190914F
:100740007E01A0917F01B091800130917C0123E076
:10075000230F2D3758F50196A11DB11D20937C0163
:1007600080937D0190937E01A0937F01B0938001DF
:100770008091810190918201A0918301B0918401C7
:100780000196A11DB11D8093810190938201A093D8
:100790008301B0938401BF91AF919F918F913F915D
:1007A0002F910F900FBE0F901F90189526E8230FE2
:1007B0000296A11DB11DD2CF1F920F920FB60F92BC
:1007C00011242F933F934F935F936F937F938F9356
:1007D0009F93AF93BF93EF93FF938091B900887F6E
:1007E000803609F44AC0F0F5883209F4A7C018F53C
:1007F000803109F49BC0B8F4882309F4F9C088302B
:1008000009F494C0FF91EF91BF91AF919F918F91A7
:100810007F916F915F914F913F912F910F900FBEFC
:100820000F901F901895883109F488C0803251F7D5
:100830008093AF0114C0803409F49DC040F480332C
:10084000B9F38833F9F68093AF0185ECB0C08035F9
:1008500009F485C0883509F496C0883499F60E9459
:100860000203D0CF883909F48CC038F5883729F0D5
:1008700050F4883611F0803729F683E08093B10177
:1008800010927B0157C0883809F47BC0803919F079
:10089000803809F0B7CF80917B01803208F071C0B9
:1008A000E0917B0181E08E0F80937B018091BB0002
:1008B000F0E0E55AFE4F80833DC0803B39F0E0F424
:1008C000803A09F479C0883A09F09CCF84E080939B
:1008D000B10110925A0110925901E0918701F091F3
:1008E000880109958091590181110FC081E08093A1
:1008F00059011092390109C0803C09F4A6CF883C07
:1009000009F4A3CF883B09F07DCFE0915A0181E043
:100910008E0F80935A01F0E0E75CFE4F8081809358
:10092000BB0090915A018091590129C08091AC017E
:100930008093BB0085EC8093BC0064CF9091AE01A6
:100940008091AD01981758F5E091AE0181E08E0FCE
:100950008093AE01F0E0E557FE4F8081E9CFE09152
:10096000AE0181E08E0F8093AE018091BB00F0E07C
:10097000E557FE4F80839091AE018091AD019817AD
:10098000C8F285E8D8CFE091AE0181E08E0F809368
:10099000AE018091BB00F0E0E557FE4F808380916F
:1009A000B00181115CCF81E08093AB0184EA809338
:1009B000BC001092B10126CF85EC8093BC00109250
:1009C000B10180917B01803230F4E0917B01F0E055
:1009D000E55AFE4F108260917B0170E0E091850145
:1009E000F09186018BE591E0099510927B010ACF89
:1009F0001092AF0134CFE9EDF1E01382128288EE5C
:100A000093E0A0E0B0E084839583A683B78324E0DD
:100A100031E03183208325EC30E03587248724ECD6
:100A200030E03787268720EC30E0318B208B21ECBB
:100A300030E0338B228B22EC30E0358B248B26EC9C
:100A400030E0378B268B118E128E138E148EE6E7D4
:100A5000F2E01382128284839583A683B78386E1B2
:100A600091E0918380830895CF93DF9300D01F920C
:100A7000CDB7DEB7789484B5826084BD84B58160DB
:100A800084BD85B5826085BD85B5816085BD809159
:100A90006E00816080936E001092810080918100D1
:100AA00082608093810080918100816080938100C9
:100AB000809180008160809380008091B10084608B
:100AC0008093B1008091B00081608093B0008091EC
:100AD0007A00846080937A0080917A0082608093AB
:100AE0007A0080917A00816080937A0080917A0008
:100AF000806880937A001092C100E091E901F09142
:100B0000EA0182E08083E091E501F091E601108244
:100B1000E091E701F091E8018FEC80831092F10100
:100B2000E091ED01F091EE0186E08083E091EB0130
:100B3000F091EC01808180618083E091EB01F09184
:100B4000EC01808188608083E091EB01F091EC0101
:100B5000808180688083E091EB01F091EC018081DD
:100B60008F7D80831092B8011092B70110928A0194
:100B7000109289010E94290282E890E090938801F6
:100B80008093870183E890E09093860180938501AC
:100B900080E18093BA0084E291E00E94B10284E394
:100BA00091E00E94B10295EE392E25EC222ECE0165
:100BB00001966C01FF24F394EE24EA940E94DD0177
:100BC0002B013C018091B101811162C0F092B10111
:100BD000F092B001E092AF011092AE0192E09093DA
:100BE000AD01F092AC018091AC0180618093AC01C9
:100BF0008091AB01813009F090C01092AB010E944E
:100C0000DD012B013C018091AC018093BB00809100
:100C1000B3019091B401A091B501B091B601892BB7
:100C20008A2B8B2BA1F00E94DD010091B301109162
:100C3000B4012091B5013091B60164197509860996
:100C40009709061717072807390708F442C080914B
:100C5000BC0083FDD8CF2092BC000E94DD012B0197
:100C60003C018091B101813009F45AC08091AE01FC
:100C700003E0833010F40091AE01ABE8B1E0E9EBA2
:100C8000F1E080E0801751F19D9191938F5FFACF51
:100C90008091B3019091B401A091B501B091B601DA
:100CA000892B8A2B8B2B09F48DCF0E94DD010091BB
:100CB000B3011091B4012091B5013091B6016419CE
:100CC000750986099709061717072807390708F0D5
:100CD00079CF8091B2010E94470200E01092B801E2
:100CE0000093B70110E03601C3018C199D098017EC
:100CF0009107C4F586E792E00E947802F3018193A0
:100D00003F01682F70E090E080E04AE00E94BE0260
:100D100084E391E00E94B102E7CF3092BC009DCF06
:100D20008091B3019091B401A091B501B091B60149
:100D3000892B8A2B8B2B09F494CF0E94DD01009123
:100D4000B3011091B4012091B5013091B60164193D
:100D5000750986099709061717072807390708F044
:100D600080CFB7CF89819A819827892798272C012E
:100D7000092E000C6608770897FF49C06DE289EDDF
:100D800091E00E94240166277727CB016419750939
:100D9000860997094AE00E94BE0284E391E00E941E
:100DA000B10284E391E00E94B1020E94DD014B0197
:100DB0005C0188EE482E83E0582E612C712C0E9435
:100DC000DD01681979098A099B09683E734081052C
:100DD0009105A8F3F1E04F1A51086108710828EE57
:100DE000820E23E0921EA11CB11C41145104610427
:100DF000710429F780E090E0892B09F4DFCE0E948E
:100E0000EE00882309F4DACE0E940000D7CE4AE033
:100E1000C301B201C0CFA1E21A2EAA1BBB1BFD0168
:100E20000DC0AA1FBB1FEE1FFF1FA217B307E407C9
:100E3000F50720F0A21BB30BE40BF50B661F771F21
:100E4000881F991F1A9469F7609570958095909501
:100E50009B01AC01BD01CF010895EE0FFF1F05906E
:100E6000F491E02D0994F894FFCF000000002401D4
:100E70008400B1007101E200C000D4000000000055
:100E80009D029202AE0268028B027802690249203A
:100E9000616D20493243204D6173746572000D0A03
:020EA000000050
:107E0000112484B714BE81FFF0D085E080938100F7
:107E100082E08093C00088E18093C10086E0809377
:107E2000C20080E18093C4008EE0C9D0259A86E02C
:107E300020E33CEF91E0309385002093840096BBD3
:107E4000B09BFECF1D9AA8958150A9F7CC24DD24C4
:107E500088248394B5E0AB2EA1E19A2EF3E0BF2EE7
:107E6000A2D0813461F49FD0082FAFD0023811F036
:107E7000013811F484E001C083E08DD089C08234E0
:107E800011F484E103C0853419F485E0A6D080C0E4
:107E9000853579F488D0E82EFF2485D0082F10E0AE
:107EA000102F00270E291F29000F111F8ED06801E7
:107EB0006FC0863521F484E090D080E0DECF843638
:107EC00009F040C070D06FD0082F6DD080E0C81688
:107ED00080E7D80618F4F601B7BEE895C0E0D1E017
:107EE00062D089930C17E1F7F0E0CF16F0E7DF06D8
:107EF00018F0F601B7BEE89568D007B600FCFDCFD4
:107F0000A601A0E0B1E02C9130E011968C91119780
:107F100090E0982F8827822B932B1296FA010C0160
:107F200087BEE89511244E5F5F4FF1E0A038BF0790
:107F300051F7F601A7BEE89507B600FCFDCF97BE46
:107F4000E89526C08437B1F42ED02DD0F82E2BD052
:107F50003CD0F601EF2C8F010F5F1F4F84911BD097
:107F6000EA94F801C1F70894C11CD11CFA94CF0C13
:107F7000D11C0EC0853739F428D08EE10CD085E9AC
:107F80000AD08FE07ACF813511F488E018D01DD067
:107F900080E101D065CF982F8091C00085FFFCCF94
:107FA0009093C60008958091C00087FFFCCF809118
:107FB000C00084FD01C0A8958091C6000895E0E648
:107FC000F0E098E1908380830895EDDF803219F02E
:107FD00088E0F5DFFFCF84E1DECF1F93182FE3DFCA
:107FE0001150E9F7F2DF1F91089580E0E8DFEE27F6
:047FF000FF270994CA
:027FFE00040479
:00000001FF
