:020000040000FA
:100000000C9458000C9480000C9480000C94800098
:100010000C9480000C9480000C9480000C94800060
:100020000C9480000C9480000C9480000C94800050
:100030000C9480000C9480000C9480000C94800040
:100040000C94AC030C9480000C947A030C9454032D
:100050000C9480000C9480000C9480000C94800020
:100060000C94F6030C94800000000000250028008A
:100070002B00040404040404040402020202020229
:10008000030303030303010204081020408001025C
:1000900004081020010204081020000000080002DB
:1000A0000100000304070000000000000000150527
:1000B00011241FBECFEFD8E0DEBFCDBF11E0A0E01E
:1000C000B1E0E8E5FCE002C005900D92A833B1076D
:1000D000D9F722E0A8E3B1E001C01D92A638B2072B
:1000E000E1F710E0C8E5D0E004C02197FE010E94CE
:1000F0002406C735D107C9F70E944E050C942A067D
:100100000C940000E091DB01F091DC01309729F0C4
:100110001092D6011092D50109940895CF93DF93E0
:10012000AC01E091D901F091DA013097F1F09091B2
:10013000D8018091D7019817C0F090E0292F30E0C6
:100140002617370754F4D901A85CBE4F240F351F7A
:10015000E90128812C939F5FF1CF1092D801609321
:10016000D701CB01DF91CF910994DF91CF91089511
:10017000AF92BF92CF92DF92EF92FF920F931F93B5
:10018000CF93DF936C017B018B01040F151FEB01F3
:100190005E01AE18BF08C017D10759F06991D601AA
:1001A000ED91FC910190F081E02DC6010995892B1C
:1001B00079F7C501DF91CF911F910F91FF90EF90DB
:1001C000DF90CF90BF90AF900895FC01538D448D88
:1001D000252F30E0842F90E0821B930B541710F0F2
:1001E000CF96089501970895FC01918D828D9817FF
:1001F00061F0A28DAE0FBF2FB11D5D968C91928DD7
:100200009F5F9F73928F90E008958FEF9FEF089507
:10021000FC01918D828D981731F0828DE80FF11DD0
:10022000858D90E008958FEF9FEF0895FC01918DEB
:10023000228D892F90E0805C9F4F821B91098F73E4
:10024000992708958DED91E00E94160121E0892BF8
:1002500009F420E0822F089580E090E0892B29F0B6
:100260000E94220181110C9400000895FC01A48DCC
:10027000A80FB92FB11DA35ABF4F2C91848D90E0C8
:1002800001968F739927848FA689B7892C93A089AB
:10029000B1898C91837080648C93938D848D981335
:1002A00006C00288F389E02D80818F7D80830895C8
:1002B000EF92FF920F931F93CF93DF93EC0181E0B6
:1002C000888F9B8D8C8D98131AC0E889F98980815D
:1002D00085FF15C09FB7F894EE89FF896083E88990
:1002E000F98980818370806480839FBF81E090E082
:1002F000DF91CF911F910F91FF90EF900895F62E0F
:100300000B8D10E00F5F1F4F0F731127E02E8C8DA8
:100310008E110CC00FB607FCFACFE889F9898081ED
:1003200085FFF5CFCE010E943601F1CFEB8DEC0FAA
:10033000FD2FF11DE35AFF4FF0829FB7F8940B8F0A
:10034000EA89FB8980818062CFCFCF93DF93EC0174
:10035000888D8823B9F0AA89BB89E889F9898C91AD
:1003600085FD03C0808186FD0DC00FB607FCF7CF69
:100370008C9185FFF2CF808185FFEDCFCE010E9469
:100380003601E9CFDF91CF91089590E0FC01E65668
:10039000FF4F2491FC01EA57FF4F3491FC01EE58C6
:1003A000FF4FE491EE23C9F0222339F0233001F10D
:1003B000A8F4213019F1223029F1F0E0EE0FFF1FEF
:1003C000E859FF4FA591B4918FB7F894EC91611162
:1003D00026C030953E233C938FBF08952730A9F067
:1003E0002830C9F0243049F7809180008F7D03C008
:1003F000809180008F7780938000DFCF84B58F77E6
:1004000084BDDBCF84B58F7DFBCF8091B0008F772B
:100410008093B000D2CF8091B0008F7DF9CF3E2B7A
:10042000DACF3FB7F8948091CD019091CE01A091A1
:10043000CF01B091D00126B5A89B05C02F3F19F080
:100440000196A11DB11D3FBFBA2FA92F982F882754
:10045000BC01CD01620F711D811D911D42E0660F2F
:10046000771F881F991F4A95D1F7089520917E0123
:10047000260F3327331F21323105ECF42091A201DE
:10048000FC0190E080E0243069F082E00895A091C2
:100490007E012191AC01425A5E4FA40FB52FB11DD0
:1004A0002C930196861798F380917E01680F6093D4
:1004B0007E0180E0089581E008951092A20181E01C
:1004C0008093A4011092A30161E082E10E94C50122
:1004D00061E083E10E94C501E9EBF0E080818E7F5D
:1004E000808380818D7F808388E48093B80085E459
:1004F0008093BC0008950895E091D8018091D701C0
:10050000E81730F4F0E0E85CFE4F808190E0089559
:100510008FEF9FEF08959091D8018091D7012FEF31
:100520003FEF981748F4E92FF0E0E85CFE4F208198
:1005300030E09F5F9093D801C90108958091D70161
:100540009091D801891B990B0895CF93DF93CB012C
:10055000EA01642F0E943602CE01DF91CF91089507
:10056000CF93DF9300D01F92CDB7DEB78DE08983A4
:100570008EEF8A8384E291E08B8343E050E0BE01FA
:100580006F5F7F4F8AE792E00E94A5020F900F9065
:100590000F90DF91CF910895CF93DF931F92CDB746
:1005A000DEB7698361E0CE0101960E94360281E0E8
:1005B00090E00F90DF91CF91089590E080E0089552
:1005C00042E050E066E271E08DED91E00C94B800FD
:1005D0008091D7019091D801891B990B18161906A3
:1005E00054F48AE792E00E948B02682F8DED91E02F
:1005F0000E945801EDCF0C94E002CF93DF9385ED7C
:100600008093BC0080915A0190915B01A0915C01A4
:10061000B0915D010796A11DB11D23E0B695A79588
:10062000979587952A95D1F72091BC0024FD03C0AA
:100630001092A20136C040915A0150915B01609125
:100640005C0170915D01452B462B472B69F30097A8
:10065000A105B10541F025E32A95F1F700000197C6
:10066000A109B109E1CF8091590191E0909358011E
:100670008823B9F0C091B800D091BA008091BC0035
:100680008A7B8093BC0060E082E10E94C50160E04B
:1006900083E10E94C5010E945D02D093BA00C0931D
:1006A000B800DF91CF9108951F920F920FB60F926D
:1006B00011242F933F934F935F936F937F938F9367
:1006C0009F93AF93BF93EF93FF938DED91E00E94C3
:1006D0003601FF91EF91BF91AF919F918F917F91E3
:1006E0006F915F914F913F912F910F900FBE0F909F
:1006F0001F9018951F920F920FB60F9211242F93EF
:100700008F939F93EF93FF93E091ED01F091EE01B2
:100710008081E091F301F091F40182FD1BC0908192
:100720008091F6018F5F8F732091F701821741F05E
:10073000E091F601F0E0E352FE4F958F8093F601D1
:10074000FF91EF919F918F912F910F900FBE0F907E
:100750001F9018958081F4CF1F920F920FB60F92C1
:1007600011242F933F938F939F93AF93BF938091C7
:10077000C9019091CA01A091CB01B091CC013091F7
:10078000C80123E0230F2D3758F50196A11DB11D97
:100790002093C8018093C9019093CA01A093CB0113
:1007A000B093CC018091CD019091CE01A091CF0169
:1007B000B091D0010196A11DB11D8093CD01909300
:1007C000CE01A093CF01B093D001BF91AF919F9183
:1007D0008F913F912F910F900FBE0F901F90189502
:1007E00026E8230F0296A11DB11DD2CF1F920F92B2
:1007F0000FB60F9211242F933F934F935F936F93F4
:100800007F938F939F93AF93BF93EF93FF938091C9
:10081000B900887F803609F44AC0F0F5883209F4BF
:10082000A7C018F5803109F49BC0B8F4882309F4F7
:10083000F9C0883009F494C0FF91EF91BF91AF9156
:100840009F918F917F916F915F914F913F912F91E8
:100850000F900FBE0F901F901895883109F488C033
:10086000803251F78093A10114C0803409F49DC0F7
:1008700040F48033B9F38833F9F68093A10185EC15
:10088000B0C0803509F485C0883509F496C0883435
:1008900099F60E94FD02D0CF883909F48CC038F552
:1008A000883729F050F4883611F0803729F683E034
:1008B0008093A2011092A00157C0883809F47BC030
:1008C000803919F0803809F0B7CF8091A0018032CB
:1008D00008F071C0E091A00181E08E0F8093A0012B
:1008E0008091BB00F0E0E058FE4F80833DC0803B2C
:1008F00039F0E0F4803A09F479C0883A09F09CCFE5
:1009000084E08093A20110927F0110927E01E09119
:10091000D301F091D401099580917E0181110FC01E
:1009200081E080937E0110925E0109C0803C09F451
:10093000A6CF883C09F4A3CF883B09F07DCFE09196
:100940007F0181E08E0F80937F01F0E0E25AFE4F3D
:1009500080818093BB0090917F0180917E0129C0AE
:100960008091C7018093BB0085EC8093BC0064CF6D
:100970009091C6018091C501981758F5E091C60184
:1009800081E08E0F8093C601F0E0EB55FE4F808131
:10099000E9CFE091C60181E08E0F8093C60180917E
:1009A000BB00F0E0EB55FE4F80839091C601809133
:1009B000C5019817C8F285E8D8CFE091C60181E05B
:1009C0008E0F8093C6018091BB00F0E0EB55FE4F87
:1009D00080838091A40181115CCF81E08093A30189
:1009E00084EA8093BC001092A20126CF85EC80930C
:1009F000BC001092A2018091A001803230F4E091FD
:100A0000A001F0E0E058FE4F10826091A00170E07C
:100A1000E091D101F091D20180E891E00995109226
:100A2000A0010ACF1092A10134CFEDEDF1E01382C5
:100A3000128288EE93E0A0E0B0E084839583A683E1
:100A4000B78324E031E03183208325EC30E0358723
:100A5000248724EC30E03787268720EC30E0318B88
:100A6000208B21EC30E0338B228B22EC30E0358B75
:100A7000248B26EC30E0378B268B118E128E138E52
:100A8000148EEAE7F2E01382128284839583A683B0
:100A9000B78386E191E0918380830895789484B54B
:100AA000826084BD84B5816084BD85B5826085BD6A
:100AB00085B5816085BD80916E00816080936E00F8
:100AC00010928100809181008260809381008091EA
:100AD000810081608093810080918000816080939B
:100AE00080008091B10084608093B1008091B0005B
:100AF00081608093B00080917A00846080937A0056
:100B000080917A00826080937A0080917A0081607F
:100B100080937A0080917A00806880937A001092A6
:100B2000C1001092D8011092D7011092D6011092F4
:100B3000D5010E945D0282E890E09093D4018093F9
:100B4000D3018EE890E09093D2018093D10180E1AF
:100B50008093BA0088EE92E09093DA018093D901F5
:100B600080EB92E09093DC018093DB01E091ED015A
:100B7000F091EE0182E08083E091E901F091EA01D9
:100B80001082E091EB01F091EC018FEC80831092E8
:100B9000F501E091F101F091F20186E08083E091AE
:100BA000EF01F091F001808180618083E091EF019D
:100BB000F091F001808188608083E091EF01F091F5
:100BC000F001808180688083E091EF01F091F00175
:100BD00080818F7D80834EE050E069E271E08DED91
:100BE00091E00E94B8000E94E002C0E0D0E00E94C4
:100BF00011024B015C0184E6C82ED12CE12CF12CB2
:100C00000E941102681979098A099B09683E73409C
:100C100081059105A8F321E0C21AD108E108F10885
:100C200088EE880E83E0981EA11CB11CC114D1046B
:100C3000E104F10429F72097D1F20E9422018823D0
:100C4000B1F20E940000D3CFEE0FFF1F0590F49188
:100C5000E02D0994F894FFCF000000005801B8007F
:100C6000E500A5011601F400080100000000CC0217
:100C7000A502DD027B029E028B027C0273000D0A3C
:100C8000004920616D2049324320536C6176650034
:107800000C94343C0C94513C0C94513C0C94513CE1
:107810000C94513C0C94513C0C94513C0C94513CB4
:107820000C94513C0C94513C0C94513C0C94513CA4
:107830000C94513C0C94513C0C94513C0C94513C94
:107840000C94513C0C94513C0C94513C0C94513C84
:107850000C94513C0C94513C0C94513C0C94513C74
:107860000C94513C0C94513C11241FBECFEFD8E036
:10787000DEBFCDBF11E0A0E0B1E0ECE9FFE702C060
:1078800005900D92A230B107D9F712E0A2E0B1E065
:1078900001C01D92AD30B107E1F70E942D3D0C945F
:1078A000CC3F0C94003C982F959595959595959582
:1078B000905D8F708A307CF0282F295A8091C0000B
:1078C00085FFFCCF9093C6008091C00085FFFCCF60
:1078D0002093C6000895282F205DF0CF982F809127
:1078E000C00085FFFCCF9093C6000895EF92FF92F1
:1078F0000F931F93EE24FF2487018091C00087FD22
:1079000017C00894E11CF11C011D111D81E4E8164B
:1079100082E4F8068FE0080780E0180770F3E09132
:107920000401F091050109958091C00087FFE9CF1E
:107930008091C6001F910F91FF90EF9008950E94D3
:10794000763C982F8091C00085FFFCCF9093C600B5
:1079500091362CF490330CF09053892F089597555D
:10796000892F08951F930E949F3C182F0E949F3CCF
:107970001295107F810F1F9108951F93182F882350
:1079800021F00E94763C1150E1F71F9108951F935A
:10799000182F0E94763C803249F0809103018F5F5E
:1079A000809303018530C1F01F9108958091C0003C
:1079B00085FFFCCF84E18093C6008091C00085FFE5
:1079C000FCCF1093C6008091C00085FFFCCF80E102
:1079D0008093C6001F910895E0910401F091050184
:1079E00009951F9108950E94763C803241F0809164
:1079F00003018F5F80930301853081F008958091AA
:107A0000C00085FFFCCF84E18093C6008091C00058
:107A100085FFFCCF80E18093C6000895E0910401CA
:107A2000F09105010995089540E951E08823A1F0FE
:107A30002D9A28EE33E0FA013197F1F721503040CA
:107A4000D1F72D9828EE33E0FA013197F1F7215064
:107A50003040D1F7815061F708953F924F925F9285
:107A60006F927F928F929F92AF92BF92CF92DF924E
:107A7000EF92FF920F931F93CF93DF93000080E16B
:107A80008093C4001092C50088E18093C10086E015
:107A90008093C2005098589A259A81E00E94143D24
:107AA00024E1F22E9EE1E92E85E9D82E0FE0C02ECA
:107AB00010E1B12EAA24A394B1E49B2EA6E58A2E50
:107AC000F2E57F2EE0E26E2E79E4572E63E5462E36
:107AD00050E5352E0E94763C8033B1F18133B9F107
:107AE000803409F46FC0813409F476C0823409F41B
:107AF00085C0853409F488C0803531F1823521F1A3
:107B0000813511F1853509F485C0863509F48DC0BC
:107B1000843609F496C0843709F403C1853709F423
:107B200072C1863709F466C0809103018F5F80932C
:107B30000301853079F6E0910401F0910501099582
:107B40000E94763C803351F60E94F33CC3CF0E94E2
:107B5000763C803249F78091C00085FFFCCFF092DF
:107B6000C6008091C00085FFFCCF9092C600809136
:107B7000C00085FFFCCF8092C6008091C00085FFC9
:107B8000FCCF7092C6008091C00085FFFCCF609250
:107B9000C6008091C00085FFFCCF5092C600809146
:107BA000C00085FFFCCF4092C6008091C00085FFD9
:107BB000FCCF3092C6008091C00085FFFCCFB09210
:107BC000C60088CF0E94763C863808F4BDCF0E945C
:107BD000763C0E94F33C7ECF0E94763C803809F4CC
:107BE0009CC0813809F40BC1823809F43CC1883942
:107BF00009F48FC080E00E94C73C6CCF84E10E94F2
:107C0000BD3C0E94F33C66CF85E00E94BD3C0E94D3
:107C1000F33C60CF0E94763C809306010E94763C44
:107C2000809307010E94F33C55CF0E94763C80333D
:107C300009F41DC183E00E94BD3C80E00E94C73C66
:107C400049CF0E94763C809309020E94763C809343
:107C5000080280910C028E7F80930C020E94763C79
:107C6000853409F415C18091080290910902892B8D
:107C700089F000E010E00E94763CF801E85FFE4FDA
:107C800080830F5F1F4F80910802909109020817AF
:107C9000190788F30E94763C803209F045CF809125
:107CA0000C0280FF01C16091060170910701660F0F
:107CB000771F7093070160930601A0910802B091AD
:107CC00009021097C9F0E8E0F1E09B01AD014E0F09
:107CD0005F1FF999FECF32BD21BD819180BDFA9A17
:107CE000F99A2F5F3F4FE417F50799F76A0F7B1F4B
:107CF00070930701609306018091C00085FFFCCF5F
:107D0000F092C6008091C00085FFFCCFB092C60003
:107D1000E1CE83E00E94C73CDDCE82E00E94C73CFA
:107D2000D9CE0E94763C809309020E94763C8093D3
:107D300008028091060190910701880F991F909386
:107D40000701809306010E94763C853409F4A6C0A1
:107D500080910C028E7F80930C020E94763C8032D0
:107D600009F0B8CE8091C00085FFFCCFF092C6002C
:107D7000609108027091090261157105B9F140E046
:107D800050E080910C02A82FA170B82FB27011C0E2
:107D9000BB2309F45CC0E0910601F0910701319624
:107DA000F0930701E09306014F5F5F4F46175707B7
:107DB000E8F4AA2369F3F999FECF209106013091E6
:107DC000070132BD21BDF89A90B58091C00085FFB2
:107DD000FCCF9093C6002F5F3F4F30930701209355
:107DE00006014F5F5F4F4617570718F38091C00099
:107DF00085FDE5CE8091C00085FFF8CFE0CE81E023
:107E00000E94C73C67CE0E94763C803209F08CCE3F
:107E10008091C00085FFFCCFF092C6008091C00029
:107E200085FFFCCFE092C6008091C00085FFFCCFAB
:107E3000D092C6008091C00085FFFCCFC092C600E2
:107E40008091C00085FFFCCFB092C60043CEE09188
:107E50000601F091070194918091C00085FFFCCF4D
:107E60009093C6009CCF80E10E94C73C33CE0E9415
:107E7000763C0E94763C182F0E94763C112309F430
:107E800083C0113009F484C08FE00E94C73C22CE29
:107E900080910C02816080930C02E5CE80910C02EF
:107EA000816080930C0259CF809107018823880F4D
:107EB000880B8A2180930B02809106019091070123
:107EC000880F991F90930701809306018091080203
:107ED00080FF09C080910802909109020196909359
:107EE000090280930802F894F999FECF1127E091D6
:107EF0000601F0910701C8E0D1E08091080290915D
:107F00000902103091F40091570001700130D9F34B
:107F100003E000935700E89500915700017001308D
:107F2000D9F301E100935700E89509901990009169
:107F3000570001700130D9F301E000935700E89534
:107F40001395103498F011270091570001700130FB
:107F5000D9F305E000935700E895009157000170B0
:107F60000130D9F301E100935700E895329602976A
:107F700009F0C7CF103011F00296E5CF112480919F
:107F8000C00085FFB9CEBCCE8EE10E94C73CA2CD19
:0E7F900085E90E94C73C9ECDF894FFCF80008B
:00000001FF
