:100000000C9458000C9480000C9480000C94800098
:100010000C9480000C9480000C9480000C94800060
:100020000C9480000C9480000C9480000C94800050
:100030000C9480000C9480000C9480000C94800040
:100040000C941B040C9480000C94E9030C94C303DF
:100050000C9480000C9480000C9480000C94800020
:100060000C9465040C94800000000000250028001A
:100070002B00040404040404040402020202020229
:10008000030303030303010204081020408001025C
:1000900004081020010204081020000000080002DB
:1000A00001000003040700000000000000008405B8
:1000B00011241FBECFEFD8E0DEBFCDBF11E0A0E01E
:1000C000B1E0EEE7FDE002C005900D92A034B1076B
:1000D000D9F722E0A0E4B1E001C01D92AE38B2072A
:1000E000E1F710E0C8E5D0E004C02197FE010E94CE
:1000F000B706C735D107C9F70E94BD050C94BD06E8
:100100000C940000E091E301F091E401309729F0B4
:100110001092DE011092DD0109940895CF93DF93D0
:10012000AC01E091E101F091E2013097F1F09091A2
:10013000E0018091DF019817C0F090E0292F30E0B6
:100140002617370754F4D901A05CBE4F240F351F82
:10015000E90128812C939F5FF1CF1092E001609319
:10016000DF01CB01DF91CF910994DF91CF91089509
:10017000AF92BF92CF92DF92EF92FF920F931F93B5
:10018000CF93DF936C017B018B01040F151FEB01F3
:100190005E01AE18BF08C017D10759F06991D601AA
:1001A000ED91FC910190F081E02DC6010995892B1C
:1001B00079F7C501DF91CF911F910F91FF90EF90DB
:1001C000DF90CF90BF90AF900895FC01538D448D88
:1001D000252F30E0842F90E0821B930B541710F0F2
:1001E000CF96089501970895FC01918D828D9817FF
:1001F00061F0A28DAE0FBF2FB11D5D968C91928DD7
:100200009F5F9F73928F90E008958FEF9FEF089507
:10021000FC01918D828D981731F0828DE80FF11DD0
:10022000858D90E008958FEF9FEF0895FC01918DEB
:10023000228D892F90E0805C9F4F821B91098F73E4
:100240009927089585EE91E00E94160121E0892BFF
:1002500009F420E0822F089580E090E0892B29F0B6
:100260000E94220181110C9400000895FC01A48DCC
:10027000A80FB92FB11DA35ABF4F2C91848D90E0C8
:1002800001968F739927848FA689B7892C93A089AB
:10029000B1898C91837080648C93938D848D981335
:1002A00006C00288F389E02D80818F7D80830895C8
:1002B000EF92FF920F931F93CF93DF93EC0181E0B6
:1002C000888F9B8D8C8D98131AC0E889F98980815D
:1002D00085FF15C09FB7F894EE89FF896083E88990
:1002E000F98980818370806480839FBF81E090E082
:1002F000DF91CF911F910F91FF90EF900895F62E0F
:100300000B8D10E00F5F1F4F0F731127E02E8C8DA8
:100310008E110CC00FB607FCFACFE889F9898081ED
:1003200085FFF5CFCE010E943601F1CFEB8DEC0FAA
:10033000FD2FF11DE35AFF4FF0829FB7F8940B8F0A
:10034000EA89FB8980818062CFCFCF93DF93EC0174
:10035000888D8823B9F0AA89BB89E889F9898C91AD
:1003600085FD03C0808186FD0DC00FB607FCF7CF69
:100370008C9185FFF2CF808185FFEDCFCE010E9469
:100380003601E9CFDF91CF91089590E0FC01E65668
:10039000FF4F2491FC01EA57FF4F3491FC01EE58C6
:1003A000FF4FE491EE23C9F0222339F0233001F10D
:1003B000A8F4213019F1223029F1F0E0EE0FFF1FEF
:1003C000E859FF4FA591B4918FB7F894EC91611162
:1003D00026C030953E233C938FBF08952730A9F067
:1003E0002830C9F0243049F7809180008F7D03C008
:1003F000809180008F7780938000DFCF84B58F77E6
:1004000084BDDBCF84B58F7DFBCF8091B0008F772B
:100410008093B000D2CF8091B0008F7DF9CF3E2B7A
:10042000DACF3FB7F8948091D5019091D601A09191
:10043000D701B091D80126B5A89B05C02F3F19F070
:100440000196A11DB11D3FBFBA2FA92F982F882754
:10045000BC01CD01620F711D811D911D42E0660F2F
:10046000771F881F991F4A95D1F70895209186011B
:10047000260F3327331F21323105ECF42091AA01D6
:10048000FC0190E080E0243069F082E00895A091C2
:1004900086012191AC014A595E4FA40FB52FB11DC1
:1004A0002C930196861798F380918601680F6093CC
:1004B000860180E0089581E008951092AA0181E00C
:1004C0008093AC011092AB0161E082E10E94C50112
:1004D00061E083E10E94C501E9EBF0E080818E7F5D
:1004E000808380818D7F808388E48093B80085E459
:1004F0008093BC0008950895E091E0018091DF01B0
:10050000E81730F4F0E0E05CFE4F808190E0089561
:100510008FEF9FEF08959091E0018091DF012FEF21
:100520003FEF981748F4E92FF0E0E05CFE4F2081A0
:1005300030E09F5F9093E001C90108958091DF0151
:100540009091E001891B990B0895CF93DF93CB0124
:10055000EA01642F0E943602CE01DF91CF91089507
:10056000CF93DF931F92CDB7DEB7698361E0CE01F1
:1005700001960E94360281E090E00F90DF91CF91CA
:10058000089590E080E00895FB0101900020E9F7D4
:100590003197AF01461B570BDC01ED91FC910280B6
:1005A000F381E02D099464E271E082E892E00C941A
:1005B000C402CF93DF9385ED8093BC0080916201EC
:1005C00090916301A0916401B09165010796A11D0E
:1005D000B11D23E0B695A795979587952A95D1F7F4
:1005E0002091BC0024FD03C01092AA0136C04091A6
:1005F0006201509163016091640170916501452B26
:10060000462B472B69F30097A105B10541F025E37F
:100610002A95F1F700000197A109B109E1CF809176
:10062000610191E0909360018823B9F0C091B80016
:10063000D091BA008091BC008A7B8093BC0060E0BE
:1006400082E10E94C50160E083E10E94C5010E9431
:100650005D02D093BA00C093B800DF91CF910895A6
:100660008F929F92AF92BF92CF92DF92EF92FF92C2
:100670000F931F93CF93DF93CDB7DEB7A1970FB63C
:10068000F894DEBF0FBECDBF8AE0882E912CA12C3E
:10069000B12C8091DF019091E001891B990B181614
:1006A00019060CF057C082E892E00E948B02F82EE7
:1006B00082E892E00E948B021F2D00E06801C82AA8
:1006C0000D2C000CEE08FF08F7FE2EC06DE285EE43
:1006D00091E00E94580122273327A9012C193D09D6
:1006E0004E095F0919A2CE0181967C01CA01B901A8
:1006F000A50194010E949506605DF70162937F0158
:10070000211531054105510589F7E114F10429F05E
:10071000B70185EE91E00E94C4026EE271E085EEC1
:1007200091E00E94C402B5CFA701960119A2CE01A3
:1007300081967C01CA01B901A50194010E94950628
:10074000605DF70162937F01211531054105510577
:1007500089F7DBCF6EE271E085EE91E00E94C40282
:10076000A1960FB6F894DEBF0FBECDBFDF91CF913B
:100770001F910F91FF90EF90DF90CF90BF90AF90BF
:100780009F908F9008951F920F920FB60F92112491
:100790002F933F934F935F936F937F938F939F9389
:1007A000AF93BF93EF93FF9385EE91E00E943601E4
:1007B000FF91EF91BF91AF919F918F917F916F9139
:1007C0005F914F913F912F910F900FBE0F901F900F
:1007D00018951F920F920FB60F9211242F938F939B
:1007E0009F93EF93FF93E091F501F091F6018081E3
:1007F000E091FB01F091FC0182FD1BC09081809192
:10080000FE018F5F8F732091FF01821741F0E0910D
:10081000FE01F0E0EB51FE4F958F8093FE01FF91BA
:10082000EF919F918F912F910F900FBE0F901F907E
:1008300018958081F4CF1F920F920FB60F9211245A
:100840002F933F938F939F93AF93BF938091D10149
:100850009091D201A091D301B091D4013091D001F7
:1008600023E0230F2D3758F50196A11DB11D2093CC
:10087000D0018093D1019093D201A093D301B09382
:10088000D4018091D5019091D601A091D701B0916A
:10089000D8010196A11DB11D8093D5019093D60179
:1008A000A093D701B093D801BF91AF919F918F9141
:1008B0003F912F910F900FBE0F901F90189526E833
:1008C000230F0296A11DB11DD2CF1F920F920FB61A
:1008D0000F9211242F933F934F935F936F937F93C6
:1008E0008F939F93AF93BF93EF93FF938091B90042
:1008F000887F803609F44AC0F0F5883209F4A7C031
:1009000018F5803109F49BC0B8F4882309F4F9C0C4
:10091000883009F494C0FF91EF91BF91AF919F91FE
:100920008F917F916F915F914F913F912F910F9098
:100930000FBE0F901F901895883109F488C080323F
:1009400051F78093A90114C0803409F49DC040F48C
:100950008033B9F38833F9F68093A90185ECB0C0F0
:10096000803509F485C0883509F496C0883499F635
:100970000E94D902D0CF883909F48CC038F5883765
:1009800029F050F4883611F0803729F683E08093FF
:10099000AA011092A80157C0883809F47BC0803999
:1009A00019F0803809F0B7CF8091A801803208F0A3
:1009B00071C0E091A80181E08E0F8093A801809121
:1009C000BB00F0E0E857FE4F80833DC0803B39F02C
:1009D000E0F4803A09F479C0883A09F09CCF84E0C9
:1009E0008093AA011092870110928601E091DB01A9
:1009F000F091DC0109958091860181110FC081E0A1
:100A0000809386011092660109C0803C09F4A6CF4C
:100A1000883C09F4A3CF883B09F07DCFE0918701A2
:100A200081E08E0F80938701F0E0EA59FE4F8081CC
:100A30008093BB00909187018091860129C08091AD
:100A4000CF018093BB0085EC8093BC0064CF909174
:100A5000CE018091CD01981758F5E091CE0181E04B
:100A60008E0F8093CE01F0E0E355FE4F8081E9CFF9
:100A7000E091CE0181E08E0F8093CE018091BB008A
:100A8000F0E0E355FE4F80839091CE018091CD013F
:100A90009817C8F285E8D8CFE091CE0181E08E0F9B
:100AA0008093CE018091BB00F0E0E355FE4F808340
:100AB0008091AC0181115CCF81E08093AB0184EA2D
:100AC0008093BC001092AA0126CF85EC8093BC00D5
:100AD0001092AA018091A801803230F4E091A8011F
:100AE000F0E0E857FE4F10826091A80170E0E091BD
:100AF000D901F091DA0188E891E009951092A801F6
:100B00000ACF1092A90134CFE5EEF1E013821282F0
:100B100088EE93E0A0E0B0E084839583A683B7835A
:100B200024E031E03183208325EC30E035872487D1
:100B300024EC30E03787268720EC30E0318B208BA7
:100B400021EC30E0338B228B22EC30E0358B248B90
:100B500026EC30E0378B268B118E128E138E148E7E
:100B6000E2E8F2E01382128284839583A683B7833E
:100B700086E191E0918380830895789484B58260C2
:100B800084BD84B5816084BD85B5826085BD85B531
:100B9000816085BD80916E00816080936E001092AF
:100BA000810080918100826080938100809181002A
:100BB00081608093810080918000816080938000BB
:100BC0008091B10084608093B1008091B000816019
:100BD0008093B00080917A00846080937A00809145
:100BE0007A00826080937A0080917A00816080939D
:100BF0007A0080917A00806880937A001092C10018
:100C00001092E0011092DF011092DE011092DD01DE
:100C10000E945D0282E890E09093DC018093DB010A
:100C20008EE890E09093DA018093D90180E180937F
:100C3000BA0080E393E09093E2018093E10183EDB9
:100C400092E09093E4018093E301E091F501F0914B
:100C5000F60182E08083E091F101F091F2011082CF
:100C6000E091F301F091F4018FEC80831092FD018B
:100C7000E091F901F091FA0186E08083E091F701BB
:100C8000F091F801808180618083E091F701F0911B
:100C9000F801808188608083E091F701F091F8018C
:100CA000808180688083E091F701F091F801808174
:100CB0008F7D808361E371E085EE91E00E94C40244
:100CC0006EE271E085EE91E00E94C402C0E0D0E0E7
:100CD0000E9411024B015C0184E6C82ED12CE12C4C
:100CE000F12C0E941102681979098A099B09683E52
:100CF000734081059105A8F321E0C21AD108E108EB
:100D0000F10888EE880E83E0981EA11CB11CC11466
:100D1000D104E104F10429F72097D1F20E942201C5
:100D20008823B1F20E940000D3CFA1E21A2EAA1BA1
:100D3000BB1BFD010DC0AA1FBB1FEE1FFF1FA2178B
:100D4000B307E407F50720F0A21BB30BE40BF50B88
:100D5000661F771F881F991F1A9469F76095709511
:100D6000809590959B01AC01BD01CF010895EE0FD8
:0E0D7000FF1F0590F491E02D0994F894FFCF39
:100D7E00000000005801B800E500A5011601F400BE
:100D8E00080100000000B002A502C1027B029E0213
:100D9E008B027C024869204D6173746572000D0AE6
:100DAE00004920616D2049324320536C6176650005
:00000001FF
